{
  "transactions": [
    {
      "hash": "0x45288ef552cf3d926d44c6eacdebdaab2fe8b7fcef736af5ea0d695d0d5f905f",
      "transactionType": "CALL",
      "contractName": null,
      "contractAddress": "0x5fbdb2315678afecb367f032d93f642f64180aa3",
      "function": "createShipment(address,string,string,string,bool)",
      "arguments": [
        "0x15d34AAf54267DB7D7c367839AAf71A00a2C6A65",
        "Pollo congelado IQF - Lote PC-2024-311 - 800 kg",
        "Bogota",
        "Cali",
        "true"
      ],
      "transaction": {
        "from": "0x70997970c51812dc3a010c7d01b50e0d17dc79c8",
        "to": "0x5fbdb2315678afecb367f032d93f642f64180aa3",
        "gas": "0x8175c",
        "value": "0x0",
        "input": "0x475b6f9800000000000000000000000015d34aaf54267db7d7c367839aaf71a00a2c6a6500000000000000000000000000000000000000000000000000000000000000a0000000000000000000000000000000000000000000000000000000000000010000000000000000000000000000000000000000000000000000000000000001400000000000000000000000000000000000000000000000000000000000000001000000000000000000000000000000000000000000000000000000000000002f506f6c6c6f20636f6e67656c61646f20495146202d204c6f74652050432d323032342d333131202d20383030206b6700000000000000000000000000000000000000000000000000000000000000000000000000000000000000000000000006426f676f74610000000000000000000000000000000000000000000000000000000000000000000000000000000000000000000000000000000000000000000443616c6900000000000000000000000000000000000000000000000000000000",
        "nonce": "0x2",
        "chainId": "0x7a69"
      },
      "additionalContracts": [],
      "isFixedGasLimit": false
    },
    {
      "hash": "0x6c8c8e9e686ff53b91c47a4703d5b3f2d91d7463a8d02e8a1f9cb4805bd9fe75",
      "transactionType": "CALL",
      "contractName": null,
      "contractAddress": "0x5fbdb2315678afecb367f032d93f642f64180aa3",
      "function": "recordCheckpoint(uint256,string,uint8,string,int256)",
      "arguments": [
        "2",
        "Frigorificos Del Valle - Bogota, Zona Industrial Montevideo",
        "0",
        "Lote: PC-2024-311 | 800 kg pollo IQF | Temp camara: -18C | Embalaje: 40 cajas OK | Precinto: FR-001 | Resp: H. Sanchez",
        "20"
      ],
      "transaction": {
        "from": "0x70997970c51812dc3a010c7d01b50e0d17dc79c8",
        "to": "0x5fbdb2315678afecb367f032d93f642f64180aa3",
        "gas": "0x7f934",
        "value": "0x0",
        "input": "0x0a7a0b69000000000000000000000000000000000000000000000000000000000000000200000000000000000000000000000000000000000000000000000000000000a0000000000000000000000000000000000000000000000000000000000000000000000000000000000000000000000000000000000000000000000000000001000000000000000000000000000000000000000000000000000000000000000014000000000000000000000000000000000000000000000000000000000000003b467269676f72696669636f732044656c2056616c6c65202d20426f676f74612c205a6f6e6120496e647573747269616c204d6f6e7465766964656f000000000000000000000000000000000000000000000000000000000000000000000000764c6f74653a2050432d323032342d333131207c20383030206b6720706f6c6c6f20495146207c2054656d702063616d6172613a202d313843207c20456d62616c616a653a2034302063616a6173204f4b207c2050726563696e746f3a2046522d303031207c20526573703a20482e2053616e6368657a00000000000000000000",
        "nonce": "0x3",
        "chainId": "0x7a69"
      },
      "additionalContracts": [],
      "isFixedGasLimit": false
    },
    {
      "hash": "0xb00dfed4971ebdb69dcd4d0e0e9e9fb8599dfae2e8c6b198fa709c579f620016",
      "transactionType": "CALL",
      "contractName": null,
      "contractAddress": "0x5fbdb2315678afecb367f032d93f642f64180aa3",
      "function": "updateShipmentStatus(uint256,uint8)",
      "arguments": [
        "2",
        "1"
      ],
      "transaction": {
        "from": "0x90f79bf6eb2c4f870365e785982e1f101e93b906",
        "to": "0x5fbdb2315678afecb367f032d93f642f64180aa3",
        "gas": "0x226e6",
        "value": "0x0",
        "input": "0x7defa92000000000000000000000000000000000000000000000000000000000000000020000000000000000000000000000000000000000000000000000000000000001",
        "nonce": "0x2",
        "chainId": "0x7a69"
      },
      "additionalContracts": [],
      "isFixedGasLimit": false
    },
    {
      "hash": "0xc48ed4aa4013b85bbba721e185f86aea674dab411969094d67c75662f5445311",
      "transactionType": "CALL",
      "contractName": null,
      "contractAddress": "0x5fbdb2315678afecb367f032d93f642f64180aa3",
      "function": "recordCheckpoint(uint256,string,uint8,string,int256)",
      "arguments": [
        "2",
        "Hub Bogota Puente Aranda - Anden de Recepcion",
        "1",
        "Llegada: 09:20 | 40/40 cajas integras | Precinto FR-001: OK | Temp bodega: -18C | Asignado: Camion TRK-551 | Resp: P. Morales",
        "22"
      ],
      "transaction": {
        "from": "0x90f79bf6eb2c4f870365e785982e1f101e93b906",
        "to": "0x5fbdb2315678afecb367f032d93f642f64180aa3",
        "gas": "0x807ec",
        "value": "0x0",
        "input": "0x0a7a0b69000000000000000000000000000000000000000000000000000000000000000200000000000000000000000000000000000000000000000000000000000000a0000000000000000000000000000000000000000000000000000000000000000100000000000000000000000000000000000000000000000000000000000001000000000000000000000000000000000000000000000000000000000000000016000000000000000000000000000000000000000000000000000000000000002d48756220426f676f7461205075656e7465204172616e6461202d20416e64656e20646520526563657063696f6e00000000000000000000000000000000000000000000000000000000000000000000000000000000000000000000000000007d4c6c65676164613a2030393a3230207c2034302f34302063616a617320696e746567726173207c2050726563696e746f2046522d3030313a204f4b207c2054656d7020626f646567613a202d313843207c20417369676e61646f3a2043616d696f6e2054524b2d353531207c20526573703a20502e204d6f72616c6573000000",
        "nonce": "0x3",
        "chainId": "0x7a69"
      },
      "additionalContracts": [],
      "isFixedGasLimit": false
    },
    {
      "hash": "0xbdc24b7b6ded302e2f70fa87f24dec0d91c688904b4dc5f6cb5493e5c7b7197f",
      "transactionType": "CALL",
      "contractName": null,
      "contractAddress": "0x5fbdb2315678afecb367f032d93f642f64180aa3",
      "function": "updateShipmentStatus(uint256,uint8)",
      "arguments": [
        "2",
        "1"
      ],
      "transaction": {
        "from": "0x3c44cdddb6a900fa2b585dd299e03d12fa4293bc",
        "to": "0x5fbdb2315678afecb367f032d93f642f64180aa3",
        "gas": "0x1bb50",
        "value": "0x0",
        "input": "0x7defa92000000000000000000000000000000000000000000000000000000000000000020000000000000000000000000000000000000000000000000000000000000001",
        "nonce": "0x6",
        "chainId": "0x7a69"
      },
      "additionalContracts": [],
      "isFixedGasLimit": false
    },
    {
      "hash": "0x153f17da33cf59adc01a70a71f84db8b5d83978dc2392d9c635833412dc0c728",
      "transactionType": "CALL",
      "contractName": null,
      "contractAddress": "0x5fbdb2315678afecb367f032d93f642f64180aa3",
      "function": "recordCheckpoint(uint256,string,uint8,string,int256)",
      "arguments": [
        "2",
        "Autopista Bogota-Cali, km 198 - Alto de La Linea",
        "2",
        "Hora: 13:45 | Placa: TRK-551 | Conductor: M. Lopez | Precinto FR-001: OK | Temp exterior: 15C | Temp carga: -17C",
        "25"
      ],
      "transaction": {
        "from": "0x3c44cdddb6a900fa2b585dd299e03d12fa4293bc",
        "to": "0x5fbdb2315678afecb367f032d93f642f64180aa3",
        "gas": "0x80746",
        "value": "0x0",
        "input": "0x0a7a0b69000000000000000000000000000000000000000000000000000000000000000200000000000000000000000000000000000000000000000000000000000000a000000000000000000000000000000000000000000000000000000000000000020000000000000000000000000000000000000000000000000000000000000100000000000000000000000000000000000000000000000000000000000000001900000000000000000000000000000000000000000000000000000000000000304175746f706973746120426f676f74612d43616c692c206b6d20313938202d20416c746f206465204c61204c696e6561000000000000000000000000000000000000000000000000000000000000000000000000000000000000000000000070486f72613a2031333a3435207c20506c6163613a2054524b2d353531207c20436f6e647563746f723a204d2e204c6f70657a207c2050726563696e746f2046522d3030313a204f4b207c2054656d70206578746572696f723a20313543207c2054656d702063617267613a202d31374300000000000000000000000000000000",
        "nonce": "0x7",
        "chainId": "0x7a69"
      },
      "additionalContracts": [],
      "isFixedGasLimit": false
    },
    {
      "hash": "0x23f783a8eb88c988e10c5492631e5c1f4584d160bf0af174874a8016a0e5dce7",
      "transactionType": "CALL",
      "contractName": null,
      "contractAddress": "0x5fbdb2315678afecb367f032d93f642f64180aa3",
      "function": "updateShipmentStatus(uint256,uint8)",
      "arguments": [
        "2",
        "2"
      ],
      "transaction": {
        "from": "0x14dc79964da2c08b23698b3d3cc7ca32193d9955",
        "to": "0x5fbdb2315678afecb367f032d93f642f64180aa3",
        "gas": "0x1caa2",
        "value": "0x0",
        "input": "0x7defa92000000000000000000000000000000000000000000000000000000000000000020000000000000000000000000000000000000000000000000000000000000002",
        "nonce": "0x2",
        "chainId": "0x7a69"
      },
      "additionalContracts": [],
      "isFixedGasLimit": false
    },
    {
      "hash": "0x327524398b589ad148edd7e296a67af01ac0ea71118e49dad74a6a63bc95a1fd",
      "transactionType": "CALL",
      "contractName": null,
      "contractAddress": "0x5fbdb2315678afecb367f032d93f642f64180aa3",
      "function": "recordCheckpoint(uint256,string,uint8,string,int256)",
      "arguments": [
        "2",
        "Hub Cali Acopi - Recepcion Frigorifico",
        "1",
        "Llegada: 17:30 | 40/40 cajas OK | Precinto FR-001: integro | Temp camara Acopi: -19C | Peso verificado: 800 kg | Resp: C. Valencia",
        "21"
      ],
      "transaction": {
        "from": "0x14dc79964da2c08b23698b3d3cc7ca32193d9955",
        "to": "0x5fbdb2315678afecb367f032d93f642f64180aa3",
        "gas": "0x88038",
        "value": "0x0",
        "input": "0x0a7a0b69000000000000000000000000000000000000000000000000000000000000000200000000000000000000000000000000000000000000000000000000000000a000000000000000000000000000000000000000000000000000000000000000010000000000000000000000000000000000000000000000000000000000000100000000000000000000000000000000000000000000000000000000000000001500000000000000000000000000000000000000000000000000000000000000264875622043616c692041636f7069202d20526563657063696f6e20467269676f72696669636f000000000000000000000000000000000000000000000000000000000000000000000000000000000000000000000000000000000000000000824c6c65676164613a2031373a3330207c2034302f34302063616a6173204f4b207c2050726563696e746f2046522d3030313a20696e746567726f207c2054656d702063616d6172612041636f70693a202d313943207c205065736f207665726966696361646f3a20383030206b67207c20526573703a20432e2056616c656e636961000000000000000000000000000000000000000000000000000000000000",
        "nonce": "0x3",
        "chainId": "0x7a69"
      },
      "additionalContracts": [],
      "isFixedGasLimit": false
    },
    {
      "hash": "0xf4cefbeabe3a337a266940696ac65bad3c985af1302bf68cdae85310af404f42",
      "transactionType": "CALL",
      "contractName": null,
      "contractAddress": "0x5fbdb2315678afecb367f032d93f642f64180aa3",
      "function": "recordCheckpoint(uint256,string,uint8,string,int256)",
      "arguments": [
        "2",
        "Hub Cali Acopi - Bahia de Despacho",
        "2",
        "Salida: 07:15 | Veh: VAN-FRIO-22 | Conductor: R. Castillo | Precinto nuevo: FR-002 | 40 cajas | ETA Supermercado: 09:00",
        "24"
      ],
      "transaction": {
        "from": "0x3c44cdddb6a900fa2b585dd299e03d12fa4293bc",
        "to": "0x5fbdb2315678afecb367f032d93f642f64180aa3",
        "gas": "0x806d2",
        "value": "0x0",
        "input": "0x0a7a0b69000000000000000000000000000000000000000000000000000000000000000200000000000000000000000000000000000000000000000000000000000000a000000000000000000000000000000000000000000000000000000000000000020000000000000000000000000000000000000000000000000000000000000100000000000000000000000000000000000000000000000000000000000000001800000000000000000000000000000000000000000000000000000000000000224875622043616c692041636f7069202d20426168696120646520446573706163686f000000000000000000000000000000000000000000000000000000000000000000000000000000000000000000000000000000000000000000000000007753616c6964613a2030373a3135207c205665683a2056414e2d4652494f2d3232207c20436f6e647563746f723a20522e2043617374696c6c6f207c2050726563696e746f206e7565766f3a2046522d303032207c2034302063616a6173207c204554412053757065726d65726361646f3a2030393a3030000000000000000000",
        "nonce": "0x8",
        "chainId": "0x7a69"
      },
      "additionalContracts": [],
      "isFixedGasLimit": false
    },
    {
      "hash": "0x07e92a18771f0b09da5ba76c29fe31aef2ecf0dcd0ead972c7a5c9d377f1501b",
      "transactionType": "CALL",
      "contractName": null,
      "contractAddress": "0x5fbdb2315678afecb367f032d93f642f64180aa3",
      "function": "updateShipmentStatus(uint256,uint8)",
      "arguments": [
        "2",
        "3"
      ],
      "transaction": {
        "from": "0x3c44cdddb6a900fa2b585dd299e03d12fa4293bc",
        "to": "0x5fbdb2315678afecb367f032d93f642f64180aa3",
        "gas": "0xd5e5",
        "value": "0x0",
        "input": "0x7defa92000000000000000000000000000000000000000000000000000000000000000020000000000000000000000000000000000000000000000000000000000000003",
        "nonce": "0x9",
        "chainId": "0x7a69"
      },
      "additionalContracts": [],
      "isFixedGasLimit": false
    },
    {
      "hash": "0xf267bd4ca12581e9645708ec33578c1fde9b30ec272edb038237db68d5ce3880",
      "transactionType": "CALL",
      "contractName": null,
      "contractAddress": "0x5fbdb2315678afecb367f032d93f642f64180aa3",
      "function": "recordCheckpoint(uint256,string,uint8,string,int256)",
      "arguments": [
        "2",
        "Supermercado La 14 Cali - Recepcion Carnes y Congelados, Av. 6N #28-00",
        "3",
        "Recibe: Jefe bodega J. Restrepo | 40/40 cajas OK | Precinto FR-002: integro | Temp recepcion: -17C | Acta: REC-CON-2024-089",
        "23"
      ],
      "transaction": {
        "from": "0x3c44cdddb6a900fa2b585dd299e03d12fa4293bc",
        "to": "0x5fbdb2315678afecb367f032d93f642f64180aa3",
        "gas": "0x881e8",
        "value": "0x0",
        "input": "0x0a7a0b69000000000000000000000000000000000000000000000000000000000000000200000000000000000000000000000000000000000000000000000000000000a0000000000000000000000000000000000000000000000000000000000000000300000000000000000000000000000000000000000000000000000000000001200000000000000000000000000000000000000000000000000000000000000017000000000000000000000000000000000000000000000000000000000000004653757065726d65726361646f204c612031342043616c69202d20526563657063696f6e204361726e6573207920436f6e67656c61646f732c2041762e20364e202332382d30300000000000000000000000000000000000000000000000000000000000000000000000000000000000000000000000000000000000000000007b5265636962653a204a65666520626f64656761204a2e20526573747265706f207c2034302f34302063616a6173204f4b207c2050726563696e746f2046522d3030323a20696e746567726f207c2054656d7020726563657063696f6e3a202d313743207c20416374613a205245432d434f4e2d323032342d3038390000000000",
        "nonce": "0xa",
        "chainId": "0x7a69"
      },
      "additionalContracts": [],
      "isFixedGasLimit": false
    }
  ],
  "receipts": [
    {
      "status": "0x1",
      "cumulativeGasUsed": "0x58851",
      "logs": [
        {
          "address": "0x5fbdb2315678afecb367f032d93f642f64180aa3",
          "topics": [
            "0x8fb6b855d6cbdf201f2fcaadbf8c38d36168ff7d2ca865cb2599abcd5a060e8f",
            "0x0000000000000000000000000000000000000000000000000000000000000002",
            "0x00000000000000000000000070997970c51812dc3a010c7d01b50e0d17dc79c8",
            "0x00000000000000000000000015d34aaf54267db7d7c367839aaf71a00a2c6a65"
          ],
          "data": "0x0000000000000000000000000000000000000000000000000000000000000020000000000000000000000000000000000000000000000000000000000000002f506f6c6c6f20636f6e67656c61646f20495146202d204c6f74652050432d323032342d333131202d20383030206b670000000000000000000000000000000000",
          "blockHash": "0x08a10cd5b911516b501007027352a83100d422a9dc88e0f9ed9f9b79e67371af",
          "blockNumber": "0x14",
          "blockTimestamp": "0x69c128ea",
          "transactionHash": "0x45288ef552cf3d926d44c6eacdebdaab2fe8b7fcef736af5ea0d695d0d5f905f",
          "transactionIndex": "0x0",
          "logIndex": "0x0",
          "removed": false
        }
      ],
      "logsBloom": "0x04000000040000000002000000000000000000000000000000000000000000000000000000000000000000000000000000000000000000000000000000000000000000000000000000000000000000000000000000000000000000000000000000000840000000000000000000000000000000000000000000000000000000000000000000000000000000000000000000000200000000000000000300000000000000000000000000000100000000000000000000000000000000000000000000000040000000000000000040000000000000000000000000000000000004000000000000000000000000000000000001004000008000000000000000000000",
      "type": "0x2",
      "transactionHash": "0x45288ef552cf3d926d44c6eacdebdaab2fe8b7fcef736af5ea0d695d0d5f905f",
      "transactionIndex": "0x0",
      "blockHash": "0x08a10cd5b911516b501007027352a83100d422a9dc88e0f9ed9f9b79e67371af",
      "blockNumber": "0x14",
      "gasUsed": "0x58851",
      "effectiveGasPrice": "0x506613b",
      "blobGasPrice": "0x1",
      "from": "0x70997970c51812dc3a010c7d01b50e0d17dc79c8",
      "to": "0x5fbdb2315678afecb367f032d93f642f64180aa3",
      "contractAddress": null
    },
    {
      "status": "0x1",
      "cumulativeGasUsed": "0x5c5cc",
      "logs": [
        {
          "address": "0x5fbdb2315678afecb367f032d93f642f64180aa3",
          "topics": [
            "0x529e5c9e24a307575814835cf69244181f51bc2ae08b95b8c8459d652a7ee9cf",
            "0x0000000000000000000000000000000000000000000000000000000000000008",
            "0x0000000000000000000000000000000000000000000000000000000000000002"
          ],
          "data": "0x000000000000000000000000000000000000000000000000000000000000000000000000000000000000000070997970c51812dc3a010c7d01b50e0d17dc79c8",
          "blockHash": "0x383184c3629adf4e314839a00b6cd72cfb05b73cc9999160d5bd7b2d9949d920",
          "blockNumber": "0x15",
          "blockTimestamp": "0x69c128ea",
          "transactionHash": "0x6c8c8e9e686ff53b91c47a4703d5b3f2d91d7463a8d02e8a1f9cb4805bd9fe75",
          "transactionIndex": "0x0",
          "logIndex": "0x0",
          "removed": false
        }
      ],
      "logsBloom": "0x04000000000000000000000100000000000100000000000000000000000000000000000000000000000000000000000000000000000080000000000000000000000000000000000000000000000000000000200000000000000000000000000000000040000000000000000000000000000000000000000000000000000000000080000000000000000000000000000000000000000000000000000200000000000000000000000000000100000000000000000000000000000000000000000040000040000000000000000000000000000000000000000000000000000000000000000000000000000000000000000000000000008000000000000000000000",
      "type": "0x2",
      "transactionHash": "0x6c8c8e9e686ff53b91c47a4703d5b3f2d91d7463a8d02e8a1f9cb4805bd9fe75",
      "transactionIndex": "0x0",
      "blockHash": "0x383184c3629adf4e314839a00b6cd72cfb05b73cc9999160d5bd7b2d9949d920",
      "blockNumber": "0x15",
      "gasUsed": "0x5c5cc",
      "effectiveGasPrice": "0x4697817",
      "blobGasPrice": "0x1",
      "from": "0x70997970c51812dc3a010c7d01b50e0d17dc79c8",
      "to": "0x5fbdb2315678afecb367f032d93f642f64180aa3",
      "contractAddress": null
    },
    {
      "status": "0x1",
      "cumulativeGasUsed": "0x18ed8",
      "logs": [
        {
          "address": "0x5fbdb2315678afecb367f032d93f642f64180aa3",
          "topics": [
            "0x7c1c93f72f29b8a1fc6fc85eed990d133b1ffac80c962b521abb12f38f2ff9af",
            "0x0000000000000000000000000000000000000000000000000000000000000002"
          ],
          "data": "0x0000000000000000000000000000000000000000000000000000000000000001",
          "blockHash": "0x0d050029715ea47e7f85fc2dc67610084f08cac572d6f8edfd87c84b57499c2a",
          "blockNumber": "0x16",
          "blockTimestamp": "0x69c128ea",
          "transactionHash": "0xb00dfed4971ebdb69dcd4d0e0e9e9fb8599dfae2e8c6b198fa709c579f620016",
          "transactionIndex": "0x0",
          "logIndex": "0x0",
          "removed": false
        }
      ],
      "logsBloom": "0x04000000000000000000000000000080000000000000000000000000000000000000000000000000000000000000000000000000000000000000000000000000000000000000000000000000000000000000000000000000000000000000000000000040000000000000000000000000000000000000000000000000000000000000000000000000000000000000000000000000000000000000000200000000000000000000000000000100000000000000000000000000000000000000000000000040000000000000000800000000000000000000000000000000000000000000000000000000000000000000000000000000008008000000000000000000",
      "type": "0x2",
      "transactionHash": "0xb00dfed4971ebdb69dcd4d0e0e9e9fb8599dfae2e8c6b198fa709c579f620016",
      "transactionIndex": "0x0",
      "blockHash": "0x0d050029715ea47e7f85fc2dc67610084f08cac572d6f8edfd87c84b57499c2a",
      "blockNumber": "0x16",
      "gasUsed": "0x18ed8",
      "effectiveGasPrice": "0x3dfd8a5",
      "blobGasPrice": "0x1",
      "from": "0x90f79bf6eb2c4f870365e785982e1f101e93b906",
      "to": "0x5fbdb2315678afecb367f032d93f642f64180aa3",
      "contractAddress": null
    },
    {
      "status": "0x1",
      "cumulativeGasUsed": "0x5d074",
      "logs": [
        {
          "address": "0x5fbdb2315678afecb367f032d93f642f64180aa3",
          "topics": [
            "0x529e5c9e24a307575814835cf69244181f51bc2ae08b95b8c8459d652a7ee9cf",
            "0x0000000000000000000000000000000000000000000000000000000000000009",
            "0x0000000000000000000000000000000000000000000000000000000000000002"
          ],
          "data": "0x000000000000000000000000000000000000000000000000000000000000000100000000000000000000000090f79bf6eb2c4f870365e785982e1f101e93b906",
          "blockHash": "0x9e91a562867fe9d557bf3d7c00cc1b176f600a99ccac0a23ab4c6524c483a606",
          "blockNumber": "0x17",
          "blockTimestamp": "0x69c128ea",
          "transactionHash": "0xc48ed4aa4013b85bbba721e185f86aea674dab411969094d67c75662f5445311",
          "transactionIndex": "0x0",
          "logIndex": "0x0",
          "removed": false
        }
      ],
      "logsBloom": "0x04000000000000000000000100000000000100000000000000000000000000000000000000000000000000000000000000000000000000000000000000200000000000000000000000000000000000000000200000000000000000000000000000000040000000000000000000000000000000000000000000000000000000000000000000000000000000000000000000001000000000000000000200000000000000000000000000000100000000000000000000000000000000000000000000000040000000000000000000000000000000000000000000000000000000000000000000000000000000000000000000000000008000000000000000800000",
      "type": "0x2",
      "transactionHash": "0xc48ed4aa4013b85bbba721e185f86aea674dab411969094d67c75662f5445311",
      "transactionIndex": "0x0",
      "blockHash": "0x9e91a562867fe9d557bf3d7c00cc1b176f600a99ccac0a23ab4c6524c483a606",
      "blockNumber": "0x17",
      "gasUsed": "0x5d074",
      "effectiveGasPrice": "0x364b59d",
      "blobGasPrice": "0x1",
      "from": "0x90f79bf6eb2c4f870365e785982e1f101e93b906",
      "to": "0x5fbdb2315678afecb367f032d93f642f64180aa3",
      "contractAddress": null
    },
    {
      "status": "0x1",
      "cumulativeGasUsed": "0x140f4",
      "logs": [
        {
          "address": "0x5fbdb2315678afecb367f032d93f642f64180aa3",
          "topics": [
            "0x7c1c93f72f29b8a1fc6fc85eed990d133b1ffac80c962b521abb12f38f2ff9af",
            "0x0000000000000000000000000000000000000000000000000000000000000002"
          ],
          "data": "0x0000000000000000000000000000000000000000000000000000000000000001",
          "blockHash": "0xe4dfba183eea0a4e885d4eb22cf12eef5af7595af0cdfbe097b1f7cbb50f9e57",
          "blockNumber": "0x18",
          "blockTimestamp": "0x69c128ea",
          "transactionHash": "0xbdc24b7b6ded302e2f70fa87f24dec0d91c688904b4dc5f6cb5493e5c7b7197f",
          "transactionIndex": "0x0",
          "logIndex": "0x0",
          "removed": false
        }
      ],
      "logsBloom": "0x04000000000000000000000000000080000000000000000000000000000000000000000000000000000000000000000000000000000000000000000000000000000000000000000000000000000000000000000000000000000000000000000000000040000000000000000000000000000000000000000000000000000000000000000000000000000000000000000000000000000000000000000200000000000000000000000000000100000000000000000000000000000000000000000000000040000000000000000800000000000000000000000000000000000000000000000000000000000000000000000000000000008008000000000000000000",
      "type": "0x2",
      "transactionHash": "0xbdc24b7b6ded302e2f70fa87f24dec0d91c688904b4dc5f6cb5493e5c7b7197f",
      "transactionIndex": "0x0",
      "blockHash": "0xe4dfba183eea0a4e885d4eb22cf12eef5af7595af0cdfbe097b1f7cbb50f9e57",
      "blockNumber": "0x18",
      "gasUsed": "0x140f4",
      "effectiveGasPrice": "0x2fae115",
      "blobGasPrice": "0x1",
      "from": "0x3c44cdddb6a900fa2b585dd299e03d12fa4293bc",
      "to": "0x5fbdb2315678afecb367f032d93f642f64180aa3",
      "contractAddress": null
    },
    {
      "status": "0x1",
      "cumulativeGasUsed": "0x5cffc",
      "logs": [
        {
          "address": "0x5fbdb2315678afecb367f032d93f642f64180aa3",
          "topics": [
            "0x529e5c9e24a307575814835cf69244181f51bc2ae08b95b8c8459d652a7ee9cf",
            "0x000000000000000000000000000000000000000000000000000000000000000a",
            "0x0000000000000000000000000000000000000000000000000000000000000002"
          ],
          "data": "0x00000000000000000000000000000000000000000000000000000000000000020000000000000000000000003c44cdddb6a900fa2b585dd299e03d12fa4293bc",
          "blockHash": "0xb5648c06f69f81001d52e4a7f4b8ff096f12c8410583ab03bf098963b97cc40a",
          "blockNumber": "0x19",
          "blockTimestamp": "0x69c128ea",
          "transactionHash": "0x153f17da33cf59adc01a70a71f84db8b5d83978dc2392d9c635833412dc0c728",
          "transactionIndex": "0x0",
          "logIndex": "0x0",
          "removed": false
        }
      ],
      "logsBloom": "0x04000000000000000000000100000000000100000000000000000000000000000000000000000000000000000000000000000000040000000020000000000000000000000000000000000000000000000000200000000000000000000000000000000040000000000000000000000000000000000000000000000000000000000000000000000000010000000000000000000000000000000000000200000000000000000000000000000100000000000000000000000000000000000000000000000040000000000000000000000000000000000000000000000000000000000000000000000000000000000000000000000000008000000000000000000000",
      "type": "0x2",
      "transactionHash": "0x153f17da33cf59adc01a70a71f84db8b5d83978dc2392d9c635833412dc0c728",
      "transactionIndex": "0x0",
      "blockHash": "0xb5648c06f69f81001d52e4a7f4b8ff096f12c8410583ab03bf098963b97cc40a",
      "blockNumber": "0x19",
      "gasUsed": "0x5cffc",
      "effectiveGasPrice": "0x29c0aab",
      "blobGasPrice": "0x1",
      "from": "0x3c44cdddb6a900fa2b585dd299e03d12fa4293bc",
      "to": "0x5fbdb2315678afecb367f032d93f642f64180aa3",
      "contractAddress": null
    },
    {
      "status": "0x1",
      "cumulativeGasUsed": "0x14c0c",
      "logs": [
        {
          "address": "0x5fbdb2315678afecb367f032d93f642f64180aa3",
          "topics": [
            "0x7c1c93f72f29b8a1fc6fc85eed990d133b1ffac80c962b521abb12f38f2ff9af",
            "0x0000000000000000000000000000000000000000000000000000000000000002"
          ],
          "data": "0x0000000000000000000000000000000000000000000000000000000000000002",
          "blockHash": "0xa3621dfcef1f0a6c2a5af79e770e0745b0d5b865398d9f5dd36c128b009a4954",
          "blockNumber": "0x1a",
          "blockTimestamp": "0x69c128eb",
          "transactionHash": "0x23f783a8eb88c988e10c5492631e5c1f4584d160bf0af174874a8016a0e5dce7",
          "transactionIndex": "0x0",
          "logIndex": "0x0",
          "removed": false
        }
      ],
      "logsBloom": "0x04000000000000000000000000000080000000000000000000000000000000000000000000000000000000000000000000000000000000000000000000000000000000000000000000000000000000000000000000000000000000000000000000000040000000000000000000000000000000000000000000000000000000000000000000000000000000000000000000000000000000000000000200000000000000000000000000000100000000000000000000000000000000000000000000000040000000000000000800000000000000000000000000000000000000000000000000000000000000000000000000000000008008000000000000000000",
      "type": "0x2",
      "transactionHash": "0x23f783a8eb88c988e10c5492631e5c1f4584d160bf0af174874a8016a0e5dce7",
      "transactionIndex": "0x0",
      "blockHash": "0xa3621dfcef1f0a6c2a5af79e770e0745b0d5b865398d9f5dd36c128b009a4954",
      "blockNumber": "0x1a",
      "gasUsed": "0x14c0c",
      "effectiveGasPrice": "0x24aa836",
      "blobGasPrice": "0x1",
      "from": "0x14dc79964da2c08b23698b3d3cc7ca32193d9955",
      "to": "0x5fbdb2315678afecb367f032d93f642f64180aa3",
      "contractAddress": null
    },
    {
      "status": "0x1",
      "cumulativeGasUsed": "0x6278c",
      "logs": [
        {
          "address": "0x5fbdb2315678afecb367f032d93f642f64180aa3",
          "topics": [
            "0x529e5c9e24a307575814835cf69244181f51bc2ae08b95b8c8459d652a7ee9cf",
            "0x000000000000000000000000000000000000000000000000000000000000000b",
            "0x0000000000000000000000000000000000000000000000000000000000000002"
          ],
          "data": "0x000000000000000000000000000000000000000000000000000000000000000100000000000000000000000014dc79964da2c08b23698b3d3cc7ca32193d9955",
          "blockHash": "0xc90fd8798cdb747940966a7bace96f00cdf79a36ec9c0e65961f739082d85d33",
          "blockNumber": "0x1b",
          "blockTimestamp": "0x69c128eb",
          "transactionHash": "0x327524398b589ad148edd7e296a67af01ac0ea71118e49dad74a6a63bc95a1fd",
          "transactionIndex": "0x0",
          "logIndex": "0x0",
          "removed": false
        }
      ],
      "logsBloom": "0x04000000000000000000004100000000000100000000000000000000000000000000000000000000000000000000000000000000000000000000000000000000000000000000000000000000000000000000200000000000000000000000000000000040000000000000000000000000000000000000000000000000000000000000000000000000000000000000000000000000000000000000000200000000000000000000000000000100000000000000000000000000000000000000000000000040000000000000000000000000002000000000000000000000000000000000000000000000000000000000000000000000008000040000000000000000",
      "type": "0x2",
      "transactionHash": "0x327524398b589ad148edd7e296a67af01ac0ea71118e49dad74a6a63bc95a1fd",
      "transactionIndex": "0x0",
      "blockHash": "0xc90fd8798cdb747940966a7bace96f00cdf79a36ec9c0e65961f739082d85d33",
      "blockNumber": "0x1b",
      "gasUsed": "0x6278c",
      "effectiveGasPrice": "0x201bd93",
      "blobGasPrice": "0x1",
      "from": "0x14dc79964da2c08b23698b3d3cc7ca32193d9955",
      "to": "0x5fbdb2315678afecb367f032d93f642f64180aa3",
      "contractAddress": null
    },
    {
      "status": "0x1",
      "cumulativeGasUsed": "0x5cfa8",
      "logs": [
        {
          "address": "0x5fbdb2315678afecb367f032d93f642f64180aa3",
          "topics": [
            "0x529e5c9e24a307575814835cf69244181f51bc2ae08b95b8c8459d652a7ee9cf",
            "0x000000000000000000000000000000000000000000000000000000000000000c",
            "0x0000000000000000000000000000000000000000000000000000000000000002"
          ],
          "data": "0x00000000000000000000000000000000000000000000000000000000000000020000000000000000000000003c44cdddb6a900fa2b585dd299e03d12fa4293bc",
          "blockHash": "0xfbb8b87286e0c9bdd5a1d03f9b32d09b66ea928f19ed06b88c595ab885416e12",
          "blockNumber": "0x1c",
          "blockTimestamp": "0x69c128eb",
          "transactionHash": "0xf4cefbeabe3a337a266940696ac65bad3c985af1302bf68cdae85310af404f42",
          "transactionIndex": "0x0",
          "logIndex": "0x0",
          "removed": false
        }
      ],
      "logsBloom": "0x04000000000000000000000100000000000102000000000000000000000000000000000000000200000000000000000000000000000000000000000000000000000000000000000000000000000000000000200000000000000000000000000000000040000000000000000000000000000000000000000000000000000000000000000000000000000000000000000000000000000000000000000200000000000000000000000000000100000000000000000000000000000000000000000000000040000000000000000000000000000000000000000000000000000000200000000000000000000000000000000000000000008000000000000000000000",
      "type": "0x2",
      "transactionHash": "0xf4cefbeabe3a337a266940696ac65bad3c985af1302bf68cdae85310af404f42",
      "transactionIndex": "0x0",
      "blockHash": "0xfbb8b87286e0c9bdd5a1d03f9b32d09b66ea928f19ed06b88c595ab885416e12",
      "blockNumber": "0x1c",
      "gasUsed": "0x5cfa8",
      "effectiveGasPrice": "0x1c33fef",
      "blobGasPrice": "0x1",
      "from": "0x3c44cdddb6a900fa2b585dd299e03d12fa4293bc",
      "to": "0x5fbdb2315678afecb367f032d93f642f64180aa3",
      "contractAddress": null
    },
    {
      "status": "0x1",
      "cumulativeGasUsed": "0x9241",
      "logs": [
        {
          "address": "0x5fbdb2315678afecb367f032d93f642f64180aa3",
          "topics": [
            "0x7c1c93f72f29b8a1fc6fc85eed990d133b1ffac80c962b521abb12f38f2ff9af",
            "0x0000000000000000000000000000000000000000000000000000000000000002"
          ],
          "data": "0x0000000000000000000000000000000000000000000000000000000000000003",
          "blockHash": "0x443061b02b16ed815f030d8259be516240845dabccba42c2ab2b384699e714e2",
          "blockNumber": "0x1d",
          "blockTimestamp": "0x69c128eb",
          "transactionHash": "0x07e92a18771f0b09da5ba76c29fe31aef2ecf0dcd0ead972c7a5c9d377f1501b",
          "transactionIndex": "0x0",
          "logIndex": "0x0",
          "removed": false
        }
      ],
      "logsBloom": "0x04000000000000000000000000000080000000000000000000000000000000000000000000000000000000000000000000000000000000000000000000000000000000000000000000000000000000000000000000000000000000000000000000000040000000000000000000000000000000000000000000000000000000000000000000000000000000000000000000000000000000000000000200000000000000000000000000000100000000000000000000000000000000000000000000000040000000000000000800000000000000000000000000000000000000000000000000000000000000000000000000000000008008000000000000000000",
      "type": "0x2",
      "transactionHash": "0x07e92a18771f0b09da5ba76c29fe31aef2ecf0dcd0ead972c7a5c9d377f1501b",
      "transactionIndex": "0x0",
      "blockHash": "0x443061b02b16ed815f030d8259be516240845dabccba42c2ab2b384699e714e2",
      "blockNumber": "0x1d",
      "gasUsed": "0x9241",
      "effectiveGasPrice": "0x18c4691",
      "blobGasPrice": "0x1",
      "from": "0x3c44cdddb6a900fa2b585dd299e03d12fa4293bc",
      "to": "0x5fbdb2315678afecb367f032d93f642f64180aa3",
      "contractAddress": null
    },
    {
      "status": "0x1",
      "cumulativeGasUsed": "0x628c4",
      "logs": [
        {
          "address": "0x5fbdb2315678afecb367f032d93f642f64180aa3",
          "topics": [
            "0x529e5c9e24a307575814835cf69244181f51bc2ae08b95b8c8459d652a7ee9cf",
            "0x000000000000000000000000000000000000000000000000000000000000000d",
            "0x0000000000000000000000000000000000000000000000000000000000000002"
          ],
          "data": "0x00000000000000000000000000000000000000000000000000000000000000030000000000000000000000003c44cdddb6a900fa2b585dd299e03d12fa4293bc",
          "blockHash": "0xfa83ee420ffa19d2aae41969b579f7e43cef86dbc60d290cc4afca5fb64a7d82",
          "blockNumber": "0x1e",
          "blockTimestamp": "0x69c128eb",
          "transactionHash": "0xf267bd4ca12581e9645708ec33578c1fde9b30ec272edb038237db68d5ce3880",
          "transactionIndex": "0x0",
          "logIndex": "0x0",
          "removed": false
        }
      ],
      "logsBloom": "0x04000000000000000040000100000000000100000000000000000000000000000000000000000000000000000000000000000000000000000000000000000000000000000000000000000000000000000002200000000000000000000000000000000040000000000000000000000000000000000000000000000000000000000000000000000000000000000000000000000000000000000000000200000000000000000000000000000100000000000000000000000000000000000000000000000040000000000000000000000000000000000000000000000000000000020000000000000000000000000000000000000000008000000000000000000000",
      "type": "0x2",
      "transactionHash": "0xf267bd4ca12581e9645708ec33578c1fde9b30ec272edb038237db68d5ce3880",
      "transactionIndex": "0x0",
      "blockHash": "0xfa83ee420ffa19d2aae41969b579f7e43cef86dbc60d290cc4afca5fb64a7d82",
      "blockNumber": "0x1e",
      "gasUsed": "0x628c4",
      "effectiveGasPrice": "0x15add66",
      "blobGasPrice": "0x1",
      "from": "0x3c44cdddb6a900fa2b585dd299e03d12fa4293bc",
      "to": "0x5fbdb2315678afecb367f032d93f642f64180aa3",
      "contractAddress": null
    }
  ],
  "libraries": [],
  "pending": [],
  "returns": {},
  "timestamp": 1774266603027,
  "chain": 31337,
  "commit": "96677f7d"
}