{
  "transactions": [
    {
      "hash": "0x756be5ca3f4a598a50f3d569f7e361e787c437c51e5af54931abc3cc12ac98bb",
      "transactionType": "CALL",
      "contractName": null,
      "contractAddress": "0x5fbdb2315678afecb367f032d93f642f64180aa3",
      "function": "createShipment(address,string,string,string,bool)",
      "arguments": [
        "0x15d34AAf54267DB7D7c367839AAf71A00a2C6A65",
        "Pollo congelado IQF - Lote PC-2024-311 - 800 kg",
        "Bogota",
        "Cali",
        "true"
      ],
      "transaction": {
        "from": "0x70997970c51812dc3a010c7d01b50e0d17dc79c8",
        "to": "0x5fbdb2315678afecb367f032d93f642f64180aa3",
        "gas": "0x8175c",
        "value": "0x0",
        "input": "0x475b6f9800000000000000000000000015d34aaf54267db7d7c367839aaf71a00a2c6a6500000000000000000000000000000000000000000000000000000000000000a0000000000000000000000000000000000000000000000000000000000000010000000000000000000000000000000000000000000000000000000000000001400000000000000000000000000000000000000000000000000000000000000001000000000000000000000000000000000000000000000000000000000000002f506f6c6c6f20636f6e67656c61646f20495146202d204c6f74652050432d323032342d333131202d20383030206b6700000000000000000000000000000000000000000000000000000000000000000000000000000000000000000000000006426f676f74610000000000000000000000000000000000000000000000000000000000000000000000000000000000000000000000000000000000000000000443616c6900000000000000000000000000000000000000000000000000000000",
        "nonce": "0x4",
        "chainId": "0x7a69"
      },
      "additionalContracts": [],
      "isFixedGasLimit": false
    },
    {
      "hash": "0xe6b192ee9ab56138a59267d2b78e14a627ebcef3425fe525eb8227887bb202ad",
      "transactionType": "CALL",
      "contractName": null,
      "contractAddress": "0x5fbdb2315678afecb367f032d93f642f64180aa3",
      "function": "recordCheckpoint(uint256,string,uint8,string,int256)",
      "arguments": [
        "2",
        "Frigorificos Del Valle - Bogota, Zona Industrial Montevideo",
        "0",
        "Lote: PC-2024-311 | 800 kg pollo IQF | Temp camara: -18C | Embalaje: 40 cajas OK | Precinto: FR-001 | Resp: H. Sanchez",
        "20"
      ],
      "transaction": {
        "from": "0x70997970c51812dc3a010c7d01b50e0d17dc79c8",
        "to": "0x5fbdb2315678afecb367f032d93f642f64180aa3",
        "gas": "0x7f934",
        "value": "0x0",
        "input": "0x0a7a0b69000000000000000000000000000000000000000000000000000000000000000200000000000000000000000000000000000000000000000000000000000000a0000000000000000000000000000000000000000000000000000000000000000000000000000000000000000000000000000000000000000000000000000001000000000000000000000000000000000000000000000000000000000000000014000000000000000000000000000000000000000000000000000000000000003b467269676f72696669636f732044656c2056616c6c65202d20426f676f74612c205a6f6e6120496e647573747269616c204d6f6e7465766964656f000000000000000000000000000000000000000000000000000000000000000000000000764c6f74653a2050432d323032342d333131207c20383030206b6720706f6c6c6f20495146207c2054656d702063616d6172613a202d313843207c20456d62616c616a653a2034302063616a6173204f4b207c2050726563696e746f3a2046522d303031207c20526573703a20482e2053616e6368657a00000000000000000000",
        "nonce": "0x5",
        "chainId": "0x7a69"
      },
      "additionalContracts": [],
      "isFixedGasLimit": false
    },
    {
      "hash": "0x312df12ee29ac5db81612357a0e0435bf6dea2555de0e289aa508522cc327fc0",
      "transactionType": "CALL",
      "contractName": null,
      "contractAddress": "0x5fbdb2315678afecb367f032d93f642f64180aa3",
      "function": "updateShipmentStatus(uint256,uint8)",
      "arguments": [
        "2",
        "1"
      ],
      "transaction": {
        "from": "0x90f79bf6eb2c4f870365e785982e1f101e93b906",
        "to": "0x5fbdb2315678afecb367f032d93f642f64180aa3",
        "gas": "0x226e6",
        "value": "0x0",
        "input": "0x7defa92000000000000000000000000000000000000000000000000000000000000000020000000000000000000000000000000000000000000000000000000000000001",
        "nonce": "0xf",
        "chainId": "0x7a69"
      },
      "additionalContracts": [],
      "isFixedGasLimit": false
    },
    {
      "hash": "0xd32b31257076a6394816e28d038a012b78faa962218b6b804b37daeef97ce258",
      "transactionType": "CALL",
      "contractName": null,
      "contractAddress": "0x5fbdb2315678afecb367f032d93f642f64180aa3",
      "function": "recordCheckpoint(uint256,string,uint8,string,int256)",
      "arguments": [
        "2",
        "Hub Bogota Puente Aranda - Anden de Recepcion",
        "1",
        "Llegada: 09:20 | 40/40 cajas integras | Precinto FR-001: OK | Temp bodega: -18C | Asignado: Camion TRK-551 | Resp: P. Morales",
        "22"
      ],
      "transaction": {
        "from": "0x90f79bf6eb2c4f870365e785982e1f101e93b906",
        "to": "0x5fbdb2315678afecb367f032d93f642f64180aa3",
        "gas": "0x807ec",
        "value": "0x0",
        "input": "0x0a7a0b69000000000000000000000000000000000000000000000000000000000000000200000000000000000000000000000000000000000000000000000000000000a0000000000000000000000000000000000000000000000000000000000000000100000000000000000000000000000000000000000000000000000000000001000000000000000000000000000000000000000000000000000000000000000016000000000000000000000000000000000000000000000000000000000000002d48756220426f676f7461205075656e7465204172616e6461202d20416e64656e20646520526563657063696f6e00000000000000000000000000000000000000000000000000000000000000000000000000000000000000000000000000007d4c6c65676164613a2030393a3230207c2034302f34302063616a617320696e746567726173207c2050726563696e746f2046522d3030313a204f4b207c2054656d7020626f646567613a202d313843207c20417369676e61646f3a2043616d696f6e2054524b2d353531207c20526573703a20502e204d6f72616c6573000000",
        "nonce": "0x10",
        "chainId": "0x7a69"
      },
      "additionalContracts": [],
      "isFixedGasLimit": false
    },
    {
      "hash": "0x61fa6881d8f51bc1950a13be832fc9fd8b12e550f5331990c5b467e563022b5c",
      "transactionType": "CALL",
      "contractName": null,
      "contractAddress": "0x5fbdb2315678afecb367f032d93f642f64180aa3",
      "function": "updateShipmentStatus(uint256,uint8)",
      "arguments": [
        "2",
        "1"
      ],
      "transaction": {
        "from": "0x3c44cdddb6a900fa2b585dd299e03d12fa4293bc",
        "to": "0x5fbdb2315678afecb367f032d93f642f64180aa3",
        "gas": "0x1bb50",
        "value": "0x0",
        "input": "0x7defa92000000000000000000000000000000000000000000000000000000000000000020000000000000000000000000000000000000000000000000000000000000001",
        "nonce": "0x7",
        "chainId": "0x7a69"
      },
      "additionalContracts": [],
      "isFixedGasLimit": false
    },
    {
      "hash": "0x3a82dce9199aba2e12a23aae0f89c5f905192b6573e77f5f149be225ab577f45",
      "transactionType": "CALL",
      "contractName": null,
      "contractAddress": "0x5fbdb2315678afecb367f032d93f642f64180aa3",
      "function": "recordCheckpoint(uint256,string,uint8,string,int256)",
      "arguments": [
        "2",
        "Autopista Bogota-Cali, km 198 - Alto de La Linea",
        "2",
        "Hora: 13:45 | Placa: TRK-551 | Conductor: M. Lopez | Precinto FR-001: OK | Temp exterior: 15C | Temp carga: -17C",
        "25"
      ],
      "transaction": {
        "from": "0x3c44cdddb6a900fa2b585dd299e03d12fa4293bc",
        "to": "0x5fbdb2315678afecb367f032d93f642f64180aa3",
        "gas": "0x80746",
        "value": "0x0",
        "input": "0x0a7a0b69000000000000000000000000000000000000000000000000000000000000000200000000000000000000000000000000000000000000000000000000000000a000000000000000000000000000000000000000000000000000000000000000020000000000000000000000000000000000000000000000000000000000000100000000000000000000000000000000000000000000000000000000000000001900000000000000000000000000000000000000000000000000000000000000304175746f706973746120426f676f74612d43616c692c206b6d20313938202d20416c746f206465204c61204c696e6561000000000000000000000000000000000000000000000000000000000000000000000000000000000000000000000070486f72613a2031333a3435207c20506c6163613a2054524b2d353531207c20436f6e647563746f723a204d2e204c6f70657a207c2050726563696e746f2046522d3030313a204f4b207c2054656d70206578746572696f723a20313543207c2054656d702063617267613a202d31374300000000000000000000000000000000",
        "nonce": "0x8",
        "chainId": "0x7a69"
      },
      "additionalContracts": [],
      "isFixedGasLimit": false
    },
    {
      "hash": "0xb361b1961f007b176a8e5986c62287e9dd57c2ae5e85a17770bf3c9fcd9e1a15",
      "transactionType": "CALL",
      "contractName": null,
      "contractAddress": "0x5fbdb2315678afecb367f032d93f642f64180aa3",
      "function": "updateShipmentStatus(uint256,uint8)",
      "arguments": [
        "2",
        "2"
      ],
      "transaction": {
        "from": "0x14dc79964da2c08b23698b3d3cc7ca32193d9955",
        "to": "0x5fbdb2315678afecb367f032d93f642f64180aa3",
        "gas": "0x1caa2",
        "value": "0x0",
        "input": "0x7defa92000000000000000000000000000000000000000000000000000000000000000020000000000000000000000000000000000000000000000000000000000000002",
        "nonce": "0x2",
        "chainId": "0x7a69"
      },
      "additionalContracts": [],
      "isFixedGasLimit": false
    },
    {
      "hash": "0x8b3a55a1bc405b5b25ebf7c8864126c3b35c85760b7777e0ee568fe660eb7c1b",
      "transactionType": "CALL",
      "contractName": null,
      "contractAddress": "0x5fbdb2315678afecb367f032d93f642f64180aa3",
      "function": "recordCheckpoint(uint256,string,uint8,string,int256)",
      "arguments": [
        "2",
        "Hub Cali Acopi - Recepcion Frigorifico",
        "1",
        "Llegada: 17:30 | 40/40 cajas OK | Precinto FR-001: integro | Temp camara Acopi: -19C | Peso verificado: 800 kg | Resp: C. Valencia",
        "21"
      ],
      "transaction": {
        "from": "0x14dc79964da2c08b23698b3d3cc7ca32193d9955",
        "to": "0x5fbdb2315678afecb367f032d93f642f64180aa3",
        "gas": "0x88038",
        "value": "0x0",
        "input": "0x0a7a0b69000000000000000000000000000000000000000000000000000000000000000200000000000000000000000000000000000000000000000000000000000000a000000000000000000000000000000000000000000000000000000000000000010000000000000000000000000000000000000000000000000000000000000100000000000000000000000000000000000000000000000000000000000000001500000000000000000000000000000000000000000000000000000000000000264875622043616c692041636f7069202d20526563657063696f6e20467269676f72696669636f000000000000000000000000000000000000000000000000000000000000000000000000000000000000000000000000000000000000000000824c6c65676164613a2031373a3330207c2034302f34302063616a6173204f4b207c2050726563696e746f2046522d3030313a20696e746567726f207c2054656d702063616d6172612041636f70693a202d313943207c205065736f207665726966696361646f3a20383030206b67207c20526573703a20432e2056616c656e636961000000000000000000000000000000000000000000000000000000000000",
        "nonce": "0x3",
        "chainId": "0x7a69"
      },
      "additionalContracts": [],
      "isFixedGasLimit": false
    },
    {
      "hash": "0xfc8cbcef2ded6ec805ce4ecb53cdba98345bac1d5c533bc46aef621b6c21679b",
      "transactionType": "CALL",
      "contractName": null,
      "contractAddress": "0x5fbdb2315678afecb367f032d93f642f64180aa3",
      "function": "recordCheckpoint(uint256,string,uint8,string,int256)",
      "arguments": [
        "2",
        "Hub Cali Acopi - Bahia de Despacho",
        "2",
        "Salida: 07:15 | Veh: VAN-FRIO-22 | Conductor: R. Castillo | Precinto nuevo: FR-002 | 40 cajas | ETA Supermercado: 09:00",
        "24"
      ],
      "transaction": {
        "from": "0x3c44cdddb6a900fa2b585dd299e03d12fa4293bc",
        "to": "0x5fbdb2315678afecb367f032d93f642f64180aa3",
        "gas": "0x806d2",
        "value": "0x0",
        "input": "0x0a7a0b69000000000000000000000000000000000000000000000000000000000000000200000000000000000000000000000000000000000000000000000000000000a000000000000000000000000000000000000000000000000000000000000000020000000000000000000000000000000000000000000000000000000000000100000000000000000000000000000000000000000000000000000000000000001800000000000000000000000000000000000000000000000000000000000000224875622043616c692041636f7069202d20426168696120646520446573706163686f000000000000000000000000000000000000000000000000000000000000000000000000000000000000000000000000000000000000000000000000007753616c6964613a2030373a3135207c205665683a2056414e2d4652494f2d3232207c20436f6e647563746f723a20522e2043617374696c6c6f207c2050726563696e746f206e7565766f3a2046522d303032207c2034302063616a6173207c204554412053757065726d65726361646f3a2030393a3030000000000000000000",
        "nonce": "0x9",
        "chainId": "0x7a69"
      },
      "additionalContracts": [],
      "isFixedGasLimit": false
    },
    {
      "hash": "0xa2b55510243e4b9e73647641854fab208e0d382ff9b6943fa7ccea92be591996",
      "transactionType": "CALL",
      "contractName": null,
      "contractAddress": "0x5fbdb2315678afecb367f032d93f642f64180aa3",
      "function": "updateShipmentStatus(uint256,uint8)",
      "arguments": [
        "2",
        "3"
      ],
      "transaction": {
        "from": "0x3c44cdddb6a900fa2b585dd299e03d12fa4293bc",
        "to": "0x5fbdb2315678afecb367f032d93f642f64180aa3",
        "gas": "0xd5e5",
        "value": "0x0",
        "input": "0x7defa92000000000000000000000000000000000000000000000000000000000000000020000000000000000000000000000000000000000000000000000000000000003",
        "nonce": "0xa",
        "chainId": "0x7a69"
      },
      "additionalContracts": [],
      "isFixedGasLimit": false
    },
    {
      "hash": "0xb84b95fee500de0271f67ec5c6d3ec5a71c72d72255dfeaf7ee9fda20a41dc86",
      "transactionType": "CALL",
      "contractName": null,
      "contractAddress": "0x5fbdb2315678afecb367f032d93f642f64180aa3",
      "function": "recordCheckpoint(uint256,string,uint8,string,int256)",
      "arguments": [
        "2",
        "Supermercado La 14 Cali - Recepcion Carnes y Congelados, Av. 6N #28-00",
        "3",
        "Recibe: Jefe bodega J. Restrepo | 40/40 cajas OK | Precinto FR-002: integro | Temp recepcion: -17C | Acta: REC-CON-2024-089",
        "23"
      ],
      "transaction": {
        "from": "0x3c44cdddb6a900fa2b585dd299e03d12fa4293bc",
        "to": "0x5fbdb2315678afecb367f032d93f642f64180aa3",
        "gas": "0x881e8",
        "value": "0x0",
        "input": "0x0a7a0b69000000000000000000000000000000000000000000000000000000000000000200000000000000000000000000000000000000000000000000000000000000a0000000000000000000000000000000000000000000000000000000000000000300000000000000000000000000000000000000000000000000000000000001200000000000000000000000000000000000000000000000000000000000000017000000000000000000000000000000000000000000000000000000000000004653757065726d65726361646f204c612031342043616c69202d20526563657063696f6e204361726e6573207920436f6e67656c61646f732c2041762e20364e202332382d30300000000000000000000000000000000000000000000000000000000000000000000000000000000000000000000000000000000000000000007b5265636962653a204a65666520626f64656761204a2e20526573747265706f207c2034302f34302063616a6173204f4b207c2050726563696e746f2046522d3030323a20696e746567726f207c2054656d7020726563657063696f6e3a202d313743207c20416374613a205245432d434f4e2d323032342d3038390000000000",
        "nonce": "0xb",
        "chainId": "0x7a69"
      },
      "additionalContracts": [],
      "isFixedGasLimit": false
    }
  ],
  "receipts": [
    {
      "status": "0x1",
      "cumulativeGasUsed": "0x58851",
      "logs": [
        {
          "address": "0x5fbdb2315678afecb367f032d93f642f64180aa3",
          "topics": [
            "0x8fb6b855d6cbdf201f2fcaadbf8c38d36168ff7d2ca865cb2599abcd5a060e8f",
            "0x0000000000000000000000000000000000000000000000000000000000000002",
            "0x00000000000000000000000070997970c51812dc3a010c7d01b50e0d17dc79c8",
            "0x00000000000000000000000015d34aaf54267db7d7c367839aaf71a00a2c6a65"
          ],
          "data": "0x0000000000000000000000000000000000000000000000000000000000000020000000000000000000000000000000000000000000000000000000000000002f506f6c6c6f20636f6e67656c61646f20495146202d204c6f74652050432d323032342d333131202d20383030206b670000000000000000000000000000000000",
          "blockHash": "0xc709301002971c9bff7101cb60fdb52f3e81b964b4ee81c28c3ecc9f3a68a839",
          "blockNumber": "0x34",
          "blockTimestamp": "0x69d6d274",
          "transactionHash": "0x756be5ca3f4a598a50f3d569f7e361e787c437c51e5af54931abc3cc12ac98bb",
          "transactionIndex": "0x0",
          "logIndex": "0x0",
          "removed": false
        }
      ],
      "logsBloom": "0x04000000040000000002000000000000000000000000000000000000000000000000000000000000000000000000000000000000000000000000000000000000000000000000000000000000000000000000000000000000000000000000000000000840000000000000000000000000000000000000000000000000000000000000000000000000000000000000000000000200000000000000000300000000000000000000000000000100000000000000000000000000000000000000000000000040000000000000000040000000000000000000000000000000000004000000000000000000000000000000000001004000008000000000000000000000",
      "type": "0x2",
      "transactionHash": "0x756be5ca3f4a598a50f3d569f7e361e787c437c51e5af54931abc3cc12ac98bb",
      "transactionIndex": "0x0",
      "blockHash": "0xc709301002971c9bff7101cb60fdb52f3e81b964b4ee81c28c3ecc9f3a68a839",
      "blockNumber": "0x34",
      "gasUsed": "0x58851",
      "effectiveGasPrice": "0x147cd7",
      "blobGasPrice": "0x1",
      "from": "0x70997970c51812dc3a010c7d01b50e0d17dc79c8",
      "to": "0x5fbdb2315678afecb367f032d93f642f64180aa3",
      "contractAddress": null
    },
    {
      "status": "0x1",
      "cumulativeGasUsed": "0x5c5cc",
      "logs": [
        {
          "address": "0x5fbdb2315678afecb367f032d93f642f64180aa3",
          "topics": [
            "0x529e5c9e24a307575814835cf69244181f51bc2ae08b95b8c8459d652a7ee9cf",
            "0x0000000000000000000000000000000000000000000000000000000000000008",
            "0x0000000000000000000000000000000000000000000000000000000000000002"
          ],
          "data": "0x000000000000000000000000000000000000000000000000000000000000000000000000000000000000000070997970c51812dc3a010c7d01b50e0d17dc79c8",
          "blockHash": "0xb998d8203def22389c41ec74932d6e4dec754862e27ececa2e006be689cd837d",
          "blockNumber": "0x35",
          "blockTimestamp": "0x69d6d274",
          "transactionHash": "0xe6b192ee9ab56138a59267d2b78e14a627ebcef3425fe525eb8227887bb202ad",
          "transactionIndex": "0x0",
          "logIndex": "0x0",
          "removed": false
        }
      ],
      "logsBloom": "0x04000000000000000000000100000000000100000000000000000000000000000000000000000000000000000000000000000000000080000000000000000000000000000000000000000000000000000000200000000000000000000000000000000040000000000000000000000000000000000000000000000000000000000080000000000000000000000000000000000000000000000000000200000000000000000000000000000100000000000000000000000000000000000000000040000040000000000000000000000000000000000000000000000000000000000000000000000000000000000000000000000000008000000000000000000000",
      "type": "0x2",
      "transactionHash": "0xe6b192ee9ab56138a59267d2b78e14a627ebcef3425fe525eb8227887bb202ad",
      "transactionIndex": "0x0",
      "blockHash": "0xb998d8203def22389c41ec74932d6e4dec754862e27ececa2e006be689cd837d",
      "blockNumber": "0x35",
      "gasUsed": "0x5c5cc",
      "effectiveGasPrice": "0x11fd16",
      "blobGasPrice": "0x1",
      "from": "0x70997970c51812dc3a010c7d01b50e0d17dc79c8",
      "to": "0x5fbdb2315678afecb367f032d93f642f64180aa3",
      "contractAddress": null
    },
    {
      "status": "0x1",
      "cumulativeGasUsed": "0x18ed8",
      "logs": [
        {
          "address": "0x5fbdb2315678afecb367f032d93f642f64180aa3",
          "topics": [
            "0x7c1c93f72f29b8a1fc6fc85eed990d133b1ffac80c962b521abb12f38f2ff9af",
            "0x0000000000000000000000000000000000000000000000000000000000000002"
          ],
          "data": "0x0000000000000000000000000000000000000000000000000000000000000001",
          "blockHash": "0x8411565c73a0b5b5504dada21812b188032b2af224d436bd756ffa79181acdc0",
          "blockNumber": "0x36",
          "blockTimestamp": "0x69d6d274",
          "transactionHash": "0x312df12ee29ac5db81612357a0e0435bf6dea2555de0e289aa508522cc327fc0",
          "transactionIndex": "0x0",
          "logIndex": "0x0",
          "removed": false
        }
      ],
      "logsBloom": "0x04000000000000000000000000000080000000000000000000000000000000000000000000000000000000000000000000000000000000000000000000000000000000000000000000000000000000000000000000000000000000000000000000000040000000000000000000000000000000000000000000000000000000000000000000000000000000000000000000000000000000000000000200000000000000000000000000000100000000000000000000000000000000000000000000000040000000000000000800000000000000000000000000000000000000000000000000000000000000000000000000000000008008000000000000000000",
      "type": "0x2",
      "transactionHash": "0x312df12ee29ac5db81612357a0e0435bf6dea2555de0e289aa508522cc327fc0",
      "transactionIndex": "0x0",
      "blockHash": "0x8411565c73a0b5b5504dada21812b188032b2af224d436bd756ffa79181acdc0",
      "blockNumber": "0x36",
      "gasUsed": "0x18ed8",
      "effectiveGasPrice": "0xfcbf9",
      "blobGasPrice": "0x1",
      "from": "0x90f79bf6eb2c4f870365e785982e1f101e93b906",
      "to": "0x5fbdb2315678afecb367f032d93f642f64180aa3",
      "contractAddress": null
    },
    {
      "status": "0x1",
      "cumulativeGasUsed": "0x5d074",
      "logs": [
        {
          "address": "0x5fbdb2315678afecb367f032d93f642f64180aa3",
          "topics": [
            "0x529e5c9e24a307575814835cf69244181f51bc2ae08b95b8c8459d652a7ee9cf",
            "0x0000000000000000000000000000000000000000000000000000000000000009",
            "0x0000000000000000000000000000000000000000000000000000000000000002"
          ],
          "data": "0x000000000000000000000000000000000000000000000000000000000000000100000000000000000000000090f79bf6eb2c4f870365e785982e1f101e93b906",
          "blockHash": "0x9e4c8f0c129ac2e95441efe4aa60376708ed4470fd4052d29556e0ad0268bee3",
          "blockNumber": "0x37",
          "blockTimestamp": "0x69d6d274",
          "transactionHash": "0xd32b31257076a6394816e28d038a012b78faa962218b6b804b37daeef97ce258",
          "transactionIndex": "0x0",
          "logIndex": "0x0",
          "removed": false
        }
      ],
      "logsBloom": "0x04000000000000000000000100000000000100000000000000000000000000000000000000000000000000000000000000000000000000000000000000200000000000000000000000000000000000000000200000000000000000000000000000000040000000000000000000000000000000000000000000000000000000000000000000000000000000000000000000001000000000000000000200000000000000000000000000000100000000000000000000000000000000000000000000000040000000000000000000000000000000000000000000000000000000000000000000000000000000000000000000000000008000000000000000800000",
      "type": "0x2",
      "transactionHash": "0xd32b31257076a6394816e28d038a012b78faa962218b6b804b37daeef97ce258",
      "transactionIndex": "0x0",
      "blockHash": "0x9e4c8f0c129ac2e95441efe4aa60376708ed4470fd4052d29556e0ad0268bee3",
      "blockNumber": "0x37",
      "gasUsed": "0x5d074",
      "effectiveGasPrice": "0xdd5eb",
      "blobGasPrice": "0x1",
      "from": "0x90f79bf6eb2c4f870365e785982e1f101e93b906",
      "to": "0x5fbdb2315678afecb367f032d93f642f64180aa3",
      "contractAddress": null
    },
    {
      "status": "0x1",
      "cumulativeGasUsed": "0x140f4",
      "logs": [
        {
          "address": "0x5fbdb2315678afecb367f032d93f642f64180aa3",
          "topics": [
            "0x7c1c93f72f29b8a1fc6fc85eed990d133b1ffac80c962b521abb12f38f2ff9af",
            "0x0000000000000000000000000000000000000000000000000000000000000002"
          ],
          "data": "0x0000000000000000000000000000000000000000000000000000000000000001",
          "blockHash": "0x7f7f6dc5e0c11f9bd348af096317e032b4c4862fb0d8aa40d2594af78802fc39",
          "blockNumber": "0x38",
          "blockTimestamp": "0x69d6d274",
          "transactionHash": "0x61fa6881d8f51bc1950a13be832fc9fd8b12e550f5331990c5b467e563022b5c",
          "transactionIndex": "0x0",
          "logIndex": "0x0",
          "removed": false
        }
      ],
      "logsBloom": "0x04000000000000000000000000000080000000000000000000000000000000000000000000000000000000000000000000000000000000000000000000000000000000000000000000000000000000000000000000000000000000000000000000000040000000000000000000000000000000000000000000000000000000000000000000000000000000000000000000000000000000000000000200000000000000000000000000000100000000000000000000000000000000000000000000000040000000000000000800000000000000000000000000000000000000000000000000000000000000000000000000000000008008000000000000000000",
      "type": "0x2",
      "transactionHash": "0x61fa6881d8f51bc1950a13be832fc9fd8b12e550f5331990c5b467e563022b5c",
      "transactionIndex": "0x0",
      "blockHash": "0x7f7f6dc5e0c11f9bd348af096317e032b4c4862fb0d8aa40d2594af78802fc39",
      "blockNumber": "0x38",
      "gasUsed": "0x140f4",
      "effectiveGasPrice": "0xc266d",
      "blobGasPrice": "0x1",
      "from": "0x3c44cdddb6a900fa2b585dd299e03d12fa4293bc",
      "to": "0x5fbdb2315678afecb367f032d93f642f64180aa3",
      "contractAddress": null
    },
    {
      "status": "0x1",
      "cumulativeGasUsed": "0x5cffc",
      "logs": [
        {
          "address": "0x5fbdb2315678afecb367f032d93f642f64180aa3",
          "topics": [
            "0x529e5c9e24a307575814835cf69244181f51bc2ae08b95b8c8459d652a7ee9cf",
            "0x000000000000000000000000000000000000000000000000000000000000000a",
            "0x0000000000000000000000000000000000000000000000000000000000000002"
          ],
          "data": "0x00000000000000000000000000000000000000000000000000000000000000020000000000000000000000003c44cdddb6a900fa2b585dd299e03d12fa4293bc",
          "blockHash": "0x959bf41aee33cc41399d07fb415ca86d12565049b8cafbd3058bee2a22b349ec",
          "blockNumber": "0x39",
          "blockTimestamp": "0x69d6d274",
          "transactionHash": "0x3a82dce9199aba2e12a23aae0f89c5f905192b6573e77f5f149be225ab577f45",
          "transactionIndex": "0x0",
          "logIndex": "0x0",
          "removed": false
        }
      ],
      "logsBloom": "0x04000000000000000000000100000000000100000000000000000000000000000000000000000000000000000000000000000000040000000020000000000000000000000000000000000000000000000000200000000000000000000000000000000040000000000000000000000000000000000000000000000000000000000000000000000000010000000000000000000000000000000000000200000000000000000000000000000100000000000000000000000000000000000000000000000040000000000000000000000000000000000000000000000000000000000000000000000000000000000000000000000000008000000000000000000000",
      "type": "0x2",
      "transactionHash": "0x3a82dce9199aba2e12a23aae0f89c5f905192b6573e77f5f149be225ab577f45",
      "transactionIndex": "0x0",
      "blockHash": "0x959bf41aee33cc41399d07fb415ca86d12565049b8cafbd3058bee2a22b349ec",
      "blockNumber": "0x39",
      "gasUsed": "0x5cffc",
      "effectiveGasPrice": "0xaa3c1",
      "blobGasPrice": "0x1",
      "from": "0x3c44cdddb6a900fa2b585dd299e03d12fa4293bc",
      "to": "0x5fbdb2315678afecb367f032d93f642f64180aa3",
      "contractAddress": null
    },
    {
      "status": "0x1",
      "cumulativeGasUsed": "0x14c0c",
      "logs": [
        {
          "address": "0x5fbdb2315678afecb367f032d93f642f64180aa3",
          "topics": [
            "0x7c1c93f72f29b8a1fc6fc85eed990d133b1ffac80c962b521abb12f38f2ff9af",
            "0x0000000000000000000000000000000000000000000000000000000000000002"
          ],
          "data": "0x0000000000000000000000000000000000000000000000000000000000000002",
          "blockHash": "0xc05d3f88db4631a2ad207e94153495057087a6ca011c45d9139982b553c3b58b",
          "blockNumber": "0x3a",
          "blockTimestamp": "0x69d6d274",
          "transactionHash": "0xb361b1961f007b176a8e5986c62287e9dd57c2ae5e85a17770bf3c9fcd9e1a15",
          "transactionIndex": "0x0",
          "logIndex": "0x0",
          "removed": false
        }
      ],
      "logsBloom": "0x04000000000000000000000000000080000000000000000000000000000000000000000000000000000000000000000000000000000000000000000000000000000000000000000000000000000000000000000000000000000000000000000000000040000000000000000000000000000000000000000000000000000000000000000000000000000000000000000000000000000000000000000200000000000000000000000000000100000000000000000000000000000000000000000000000040000000000000000800000000000000000000000000000000000000000000000000000000000000000000000000000000008008000000000000000000",
      "type": "0x2",
      "transactionHash": "0xb361b1961f007b176a8e5986c62287e9dd57c2ae5e85a17770bf3c9fcd9e1a15",
      "transactionIndex": "0x0",
      "blockHash": "0xc05d3f88db4631a2ad207e94153495057087a6ca011c45d9139982b553c3b58b",
      "blockNumber": "0x3a",
      "gasUsed": "0x14c0c",
      "effectiveGasPrice": "0x957ef",
      "blobGasPrice": "0x1",
      "from": "0x14dc79964da2c08b23698b3d3cc7ca32193d9955",
      "to": "0x5fbdb2315678afecb367f032d93f642f64180aa3",
      "contractAddress": null
    },
    {
      "status": "0x1",
      "cumulativeGasUsed": "0x6278c",
      "logs": [
        {
          "address": "0x5fbdb2315678afecb367f032d93f642f64180aa3",
          "topics": [
            "0x529e5c9e24a307575814835cf69244181f51bc2ae08b95b8c8459d652a7ee9cf",
            "0x000000000000000000000000000000000000000000000000000000000000000b",
            "0x0000000000000000000000000000000000000000000000000000000000000002"
          ],
          "data": "0x000000000000000000000000000000000000000000000000000000000000000100000000000000000000000014dc79964da2c08b23698b3d3cc7ca32193d9955",
          "blockHash": "0x1b73633e6286784e6ade6b5eac5f88f10d0f2b8abd9654fc7a9d4abc3049688e",
          "blockNumber": "0x3b",
          "blockTimestamp": "0x69d6d274",
          "transactionHash": "0x8b3a55a1bc405b5b25ebf7c8864126c3b35c85760b7777e0ee568fe660eb7c1b",
          "transactionIndex": "0x0",
          "logIndex": "0x0",
          "removed": false
        }
      ],
      "logsBloom": "0x04000000000000000000004100000000000100000000000000000000000000000000000000000000000000000000000000000000000000000000000000000000000000000000000000000000000000000000200000000000000000000000000000000040000000000000000000000000000000000000000000000000000000000000000000000000000000000000000000000000000000000000000200000000000000000000000000000100000000000000000000000000000000000000000000000040000000000000000000000000002000000000000000000000000000000000000000000000000000000000000000000000008000040000000000000000",
      "type": "0x2",
      "transactionHash": "0x8b3a55a1bc405b5b25ebf7c8864126c3b35c85760b7777e0ee568fe660eb7c1b",
      "transactionIndex": "0x0",
      "blockHash": "0x1b73633e6286784e6ade6b5eac5f88f10d0f2b8abd9654fc7a9d4abc3049688e",
      "blockNumber": "0x3b",
      "gasUsed": "0x6278c",
      "effectiveGasPrice": "0x82ea4",
      "blobGasPrice": "0x1",
      "from": "0x14dc79964da2c08b23698b3d3cc7ca32193d9955",
      "to": "0x5fbdb2315678afecb367f032d93f642f64180aa3",
      "contractAddress": null
    },
    {
      "status": "0x1",
      "cumulativeGasUsed": "0x5cfa8",
      "logs": [
        {
          "address": "0x5fbdb2315678afecb367f032d93f642f64180aa3",
          "topics": [
            "0x529e5c9e24a307575814835cf69244181f51bc2ae08b95b8c8459d652a7ee9cf",
            "0x000000000000000000000000000000000000000000000000000000000000000c",
            "0x0000000000000000000000000000000000000000000000000000000000000002"
          ],
          "data": "0x00000000000000000000000000000000000000000000000000000000000000020000000000000000000000003c44cdddb6a900fa2b585dd299e03d12fa4293bc",
          "blockHash": "0x89eceb555ce83101a0f01bb5c77af0be70c7587b820700ef62b16aa83e222566",
          "blockNumber": "0x3c",
          "blockTimestamp": "0x69d6d274",
          "transactionHash": "0xfc8cbcef2ded6ec805ce4ecb53cdba98345bac1d5c533bc46aef621b6c21679b",
          "transactionIndex": "0x0",
          "logIndex": "0x0",
          "removed": false
        }
      ],
      "logsBloom": "0x04000000000000000000000100000000000102000000000000000000000000000000000000000200000000000000000000000000000000000000000000000000000000000000000000000000000000000000200000000000000000000000000000000040000000000000000000000000000000000000000000000000000000000000000000000000000000000000000000000000000000000000000200000000000000000000000000000100000000000000000000000000000000000000000000000040000000000000000000000000000000000000000000000000000000200000000000000000000000000000000000000000008000000000000000000000",
      "type": "0x2",
      "transactionHash": "0xfc8cbcef2ded6ec805ce4ecb53cdba98345bac1d5c533bc46aef621b6c21679b",
      "transactionIndex": "0x0",
      "blockHash": "0x89eceb555ce83101a0f01bb5c77af0be70c7587b820700ef62b16aa83e222566",
      "blockNumber": "0x3c",
      "gasUsed": "0x5cfa8",
      "effectiveGasPrice": "0x72fda",
      "blobGasPrice": "0x1",
      "from": "0x3c44cdddb6a900fa2b585dd299e03d12fa4293bc",
      "to": "0x5fbdb2315678afecb367f032d93f642f64180aa3",
      "contractAddress": null
    },
    {
      "status": "0x1",
      "cumulativeGasUsed": "0x9241",
      "logs": [
        {
          "address": "0x5fbdb2315678afecb367f032d93f642f64180aa3",
          "topics": [
            "0x7c1c93f72f29b8a1fc6fc85eed990d133b1ffac80c962b521abb12f38f2ff9af",
            "0x0000000000000000000000000000000000000000000000000000000000000002"
          ],
          "data": "0x0000000000000000000000000000000000000000000000000000000000000003",
          "blockHash": "0x60c3921925703af99bddebe49ffd79ecfdcff81b4182a1832f6795ac9e815bbd",
          "blockNumber": "0x3d",
          "blockTimestamp": "0x69d6d274",
          "transactionHash": "0xa2b55510243e4b9e73647641854fab208e0d382ff9b6943fa7ccea92be591996",
          "transactionIndex": "0x0",
          "logIndex": "0x0",
          "removed": false
        }
      ],
      "logsBloom": "0x04000000000000000000000000000080000000000000000000000000000000000000000000000000000000000000000000000000000000000000000000000000000000000000000000000000000000000000000000000000000000000000000000000040000000000000000000000000000000000000000000000000000000000000000000000000000000000000000000000000000000000000000200000000000000000000000000000100000000000000000000000000000000000000000000000040000000000000000800000000000000000000000000000000000000000000000000000000000000000000000000000000008008000000000000000000",
      "type": "0x2",
      "transactionHash": "0xa2b55510243e4b9e73647641854fab208e0d382ff9b6943fa7ccea92be591996",
      "transactionIndex": "0x0",
      "blockHash": "0x60c3921925703af99bddebe49ffd79ecfdcff81b4182a1832f6795ac9e815bbd",
      "blockNumber": "0x3d",
      "gasUsed": "0x9241",
      "effectiveGasPrice": "0x64fb6",
      "blobGasPrice": "0x1",
      "from": "0x3c44cdddb6a900fa2b585dd299e03d12fa4293bc",
      "to": "0x5fbdb2315678afecb367f032d93f642f64180aa3",
      "contractAddress": null
    },
    {
      "status": "0x1",
      "cumulativeGasUsed": "0x628c4",
      "logs": [
        {
          "address": "0x5fbdb2315678afecb367f032d93f642f64180aa3",
          "topics": [
            "0x529e5c9e24a307575814835cf69244181f51bc2ae08b95b8c8459d652a7ee9cf",
            "0x000000000000000000000000000000000000000000000000000000000000000d",
            "0x0000000000000000000000000000000000000000000000000000000000000002"
          ],
          "data": "0x00000000000000000000000000000000000000000000000000000000000000030000000000000000000000003c44cdddb6a900fa2b585dd299e03d12fa4293bc",
          "blockHash": "0xde3ad7456abb571819cfa9d33cbd08d7dd036509a8cda0b1633bbacfe80ed24a",
          "blockNumber": "0x3e",
          "blockTimestamp": "0x69d6d274",
          "transactionHash": "0xb84b95fee500de0271f67ec5c6d3ec5a71c72d72255dfeaf7ee9fda20a41dc86",
          "transactionIndex": "0x0",
          "logIndex": "0x0",
          "removed": false
        }
      ],
      "logsBloom": "0x04000000000000000040000100000000000100000000000000000000000000000000000000000000000000000000000000000000000000000000000000000000000000000000000000000000000000000002200000000000000000000000000000000040000000000000000000000000000000000000000000000000000000000000000000000000000000000000000000000000000000000000000200000000000000000000000000000100000000000000000000000000000000000000000000000040000000000000000000000000000000000000000000000000000000020000000000000000000000000000000000000000008000000000000000000000",
      "type": "0x2",
      "transactionHash": "0xb84b95fee500de0271f67ec5c6d3ec5a71c72d72255dfeaf7ee9fda20a41dc86",
      "transactionIndex": "0x0",
      "blockHash": "0xde3ad7456abb571819cfa9d33cbd08d7dd036509a8cda0b1633bbacfe80ed24a",
      "blockNumber": "0x3e",
      "gasUsed": "0x628c4",
      "effectiveGasPrice": "0x58641",
      "blobGasPrice": "0x1",
      "from": "0x3c44cdddb6a900fa2b585dd299e03d12fa4293bc",
      "to": "0x5fbdb2315678afecb367f032d93f642f64180aa3",
      "contractAddress": null
    }
  ],
  "libraries": [],
  "pending": [],
  "returns": {},
  "timestamp": 1775686260284,
  "chain": 31337,
  "commit": "b2a9a0b1"
}