{
  "transactions": [
    {
      "hash": "0x9550237b038b607e64afab3ce196e881607dad0930fb3432ac8dc50cb4303c62",
      "transactionType": "CALL",
      "contractName": null,
      "contractAddress": "0x5fbdb2315678afecb367f032d93f642f64180aa3",
      "function": "createShipment(address,string,string,string,bool)",
      "arguments": [
        "0x15d34AAf54267DB7D7c367839AAf71A00a2C6A65",
        "Pollo congelado IQF - Lote PC-2024-311 - 800 kg",
        "Bogota",
        "Cali",
        "true"
      ],
      "transaction": {
        "from": "0x70997970c51812dc3a010c7d01b50e0d17dc79c8",
        "to": "0x5fbdb2315678afecb367f032d93f642f64180aa3",
        "gas": "0x8175c",
        "value": "0x0",
        "input": "0x475b6f9800000000000000000000000015d34aaf54267db7d7c367839aaf71a00a2c6a6500000000000000000000000000000000000000000000000000000000000000a0000000000000000000000000000000000000000000000000000000000000010000000000000000000000000000000000000000000000000000000000000001400000000000000000000000000000000000000000000000000000000000000001000000000000000000000000000000000000000000000000000000000000002f506f6c6c6f20636f6e67656c61646f20495146202d204c6f74652050432d323032342d333131202d20383030206b6700000000000000000000000000000000000000000000000000000000000000000000000000000000000000000000000006426f676f74610000000000000000000000000000000000000000000000000000000000000000000000000000000000000000000000000000000000000000000443616c6900000000000000000000000000000000000000000000000000000000",
        "nonce": "0x2",
        "chainId": "0x7a69"
      },
      "additionalContracts": [],
      "isFixedGasLimit": false
    },
    {
      "hash": "0x841fb89135f645f2f5024d3d614abb004fd9c727dd0178b4f0361e659201c386",
      "transactionType": "CALL",
      "contractName": null,
      "contractAddress": "0x5fbdb2315678afecb367f032d93f642f64180aa3",
      "function": "recordCheckpoint(uint256,string,uint8,string,int256)",
      "arguments": [
        "2",
        "Frigorificos Del Valle - Bogota, Zona Industrial Montevideo",
        "0",
        "Lote: PC-2024-311 | 800 kg pollo IQF | Temp camara: -18C | Embalaje: 40 cajas OK | Precinto: FR-001 | Resp: H. Sanchez",
        "20"
      ],
      "transaction": {
        "from": "0x70997970c51812dc3a010c7d01b50e0d17dc79c8",
        "to": "0x5fbdb2315678afecb367f032d93f642f64180aa3",
        "gas": "0x7f934",
        "value": "0x0",
        "input": "0x0a7a0b69000000000000000000000000000000000000000000000000000000000000000200000000000000000000000000000000000000000000000000000000000000a0000000000000000000000000000000000000000000000000000000000000000000000000000000000000000000000000000000000000000000000000000001000000000000000000000000000000000000000000000000000000000000000014000000000000000000000000000000000000000000000000000000000000003b467269676f72696669636f732044656c2056616c6c65202d20426f676f74612c205a6f6e6120496e647573747269616c204d6f6e7465766964656f000000000000000000000000000000000000000000000000000000000000000000000000764c6f74653a2050432d323032342d333131207c20383030206b6720706f6c6c6f20495146207c2054656d702063616d6172613a202d313843207c20456d62616c616a653a2034302063616a6173204f4b207c2050726563696e746f3a2046522d303031207c20526573703a20482e2053616e6368657a00000000000000000000",
        "nonce": "0x3",
        "chainId": "0x7a69"
      },
      "additionalContracts": [],
      "isFixedGasLimit": false
    },
    {
      "hash": "0xc0d602e1d8c9e2f8d94fda84e44bcbc89c1eeb6dd6e40007c3fc6f5fd3abfd6f",
      "transactionType": "CALL",
      "contractName": null,
      "contractAddress": "0x5fbdb2315678afecb367f032d93f642f64180aa3",
      "function": "updateShipmentStatus(uint256,uint8)",
      "arguments": [
        "2",
        "1"
      ],
      "transaction": {
        "from": "0x90f79bf6eb2c4f870365e785982e1f101e93b906",
        "to": "0x5fbdb2315678afecb367f032d93f642f64180aa3",
        "gas": "0x226e6",
        "value": "0x0",
        "input": "0x7defa92000000000000000000000000000000000000000000000000000000000000000020000000000000000000000000000000000000000000000000000000000000001",
        "nonce": "0x2",
        "chainId": "0x7a69"
      },
      "additionalContracts": [],
      "isFixedGasLimit": false
    },
    {
      "hash": "0x78bca77a0e0d5c340b0bf0ac24c90a87ccff47469a2ae814904f2ca0bb362d81",
      "transactionType": "CALL",
      "contractName": null,
      "contractAddress": "0x5fbdb2315678afecb367f032d93f642f64180aa3",
      "function": "recordCheckpoint(uint256,string,uint8,string,int256)",
      "arguments": [
        "2",
        "Hub Bogota Puente Aranda - Anden de Recepcion",
        "1",
        "Llegada: 09:20 | 40/40 cajas integras | Precinto FR-001: OK | Temp bodega: -18C | Asignado: Camion TRK-551 | Resp: P. Morales",
        "22"
      ],
      "transaction": {
        "from": "0x90f79bf6eb2c4f870365e785982e1f101e93b906",
        "to": "0x5fbdb2315678afecb367f032d93f642f64180aa3",
        "gas": "0x807ec",
        "value": "0x0",
        "input": "0x0a7a0b69000000000000000000000000000000000000000000000000000000000000000200000000000000000000000000000000000000000000000000000000000000a0000000000000000000000000000000000000000000000000000000000000000100000000000000000000000000000000000000000000000000000000000001000000000000000000000000000000000000000000000000000000000000000016000000000000000000000000000000000000000000000000000000000000002d48756220426f676f7461205075656e7465204172616e6461202d20416e64656e20646520526563657063696f6e00000000000000000000000000000000000000000000000000000000000000000000000000000000000000000000000000007d4c6c65676164613a2030393a3230207c2034302f34302063616a617320696e746567726173207c2050726563696e746f2046522d3030313a204f4b207c2054656d7020626f646567613a202d313843207c20417369676e61646f3a2043616d696f6e2054524b2d353531207c20526573703a20502e204d6f72616c6573000000",
        "nonce": "0x3",
        "chainId": "0x7a69"
      },
      "additionalContracts": [],
      "isFixedGasLimit": false
    },
    {
      "hash": "0x48cfba7679b3a54b1c14f360cb16468208eee64e62b4480bcb25396f82e347bf",
      "transactionType": "CALL",
      "contractName": null,
      "contractAddress": "0x5fbdb2315678afecb367f032d93f642f64180aa3",
      "function": "updateShipmentStatus(uint256,uint8)",
      "arguments": [
        "2",
        "1"
      ],
      "transaction": {
        "from": "0x3c44cdddb6a900fa2b585dd299e03d12fa4293bc",
        "to": "0x5fbdb2315678afecb367f032d93f642f64180aa3",
        "gas": "0x1bb50",
        "value": "0x0",
        "input": "0x7defa92000000000000000000000000000000000000000000000000000000000000000020000000000000000000000000000000000000000000000000000000000000001",
        "nonce": "0x6",
        "chainId": "0x7a69"
      },
      "additionalContracts": [],
      "isFixedGasLimit": false
    },
    {
      "hash": "0x7e0baa9e4a53b5e03f5e7abfe0a29efc4e8dfc38ce6cddcc3028e47e3bbb25a3",
      "transactionType": "CALL",
      "contractName": null,
      "contractAddress": "0x5fbdb2315678afecb367f032d93f642f64180aa3",
      "function": "recordCheckpoint(uint256,string,uint8,string,int256)",
      "arguments": [
        "2",
        "Autopista Bogota-Cali, km 198 - Alto de La Linea",
        "2",
        "Hora: 13:45 | Placa: TRK-551 | Conductor: M. Lopez | Precinto FR-001: OK | Temp exterior: 15C | Temp carga: -17C",
        "25"
      ],
      "transaction": {
        "from": "0x3c44cdddb6a900fa2b585dd299e03d12fa4293bc",
        "to": "0x5fbdb2315678afecb367f032d93f642f64180aa3",
        "gas": "0x80746",
        "value": "0x0",
        "input": "0x0a7a0b69000000000000000000000000000000000000000000000000000000000000000200000000000000000000000000000000000000000000000000000000000000a000000000000000000000000000000000000000000000000000000000000000020000000000000000000000000000000000000000000000000000000000000100000000000000000000000000000000000000000000000000000000000000001900000000000000000000000000000000000000000000000000000000000000304175746f706973746120426f676f74612d43616c692c206b6d20313938202d20416c746f206465204c61204c696e6561000000000000000000000000000000000000000000000000000000000000000000000000000000000000000000000070486f72613a2031333a3435207c20506c6163613a2054524b2d353531207c20436f6e647563746f723a204d2e204c6f70657a207c2050726563696e746f2046522d3030313a204f4b207c2054656d70206578746572696f723a20313543207c2054656d702063617267613a202d31374300000000000000000000000000000000",
        "nonce": "0x7",
        "chainId": "0x7a69"
      },
      "additionalContracts": [],
      "isFixedGasLimit": false
    },
    {
      "hash": "0xd902f5da9f12b3fbabd37ce43b11aefc2f8317da4d783c2d52603919e02ef1c8",
      "transactionType": "CALL",
      "contractName": null,
      "contractAddress": "0x5fbdb2315678afecb367f032d93f642f64180aa3",
      "function": "updateShipmentStatus(uint256,uint8)",
      "arguments": [
        "2",
        "2"
      ],
      "transaction": {
        "from": "0x14dc79964da2c08b23698b3d3cc7ca32193d9955",
        "to": "0x5fbdb2315678afecb367f032d93f642f64180aa3",
        "gas": "0x1caa2",
        "value": "0x0",
        "input": "0x7defa92000000000000000000000000000000000000000000000000000000000000000020000000000000000000000000000000000000000000000000000000000000002",
        "nonce": "0x2",
        "chainId": "0x7a69"
      },
      "additionalContracts": [],
      "isFixedGasLimit": false
    },
    {
      "hash": "0x9bcd8f69fc2db946cd304ac077777eaf731dabc0e0591592147f717c1356df0b",
      "transactionType": "CALL",
      "contractName": null,
      "contractAddress": "0x5fbdb2315678afecb367f032d93f642f64180aa3",
      "function": "recordCheckpoint(uint256,string,uint8,string,int256)",
      "arguments": [
        "2",
        "Hub Cali Acopi - Recepcion Frigorifico",
        "1",
        "Llegada: 17:30 | 40/40 cajas OK | Precinto FR-001: integro | Temp camara Acopi: -19C | Peso verificado: 800 kg | Resp: C. Valencia",
        "21"
      ],
      "transaction": {
        "from": "0x14dc79964da2c08b23698b3d3cc7ca32193d9955",
        "to": "0x5fbdb2315678afecb367f032d93f642f64180aa3",
        "gas": "0x88038",
        "value": "0x0",
        "input": "0x0a7a0b69000000000000000000000000000000000000000000000000000000000000000200000000000000000000000000000000000000000000000000000000000000a000000000000000000000000000000000000000000000000000000000000000010000000000000000000000000000000000000000000000000000000000000100000000000000000000000000000000000000000000000000000000000000001500000000000000000000000000000000000000000000000000000000000000264875622043616c692041636f7069202d20526563657063696f6e20467269676f72696669636f000000000000000000000000000000000000000000000000000000000000000000000000000000000000000000000000000000000000000000824c6c65676164613a2031373a3330207c2034302f34302063616a6173204f4b207c2050726563696e746f2046522d3030313a20696e746567726f207c2054656d702063616d6172612041636f70693a202d313943207c205065736f207665726966696361646f3a20383030206b67207c20526573703a20432e2056616c656e636961000000000000000000000000000000000000000000000000000000000000",
        "nonce": "0x3",
        "chainId": "0x7a69"
      },
      "additionalContracts": [],
      "isFixedGasLimit": false
    },
    {
      "hash": "0x6cf9e5da5898f25d813f9d9e87e5c6245b60386ad09c0dd2c7a143cfd40d6bea",
      "transactionType": "CALL",
      "contractName": null,
      "contractAddress": "0x5fbdb2315678afecb367f032d93f642f64180aa3",
      "function": "recordCheckpoint(uint256,string,uint8,string,int256)",
      "arguments": [
        "2",
        "Hub Cali Acopi - Bahia de Despacho",
        "2",
        "Salida: 07:15 | Veh: VAN-FRIO-22 | Conductor: R. Castillo | Precinto nuevo: FR-002 | 40 cajas | ETA Supermercado: 09:00",
        "24"
      ],
      "transaction": {
        "from": "0x3c44cdddb6a900fa2b585dd299e03d12fa4293bc",
        "to": "0x5fbdb2315678afecb367f032d93f642f64180aa3",
        "gas": "0x806d2",
        "value": "0x0",
        "input": "0x0a7a0b69000000000000000000000000000000000000000000000000000000000000000200000000000000000000000000000000000000000000000000000000000000a000000000000000000000000000000000000000000000000000000000000000020000000000000000000000000000000000000000000000000000000000000100000000000000000000000000000000000000000000000000000000000000001800000000000000000000000000000000000000000000000000000000000000224875622043616c692041636f7069202d20426168696120646520446573706163686f000000000000000000000000000000000000000000000000000000000000000000000000000000000000000000000000000000000000000000000000007753616c6964613a2030373a3135207c205665683a2056414e2d4652494f2d3232207c20436f6e647563746f723a20522e2043617374696c6c6f207c2050726563696e746f206e7565766f3a2046522d303032207c2034302063616a6173207c204554412053757065726d65726361646f3a2030393a3030000000000000000000",
        "nonce": "0x8",
        "chainId": "0x7a69"
      },
      "additionalContracts": [],
      "isFixedGasLimit": false
    },
    {
      "hash": "0x02d072a61f162155613dbe07e4572db22761fd9a92681749fee0c319c74374ea",
      "transactionType": "CALL",
      "contractName": null,
      "contractAddress": "0x5fbdb2315678afecb367f032d93f642f64180aa3",
      "function": "updateShipmentStatus(uint256,uint8)",
      "arguments": [
        "2",
        "3"
      ],
      "transaction": {
        "from": "0x3c44cdddb6a900fa2b585dd299e03d12fa4293bc",
        "to": "0x5fbdb2315678afecb367f032d93f642f64180aa3",
        "gas": "0xd5e5",
        "value": "0x0",
        "input": "0x7defa92000000000000000000000000000000000000000000000000000000000000000020000000000000000000000000000000000000000000000000000000000000003",
        "nonce": "0x9",
        "chainId": "0x7a69"
      },
      "additionalContracts": [],
      "isFixedGasLimit": false
    },
    {
      "hash": "0xbbbe70a9f525eb038c16bb313c102480ea269bb6a9ac96865fde0406871ddc79",
      "transactionType": "CALL",
      "contractName": null,
      "contractAddress": "0x5fbdb2315678afecb367f032d93f642f64180aa3",
      "function": "recordCheckpoint(uint256,string,uint8,string,int256)",
      "arguments": [
        "2",
        "Supermercado La 14 Cali - Recepcion Carnes y Congelados, Av. 6N #28-00",
        "3",
        "Recibe: Jefe bodega J. Restrepo | 40/40 cajas OK | Precinto FR-002: integro | Temp recepcion: -17C | Acta: REC-CON-2024-089",
        "23"
      ],
      "transaction": {
        "from": "0x3c44cdddb6a900fa2b585dd299e03d12fa4293bc",
        "to": "0x5fbdb2315678afecb367f032d93f642f64180aa3",
        "gas": "0x881e8",
        "value": "0x0",
        "input": "0x0a7a0b69000000000000000000000000000000000000000000000000000000000000000200000000000000000000000000000000000000000000000000000000000000a0000000000000000000000000000000000000000000000000000000000000000300000000000000000000000000000000000000000000000000000000000001200000000000000000000000000000000000000000000000000000000000000017000000000000000000000000000000000000000000000000000000000000004653757065726d65726361646f204c612031342043616c69202d20526563657063696f6e204361726e6573207920436f6e67656c61646f732c2041762e20364e202332382d30300000000000000000000000000000000000000000000000000000000000000000000000000000000000000000000000000000000000000000007b5265636962653a204a65666520626f64656761204a2e20526573747265706f207c2034302f34302063616a6173204f4b207c2050726563696e746f2046522d3030323a20696e746567726f207c2054656d7020726563657063696f6e3a202d313743207c20416374613a205245432d434f4e2d323032342d3038390000000000",
        "nonce": "0xa",
        "chainId": "0x7a69"
      },
      "additionalContracts": [],
      "isFixedGasLimit": false
    }
  ],
  "receipts": [
    {
      "status": "0x1",
      "cumulativeGasUsed": "0x58851",
      "logs": [
        {
          "address": "0x5fbdb2315678afecb367f032d93f642f64180aa3",
          "topics": [
            "0x8fb6b855d6cbdf201f2fcaadbf8c38d36168ff7d2ca865cb2599abcd5a060e8f",
            "0x0000000000000000000000000000000000000000000000000000000000000002",
            "0x00000000000000000000000070997970c51812dc3a010c7d01b50e0d17dc79c8",
            "0x00000000000000000000000015d34aaf54267db7d7c367839aaf71a00a2c6a65"
          ],
          "data": "0x0000000000000000000000000000000000000000000000000000000000000020000000000000000000000000000000000000000000000000000000000000002f506f6c6c6f20636f6e67656c61646f20495146202d204c6f74652050432d323032342d333131202d20383030206b670000000000000000000000000000000000",
          "blockHash": "0x70cf23127dea24be7584143eaa193866b25d8d7439f0668a54402b47a92189a2",
          "blockNumber": "0x14",
          "blockTimestamp": "0x69d7b8aa",
          "transactionHash": "0x9550237b038b607e64afab3ce196e881607dad0930fb3432ac8dc50cb4303c62",
          "transactionIndex": "0x0",
          "logIndex": "0x0",
          "removed": false
        }
      ],
      "logsBloom": "0x04000000040000000002000000000000000000000000000000000000000000000000000000000000000000000000000000000000000000000000000000000000000000000000000000000000000000000000000000000000000000000000000000000840000000000000000000000000000000000000000000000000000000000000000000000000000000000000000000000200000000000000000300000000000000000000000000000100000000000000000000000000000000000000000000000040000000000000000040000000000000000000000000000000000004000000000000000000000000000000000001004000008000000000000000000000",
      "type": "0x2",
      "transactionHash": "0x9550237b038b607e64afab3ce196e881607dad0930fb3432ac8dc50cb4303c62",
      "transactionIndex": "0x0",
      "blockHash": "0x70cf23127dea24be7584143eaa193866b25d8d7439f0668a54402b47a92189a2",
      "blockNumber": "0x14",
      "gasUsed": "0x58851",
      "effectiveGasPrice": "0x52a076f",
      "blobGasPrice": "0x1",
      "from": "0x70997970c51812dc3a010c7d01b50e0d17dc79c8",
      "to": "0x5fbdb2315678afecb367f032d93f642f64180aa3",
      "contractAddress": null
    },
    {
      "status": "0x1",
      "cumulativeGasUsed": "0x5c5cc",
      "logs": [
        {
          "address": "0x5fbdb2315678afecb367f032d93f642f64180aa3",
          "topics": [
            "0x529e5c9e24a307575814835cf69244181f51bc2ae08b95b8c8459d652a7ee9cf",
            "0x0000000000000000000000000000000000000000000000000000000000000008",
            "0x0000000000000000000000000000000000000000000000000000000000000002"
          ],
          "data": "0x000000000000000000000000000000000000000000000000000000000000000000000000000000000000000070997970c51812dc3a010c7d01b50e0d17dc79c8",
          "blockHash": "0xeb9d6aff51d206546175a5a3ea7704de2b69d70f593cc2b58fcdca5e3109e964",
          "blockNumber": "0x15",
          "blockTimestamp": "0x69d7b8aa",
          "transactionHash": "0x841fb89135f645f2f5024d3d614abb004fd9c727dd0178b4f0361e659201c386",
          "transactionIndex": "0x0",
          "logIndex": "0x0",
          "removed": false
        }
      ],
      "logsBloom": "0x04000000000000000000000100000000000100000000000000000000000000000000000000000000000000000000000000000000000080000000000000000000000000000000000000000000000000000000200000000000000000000000000000000040000000000000000000000000000000000000000000000000000000000080000000000000000000000000000000000000000000000000000200000000000000000000000000000100000000000000000000000000000000000000000040000040000000000000000000000000000000000000000000000000000000000000000000000000000000000000000000000000008000000000000000000000",
      "type": "0x2",
      "transactionHash": "0x841fb89135f645f2f5024d3d614abb004fd9c727dd0178b4f0361e659201c386",
      "transactionIndex": "0x0",
      "blockHash": "0xeb9d6aff51d206546175a5a3ea7704de2b69d70f593cc2b58fcdca5e3109e964",
      "blockNumber": "0x15",
      "gasUsed": "0x5c5cc",
      "effectiveGasPrice": "0x488c518",
      "blobGasPrice": "0x1",
      "from": "0x70997970c51812dc3a010c7d01b50e0d17dc79c8",
      "to": "0x5fbdb2315678afecb367f032d93f642f64180aa3",
      "contractAddress": null
    },
    {
      "status": "0x1",
      "cumulativeGasUsed": "0x18ed8",
      "logs": [
        {
          "address": "0x5fbdb2315678afecb367f032d93f642f64180aa3",
          "topics": [
            "0x7c1c93f72f29b8a1fc6fc85eed990d133b1ffac80c962b521abb12f38f2ff9af",
            "0x0000000000000000000000000000000000000000000000000000000000000002"
          ],
          "data": "0x0000000000000000000000000000000000000000000000000000000000000001",
          "blockHash": "0x2bfd2c06b2c19b06234e3aa69b2d41db2f546fe61e2a07990189d7f95e55b0d5",
          "blockNumber": "0x16",
          "blockTimestamp": "0x69d7b8aa",
          "transactionHash": "0xc0d602e1d8c9e2f8d94fda84e44bcbc89c1eeb6dd6e40007c3fc6f5fd3abfd6f",
          "transactionIndex": "0x0",
          "logIndex": "0x0",
          "removed": false
        }
      ],
      "logsBloom": "0x04000000000000000000000000000080000000000000000000000000000000000000000000000000000000000000000000000000000000000000000000000000000000000000000000000000000000000000000000000000000000000000000000000040000000000000000000000000000000000000000000000000000000000000000000000000000000000000000000000000000000000000000200000000000000000000000000000100000000000000000000000000000000000000000000000040000000000000000800000000000000000000000000000000000000000000000000000000000000000000000000000000008008000000000000000000",
      "type": "0x2",
      "transactionHash": "0xc0d602e1d8c9e2f8d94fda84e44bcbc89c1eeb6dd6e40007c3fc6f5fd3abfd6f",
      "transactionIndex": "0x0",
      "blockHash": "0x2bfd2c06b2c19b06234e3aa69b2d41db2f546fe61e2a07990189d7f95e55b0d5",
      "blockNumber": "0x16",
      "gasUsed": "0x18ed8",
      "effectiveGasPrice": "0x3fb5549",
      "blobGasPrice": "0x1",
      "from": "0x90f79bf6eb2c4f870365e785982e1f101e93b906",
      "to": "0x5fbdb2315678afecb367f032d93f642f64180aa3",
      "contractAddress": null
    },
    {
      "status": "0x1",
      "cumulativeGasUsed": "0x5d074",
      "logs": [
        {
          "address": "0x5fbdb2315678afecb367f032d93f642f64180aa3",
          "topics": [
            "0x529e5c9e24a307575814835cf69244181f51bc2ae08b95b8c8459d652a7ee9cf",
            "0x0000000000000000000000000000000000000000000000000000000000000009",
            "0x0000000000000000000000000000000000000000000000000000000000000002"
          ],
          "data": "0x000000000000000000000000000000000000000000000000000000000000000100000000000000000000000090f79bf6eb2c4f870365e785982e1f101e93b906",
          "blockHash": "0xfb9bb13e4c0b93bf0b1104e8c8aa6b493b4b2a58615376eaf32b31e3a43b27d5",
          "blockNumber": "0x17",
          "blockTimestamp": "0x69d7b8aa",
          "transactionHash": "0x78bca77a0e0d5c340b0bf0ac24c90a87ccff47469a2ae814904f2ca0bb362d81",
          "transactionIndex": "0x0",
          "logIndex": "0x0",
          "removed": false
        }
      ],
      "logsBloom": "0x04000000000000000000000100000000000100000000000000000000000000000000000000000000000000000000000000000000000000000000000000200000000000000000000000000000000000000000200000000000000000000000000000000040000000000000000000000000000000000000000000000000000000000000000000000000000000000000000000001000000000000000000200000000000000000000000000000100000000000000000000000000000000000000000000000040000000000000000000000000000000000000000000000000000000000000000000000000000000000000000000000000008000000000000000800000",
      "type": "0x2",
      "transactionHash": "0x78bca77a0e0d5c340b0bf0ac24c90a87ccff47469a2ae814904f2ca0bb362d81",
      "transactionIndex": "0x0",
      "blockHash": "0xfb9bb13e4c0b93bf0b1104e8c8aa6b493b4b2a58615376eaf32b31e3a43b27d5",
      "blockNumber": "0x17",
      "gasUsed": "0x5d074",
      "effectiveGasPrice": "0x37cc8a9",
      "blobGasPrice": "0x1",
      "from": "0x90f79bf6eb2c4f870365e785982e1f101e93b906",
      "to": "0x5fbdb2315678afecb367f032d93f642f64180aa3",
      "contractAddress": null
    },
    {
      "status": "0x1",
      "cumulativeGasUsed": "0x140f4",
      "logs": [
        {
          "address": "0x5fbdb2315678afecb367f032d93f642f64180aa3",
          "topics": [
            "0x7c1c93f72f29b8a1fc6fc85eed990d133b1ffac80c962b521abb12f38f2ff9af",
            "0x0000000000000000000000000000000000000000000000000000000000000002"
          ],
          "data": "0x0000000000000000000000000000000000000000000000000000000000000001",
          "blockHash": "0x63929e3aa52c9d95a441c37260ca8da982934b8359368deab5411e167c65d514",
          "blockNumber": "0x18",
          "blockTimestamp": "0x69d7b8aa",
          "transactionHash": "0x48cfba7679b3a54b1c14f360cb16468208eee64e62b4480bcb25396f82e347bf",
          "transactionIndex": "0x0",
          "logIndex": "0x0",
          "removed": false
        }
      ],
      "logsBloom": "0x04000000000000000000000000000080000000000000000000000000000000000000000000000000000000000000000000000000000000000000000000000000000000000000000000000000000000000000000000000000000000000000000000000040000000000000000000000000000000000000000000000000000000000000000000000000000000000000000000000000000000000000000200000000000000000000000000000100000000000000000000000000000000000000000000000040000000000000000800000000000000000000000000000000000000000000000000000000000000000000000000000000008008000000000000000000",
      "type": "0x2",
      "transactionHash": "0x48cfba7679b3a54b1c14f360cb16468208eee64e62b4480bcb25396f82e347bf",
      "transactionIndex": "0x0",
      "blockHash": "0x63929e3aa52c9d95a441c37260ca8da982934b8359368deab5411e167c65d514",
      "blockNumber": "0x18",
      "gasUsed": "0x140f4",
      "effectiveGasPrice": "0x3100552",
      "blobGasPrice": "0x1",
      "from": "0x3c44cdddb6a900fa2b585dd299e03d12fa4293bc",
      "to": "0x5fbdb2315678afecb367f032d93f642f64180aa3",
      "contractAddress": null
    },
    {
      "status": "0x1",
      "cumulativeGasUsed": "0x5cffc",
      "logs": [
        {
          "address": "0x5fbdb2315678afecb367f032d93f642f64180aa3",
          "topics": [
            "0x529e5c9e24a307575814835cf69244181f51bc2ae08b95b8c8459d652a7ee9cf",
            "0x000000000000000000000000000000000000000000000000000000000000000a",
            "0x0000000000000000000000000000000000000000000000000000000000000002"
          ],
          "data": "0x00000000000000000000000000000000000000000000000000000000000000020000000000000000000000003c44cdddb6a900fa2b585dd299e03d12fa4293bc",
          "blockHash": "0x5d2f8a62bf9dc4908523125297825843e6e84ea6282c22283e5c083c1d049552",
          "blockNumber": "0x19",
          "blockTimestamp": "0x69d7b8aa",
          "transactionHash": "0x7e0baa9e4a53b5e03f5e7abfe0a29efc4e8dfc38ce6cddcc3028e47e3bbb25a3",
          "transactionIndex": "0x0",
          "logIndex": "0x0",
          "removed": false
        }
      ],
      "logsBloom": "0x04000000000000000000000100000000000100000000000000000000000000000000000000000000000000000000000000000000040000000020000000000000000000000000000000000000000000000000200000000000000000000000000000000040000000000000000000000000000000000000000000000000000000000000000000000000010000000000000000000000000000000000000200000000000000000000000000000100000000000000000000000000000000000000000000000040000000000000000000000000000000000000000000000000000000000000000000000000000000000000000000000000008000000000000000000000",
      "type": "0x2",
      "transactionHash": "0x7e0baa9e4a53b5e03f5e7abfe0a29efc4e8dfc38ce6cddcc3028e47e3bbb25a3",
      "transactionIndex": "0x0",
      "blockHash": "0x5d2f8a62bf9dc4908523125297825843e6e84ea6282c22283e5c083c1d049552",
      "blockNumber": "0x19",
      "gasUsed": "0x5cffc",
      "effectiveGasPrice": "0x2ae8e15",
      "blobGasPrice": "0x1",
      "from": "0x3c44cdddb6a900fa2b585dd299e03d12fa4293bc",
      "to": "0x5fbdb2315678afecb367f032d93f642f64180aa3",
      "contractAddress": null
    },
    {
      "status": "0x1",
      "cumulativeGasUsed": "0x14c0c",
      "logs": [
        {
          "address": "0x5fbdb2315678afecb367f032d93f642f64180aa3",
          "topics": [
            "0x7c1c93f72f29b8a1fc6fc85eed990d133b1ffac80c962b521abb12f38f2ff9af",
            "0x0000000000000000000000000000000000000000000000000000000000000002"
          ],
          "data": "0x0000000000000000000000000000000000000000000000000000000000000002",
          "blockHash": "0x53469be7affc6fa09f928fa882134c93f70ad5dcea7efab696d544b5dd0cb7df",
          "blockNumber": "0x1a",
          "blockTimestamp": "0x69d7b8aa",
          "transactionHash": "0xd902f5da9f12b3fbabd37ce43b11aefc2f8317da4d783c2d52603919e02ef1c8",
          "transactionIndex": "0x0",
          "logIndex": "0x0",
          "removed": false
        }
      ],
      "logsBloom": "0x04000000000000000000000000000080000000000000000000000000000000000000000000000000000000000000000000000000000000000000000000000000000000000000000000000000000000000000000000000000000000000000000000000040000000000000000000000000000000000000000000000000000000000000000000000000000000000000000000000000000000000000000200000000000000000000000000000100000000000000000000000000000000000000000000000040000000000000000800000000000000000000000000000000000000000000000000000000000000000000000000000000008008000000000000000000",
      "type": "0x2",
      "transactionHash": "0xd902f5da9f12b3fbabd37ce43b11aefc2f8317da4d783c2d52603919e02ef1c8",
      "transactionIndex": "0x0",
      "blockHash": "0x53469be7affc6fa09f928fa882134c93f70ad5dcea7efab696d544b5dd0cb7df",
      "blockNumber": "0x1a",
      "gasUsed": "0x14c0c",
      "effectiveGasPrice": "0x25aea3f",
      "blobGasPrice": "0x1",
      "from": "0x14dc79964da2c08b23698b3d3cc7ca32193d9955",
      "to": "0x5fbdb2315678afecb367f032d93f642f64180aa3",
      "contractAddress": null
    },
    {
      "status": "0x1",
      "cumulativeGasUsed": "0x6278c",
      "logs": [
        {
          "address": "0x5fbdb2315678afecb367f032d93f642f64180aa3",
          "topics": [
            "0x529e5c9e24a307575814835cf69244181f51bc2ae08b95b8c8459d652a7ee9cf",
            "0x000000000000000000000000000000000000000000000000000000000000000b",
            "0x0000000000000000000000000000000000000000000000000000000000000002"
          ],
          "data": "0x000000000000000000000000000000000000000000000000000000000000000100000000000000000000000014dc79964da2c08b23698b3d3cc7ca32193d9955",
          "blockHash": "0xabff66938137c1e7fea2311cd856d6a8d89a60a02af865152053ac8bcdcdaf8b",
          "blockNumber": "0x1b",
          "blockTimestamp": "0x69d7b8aa",
          "transactionHash": "0x9bcd8f69fc2db946cd304ac077777eaf731dabc0e0591592147f717c1356df0b",
          "transactionIndex": "0x0",
          "logIndex": "0x0",
          "removed": false
        }
      ],
      "logsBloom": "0x04000000000000000000004100000000000100000000000000000000000000000000000000000000000000000000000000000000000000000000000000000000000000000000000000000000000000000000200000000000000000000000000000000040000000000000000000000000000000000000000000000000000000000000000000000000000000000000000000000000000000000000000200000000000000000000000000000100000000000000000000000000000000000000000000000040000000000000000000000000002000000000000000000000000000000000000000000000000000000000000000000000008000040000000000000000",
      "type": "0x2",
      "transactionHash": "0x9bcd8f69fc2db946cd304ac077777eaf731dabc0e0591592147f717c1356df0b",
      "transactionIndex": "0x0",
      "blockHash": "0xabff66938137c1e7fea2311cd856d6a8d89a60a02af865152053ac8bcdcdaf8b",
      "blockNumber": "0x1b",
      "gasUsed": "0x6278c",
      "effectiveGasPrice": "0x20ffa4d",
      "blobGasPrice": "0x1",
      "from": "0x14dc79964da2c08b23698b3d3cc7ca32193d9955",
      "to": "0x5fbdb2315678afecb367f032d93f642f64180aa3",
      "contractAddress": null
    },
    {
      "status": "0x1",
      "cumulativeGasUsed": "0x5cfa8",
      "logs": [
        {
          "address": "0x5fbdb2315678afecb367f032d93f642f64180aa3",
          "topics": [
            "0x529e5c9e24a307575814835cf69244181f51bc2ae08b95b8c8459d652a7ee9cf",
            "0x000000000000000000000000000000000000000000000000000000000000000c",
            "0x0000000000000000000000000000000000000000000000000000000000000002"
          ],
          "data": "0x00000000000000000000000000000000000000000000000000000000000000020000000000000000000000003c44cdddb6a900fa2b585dd299e03d12fa4293bc",
          "blockHash": "0xf37342b4f3799353dc3f57aa9a9779cf03a713fc2de0850784aa18c041b98a1c",
          "blockNumber": "0x1c",
          "blockTimestamp": "0x69d7b8aa",
          "transactionHash": "0x6cf9e5da5898f25d813f9d9e87e5c6245b60386ad09c0dd2c7a143cfd40d6bea",
          "transactionIndex": "0x0",
          "logIndex": "0x0",
          "removed": false
        }
      ],
      "logsBloom": "0x04000000000000000000000100000000000102000000000000000000000000000000000000000200000000000000000000000000000000000000000000000000000000000000000000000000000000000000200000000000000000000000000000000040000000000000000000000000000000000000000000000000000000000000000000000000000000000000000000000000000000000000000200000000000000000000000000000100000000000000000000000000000000000000000000000040000000000000000000000000000000000000000000000000000000200000000000000000000000000000000000000000008000000000000000000000",
      "type": "0x2",
      "transactionHash": "0x6cf9e5da5898f25d813f9d9e87e5c6245b60386ad09c0dd2c7a143cfd40d6bea",
      "transactionIndex": "0x0",
      "blockHash": "0xf37342b4f3799353dc3f57aa9a9779cf03a713fc2de0850784aa18c041b98a1c",
      "blockNumber": "0x1c",
      "gasUsed": "0x5cfa8",
      "effectiveGasPrice": "0x1cfc152",
      "blobGasPrice": "0x1",
      "from": "0x3c44cdddb6a900fa2b585dd299e03d12fa4293bc",
      "to": "0x5fbdb2315678afecb367f032d93f642f64180aa3",
      "contractAddress": null
    },
    {
      "status": "0x1",
      "cumulativeGasUsed": "0x9241",
      "logs": [
        {
          "address": "0x5fbdb2315678afecb367f032d93f642f64180aa3",
          "topics": [
            "0x7c1c93f72f29b8a1fc6fc85eed990d133b1ffac80c962b521abb12f38f2ff9af",
            "0x0000000000000000000000000000000000000000000000000000000000000002"
          ],
          "data": "0x0000000000000000000000000000000000000000000000000000000000000003",
          "blockHash": "0x15b0dae5c3a8db070e100a4d9ea42e0cc88119d1bc4c3d6c2510ed1e4ad53c6e",
          "blockNumber": "0x1d",
          "blockTimestamp": "0x69d7b8aa",
          "transactionHash": "0x02d072a61f162155613dbe07e4572db22761fd9a92681749fee0c319c74374ea",
          "transactionIndex": "0x0",
          "logIndex": "0x0",
          "removed": false
        }
      ],
      "logsBloom": "0x04000000000000000000000000000080000000000000000000000000000000000000000000000000000000000000000000000000000000000000000000000000000000000000000000000000000000000000000000000000000000000000000000000040000000000000000000000000000000000000000000000000000000000000000000000000000000000000000000000000000000000000000200000000000000000000000000000100000000000000000000000000000000000000000000000040000000000000000800000000000000000000000000000000000000000000000000000000000000000000000000000000008008000000000000000000",
      "type": "0x2",
      "transactionHash": "0x02d072a61f162155613dbe07e4572db22761fd9a92681749fee0c319c74374ea",
      "transactionIndex": "0x0",
      "blockHash": "0x15b0dae5c3a8db070e100a4d9ea42e0cc88119d1bc4c3d6c2510ed1e4ad53c6e",
      "blockNumber": "0x1d",
      "gasUsed": "0x9241",
      "effectiveGasPrice": "0x19741f1",
      "blobGasPrice": "0x1",
      "from": "0x3c44cdddb6a900fa2b585dd299e03d12fa4293bc",
      "to": "0x5fbdb2315678afecb367f032d93f642f64180aa3",
      "contractAddress": null
    },
    {
      "status": "0x1",
      "cumulativeGasUsed": "0x628c4",
      "logs": [
        {
          "address": "0x5fbdb2315678afecb367f032d93f642f64180aa3",
          "topics": [
            "0x529e5c9e24a307575814835cf69244181f51bc2ae08b95b8c8459d652a7ee9cf",
            "0x000000000000000000000000000000000000000000000000000000000000000d",
            "0x0000000000000000000000000000000000000000000000000000000000000002"
          ],
          "data": "0x00000000000000000000000000000000000000000000000000000000000000030000000000000000000000003c44cdddb6a900fa2b585dd299e03d12fa4293bc",
          "blockHash": "0xa49c2786b4d691cbf2b9a719f5eecd3db563cd26062916cceb4fda598e1d4b37",
          "blockNumber": "0x1e",
          "blockTimestamp": "0x69d7b8aa",
          "transactionHash": "0xbbbe70a9f525eb038c16bb313c102480ea269bb6a9ac96865fde0406871ddc79",
          "transactionIndex": "0x0",
          "logIndex": "0x0",
          "removed": false
        }
      ],
      "logsBloom": "0x04000000000000000040000100000000000100000000000000000000000000000000000000000000000000000000000000000000000000000000000000000000000000000000000000000000000000000002200000000000000000000000000000000040000000000000000000000000000000000000000000000000000000000000000000000000000000000000000000000000000000000000000200000000000000000000000000000100000000000000000000000000000000000000000000000040000000000000000000000000000000000000000000000000000000020000000000000000000000000000000000000000008000000000000000000000",
      "type": "0x2",
      "transactionHash": "0xbbbe70a9f525eb038c16bb313c102480ea269bb6a9ac96865fde0406871ddc79",
      "transactionIndex": "0x0",
      "blockHash": "0xa49c2786b4d691cbf2b9a719f5eecd3db563cd26062916cceb4fda598e1d4b37",
      "blockNumber": "0x1e",
      "gasUsed": "0x628c4",
      "effectiveGasPrice": "0x1647a3b",
      "blobGasPrice": "0x1",
      "from": "0x3c44cdddb6a900fa2b585dd299e03d12fa4293bc",
      "to": "0x5fbdb2315678afecb367f032d93f642f64180aa3",
      "contractAddress": null
    }
  ],
  "libraries": [],
  "pending": [],
  "returns": {},
  "timestamp": 1775745194506,
  "chain": 31337,
  "commit": "cde98ef9"
}