{
  "transactions": [
    {
      "hash": "0xb99883717f12953cadfaa6804621ba28f34d4134be853a9060e25510236641f6",
      "transactionType": "CALL",
      "contractName": null,
      "contractAddress": "0x5fbdb2315678afecb367f032d93f642f64180aa3",
      "function": "recordCheckpoint(uint256,string,uint8,string,int256)",
      "arguments": [
        "1",
        "Laboratorio BioPharma - Bogota, Zona Industrial",
        "0",
        "Lote: VX-2024-089 | Venc: 2025-08 | 500 dosis | Embalaje integro | Resp: J. Martinez",
        "45"
      ],
      "transaction": {
        "from": "0x70997970c51812dc3a010c7d01b50e0d17dc79c8",
        "to": "0x5fbdb2315678afecb367f032d93f642f64180aa3",
        "gas": "0x77dce",
        "value": "0x0",
        "input": "0x0a7a0b69000000000000000000000000000000000000000000000000000000000000000100000000000000000000000000000000000000000000000000000000000000a000000000000000000000000000000000000000000000000000000000000000000000000000000000000000000000000000000000000000000000000000000100000000000000000000000000000000000000000000000000000000000000002d000000000000000000000000000000000000000000000000000000000000002f4c61626f7261746f72696f2042696f506861726d61202d20426f676f74612c205a6f6e6120496e647573747269616c000000000000000000000000000000000000000000000000000000000000000000000000000000000000000000000000544c6f74653a2056582d323032342d303839207c2056656e633a20323032352d3038207c2035303020646f736973207c20456d62616c616a6520696e746567726f207c20526573703a204a2e204d617274696e657a000000000000000000000000",
        "nonce": "0x1",
        "chainId": "0x7a69"
      },
      "additionalContracts": [],
      "isFixedGasLimit": false
    },
    {
      "hash": "0x82b51dda7faeaae265eeaf8973ef8c74e3462b7656de082c2bb0811bf43c5915",
      "transactionType": "CALL",
      "contractName": null,
      "contractAddress": "0x5fbdb2315678afecb367f032d93f642f64180aa3",
      "function": "updateShipmentStatus(uint256,uint8)",
      "arguments": [
        "1",
        "1"
      ],
      "transaction": {
        "from": "0x90f79bf6eb2c4f870365e785982e1f101e93b906",
        "to": "0x5fbdb2315678afecb367f032d93f642f64180aa3",
        "gas": "0x2832a",
        "value": "0x0",
        "input": "0x7defa92000000000000000000000000000000000000000000000000000000000000000010000000000000000000000000000000000000000000000000000000000000001",
        "nonce": "0x0",
        "chainId": "0x7a69"
      },
      "additionalContracts": [],
      "isFixedGasLimit": false
    },
    {
      "hash": "0xe587ee44842b3b40347f98e859b63e476cf4674dd9e37355bf688fd0f1dc734a",
      "transactionType": "CALL",
      "contractName": null,
      "contractAddress": "0x5fbdb2315678afecb367f032d93f642f64180aa3",
      "function": "recordCheckpoint(uint256,string,uint8,string,int256)",
      "arguments": [
        "1",
        "Hub Bogota Fontibon - Recepcion",
        "1",
        "Llegada: 10:35 | Embalaje: OK | 500/500 dosis | Veh: ABC-123 | Resp: C. Torres",
        "38"
      ],
      "transaction": {
        "from": "0x90f79bf6eb2c4f870365e785982e1f101e93b906",
        "to": "0x5fbdb2315678afecb367f032d93f642f64180aa3",
        "gas": "0x69b57",
        "value": "0x0",
        "input": "0x0a7a0b69000000000000000000000000000000000000000000000000000000000000000100000000000000000000000000000000000000000000000000000000000000a0000000000000000000000000000000000000000000000000000000000000000100000000000000000000000000000000000000000000000000000000000000e00000000000000000000000000000000000000000000000000000000000000026000000000000000000000000000000000000000000000000000000000000001f48756220426f676f746120466f6e7469626f6e202d20526563657063696f6e00000000000000000000000000000000000000000000000000000000000000004e4c6c65676164613a2031303a3335207c20456d62616c616a653a204f4b207c203530302f35303020646f736973207c205665683a204142432d313233207c20526573703a20432e20546f72726573000000000000000000000000000000000000",
        "nonce": "0x1",
        "chainId": "0x7a69"
      },
      "additionalContracts": [],
      "isFixedGasLimit": false
    },
    {
      "hash": "0xd13f597f18c56656d96ca6126edb5dac56d54415083ffead01452ae480dfcaa9",
      "transactionType": "CALL",
      "contractName": null,
      "contractAddress": "0x5fbdb2315678afecb367f032d93f642f64180aa3",
      "function": "updateShipmentStatus(uint256,uint8)",
      "arguments": [
        "1",
        "1"
      ],
      "transaction": {
        "from": "0x3c44cdddb6a900fa2b585dd299e03d12fa4293bc",
        "to": "0x5fbdb2315678afecb367f032d93f642f64180aa3",
        "gas": "0x21794",
        "value": "0x0",
        "input": "0x7defa92000000000000000000000000000000000000000000000000000000000000000010000000000000000000000000000000000000000000000000000000000000001",
        "nonce": "0x0",
        "chainId": "0x7a69"
      },
      "additionalContracts": [],
      "isFixedGasLimit": false
    },
    {
      "hash": "0xb22de299b8b7e8ee1ffbbfea64988acbeabf12d77d3e40d6052d3bd84ab0bf38",
      "transactionType": "CALL",
      "contractName": null,
      "contractAddress": "0x5fbdb2315678afecb367f032d93f642f64180aa3",
      "function": "recordCheckpoint(uint256,string,uint8,string,int256)",
      "arguments": [
        "1",
        "Hub Bogota Fontibon - Muelle 3",
        "2",
        "Placa: TRK-847 | Conductor: R. Gomez | Salida: 14:20 | Precinto: SP-4421 | ETA: 18:30",
        "40"
      ],
      "transaction": {
        "from": "0x3c44cdddb6a900fa2b585dd299e03d12fa4293bc",
        "to": "0x5fbdb2315678afecb367f032d93f642f64180aa3",
        "gas": "0x69bba",
        "value": "0x0",
        "input": "0x0a7a0b69000000000000000000000000000000000000000000000000000000000000000100000000000000000000000000000000000000000000000000000000000000a0000000000000000000000000000000000000000000000000000000000000000200000000000000000000000000000000000000000000000000000000000000e00000000000000000000000000000000000000000000000000000000000000028000000000000000000000000000000000000000000000000000000000000001e48756220426f676f746120466f6e7469626f6e202d204d75656c6c65203300000000000000000000000000000000000000000000000000000000000000000055506c6163613a2054524b2d383437207c20436f6e647563746f723a20522e20476f6d657a207c2053616c6964613a2031343a3230207c2050726563696e746f3a2053502d34343231207c204554413a2031383a33300000000000000000000000",
        "nonce": "0x1",
        "chainId": "0x7a69"
      },
      "additionalContracts": [],
      "isFixedGasLimit": false
    },
    {
      "hash": "0xbd0e6b3ee680e72a1c2551c08fb511512511c56bc078760e57396441388b420a",
      "transactionType": "CALL",
      "contractName": null,
      "contractAddress": "0x5fbdb2315678afecb367f032d93f642f64180aa3",
      "function": "recordCheckpoint(uint256,string,uint8,string,int256)",
      "arguments": [
        "1",
        "Autopista Bogota-Medellin, km 142 - Peaje La Ye",
        "2",
        "Hora: 16:45 | Precinto SP-4421: integro | Sin novedades | Temp exterior: 28C",
        "52"
      ],
      "transaction": {
        "from": "0x3c44cdddb6a900fa2b585dd299e03d12fa4293bc",
        "to": "0x5fbdb2315678afecb367f032d93f642f64180aa3",
        "gas": "0x7fe22",
        "value": "0x0",
        "input": "0x0a7a0b69000000000000000000000000000000000000000000000000000000000000000100000000000000000000000000000000000000000000000000000000000000a0000000000000000000000000000000000000000000000000000000000000000200000000000000000000000000000000000000000000000000000000000001000000000000000000000000000000000000000000000000000000000000000034000000000000000000000000000000000000000000000000000000000000002f4175746f706973746120426f676f74612d4d6564656c6c696e2c206b6d20313432202d205065616a65204c612059650000000000000000000000000000000000000000000000000000000000000000000000000000000000000000000000004c486f72613a2031363a3435207c2050726563696e746f2053502d343432313a20696e746567726f207c2053696e206e6f76656461646573207c2054656d70206578746572696f723a203238430000000000000000000000000000000000000000",
        "nonce": "0x2",
        "chainId": "0x7a69"
      },
      "additionalContracts": [],
      "isFixedGasLimit": false
    },
    {
      "hash": "0x6dc09d2a48a1ab1f595ff4088e8c6222abacd22cfc51278ffdcfbc0713050048",
      "transactionType": "CALL",
      "contractName": null,
      "contractAddress": "0x5fbdb2315678afecb367f032d93f642f64180aa3",
      "function": "updateShipmentStatus(uint256,uint8)",
      "arguments": [
        "1",
        "2"
      ],
      "transaction": {
        "from": "0x14dc79964da2c08b23698b3d3cc7ca32193d9955",
        "to": "0x5fbdb2315678afecb367f032d93f642f64180aa3",
        "gas": "0x226e6",
        "value": "0x0",
        "input": "0x7defa92000000000000000000000000000000000000000000000000000000000000000010000000000000000000000000000000000000000000000000000000000000002",
        "nonce": "0x0",
        "chainId": "0x7a69"
      },
      "additionalContracts": [],
      "isFixedGasLimit": false
    },
    {
      "hash": "0x10446393ff455d25ff405b3aa05b4e259b72790a3d5db397f83356850173c40f",
      "transactionType": "CALL",
      "contractName": null,
      "contractAddress": "0x5fbdb2315678afecb367f032d93f642f64180aa3",
      "function": "recordCheckpoint(uint256,string,uint8,string,int256)",
      "arguments": [
        "1",
        "Hub Medellin Itagui - Recepcion",
        "1",
        "Llegada: 18:15 | Precinto SP-4421: integro | 500/500 dosis | Almacen R2: 3.8C | Resp: A. Rios",
        "55"
      ],
      "transaction": {
        "from": "0x14dc79964da2c08b23698b3d3cc7ca32193d9955",
        "to": "0x5fbdb2315678afecb367f032d93f642f64180aa3",
        "gas": "0x69c4f",
        "value": "0x0",
        "input": "0x0a7a0b69000000000000000000000000000000000000000000000000000000000000000100000000000000000000000000000000000000000000000000000000000000a0000000000000000000000000000000000000000000000000000000000000000100000000000000000000000000000000000000000000000000000000000000e00000000000000000000000000000000000000000000000000000000000000037000000000000000000000000000000000000000000000000000000000000001f487562204d6564656c6c696e20497461677569202d20526563657063696f6e00000000000000000000000000000000000000000000000000000000000000005d4c6c65676164613a2031383a3135207c2050726563696e746f2053502d343432313a20696e746567726f207c203530302f35303020646f736973207c20416c6d6163656e2052323a20332e3843207c20526573703a20412e2052696f73000000",
        "nonce": "0x1",
        "chainId": "0x7a69"
      },
      "additionalContracts": [],
      "isFixedGasLimit": false
    },
    {
      "hash": "0x092af538fead6da1f130a9de718ae40e3a73068d8fc44aba2295299e75d0cf06",
      "transactionType": "CALL",
      "contractName": null,
      "contractAddress": "0x5fbdb2315678afecb367f032d93f642f64180aa3",
      "function": "recordCheckpoint(uint256,string,uint8,string,int256)",
      "arguments": [
        "1",
        "Hub Medellin Itagui - Bahia 7",
        "2",
        "Veh: VAN-291 | Repartidor: L. Perez | Salida: 08:10 | Precinto: SP-5530 | ETA: 09:00 | 500 dosis",
        "50"
      ],
      "transaction": {
        "from": "0x3c44cdddb6a900fa2b585dd299e03d12fa4293bc",
        "to": "0x5fbdb2315678afecb367f032d93f642f64180aa3",
        "gas": "0x69c94",
        "value": "0x0",
        "input": "0x0a7a0b69000000000000000000000000000000000000000000000000000000000000000100000000000000000000000000000000000000000000000000000000000000a0000000000000000000000000000000000000000000000000000000000000000200000000000000000000000000000000000000000000000000000000000000e00000000000000000000000000000000000000000000000000000000000000032000000000000000000000000000000000000000000000000000000000000001d487562204d6564656c6c696e20497461677569202d204261686961203700000000000000000000000000000000000000000000000000000000000000000000605665683a2056414e2d323931207c2052657061727469646f723a204c2e20506572657a207c2053616c6964613a2030383a3130207c2050726563696e746f3a2053502d35353330207c204554413a2030393a3030207c2035303020646f736973",
        "nonce": "0x3",
        "chainId": "0x7a69"
      },
      "additionalContracts": [],
      "isFixedGasLimit": false
    },
    {
      "hash": "0x7f74a1fc9991f7c6154928c39c5dd35b500475e362e588d86055b5d1b9b2374f",
      "transactionType": "CALL",
      "contractName": null,
      "contractAddress": "0x5fbdb2315678afecb367f032d93f642f64180aa3",
      "function": "updateShipmentStatus(uint256,uint8)",
      "arguments": [
        "1",
        "3"
      ],
      "transaction": {
        "from": "0x3c44cdddb6a900fa2b585dd299e03d12fa4293bc",
        "to": "0x5fbdb2315678afecb367f032d93f642f64180aa3",
        "gas": "0xd5e5",
        "value": "0x0",
        "input": "0x7defa92000000000000000000000000000000000000000000000000000000000000000010000000000000000000000000000000000000000000000000000000000000003",
        "nonce": "0x4",
        "chainId": "0x7a69"
      },
      "additionalContracts": [],
      "isFixedGasLimit": false
    },
    {
      "hash": "0x8eb17b44eeb5431fa40a1a7dc9b3099a6b6589eb50e7013a503a82140131b203",
      "transactionType": "CALL",
      "contractName": null,
      "contractAddress": "0x5fbdb2315678afecb367f032d93f642f64180aa3",
      "function": "recordCheckpoint(uint256,string,uint8,string,int256)",
      "arguments": [
        "1",
        "Clinica San Rafael - Farmacia, Cr 45 #12-30, Medellin",
        "3",
        "Recibe: Dra. M. Castro | 500 dosis OK | Precinto SP-5530: integro | Acta: REC-2024-441",
        "42"
      ],
      "transaction": {
        "from": "0x3c44cdddb6a900fa2b585dd299e03d12fa4293bc",
        "to": "0x5fbdb2315678afecb367f032d93f642f64180aa3",
        "gas": "0x7ff3b",
        "value": "0x0",
        "input": "0x0a7a0b69000000000000000000000000000000000000000000000000000000000000000100000000000000000000000000000000000000000000000000000000000000a000000000000000000000000000000000000000000000000000000000000000030000000000000000000000000000000000000000000000000000000000000100000000000000000000000000000000000000000000000000000000000000002a0000000000000000000000000000000000000000000000000000000000000035436c696e6963612053616e2052616661656c202d204661726d616369612c204372203435202331322d33302c204d6564656c6c696e000000000000000000000000000000000000000000000000000000000000000000000000000000000000565265636962653a204472612e204d2e2043617374726f207c2035303020646f736973204f4b207c2050726563696e746f2053502d353533303a20696e746567726f207c20416374613a205245432d323032342d34343100000000000000000000",
        "nonce": "0x5",
        "chainId": "0x7a69"
      },
      "additionalContracts": [],
      "isFixedGasLimit": false
    }
  ],
  "receipts": [
    {
      "status": "0x1",
      "cumulativeGasUsed": "0x56c75",
      "logs": [
        {
          "address": "0x5fbdb2315678afecb367f032d93f642f64180aa3",
          "topics": [
            "0x529e5c9e24a307575814835cf69244181f51bc2ae08b95b8c8459d652a7ee9cf",
            "0x0000000000000000000000000000000000000000000000000000000000000001",
            "0x0000000000000000000000000000000000000000000000000000000000000001"
          ],
          "data": "0x000000000000000000000000000000000000000000000000000000000000000000000000000000000000000070997970c51812dc3a010c7d01b50e0d17dc79c8",
          "blockHash": "0x336bda1e7bdc97ced7fd84e932fc7d99ce0309ab2be1e888a4d6acbc4a1e368f",
          "blockNumber": "0x8",
          "blockTimestamp": "0x69d90316",
          "transactionHash": "0xb99883717f12953cadfaa6804621ba28f34d4134be853a9060e25510236641f6",
          "transactionIndex": "0x0",
          "logIndex": "0x0",
          "removed": false
        }
      ],
      "logsBloom": "0x00000000000000000000000100000000000100000000000000000000000000000000000000000000000000000000000000000000000000000000000000040000000000000000000000000000000000000000200000040000000000000000000000000040000000000000000000000000000000000000000000000000000000000000000000000000000000000000000000000000000000000000000200000000000000000000000000000000000000000000000000000000000000000000000000000040000000000000000000000000000000000000000000000000000040000000000000000000000000000000000000000000000000000000000000000000",
      "type": "0x2",
      "transactionHash": "0xb99883717f12953cadfaa6804621ba28f34d4134be853a9060e25510236641f6",
      "transactionIndex": "0x0",
      "blockHash": "0x336bda1e7bdc97ced7fd84e932fc7d99ce0309ab2be1e888a4d6acbc4a1e368f",
      "blockNumber": "0x8",
      "gasUsed": "0x56c75",
      "effectiveGasPrice": "0x18504a46",
      "blobGasPrice": "0x1",
      "from": "0x70997970c51812dc3a010c7d01b50e0d17dc79c8",
      "to": "0x5fbdb2315678afecb367f032d93f642f64180aa3",
      "contractAddress": null
    },
    {
      "status": "0x1",
      "cumulativeGasUsed": "0x1d1a4",
      "logs": [
        {
          "address": "0x5fbdb2315678afecb367f032d93f642f64180aa3",
          "topics": [
            "0x7c1c93f72f29b8a1fc6fc85eed990d133b1ffac80c962b521abb12f38f2ff9af",
            "0x0000000000000000000000000000000000000000000000000000000000000001"
          ],
          "data": "0x0000000000000000000000000000000000000000000000000000000000000001",
          "blockHash": "0x7695f1962a55ef36424fb1a8b159a16127d8cf5321d1a54ae920a9c5c44f03f9",
          "blockNumber": "0x9",
          "blockTimestamp": "0x69d90316",
          "transactionHash": "0x82b51dda7faeaae265eeaf8973ef8c74e3462b7656de082c2bb0811bf43c5915",
          "transactionIndex": "0x0",
          "logIndex": "0x0",
          "removed": false
        }
      ],
      "logsBloom": "0x00000000000000000000000000000080000000000000000000000000000000000000000000000000000000000000000000000000000000000000000000040000000000000000000000000000000000000000000000040000000000000000000000000040000000000000000000000000000000000000000000000000000000000000000000000000000000000000000000000000000000000000000200000000000000000000000000000000000000000000000000000000000000000000000000000040000000000000000800000000000000000000000000000000000040000000000000000000000000000000000000000000000008000000000000000000",
      "type": "0x2",
      "transactionHash": "0x82b51dda7faeaae265eeaf8973ef8c74e3462b7656de082c2bb0811bf43c5915",
      "transactionIndex": "0x0",
      "blockHash": "0x7695f1962a55ef36424fb1a8b159a16127d8cf5321d1a54ae920a9c5c44f03f9",
      "blockNumber": "0x9",
      "gasUsed": "0x1d1a4",
      "effectiveGasPrice": "0x1558b0c3",
      "blobGasPrice": "0x1",
      "from": "0x90f79bf6eb2c4f870365e785982e1f101e93b906",
      "to": "0x5fbdb2315678afecb367f032d93f642f64180aa3",
      "contractAddress": null
    },
    {
      "status": "0x1",
      "cumulativeGasUsed": "0x4c880",
      "logs": [
        {
          "address": "0x5fbdb2315678afecb367f032d93f642f64180aa3",
          "topics": [
            "0x529e5c9e24a307575814835cf69244181f51bc2ae08b95b8c8459d652a7ee9cf",
            "0x0000000000000000000000000000000000000000000000000000000000000002",
            "0x0000000000000000000000000000000000000000000000000000000000000001"
          ],
          "data": "0x000000000000000000000000000000000000000000000000000000000000000100000000000000000000000090f79bf6eb2c4f870365e785982e1f101e93b906",
          "blockHash": "0x273f5c9ea95a6a358798952b9bd9c70b05eca1b39bcdfb9229a740956b64739c",
          "blockNumber": "0xa",
          "blockTimestamp": "0x69d90316",
          "transactionHash": "0xe587ee44842b3b40347f98e859b63e476cf4674dd9e37355bf688fd0f1dc734a",
          "transactionIndex": "0x0",
          "logIndex": "0x0",
          "removed": false
        }
      ],
      "logsBloom": "0x04000000000000000000000100000000000100000000000000000000000000000000000000000000000000000000000000000000000000000000000000040000000000000000000000000000000000000000200000040000000000000000000000000040000000000000000000000000000000000000000000000000000000000000000000000000000000000000000000000000000000000000000200000000000000000000000000000100000000000000000000000000000000000000000000000040000000000000000000000000000000000000000000000000000040000000000000000000000000000000000000000000008000000000000000000000",
      "type": "0x2",
      "transactionHash": "0xe587ee44842b3b40347f98e859b63e476cf4674dd9e37355bf688fd0f1dc734a",
      "transactionIndex": "0x0",
      "blockHash": "0x273f5c9ea95a6a358798952b9bd9c70b05eca1b39bcdfb9229a740956b64739c",
      "blockNumber": "0xa",
      "gasUsed": "0x4c880",
      "effectiveGasPrice": "0x12b3085a",
      "blobGasPrice": "0x1",
      "from": "0x90f79bf6eb2c4f870365e785982e1f101e93b906",
      "to": "0x5fbdb2315678afecb367f032d93f642f64180aa3",
      "contractAddress": null
    },
    {
      "status": "0x1",
      "cumulativeGasUsed": "0x183c0",
      "logs": [
        {
          "address": "0x5fbdb2315678afecb367f032d93f642f64180aa3",
          "topics": [
            "0x7c1c93f72f29b8a1fc6fc85eed990d133b1ffac80c962b521abb12f38f2ff9af",
            "0x0000000000000000000000000000000000000000000000000000000000000001"
          ],
          "data": "0x0000000000000000000000000000000000000000000000000000000000000001",
          "blockHash": "0x87c82ae048006d60491810a3bc3e1642f762657318ca9ab35805f78b9ee93b81",
          "blockNumber": "0xb",
          "blockTimestamp": "0x69d90316",
          "transactionHash": "0xd13f597f18c56656d96ca6126edb5dac56d54415083ffead01452ae480dfcaa9",
          "transactionIndex": "0x0",
          "logIndex": "0x0",
          "removed": false
        }
      ],
      "logsBloom": "0x00000000000000000000000000000080000000000000000000000000000000000000000000000000000000000000000000000000000000000000000000040000000000000000000000000000000000000000000000040000000000000000000000000040000000000000000000000000000000000000000000000000000000000000000000000000000000000000000000000000000000000000000200000000000000000000000000000000000000000000000000000000000000000000000000000040000000000000000800000000000000000000000000000000000040000000000000000000000000000000000000000000000008000000000000000000",
      "type": "0x2",
      "transactionHash": "0xd13f597f18c56656d96ca6126edb5dac56d54415083ffead01452ae480dfcaa9",
      "transactionIndex": "0x0",
      "blockHash": "0x87c82ae048006d60491810a3bc3e1642f762657318ca9ab35805f78b9ee93b81",
      "blockNumber": "0xb",
      "gasUsed": "0x183c0",
      "effectiveGasPrice": "0x10692897",
      "blobGasPrice": "0x1",
      "from": "0x3c44cdddb6a900fa2b585dd299e03d12fa4293bc",
      "to": "0x5fbdb2315678afecb367f032d93f642f64180aa3",
      "contractAddress": null
    },
    {
      "status": "0x1",
      "cumulativeGasUsed": "0x4c8c8",
      "logs": [
        {
          "address": "0x5fbdb2315678afecb367f032d93f642f64180aa3",
          "topics": [
            "0x529e5c9e24a307575814835cf69244181f51bc2ae08b95b8c8459d652a7ee9cf",
            "0x0000000000000000000000000000000000000000000000000000000000000003",
            "0x0000000000000000000000000000000000000000000000000000000000000001"
          ],
          "data": "0x00000000000000000000000000000000000000000000000000000000000000020000000000000000000000003c44cdddb6a900fa2b585dd299e03d12fa4293bc",
          "blockHash": "0xe03de70e68415c88447ff4472ca752c04d782980fdc9f68b07e8f9c263eb58a5",
          "blockNumber": "0xc",
          "blockTimestamp": "0x69d90316",
          "transactionHash": "0xb22de299b8b7e8ee1ffbbfea64988acbeabf12d77d3e40d6052d3bd84ab0bf38",
          "transactionIndex": "0x0",
          "logIndex": "0x0",
          "removed": false
        }
      ],
      "logsBloom": "0x00000000000000000000000100000000000100000000000000000000000000000000000000000000000000000000000000000000020000000000000000040000000000000000000000000000000000000000200000040000000000000000000000000040000000000000000000000000000000000000000000000000000000000000000000000000000000000000000000000000000000000000000200000000000000000000000000000000000000000000000000800000000000000000400000000040000000000000000000000000000000000000000000000000000040000000000000000000000000000000000000000000000000000000000000000000",
      "type": "0x2",
      "transactionHash": "0xb22de299b8b7e8ee1ffbbfea64988acbeabf12d77d3e40d6052d3bd84ab0bf38",
      "transactionIndex": "0x0",
      "blockHash": "0xe03de70e68415c88447ff4472ca752c04d782980fdc9f68b07e8f9c263eb58a5",
      "blockNumber": "0xc",
      "gasUsed": "0x4c8c8",
      "effectiveGasPrice": "0xe5f7d2b",
      "blobGasPrice": "0x1",
      "from": "0x3c44cdddb6a900fa2b585dd299e03d12fa4293bc",
      "to": "0x5fbdb2315678afecb367f032d93f642f64180aa3",
      "contractAddress": null
    },
    {
      "status": "0x1",
      "cumulativeGasUsed": "0x57711",
      "logs": [
        {
          "address": "0x5fbdb2315678afecb367f032d93f642f64180aa3",
          "topics": [
            "0x529e5c9e24a307575814835cf69244181f51bc2ae08b95b8c8459d652a7ee9cf",
            "0x0000000000000000000000000000000000000000000000000000000000000004",
            "0x0000000000000000000000000000000000000000000000000000000000000001"
          ],
          "data": "0x00000000000000000000000000000000000000000000000000000000000000020000000000000000000000003c44cdddb6a900fa2b585dd299e03d12fa4293bc",
          "blockHash": "0x1b90e61a600ed46611d57bd7d798786fd6bbb1cfdcddce827479672042c3bcaf",
          "blockNumber": "0xd",
          "blockTimestamp": "0x69d90316",
          "transactionHash": "0xbd0e6b3ee680e72a1c2551c08fb511512511c56bc078760e57396441388b420a",
          "transactionIndex": "0x0",
          "logIndex": "0x0",
          "removed": false
        }
      ],
      "logsBloom": "0x00000000000000000000000100000000000100000000000000000000000000000000000000000000000000000000000000000000000000000000000000040000000000000000000000000000000000000000200000040000000000000000000008000040000000000000000000000000000000000000000000000000000000000000000000000000000000000000000000000000000000000000000200000000000000000000000000000000000000000000000000000000002000000000000000000040000000000000000000000000000000008000000000000000000040000000000000000000000000000000000000000000000000000000000000000000",
      "type": "0x2",
      "transactionHash": "0xbd0e6b3ee680e72a1c2551c08fb511512511c56bc078760e57396441388b420a",
      "transactionIndex": "0x0",
      "blockHash": "0x1b90e61a600ed46611d57bd7d798786fd6bbb1cfdcddce827479672042c3bcaf",
      "blockNumber": "0xd",
      "gasUsed": "0x57711",
      "effectiveGasPrice": "0xc9d2ab6",
      "blobGasPrice": "0x1",
      "from": "0x3c44cdddb6a900fa2b585dd299e03d12fa4293bc",
      "to": "0x5fbdb2315678afecb367f032d93f642f64180aa3",
      "contractAddress": null
    },
    {
      "status": "0x1",
      "cumulativeGasUsed": "0x18ed8",
      "logs": [
        {
          "address": "0x5fbdb2315678afecb367f032d93f642f64180aa3",
          "topics": [
            "0x7c1c93f72f29b8a1fc6fc85eed990d133b1ffac80c962b521abb12f38f2ff9af",
            "0x0000000000000000000000000000000000000000000000000000000000000001"
          ],
          "data": "0x0000000000000000000000000000000000000000000000000000000000000002",
          "blockHash": "0x64080719be7e5ae6f7ae85b84eac41ccc616ee31514ba871542d8523fde8cf3e",
          "blockNumber": "0xe",
          "blockTimestamp": "0x69d90316",
          "transactionHash": "0x6dc09d2a48a1ab1f595ff4088e8c6222abacd22cfc51278ffdcfbc0713050048",
          "transactionIndex": "0x0",
          "logIndex": "0x0",
          "removed": false
        }
      ],
      "logsBloom": "0x00000000000000000000000000000080000000000000000000000000000000000000000000000000000000000000000000000000000000000000000000040000000000000000000000000000000000000000000000040000000000000000000000000040000000000000000000000000000000000000000000000000000000000000000000000000000000000000000000000000000000000000000200000000000000000000000000000000000000000000000000000000000000000000000000000040000000000000000800000000000000000000000000000000000040000000000000000000000000000000000000000000000008000000000000000000",
      "type": "0x2",
      "transactionHash": "0x6dc09d2a48a1ab1f595ff4088e8c6222abacd22cfc51278ffdcfbc0713050048",
      "transactionIndex": "0x0",
      "blockHash": "0x64080719be7e5ae6f7ae85b84eac41ccc616ee31514ba871542d8523fde8cf3e",
      "blockNumber": "0xe",
      "gasUsed": "0x18ed8",
      "effectiveGasPrice": "0xb1328b5",
      "blobGasPrice": "0x1",
      "from": "0x14dc79964da2c08b23698b3d3cc7ca32193d9955",
      "to": "0x5fbdb2315678afecb367f032d93f642f64180aa3",
      "contractAddress": null
    },
    {
      "status": "0x1",
      "cumulativeGasUsed": "0x4c934",
      "logs": [
        {
          "address": "0x5fbdb2315678afecb367f032d93f642f64180aa3",
          "topics": [
            "0x529e5c9e24a307575814835cf69244181f51bc2ae08b95b8c8459d652a7ee9cf",
            "0x0000000000000000000000000000000000000000000000000000000000000005",
            "0x0000000000000000000000000000000000000000000000000000000000000001"
          ],
          "data": "0x000000000000000000000000000000000000000000000000000000000000000100000000000000000000000014dc79964da2c08b23698b3d3cc7ca32193d9955",
          "blockHash": "0x4b9dcffa40dc9acbfe1ef703296b8aabefad13c87f66db0653aa42c811de8f2f",
          "blockNumber": "0xf",
          "blockTimestamp": "0x69d90316",
          "transactionHash": "0x10446393ff455d25ff405b3aa05b4e259b72790a3d5db397f83356850173c40f",
          "transactionIndex": "0x0",
          "logIndex": "0x0",
          "removed": false
        }
      ],
      "logsBloom": "0x00000000000000000000000100000000000100000000000000000000000000000000000000000000000000000000000000000000000000000000000000040000000010000000000000000000000000000000200000040000000000000000000000000040000000000000000000000000000000000000000000000000000000000000000000000000000000000000001000000800000000000000000200000000000000000000000000000000000000000000000000000000000000000000000000000040000000000000000000000000000000000000000000000000000040000000000000000000000000000000000000000000000000000000000000000000",
      "type": "0x2",
      "transactionHash": "0x10446393ff455d25ff405b3aa05b4e259b72790a3d5db397f83356850173c40f",
      "transactionIndex": "0x0",
      "blockHash": "0x4b9dcffa40dc9acbfe1ef703296b8aabefad13c87f66db0653aa42c811de8f2f",
      "blockNumber": "0xf",
      "gasUsed": "0x4c934",
      "effectiveGasPrice": "0x9b32d2e",
      "blobGasPrice": "0x1",
      "from": "0x14dc79964da2c08b23698b3d3cc7ca32193d9955",
      "to": "0x5fbdb2315678afecb367f032d93f642f64180aa3",
      "contractAddress": null
    },
    {
      "status": "0x1",
      "cumulativeGasUsed": "0x4c966",
      "logs": [
        {
          "address": "0x5fbdb2315678afecb367f032d93f642f64180aa3",
          "topics": [
            "0x529e5c9e24a307575814835cf69244181f51bc2ae08b95b8c8459d652a7ee9cf",
            "0x0000000000000000000000000000000000000000000000000000000000000006",
            "0x0000000000000000000000000000000000000000000000000000000000000001"
          ],
          "data": "0x00000000000000000000000000000000000000000000000000000000000000020000000000000000000000003c44cdddb6a900fa2b585dd299e03d12fa4293bc",
          "blockHash": "0x053291eaeefda0398c6262bf7894a0816c019a045c62411e41a170821ad357ec",
          "blockNumber": "0x10",
          "blockTimestamp": "0x69d90316",
          "transactionHash": "0x092af538fead6da1f130a9de718ae40e3a73068d8fc44aba2295299e75d0cf06",
          "transactionIndex": "0x0",
          "logIndex": "0x0",
          "removed": false
        }
      ],
      "logsBloom": "0x00000000000000000000000100000000000100000000000000000000000000000000000000000000000000000000000000000000000400000000000000040000000000000000000000000000000000000000200000040000000000000000000000000040000000000000000000000000000000000000000000000000000000000000000400000000000000000000000000000000000000000000000200000000000000000000000000000000000000000000000000000000000000080000000000000040000000000000000000000000000000000000000000000000000040000000000000000000000000000000000000000000000000000000000000000000",
      "type": "0x2",
      "transactionHash": "0x092af538fead6da1f130a9de718ae40e3a73068d8fc44aba2295299e75d0cf06",
      "transactionIndex": "0x0",
      "blockHash": "0x053291eaeefda0398c6262bf7894a0816c019a045c62411e41a170821ad357ec",
      "blockNumber": "0x10",
      "gasUsed": "0x4c966",
      "effectiveGasPrice": "0x8834517",
      "blobGasPrice": "0x1",
      "from": "0x3c44cdddb6a900fa2b585dd299e03d12fa4293bc",
      "to": "0x5fbdb2315678afecb367f032d93f642f64180aa3",
      "contractAddress": null
    },
    {
      "status": "0x1",
      "cumulativeGasUsed": "0x9241",
      "logs": [
        {
          "address": "0x5fbdb2315678afecb367f032d93f642f64180aa3",
          "topics": [
            "0x7c1c93f72f29b8a1fc6fc85eed990d133b1ffac80c962b521abb12f38f2ff9af",
            "0x0000000000000000000000000000000000000000000000000000000000000001"
          ],
          "data": "0x0000000000000000000000000000000000000000000000000000000000000003",
          "blockHash": "0x157dd1cb220f87c26a86c8ab5c764ed78e2dd68af81562bc8a4d2f81fb8b3c71",
          "blockNumber": "0x11",
          "blockTimestamp": "0x69d90316",
          "transactionHash": "0x7f74a1fc9991f7c6154928c39c5dd35b500475e362e588d86055b5d1b9b2374f",
          "transactionIndex": "0x0",
          "logIndex": "0x0",
          "removed": false
        }
      ],
      "logsBloom": "0x00000000000000000000000000000080000000000000000000000000000000000000000000000000000000000000000000000000000000000000000000040000000000000000000000000000000000000000000000040000000000000000000000000040000000000000000000000000000000000000000000000000000000000000000000000000000000000000000000000000000000000000000200000000000000000000000000000000000000000000000000000000000000000000000000000040000000000000000800000000000000000000000000000000000040000000000000000000000000000000000000000000000008000000000000000000",
      "type": "0x2",
      "transactionHash": "0x7f74a1fc9991f7c6154928c39c5dd35b500475e362e588d86055b5d1b9b2374f",
      "transactionIndex": "0x0",
      "blockHash": "0x157dd1cb220f87c26a86c8ab5c764ed78e2dd68af81562bc8a4d2f81fb8b3c71",
      "blockNumber": "0x11",
      "gasUsed": "0x9241",
      "effectiveGasPrice": "0x7788ee4",
      "blobGasPrice": "0x1",
      "from": "0x3c44cdddb6a900fa2b585dd299e03d12fa4293bc",
      "to": "0x5fbdb2315678afecb367f032d93f642f64180aa3",
      "contractAddress": null
    },
    {
      "status": "0x1",
      "cumulativeGasUsed": "0x577d1",
      "logs": [
        {
          "address": "0x5fbdb2315678afecb367f032d93f642f64180aa3",
          "topics": [
            "0x529e5c9e24a307575814835cf69244181f51bc2ae08b95b8c8459d652a7ee9cf",
            "0x0000000000000000000000000000000000000000000000000000000000000007",
            "0x0000000000000000000000000000000000000000000000000000000000000001"
          ],
          "data": "0x00000000000000000000000000000000000000000000000000000000000000030000000000000000000000003c44cdddb6a900fa2b585dd299e03d12fa4293bc",
          "blockHash": "0xe1776886715eafedf9a88e6e12e0cc9f7e0f80200f6d48b4a089c69ed083c7e2",
          "blockNumber": "0x12",
          "blockTimestamp": "0x69d90316",
          "transactionHash": "0x8eb17b44eeb5431fa40a1a7dc9b3099a6b6589eb50e7013a503a82140131b203",
          "transactionIndex": "0x0",
          "logIndex": "0x0",
          "removed": false
        }
      ],
      "logsBloom": "0x00000000000000000000000100000000000100000000000000000000000000000000000000000000000000000000000000001000000000000000000000040000000020000000000000000000000000000000200000040000000000000000000000000040000000000000000000000000000000000000000000000000000000000000000000000000000000000000000000000000000000000000000200000000000000000000000000000000000000000000000000000000000000000000000000000040000000000000000000000000000000000000000000000100000040000000000000000000000000000000000000000000000000000000000000000000",
      "type": "0x2",
      "transactionHash": "0x8eb17b44eeb5431fa40a1a7dc9b3099a6b6589eb50e7013a503a82140131b203",
      "transactionIndex": "0x0",
      "blockHash": "0xe1776886715eafedf9a88e6e12e0cc9f7e0f80200f6d48b4a089c69ed083c7e2",
      "blockNumber": "0x12",
      "gasUsed": "0x577d1",
      "effectiveGasPrice": "0x68a15cc",
      "blobGasPrice": "0x1",
      "from": "0x3c44cdddb6a900fa2b585dd299e03d12fa4293bc",
      "to": "0x5fbdb2315678afecb367f032d93f642f64180aa3",
      "contractAddress": null
    }
  ],
  "libraries": [],
  "pending": [],
  "returns": {},
  "timestamp": 1775829782686,
  "chain": 31337,
  "commit": "1d2e265c"
}