{
  "transactions": [
    {
      "hash": "0x772e59edb0082ca44bd904ed38493ac83c63e8b5968a2e974af0b13a1b2da11b",
      "transactionType": "CALL",
      "contractName": null,
      "contractAddress": "0x5fbdb2315678afecb367f032d93f642f64180aa3",
      "function": "recordCheckpoint(uint256,string,uint8,string,int256)",
      "arguments": [
        "1",
        "Laboratorio BioPharma - Bogota, Zona Industrial",
        "0",
        "Lote: VX-2024-089 | Venc: 2025-08 | 500 dosis | Embalaje integro | Resp: J. Martinez",
        "45"
      ],
      "transaction": {
        "from": "0x70997970c51812dc3a010c7d01b50e0d17dc79c8",
        "to": "0x5fbdb2315678afecb367f032d93f642f64180aa3",
        "gas": "0x77dce",
        "value": "0x0",
        "input": "0x0a7a0b69000000000000000000000000000000000000000000000000000000000000000100000000000000000000000000000000000000000000000000000000000000a000000000000000000000000000000000000000000000000000000000000000000000000000000000000000000000000000000000000000000000000000000100000000000000000000000000000000000000000000000000000000000000002d000000000000000000000000000000000000000000000000000000000000002f4c61626f7261746f72696f2042696f506861726d61202d20426f676f74612c205a6f6e6120496e647573747269616c000000000000000000000000000000000000000000000000000000000000000000000000000000000000000000000000544c6f74653a2056582d323032342d303839207c2056656e633a20323032352d3038207c2035303020646f736973207c20456d62616c616a6520696e746567726f207c20526573703a204a2e204d617274696e657a000000000000000000000000",
        "nonce": "0x5",
        "chainId": "0x7a69"
      },
      "additionalContracts": [],
      "isFixedGasLimit": false
    },
    {
      "hash": "0xffbc4a30e21dfd4c253860459b85ada503d09e94d01c17a88c72db7c1659bef9",
      "transactionType": "CALL",
      "contractName": null,
      "contractAddress": "0x5fbdb2315678afecb367f032d93f642f64180aa3",
      "function": "updateShipmentStatus(uint256,uint8)",
      "arguments": [
        "1",
        "1"
      ],
      "transaction": {
        "from": "0x90f79bf6eb2c4f870365e785982e1f101e93b906",
        "to": "0x5fbdb2315678afecb367f032d93f642f64180aa3",
        "gas": "0x226e6",
        "value": "0x0",
        "input": "0x7defa92000000000000000000000000000000000000000000000000000000000000000010000000000000000000000000000000000000000000000000000000000000001",
        "nonce": "0x4",
        "chainId": "0x7a69"
      },
      "additionalContracts": [],
      "isFixedGasLimit": false
    },
    {
      "hash": "0x9acc14ce3f85c631c369bab56b6befb2b1502307fa597c8d5f907af803b420ec",
      "transactionType": "CALL",
      "contractName": null,
      "contractAddress": "0x5fbdb2315678afecb367f032d93f642f64180aa3",
      "function": "recordCheckpoint(uint256,string,uint8,string,int256)",
      "arguments": [
        "1",
        "Hub Bogota Fontibon - Recepcion",
        "1",
        "Llegada: 10:35 | Embalaje: OK | 500/500 dosis | Veh: ABC-123 | Resp: C. Torres",
        "38"
      ],
      "transaction": {
        "from": "0x90f79bf6eb2c4f870365e785982e1f101e93b906",
        "to": "0x5fbdb2315678afecb367f032d93f642f64180aa3",
        "gas": "0x69b57",
        "value": "0x0",
        "input": "0x0a7a0b69000000000000000000000000000000000000000000000000000000000000000100000000000000000000000000000000000000000000000000000000000000a0000000000000000000000000000000000000000000000000000000000000000100000000000000000000000000000000000000000000000000000000000000e00000000000000000000000000000000000000000000000000000000000000026000000000000000000000000000000000000000000000000000000000000001f48756220426f676f746120466f6e7469626f6e202d20526563657063696f6e00000000000000000000000000000000000000000000000000000000000000004e4c6c65676164613a2031303a3335207c20456d62616c616a653a204f4b207c203530302f35303020646f736973207c205665683a204142432d313233207c20526573703a20432e20546f72726573000000000000000000000000000000000000",
        "nonce": "0x5",
        "chainId": "0x7a69"
      },
      "additionalContracts": [],
      "isFixedGasLimit": false
    },
    {
      "hash": "0x4e587cf434c1002a4a3de5caf8372f7c7fd1e893617ba2025585389c52c14a59",
      "transactionType": "CALL",
      "contractName": null,
      "contractAddress": "0x5fbdb2315678afecb367f032d93f642f64180aa3",
      "function": "updateShipmentStatus(uint256,uint8)",
      "arguments": [
        "1",
        "1"
      ],
      "transaction": {
        "from": "0x3c44cdddb6a900fa2b585dd299e03d12fa4293bc",
        "to": "0x5fbdb2315678afecb367f032d93f642f64180aa3",
        "gas": "0x1bb50",
        "value": "0x0",
        "input": "0x7defa92000000000000000000000000000000000000000000000000000000000000000010000000000000000000000000000000000000000000000000000000000000001",
        "nonce": "0xa",
        "chainId": "0x7a69"
      },
      "additionalContracts": [],
      "isFixedGasLimit": false
    },
    {
      "hash": "0x40e4281e2a0edd484b4257c74532a509f257b09220a76e8bdfaec195fd94420f",
      "transactionType": "CALL",
      "contractName": null,
      "contractAddress": "0x5fbdb2315678afecb367f032d93f642f64180aa3",
      "function": "recordCheckpoint(uint256,string,uint8,string,int256)",
      "arguments": [
        "1",
        "Hub Bogota Fontibon - Muelle 3",
        "2",
        "Placa: TRK-847 | Conductor: R. Gomez | Salida: 14:20 | Precinto: SP-4421 | ETA: 18:30",
        "40"
      ],
      "transaction": {
        "from": "0x3c44cdddb6a900fa2b585dd299e03d12fa4293bc",
        "to": "0x5fbdb2315678afecb367f032d93f642f64180aa3",
        "gas": "0x69bba",
        "value": "0x0",
        "input": "0x0a7a0b69000000000000000000000000000000000000000000000000000000000000000100000000000000000000000000000000000000000000000000000000000000a0000000000000000000000000000000000000000000000000000000000000000200000000000000000000000000000000000000000000000000000000000000e00000000000000000000000000000000000000000000000000000000000000028000000000000000000000000000000000000000000000000000000000000001e48756220426f676f746120466f6e7469626f6e202d204d75656c6c65203300000000000000000000000000000000000000000000000000000000000000000055506c6163613a2054524b2d383437207c20436f6e647563746f723a20522e20476f6d657a207c2053616c6964613a2031343a3230207c2050726563696e746f3a2053502d34343231207c204554413a2031383a33300000000000000000000000",
        "nonce": "0xb",
        "chainId": "0x7a69"
      },
      "additionalContracts": [],
      "isFixedGasLimit": false
    },
    {
      "hash": "0xd27d9af3f4194ab96148d2cf691d900d9e0ca94b467d0465b9b002fe4995a9df",
      "transactionType": "CALL",
      "contractName": null,
      "contractAddress": "0x5fbdb2315678afecb367f032d93f642f64180aa3",
      "function": "recordCheckpoint(uint256,string,uint8,string,int256)",
      "arguments": [
        "1",
        "Autopista Bogota-Medellin, km 142 - Peaje La Ye",
        "2",
        "Hora: 16:45 | Precinto SP-4421: integro | Sin novedades | Temp exterior: 28C",
        "52"
      ],
      "transaction": {
        "from": "0x3c44cdddb6a900fa2b585dd299e03d12fa4293bc",
        "to": "0x5fbdb2315678afecb367f032d93f642f64180aa3",
        "gas": "0x7fe22",
        "value": "0x0",
        "input": "0x0a7a0b69000000000000000000000000000000000000000000000000000000000000000100000000000000000000000000000000000000000000000000000000000000a0000000000000000000000000000000000000000000000000000000000000000200000000000000000000000000000000000000000000000000000000000001000000000000000000000000000000000000000000000000000000000000000034000000000000000000000000000000000000000000000000000000000000002f4175746f706973746120426f676f74612d4d6564656c6c696e2c206b6d20313432202d205065616a65204c612059650000000000000000000000000000000000000000000000000000000000000000000000000000000000000000000000004c486f72613a2031363a3435207c2050726563696e746f2053502d343432313a20696e746567726f207c2053696e206e6f76656461646573207c2054656d70206578746572696f723a203238430000000000000000000000000000000000000000",
        "nonce": "0xc",
        "chainId": "0x7a69"
      },
      "additionalContracts": [],
      "isFixedGasLimit": false
    },
    {
      "hash": "0x801e483c19185fb73e31e3cfe2027adac28e2f993f9c1f0bd79b6dd54d275e4f",
      "transactionType": "CALL",
      "contractName": null,
      "contractAddress": "0x5fbdb2315678afecb367f032d93f642f64180aa3",
      "function": "updateShipmentStatus(uint256,uint8)",
      "arguments": [
        "1",
        "2"
      ],
      "transaction": {
        "from": "0x14dc79964da2c08b23698b3d3cc7ca32193d9955",
        "to": "0x5fbdb2315678afecb367f032d93f642f64180aa3",
        "gas": "0x1caa2",
        "value": "0x0",
        "input": "0x7defa92000000000000000000000000000000000000000000000000000000000000000010000000000000000000000000000000000000000000000000000000000000002",
        "nonce": "0x4",
        "chainId": "0x7a69"
      },
      "additionalContracts": [],
      "isFixedGasLimit": false
    },
    {
      "hash": "0x1897208ebd70176d39c25124c5cb6e4552adbfcd6b660f7b3d878912000c92d7",
      "transactionType": "CALL",
      "contractName": null,
      "contractAddress": "0x5fbdb2315678afecb367f032d93f642f64180aa3",
      "function": "recordCheckpoint(uint256,string,uint8,string,int256)",
      "arguments": [
        "1",
        "Hub Medellin Itagui - Recepcion",
        "1",
        "Llegada: 18:15 | Precinto SP-4421: integro | 500/500 dosis | Almacen R2: 3.8C | Resp: A. Rios",
        "55"
      ],
      "transaction": {
        "from": "0x14dc79964da2c08b23698b3d3cc7ca32193d9955",
        "to": "0x5fbdb2315678afecb367f032d93f642f64180aa3",
        "gas": "0x69c4f",
        "value": "0x0",
        "input": "0x0a7a0b69000000000000000000000000000000000000000000000000000000000000000100000000000000000000000000000000000000000000000000000000000000a0000000000000000000000000000000000000000000000000000000000000000100000000000000000000000000000000000000000000000000000000000000e00000000000000000000000000000000000000000000000000000000000000037000000000000000000000000000000000000000000000000000000000000001f487562204d6564656c6c696e20497461677569202d20526563657063696f6e00000000000000000000000000000000000000000000000000000000000000005d4c6c65676164613a2031383a3135207c2050726563696e746f2053502d343432313a20696e746567726f207c203530302f35303020646f736973207c20416c6d6163656e2052323a20332e3843207c20526573703a20412e2052696f73000000",
        "nonce": "0x5",
        "chainId": "0x7a69"
      },
      "additionalContracts": [],
      "isFixedGasLimit": false
    },
    {
      "hash": "0x11e88d8d7d4b09b8cfb7c710e91b19e3d30a1a79dff1a9aa560e461380080ec3",
      "transactionType": "CALL",
      "contractName": null,
      "contractAddress": "0x5fbdb2315678afecb367f032d93f642f64180aa3",
      "function": "recordCheckpoint(uint256,string,uint8,string,int256)",
      "arguments": [
        "1",
        "Hub Medellin Itagui - Bahia 7",
        "2",
        "Veh: VAN-291 | Repartidor: L. Perez | Salida: 08:10 | Precinto: SP-5530 | ETA: 09:00 | 500 dosis",
        "50"
      ],
      "transaction": {
        "from": "0x3c44cdddb6a900fa2b585dd299e03d12fa4293bc",
        "to": "0x5fbdb2315678afecb367f032d93f642f64180aa3",
        "gas": "0x69c94",
        "value": "0x0",
        "input": "0x0a7a0b69000000000000000000000000000000000000000000000000000000000000000100000000000000000000000000000000000000000000000000000000000000a0000000000000000000000000000000000000000000000000000000000000000200000000000000000000000000000000000000000000000000000000000000e00000000000000000000000000000000000000000000000000000000000000032000000000000000000000000000000000000000000000000000000000000001d487562204d6564656c6c696e20497461677569202d204261686961203700000000000000000000000000000000000000000000000000000000000000000000605665683a2056414e2d323931207c2052657061727469646f723a204c2e20506572657a207c2053616c6964613a2030383a3130207c2050726563696e746f3a2053502d35353330207c204554413a2030393a3030207c2035303020646f736973",
        "nonce": "0xd",
        "chainId": "0x7a69"
      },
      "additionalContracts": [],
      "isFixedGasLimit": false
    },
    {
      "hash": "0x37930a76720f6a24dad0b23224d31920f8fd9e350e6708cc47ea87055585564d",
      "transactionType": "CALL",
      "contractName": null,
      "contractAddress": "0x5fbdb2315678afecb367f032d93f642f64180aa3",
      "function": "updateShipmentStatus(uint256,uint8)",
      "arguments": [
        "1",
        "3"
      ],
      "transaction": {
        "from": "0x3c44cdddb6a900fa2b585dd299e03d12fa4293bc",
        "to": "0x5fbdb2315678afecb367f032d93f642f64180aa3",
        "gas": "0xd5e5",
        "value": "0x0",
        "input": "0x7defa92000000000000000000000000000000000000000000000000000000000000000010000000000000000000000000000000000000000000000000000000000000003",
        "nonce": "0xe",
        "chainId": "0x7a69"
      },
      "additionalContracts": [],
      "isFixedGasLimit": false
    },
    {
      "hash": "0x3ad4c0cf01b7fa221f6e1b4d2e363ba21d272eea82f056a4f9c366fe4764a832",
      "transactionType": "CALL",
      "contractName": null,
      "contractAddress": "0x5fbdb2315678afecb367f032d93f642f64180aa3",
      "function": "recordCheckpoint(uint256,string,uint8,string,int256)",
      "arguments": [
        "1",
        "Clinica San Rafael - Farmacia, Cr 45 #12-30, Medellin",
        "3",
        "Recibe: Dra. M. Castro | 500 dosis OK | Precinto SP-5530: integro | Acta: REC-2024-441",
        "42"
      ],
      "transaction": {
        "from": "0x3c44cdddb6a900fa2b585dd299e03d12fa4293bc",
        "to": "0x5fbdb2315678afecb367f032d93f642f64180aa3",
        "gas": "0x7ff3b",
        "value": "0x0",
        "input": "0x0a7a0b69000000000000000000000000000000000000000000000000000000000000000100000000000000000000000000000000000000000000000000000000000000a000000000000000000000000000000000000000000000000000000000000000030000000000000000000000000000000000000000000000000000000000000100000000000000000000000000000000000000000000000000000000000000002a0000000000000000000000000000000000000000000000000000000000000035436c696e6963612053616e2052616661656c202d204661726d616369612c204372203435202331322d33302c204d6564656c6c696e000000000000000000000000000000000000000000000000000000000000000000000000000000000000565265636962653a204472612e204d2e2043617374726f207c2035303020646f736973204f4b207c2050726563696e746f2053502d353533303a20696e746567726f207c20416374613a205245432d323032342d34343100000000000000000000",
        "nonce": "0xf",
        "chainId": "0x7a69"
      },
      "additionalContracts": [],
      "isFixedGasLimit": false
    }
  ],
  "receipts": [
    {
      "status": "0x1",
      "cumulativeGasUsed": "0x56c75",
      "logs": [
        {
          "address": "0x5fbdb2315678afecb367f032d93f642f64180aa3",
          "topics": [
            "0x529e5c9e24a307575814835cf69244181f51bc2ae08b95b8c8459d652a7ee9cf",
            "0x000000000000000000000000000000000000000000000000000000000000000d",
            "0x0000000000000000000000000000000000000000000000000000000000000001"
          ],
          "data": "0x000000000000000000000000000000000000000000000000000000000000000000000000000000000000000070997970c51812dc3a010c7d01b50e0d17dc79c8",
          "blockHash": "0xfdbc1a23d6c5b21149ad58bfdcafc47f5fe2c2b2db2fd630040ec95ad45692e8",
          "blockNumber": "0x1f",
          "blockTimestamp": "0x69c13fe5",
          "transactionHash": "0x772e59edb0082ca44bd904ed38493ac83c63e8b5968a2e974af0b13a1b2da11b",
          "transactionIndex": "0x0",
          "logIndex": "0x0",
          "removed": false
        }
      ],
      "logsBloom": "0x00000000000000000040000100000000000100000000000000000000000000000000000000000000000000000000000000000000000000000000000000040000000000000000000000000000000000000002200000040000000000000000000000000040000000000000000000000000000000000000000000000000000000000000000000000000000000000000000000000000000000000000000200000000000000000000000000000000000000000000000000000000000000000000000000000040000000000000000000000000000000000000000000000000000040020000000000000000000000000000000000000000000000000000000000000000",
      "type": "0x2",
      "transactionHash": "0x772e59edb0082ca44bd904ed38493ac83c63e8b5968a2e974af0b13a1b2da11b",
      "transactionIndex": "0x0",
      "blockHash": "0xfdbc1a23d6c5b21149ad58bfdcafc47f5fe2c2b2db2fd630040ec95ad45692e8",
      "blockNumber": "0x1f",
      "gasUsed": "0x56c75",
      "effectiveGasPrice": "0x13abc4c",
      "blobGasPrice": "0x1",
      "from": "0x70997970c51812dc3a010c7d01b50e0d17dc79c8",
      "to": "0x5fbdb2315678afecb367f032d93f642f64180aa3",
      "contractAddress": null
    },
    {
      "status": "0x1",
      "cumulativeGasUsed": "0x18ed8",
      "logs": [
        {
          "address": "0x5fbdb2315678afecb367f032d93f642f64180aa3",
          "topics": [
            "0x7c1c93f72f29b8a1fc6fc85eed990d133b1ffac80c962b521abb12f38f2ff9af",
            "0x0000000000000000000000000000000000000000000000000000000000000001"
          ],
          "data": "0x0000000000000000000000000000000000000000000000000000000000000001",
          "blockHash": "0x125dcc4ad0af960731fdef58c10c34480d00d0655f35bee1a8385d7853657037",
          "blockNumber": "0x20",
          "blockTimestamp": "0x69c13fe5",
          "transactionHash": "0xffbc4a30e21dfd4c253860459b85ada503d09e94d01c17a88c72db7c1659bef9",
          "transactionIndex": "0x0",
          "logIndex": "0x0",
          "removed": false
        }
      ],
      "logsBloom": "0x00000000000000000000000000000080000000000000000000000000000000000000000000000000000000000000000000000000000000000000000000040000000000000000000000000000000000000000000000040000000000000000000000000040000000000000000000000000000000000000000000000000000000000000000000000000000000000000000000000000000000000000000200000000000000000000000000000000000000000000000000000000000000000000000000000040000000000000000800000000000000000000000000000000000040000000000000000000000000000000000000000000000008000000000000000000",
      "type": "0x2",
      "transactionHash": "0xffbc4a30e21dfd4c253860459b85ada503d09e94d01c17a88c72db7c1659bef9",
      "transactionIndex": "0x0",
      "blockHash": "0x125dcc4ad0af960731fdef58c10c34480d00d0655f35bee1a8385d7853657037",
      "blockNumber": "0x20",
      "gasUsed": "0x18ed8",
      "effectiveGasPrice": "0x114536c",
      "blobGasPrice": "0x1",
      "from": "0x90f79bf6eb2c4f870365e785982e1f101e93b906",
      "to": "0x5fbdb2315678afecb367f032d93f642f64180aa3",
      "contractAddress": null
    },
    {
      "status": "0x1",
      "cumulativeGasUsed": "0x4c880",
      "logs": [
        {
          "address": "0x5fbdb2315678afecb367f032d93f642f64180aa3",
          "topics": [
            "0x529e5c9e24a307575814835cf69244181f51bc2ae08b95b8c8459d652a7ee9cf",
            "0x000000000000000000000000000000000000000000000000000000000000000e",
            "0x0000000000000000000000000000000000000000000000000000000000000001"
          ],
          "data": "0x000000000000000000000000000000000000000000000000000000000000000100000000000000000000000090f79bf6eb2c4f870365e785982e1f101e93b906",
          "blockHash": "0x2860e8465b4bf74a4799457bf48e14d6f4d0c9eb36aedb2fd516a5a578028406",
          "blockNumber": "0x21",
          "blockTimestamp": "0x69c13fe5",
          "transactionHash": "0x9acc14ce3f85c631c369bab56b6befb2b1502307fa597c8d5f907af803b420ec",
          "transactionIndex": "0x0",
          "logIndex": "0x0",
          "removed": false
        }
      ],
      "logsBloom": "0x00000000000000000000000100000000000100000000000000000000000000000000000000000000000000000000000000000000000000000000000000040000000000000000000800000000000000000000200000040000000000000000000000000040000000000000000000000000000000000000000000000000000000000000000000000000000000000000000008000000000000000000000200000000000000000000000000000000000000000000000000000020000000000000000000000040000000000000000000000000000000000000000000000000000040000000000000000000000000000000000000000000000000000000000000000000",
      "type": "0x2",
      "transactionHash": "0x9acc14ce3f85c631c369bab56b6befb2b1502307fa597c8d5f907af803b420ec",
      "transactionIndex": "0x0",
      "blockHash": "0x2860e8465b4bf74a4799457bf48e14d6f4d0c9eb36aedb2fd516a5a578028406",
      "blockNumber": "0x21",
      "gasUsed": "0x4c880",
      "effectiveGasPrice": "0xf20530",
      "blobGasPrice": "0x1",
      "from": "0x90f79bf6eb2c4f870365e785982e1f101e93b906",
      "to": "0x5fbdb2315678afecb367f032d93f642f64180aa3",
      "contractAddress": null
    },
    {
      "status": "0x1",
      "cumulativeGasUsed": "0x140f4",
      "logs": [
        {
          "address": "0x5fbdb2315678afecb367f032d93f642f64180aa3",
          "topics": [
            "0x7c1c93f72f29b8a1fc6fc85eed990d133b1ffac80c962b521abb12f38f2ff9af",
            "0x0000000000000000000000000000000000000000000000000000000000000001"
          ],
          "data": "0x0000000000000000000000000000000000000000000000000000000000000001",
          "blockHash": "0x4e404181b97f61940a9d7b33c3a378ff06ac70571eb3c7ec429739dfe9676737",
          "blockNumber": "0x22",
          "blockTimestamp": "0x69c13fe5",
          "transactionHash": "0x4e587cf434c1002a4a3de5caf8372f7c7fd1e893617ba2025585389c52c14a59",
          "transactionIndex": "0x0",
          "logIndex": "0x0",
          "removed": false
        }
      ],
      "logsBloom": "0x00000000000000000000000000000080000000000000000000000000000000000000000000000000000000000000000000000000000000000000000000040000000000000000000000000000000000000000000000040000000000000000000000000040000000000000000000000000000000000000000000000000000000000000000000000000000000000000000000000000000000000000000200000000000000000000000000000000000000000000000000000000000000000000000000000040000000000000000800000000000000000000000000000000000040000000000000000000000000000000000000000000000008000000000000000000",
      "type": "0x2",
      "transactionHash": "0x4e587cf434c1002a4a3de5caf8372f7c7fd1e893617ba2025585389c52c14a59",
      "transactionIndex": "0x0",
      "blockHash": "0x4e404181b97f61940a9d7b33c3a378ff06ac70571eb3c7ec429739dfe9676737",
      "blockNumber": "0x22",
      "gasUsed": "0x140f4",
      "effectiveGasPrice": "0xd46664",
      "blobGasPrice": "0x1",
      "from": "0x3c44cdddb6a900fa2b585dd299e03d12fa4293bc",
      "to": "0x5fbdb2315678afecb367f032d93f642f64180aa3",
      "contractAddress": null
    },
    {
      "status": "0x1",
      "cumulativeGasUsed": "0x4c8c8",
      "logs": [
        {
          "address": "0x5fbdb2315678afecb367f032d93f642f64180aa3",
          "topics": [
            "0x529e5c9e24a307575814835cf69244181f51bc2ae08b95b8c8459d652a7ee9cf",
            "0x000000000000000000000000000000000000000000000000000000000000000f",
            "0x0000000000000000000000000000000000000000000000000000000000000001"
          ],
          "data": "0x00000000000000000000000000000000000000000000000000000000000000020000000000000000000000003c44cdddb6a900fa2b585dd299e03d12fa4293bc",
          "blockHash": "0xce8f14f63545ae7b80e29a6f0520b430e74fce9f16c998503b993bd151899420",
          "blockNumber": "0x23",
          "blockTimestamp": "0x69c13fe5",
          "transactionHash": "0x40e4281e2a0edd484b4257c74532a509f257b09220a76e8bdfaec195fd94420f",
          "transactionIndex": "0x0",
          "logIndex": "0x0",
          "removed": false
        }
      ],
      "logsBloom": "0x00000000000000000000000100000000000100000000000000000000000000000000000000000000000000000000000000000000000000000000000000040000000000000000000000000000000000000000200000040000000000000002000000000040000000000000000000000000000000000000000000000000000000000000000000000800000000000000000000000000000000000000000200000000000000000000000000000000000000000000000000000000000000000000000000000040000000000000000000000000000000000000000000000000000040000000000200000000000000000000000000000000000000000000000000000000",
      "type": "0x2",
      "transactionHash": "0x40e4281e2a0edd484b4257c74532a509f257b09220a76e8bdfaec195fd94420f",
      "transactionIndex": "0x0",
      "blockHash": "0xce8f14f63545ae7b80e29a6f0520b430e74fce9f16c998503b993bd151899420",
      "blockNumber": "0x23",
      "gasUsed": "0x4c8c8",
      "effectiveGasPrice": "0xb9fed3",
      "blobGasPrice": "0x1",
      "from": "0x3c44cdddb6a900fa2b585dd299e03d12fa4293bc",
      "to": "0x5fbdb2315678afecb367f032d93f642f64180aa3",
      "contractAddress": null
    },
    {
      "status": "0x1",
      "cumulativeGasUsed": "0x57711",
      "logs": [
        {
          "address": "0x5fbdb2315678afecb367f032d93f642f64180aa3",
          "topics": [
            "0x529e5c9e24a307575814835cf69244181f51bc2ae08b95b8c8459d652a7ee9cf",
            "0x0000000000000000000000000000000000000000000000000000000000000010",
            "0x0000000000000000000000000000000000000000000000000000000000000001"
          ],
          "data": "0x00000000000000000000000000000000000000000000000000000000000000020000000000000000000000003c44cdddb6a900fa2b585dd299e03d12fa4293bc",
          "blockHash": "0x89a88218af6fbc96a1708a8c9e8d93e4c2d3644ff9b70d4b15efc00eb56ce5ca",
          "blockNumber": "0x24",
          "blockTimestamp": "0x69c13fe5",
          "transactionHash": "0xd27d9af3f4194ab96148d2cf691d900d9e0ca94b467d0465b9b002fe4995a9df",
          "transactionIndex": "0x0",
          "logIndex": "0x0",
          "removed": false
        }
      ],
      "logsBloom": "0x00000000100000000000000100000000000100000000000000000000000000000000000000000000000000000000000000000000000000000000000000040000000000000000000000000000000000000000200000040000000000000000000000000040000000000000000000000000000000000000000000000000040000000000000000000000000000000000000000000100000000000000000200000000000000000000000000000000000000000000000000000000000000000000000000000040000000000000000000000000000000000000000000000000000040000000000000000000000000000000000000000000000000000000000000000000",
      "type": "0x2",
      "transactionHash": "0xd27d9af3f4194ab96148d2cf691d900d9e0ca94b467d0465b9b002fe4995a9df",
      "transactionIndex": "0x0",
      "blockHash": "0x89a88218af6fbc96a1708a8c9e8d93e4c2d3644ff9b70d4b15efc00eb56ce5ca",
      "blockNumber": "0x24",
      "gasUsed": "0x57711",
      "effectiveGasPrice": "0xa33b63",
      "blobGasPrice": "0x1",
      "from": "0x3c44cdddb6a900fa2b585dd299e03d12fa4293bc",
      "to": "0x5fbdb2315678afecb367f032d93f642f64180aa3",
      "contractAddress": null
    },
    {
      "status": "0x1",
      "cumulativeGasUsed": "0x14c0c",
      "logs": [
        {
          "address": "0x5fbdb2315678afecb367f032d93f642f64180aa3",
          "topics": [
            "0x7c1c93f72f29b8a1fc6fc85eed990d133b1ffac80c962b521abb12f38f2ff9af",
            "0x0000000000000000000000000000000000000000000000000000000000000001"
          ],
          "data": "0x0000000000000000000000000000000000000000000000000000000000000002",
          "blockHash": "0x82d54d049165ddea179caed9849c50b39c8830e5b777ae3f7ced63f83b990682",
          "blockNumber": "0x25",
          "blockTimestamp": "0x69c13fe5",
          "transactionHash": "0x801e483c19185fb73e31e3cfe2027adac28e2f993f9c1f0bd79b6dd54d275e4f",
          "transactionIndex": "0x0",
          "logIndex": "0x0",
          "removed": false
        }
      ],
      "logsBloom": "0x00000000000000000000000000000080000000000000000000000000000000000000000000000000000000000000000000000000000000000000000000040000000000000000000000000000000000000000000000040000000000000000000000000040000000000000000000000000000000000000000000000000000000000000000000000000000000000000000000000000000000000000000200000000000000000000000000000000000000000000000000000000000000000000000000000040000000000000000800000000000000000000000000000000000040000000000000000000000000000000000000000000000008000000000000000000",
      "type": "0x2",
      "transactionHash": "0x801e483c19185fb73e31e3cfe2027adac28e2f993f9c1f0bd79b6dd54d275e4f",
      "transactionIndex": "0x0",
      "blockHash": "0x82d54d049165ddea179caed9849c50b39c8830e5b777ae3f7ced63f83b990682",
      "blockNumber": "0x25",
      "gasUsed": "0x14c0c",
      "effectiveGasPrice": "0x8f50b0",
      "blobGasPrice": "0x1",
      "from": "0x14dc79964da2c08b23698b3d3cc7ca32193d9955",
      "to": "0x5fbdb2315678afecb367f032d93f642f64180aa3",
      "contractAddress": null
    },
    {
      "status": "0x1",
      "cumulativeGasUsed": "0x4c934",
      "logs": [
        {
          "address": "0x5fbdb2315678afecb367f032d93f642f64180aa3",
          "topics": [
            "0x529e5c9e24a307575814835cf69244181f51bc2ae08b95b8c8459d652a7ee9cf",
            "0x0000000000000000000000000000000000000000000000000000000000000011",
            "0x0000000000000000000000000000000000000000000000000000000000000001"
          ],
          "data": "0x000000000000000000000000000000000000000000000000000000000000000100000000000000000000000014dc79964da2c08b23698b3d3cc7ca32193d9955",
          "blockHash": "0x00f33bbafeaf356483ccb3eaa799ea1d36297ec0bf813961ea0fba8c3327ae7e",
          "blockNumber": "0x26",
          "blockTimestamp": "0x69c13fe5",
          "transactionHash": "0x1897208ebd70176d39c25124c5cb6e4552adbfcd6b660f7b3d878912000c92d7",
          "transactionIndex": "0x0",
          "logIndex": "0x0",
          "removed": false
        }
      ],
      "logsBloom": "0x00000000000000000000000100000000000100000000000000000000000000000000000000000000000000000000000000000000000000000000000000040000000000000000000000000000000000000000200000040000000000000000000000000040000000000000000000000000000000004000000000000000000000000000000000000000000000000000000000000000000000000000000200000000000000000000000000000000000000000000000000000000000000000400000000001040000000000000000000000000000000000000000000000000000040000000000000000000000000000000000000000000000000000000000000000000",
      "type": "0x2",
      "transactionHash": "0x1897208ebd70176d39c25124c5cb6e4552adbfcd6b660f7b3d878912000c92d7",
      "transactionIndex": "0x0",
      "blockHash": "0x00f33bbafeaf356483ccb3eaa799ea1d36297ec0bf813961ea0fba8c3327ae7e",
      "blockNumber": "0x26",
      "gasUsed": "0x4c934",
      "effectiveGasPrice": "0x7d8098",
      "blobGasPrice": "0x1",
      "from": "0x14dc79964da2c08b23698b3d3cc7ca32193d9955",
      "to": "0x5fbdb2315678afecb367f032d93f642f64180aa3",
      "contractAddress": null
    },
    {
      "status": "0x1",
      "cumulativeGasUsed": "0x4c966",
      "logs": [
        {
          "address": "0x5fbdb2315678afecb367f032d93f642f64180aa3",
          "topics": [
            "0x529e5c9e24a307575814835cf69244181f51bc2ae08b95b8c8459d652a7ee9cf",
            "0x0000000000000000000000000000000000000000000000000000000000000012",
            "0x0000000000000000000000000000000000000000000000000000000000000001"
          ],
          "data": "0x00000000000000000000000000000000000000000000000000000000000000020000000000000000000000003c44cdddb6a900fa2b585dd299e03d12fa4293bc",
          "blockHash": "0x334800a6e56b4c9f709d578b9950d2411d56dcb683c75c3654def855972c7c9c",
          "blockNumber": "0x27",
          "blockTimestamp": "0x69c13fe5",
          "transactionHash": "0x11e88d8d7d4b09b8cfb7c710e91b19e3d30a1a79dff1a9aa560e461380080ec3",
          "transactionIndex": "0x0",
          "logIndex": "0x0",
          "removed": false
        }
      ],
      "logsBloom": "0x00000000000000000000000100000000000100000000000000000000000000000000000000000000000000000000000000000000000000000000000000040000000000000000000000000000000000000000200000040000000000000000000000000040000000000000000000000000000000000000000000000000000000000000000000000000000000000000040000000000000000000000000200000000000000000000000000000000000000000000000000000040000000000000000000000040000000000400000000000000000000000000000000000000000040000000000000000000000000000000000000000000000000000000000000000000",
      "type": "0x2",
      "transactionHash": "0x11e88d8d7d4b09b8cfb7c710e91b19e3d30a1a79dff1a9aa560e461380080ec3",
      "transactionIndex": "0x0",
      "blockHash": "0x334800a6e56b4c9f709d578b9950d2411d56dcb683c75c3654def855972c7c9c",
      "blockNumber": "0x27",
      "gasUsed": "0x4c966",
      "effectiveGasPrice": "0x6e2480",
      "blobGasPrice": "0x1",
      "from": "0x3c44cdddb6a900fa2b585dd299e03d12fa4293bc",
      "to": "0x5fbdb2315678afecb367f032d93f642f64180aa3",
      "contractAddress": null
    },
    {
      "status": "0x1",
      "cumulativeGasUsed": "0x9241",
      "logs": [
        {
          "address": "0x5fbdb2315678afecb367f032d93f642f64180aa3",
          "topics": [
            "0x7c1c93f72f29b8a1fc6fc85eed990d133b1ffac80c962b521abb12f38f2ff9af",
            "0x0000000000000000000000000000000000000000000000000000000000000001"
          ],
          "data": "0x0000000000000000000000000000000000000000000000000000000000000003",
          "blockHash": "0x3b7550f717d9266351b4de7cf94a22b85c527b07f30172558200dd892947d1ac",
          "blockNumber": "0x28",
          "blockTimestamp": "0x69c13fe5",
          "transactionHash": "0x37930a76720f6a24dad0b23224d31920f8fd9e350e6708cc47ea87055585564d",
          "transactionIndex": "0x0",
          "logIndex": "0x0",
          "removed": false
        }
      ],
      "logsBloom": "0x00000000000000000000000000000080000000000000000000000000000000000000000000000000000000000000000000000000000000000000000000040000000000000000000000000000000000000000000000040000000000000000000000000040000000000000000000000000000000000000000000000000000000000000000000000000000000000000000000000000000000000000000200000000000000000000000000000000000000000000000000000000000000000000000000000040000000000000000800000000000000000000000000000000000040000000000000000000000000000000000000000000000008000000000000000000",
      "type": "0x2",
      "transactionHash": "0x37930a76720f6a24dad0b23224d31920f8fd9e350e6708cc47ea87055585564d",
      "transactionIndex": "0x0",
      "blockHash": "0x3b7550f717d9266351b4de7cf94a22b85c527b07f30172558200dd892947d1ac",
      "blockNumber": "0x28",
      "gasUsed": "0x9241",
      "effectiveGasPrice": "0x60a9a7",
      "blobGasPrice": "0x1",
      "from": "0x3c44cdddb6a900fa2b585dd299e03d12fa4293bc",
      "to": "0x5fbdb2315678afecb367f032d93f642f64180aa3",
      "contractAddress": null
    },
    {
      "status": "0x1",
      "cumulativeGasUsed": "0x577d1",
      "logs": [
        {
          "address": "0x5fbdb2315678afecb367f032d93f642f64180aa3",
          "topics": [
            "0x529e5c9e24a307575814835cf69244181f51bc2ae08b95b8c8459d652a7ee9cf",
            "0x0000000000000000000000000000000000000000000000000000000000000013",
            "0x0000000000000000000000000000000000000000000000000000000000000001"
          ],
          "data": "0x00000000000000000000000000000000000000000000000000000000000000030000000000000000000000003c44cdddb6a900fa2b585dd299e03d12fa4293bc",
          "blockHash": "0x9a4a1c8625cc745d0606a0f5ce7008561ed91eb36c3a8226c1b1ed3932ec2c80",
          "blockNumber": "0x29",
          "blockTimestamp": "0x69c13fe5",
          "transactionHash": "0x3ad4c0cf01b7fa221f6e1b4d2e363ba21d272eea82f056a4f9c366fe4764a832",
          "transactionIndex": "0x0",
          "logIndex": "0x0",
          "removed": false
        }
      ],
      "logsBloom": "0x20000000000000000000000100800000000100000000000000000000000000000000000040000000000000000000000000000000000000000000000000040000000000000000000000000000000000000000200000040000000000000000000000000040000000000000000000000000000000000000000000000000000000000000000000000000000000000000000000000000000000000000000200000000000000000000000000000000000000000000000000000000000000000000000000000040000000000000000000000000000000000000000000000000000040000000000000000000000000000000000000000000000000000000000000000000",
      "type": "0x2",
      "transactionHash": "0x3ad4c0cf01b7fa221f6e1b4d2e363ba21d272eea82f056a4f9c366fe4764a832",
      "transactionIndex": "0x0",
      "blockHash": "0x9a4a1c8625cc745d0606a0f5ce7008561ed91eb36c3a8226c1b1ed3932ec2c80",
      "blockNumber": "0x29",
      "gasUsed": "0x577d1",
      "effectiveGasPrice": "0x549c2b",
      "blobGasPrice": "0x1",
      "from": "0x3c44cdddb6a900fa2b585dd299e03d12fa4293bc",
      "to": "0x5fbdb2315678afecb367f032d93f642f64180aa3",
      "contractAddress": null
    }
  ],
  "libraries": [],
  "pending": [],
  "returns": {},
  "timestamp": 1774272485751,
  "chain": 31337,
  "commit": "96677f7d"
}