{
  "transactions": [
    {
      "hash": "0x5d5c4c93b13e11763978b2b53466bfeb9eb69a825e7d3fd510cbef2f4334a3eb",
      "transactionType": "CALL",
      "contractName": null,
      "contractAddress": "0x5fbdb2315678afecb367f032d93f642f64180aa3",
      "function": "recordCheckpoint(uint256,string,uint8,string,int256)",
      "arguments": [
        "1",
        "Laboratorio BioPharma - Bogota, Zona Industrial",
        "0",
        "Lote: VX-2024-089 | Venc: 2025-08 | 500 dosis | Embalaje integro | Resp: J. Martinez",
        "45"
      ],
      "transaction": {
        "from": "0x70997970c51812dc3a010c7d01b50e0d17dc79c8",
        "to": "0x5fbdb2315678afecb367f032d93f642f64180aa3",
        "gas": "0x77dce",
        "value": "0x0",
        "input": "0x0a7a0b69000000000000000000000000000000000000000000000000000000000000000100000000000000000000000000000000000000000000000000000000000000a000000000000000000000000000000000000000000000000000000000000000000000000000000000000000000000000000000000000000000000000000000100000000000000000000000000000000000000000000000000000000000000002d000000000000000000000000000000000000000000000000000000000000002f4c61626f7261746f72696f2042696f506861726d61202d20426f676f74612c205a6f6e6120496e647573747269616c000000000000000000000000000000000000000000000000000000000000000000000000000000000000000000000000544c6f74653a2056582d323032342d303839207c2056656e633a20323032352d3038207c2035303020646f736973207c20456d62616c616a6520696e746567726f207c20526573703a204a2e204d617274696e657a000000000000000000000000",
        "nonce": "0x3",
        "chainId": "0x7a69"
      },
      "additionalContracts": [],
      "isFixedGasLimit": false
    },
    {
      "hash": "0xc7d2eb14efb28c8a30255cf164211106f178490d9fee7e4dfe38c51f84f2419b",
      "transactionType": "CALL",
      "contractName": null,
      "contractAddress": "0x5fbdb2315678afecb367f032d93f642f64180aa3",
      "function": "updateShipmentStatus(uint256,uint8)",
      "arguments": [
        "1",
        "1"
      ],
      "transaction": {
        "from": "0x90f79bf6eb2c4f870365e785982e1f101e93b906",
        "to": "0x5fbdb2315678afecb367f032d93f642f64180aa3",
        "gas": "0x2832a",
        "value": "0x0",
        "input": "0x7defa92000000000000000000000000000000000000000000000000000000000000000010000000000000000000000000000000000000000000000000000000000000001",
        "nonce": "0xd",
        "chainId": "0x7a69"
      },
      "additionalContracts": [],
      "isFixedGasLimit": false
    },
    {
      "hash": "0xfa69f3c8ffd50db85522c81551ef85f56a6f613c99854dd734add2b23446d16c",
      "transactionType": "CALL",
      "contractName": null,
      "contractAddress": "0x5fbdb2315678afecb367f032d93f642f64180aa3",
      "function": "recordCheckpoint(uint256,string,uint8,string,int256)",
      "arguments": [
        "1",
        "Hub Bogota Fontibon - Recepcion",
        "1",
        "Llegada: 10:35 | Embalaje: OK | 500/500 dosis | Veh: ABC-123 | Resp: C. Torres",
        "38"
      ],
      "transaction": {
        "from": "0x90f79bf6eb2c4f870365e785982e1f101e93b906",
        "to": "0x5fbdb2315678afecb367f032d93f642f64180aa3",
        "gas": "0x69b57",
        "value": "0x0",
        "input": "0x0a7a0b69000000000000000000000000000000000000000000000000000000000000000100000000000000000000000000000000000000000000000000000000000000a0000000000000000000000000000000000000000000000000000000000000000100000000000000000000000000000000000000000000000000000000000000e00000000000000000000000000000000000000000000000000000000000000026000000000000000000000000000000000000000000000000000000000000001f48756220426f676f746120466f6e7469626f6e202d20526563657063696f6e00000000000000000000000000000000000000000000000000000000000000004e4c6c65676164613a2031303a3335207c20456d62616c616a653a204f4b207c203530302f35303020646f736973207c205665683a204142432d313233207c20526573703a20432e20546f72726573000000000000000000000000000000000000",
        "nonce": "0xe",
        "chainId": "0x7a69"
      },
      "additionalContracts": [],
      "isFixedGasLimit": false
    },
    {
      "hash": "0x0c1ff74efd744fdfff058ca1664f72aa2103ad7ba20a43f69645459b6c0422c6",
      "transactionType": "CALL",
      "contractName": null,
      "contractAddress": "0x5fbdb2315678afecb367f032d93f642f64180aa3",
      "function": "updateShipmentStatus(uint256,uint8)",
      "arguments": [
        "1",
        "1"
      ],
      "transaction": {
        "from": "0x3c44cdddb6a900fa2b585dd299e03d12fa4293bc",
        "to": "0x5fbdb2315678afecb367f032d93f642f64180aa3",
        "gas": "0x21794",
        "value": "0x0",
        "input": "0x7defa92000000000000000000000000000000000000000000000000000000000000000010000000000000000000000000000000000000000000000000000000000000001",
        "nonce": "0x1",
        "chainId": "0x7a69"
      },
      "additionalContracts": [],
      "isFixedGasLimit": false
    },
    {
      "hash": "0xdeed5a43ffb6aae3a73b03f93dd124af28fc147a67882893a7db1eed53ec55d0",
      "transactionType": "CALL",
      "contractName": null,
      "contractAddress": "0x5fbdb2315678afecb367f032d93f642f64180aa3",
      "function": "recordCheckpoint(uint256,string,uint8,string,int256)",
      "arguments": [
        "1",
        "Hub Bogota Fontibon - Muelle 3",
        "2",
        "Placa: TRK-847 | Conductor: R. Gomez | Salida: 14:20 | Precinto: SP-4421 | ETA: 18:30",
        "40"
      ],
      "transaction": {
        "from": "0x3c44cdddb6a900fa2b585dd299e03d12fa4293bc",
        "to": "0x5fbdb2315678afecb367f032d93f642f64180aa3",
        "gas": "0x69bba",
        "value": "0x0",
        "input": "0x0a7a0b69000000000000000000000000000000000000000000000000000000000000000100000000000000000000000000000000000000000000000000000000000000a0000000000000000000000000000000000000000000000000000000000000000200000000000000000000000000000000000000000000000000000000000000e00000000000000000000000000000000000000000000000000000000000000028000000000000000000000000000000000000000000000000000000000000001e48756220426f676f746120466f6e7469626f6e202d204d75656c6c65203300000000000000000000000000000000000000000000000000000000000000000055506c6163613a2054524b2d383437207c20436f6e647563746f723a20522e20476f6d657a207c2053616c6964613a2031343a3230207c2050726563696e746f3a2053502d34343231207c204554413a2031383a33300000000000000000000000",
        "nonce": "0x2",
        "chainId": "0x7a69"
      },
      "additionalContracts": [],
      "isFixedGasLimit": false
    },
    {
      "hash": "0x3133b8a41d91964fb71f34d9d8dc3c421368f31e84677d17cf710661ed5a6c82",
      "transactionType": "CALL",
      "contractName": null,
      "contractAddress": "0x5fbdb2315678afecb367f032d93f642f64180aa3",
      "function": "recordCheckpoint(uint256,string,uint8,string,int256)",
      "arguments": [
        "1",
        "Autopista Bogota-Medellin, km 142 - Peaje La Ye",
        "2",
        "Hora: 16:45 | Precinto SP-4421: integro | Sin novedades | Temp exterior: 28C",
        "52"
      ],
      "transaction": {
        "from": "0x3c44cdddb6a900fa2b585dd299e03d12fa4293bc",
        "to": "0x5fbdb2315678afecb367f032d93f642f64180aa3",
        "gas": "0x7fe22",
        "value": "0x0",
        "input": "0x0a7a0b69000000000000000000000000000000000000000000000000000000000000000100000000000000000000000000000000000000000000000000000000000000a0000000000000000000000000000000000000000000000000000000000000000200000000000000000000000000000000000000000000000000000000000001000000000000000000000000000000000000000000000000000000000000000034000000000000000000000000000000000000000000000000000000000000002f4175746f706973746120426f676f74612d4d6564656c6c696e2c206b6d20313432202d205065616a65204c612059650000000000000000000000000000000000000000000000000000000000000000000000000000000000000000000000004c486f72613a2031363a3435207c2050726563696e746f2053502d343432313a20696e746567726f207c2053696e206e6f76656461646573207c2054656d70206578746572696f723a203238430000000000000000000000000000000000000000",
        "nonce": "0x3",
        "chainId": "0x7a69"
      },
      "additionalContracts": [],
      "isFixedGasLimit": false
    },
    {
      "hash": "0x0019df446055efeaae3bb606c14f1f1cb2b3ee276942e62d6e2a50c99ef7c2e0",
      "transactionType": "CALL",
      "contractName": null,
      "contractAddress": "0x5fbdb2315678afecb367f032d93f642f64180aa3",
      "function": "updateShipmentStatus(uint256,uint8)",
      "arguments": [
        "1",
        "2"
      ],
      "transaction": {
        "from": "0x14dc79964da2c08b23698b3d3cc7ca32193d9955",
        "to": "0x5fbdb2315678afecb367f032d93f642f64180aa3",
        "gas": "0x226e6",
        "value": "0x0",
        "input": "0x7defa92000000000000000000000000000000000000000000000000000000000000000010000000000000000000000000000000000000000000000000000000000000002",
        "nonce": "0x0",
        "chainId": "0x7a69"
      },
      "additionalContracts": [],
      "isFixedGasLimit": false
    },
    {
      "hash": "0x312abc876326f81b27a0326dbe23740419471ef06ef1d09eedbe84ff6d02560c",
      "transactionType": "CALL",
      "contractName": null,
      "contractAddress": "0x5fbdb2315678afecb367f032d93f642f64180aa3",
      "function": "recordCheckpoint(uint256,string,uint8,string,int256)",
      "arguments": [
        "1",
        "Hub Medellin Itagui - Recepcion",
        "1",
        "Llegada: 18:15 | Precinto SP-4421: integro | 500/500 dosis | Almacen R2: 3.8C | Resp: A. Rios",
        "55"
      ],
      "transaction": {
        "from": "0x14dc79964da2c08b23698b3d3cc7ca32193d9955",
        "to": "0x5fbdb2315678afecb367f032d93f642f64180aa3",
        "gas": "0x69c4f",
        "value": "0x0",
        "input": "0x0a7a0b69000000000000000000000000000000000000000000000000000000000000000100000000000000000000000000000000000000000000000000000000000000a0000000000000000000000000000000000000000000000000000000000000000100000000000000000000000000000000000000000000000000000000000000e00000000000000000000000000000000000000000000000000000000000000037000000000000000000000000000000000000000000000000000000000000001f487562204d6564656c6c696e20497461677569202d20526563657063696f6e00000000000000000000000000000000000000000000000000000000000000005d4c6c65676164613a2031383a3135207c2050726563696e746f2053502d343432313a20696e746567726f207c203530302f35303020646f736973207c20416c6d6163656e2052323a20332e3843207c20526573703a20412e2052696f73000000",
        "nonce": "0x1",
        "chainId": "0x7a69"
      },
      "additionalContracts": [],
      "isFixedGasLimit": false
    },
    {
      "hash": "0x928e53a0a5d280bbe3dff49a916dd6275b73f5da91ba34331271b9ade5d5084e",
      "transactionType": "CALL",
      "contractName": null,
      "contractAddress": "0x5fbdb2315678afecb367f032d93f642f64180aa3",
      "function": "recordCheckpoint(uint256,string,uint8,string,int256)",
      "arguments": [
        "1",
        "Hub Medellin Itagui - Bahia 7",
        "2",
        "Veh: VAN-291 | Repartidor: L. Perez | Salida: 08:10 | Precinto: SP-5530 | ETA: 09:00 | 500 dosis",
        "50"
      ],
      "transaction": {
        "from": "0x3c44cdddb6a900fa2b585dd299e03d12fa4293bc",
        "to": "0x5fbdb2315678afecb367f032d93f642f64180aa3",
        "gas": "0x69c94",
        "value": "0x0",
        "input": "0x0a7a0b69000000000000000000000000000000000000000000000000000000000000000100000000000000000000000000000000000000000000000000000000000000a0000000000000000000000000000000000000000000000000000000000000000200000000000000000000000000000000000000000000000000000000000000e00000000000000000000000000000000000000000000000000000000000000032000000000000000000000000000000000000000000000000000000000000001d487562204d6564656c6c696e20497461677569202d204261686961203700000000000000000000000000000000000000000000000000000000000000000000605665683a2056414e2d323931207c2052657061727469646f723a204c2e20506572657a207c2053616c6964613a2030383a3130207c2050726563696e746f3a2053502d35353330207c204554413a2030393a3030207c2035303020646f736973",
        "nonce": "0x4",
        "chainId": "0x7a69"
      },
      "additionalContracts": [],
      "isFixedGasLimit": false
    },
    {
      "hash": "0x97d09cfc872db4582fa39bdbdd2b420a4e31bfb02ed052f649a91cac4048ad8d",
      "transactionType": "CALL",
      "contractName": null,
      "contractAddress": "0x5fbdb2315678afecb367f032d93f642f64180aa3",
      "function": "updateShipmentStatus(uint256,uint8)",
      "arguments": [
        "1",
        "3"
      ],
      "transaction": {
        "from": "0x3c44cdddb6a900fa2b585dd299e03d12fa4293bc",
        "to": "0x5fbdb2315678afecb367f032d93f642f64180aa3",
        "gas": "0xd5e5",
        "value": "0x0",
        "input": "0x7defa92000000000000000000000000000000000000000000000000000000000000000010000000000000000000000000000000000000000000000000000000000000003",
        "nonce": "0x5",
        "chainId": "0x7a69"
      },
      "additionalContracts": [],
      "isFixedGasLimit": false
    },
    {
      "hash": "0x6e8ba580ab16e93ec639a44513b5f1d62a22de96e23e9085aecb71d895dd2753",
      "transactionType": "CALL",
      "contractName": null,
      "contractAddress": "0x5fbdb2315678afecb367f032d93f642f64180aa3",
      "function": "recordCheckpoint(uint256,string,uint8,string,int256)",
      "arguments": [
        "1",
        "Clinica San Rafael - Farmacia, Cr 45 #12-30, Medellin",
        "3",
        "Recibe: Dra. M. Castro | 500 dosis OK | Precinto SP-5530: integro | Acta: REC-2024-441",
        "42"
      ],
      "transaction": {
        "from": "0x3c44cdddb6a900fa2b585dd299e03d12fa4293bc",
        "to": "0x5fbdb2315678afecb367f032d93f642f64180aa3",
        "gas": "0x7ff3b",
        "value": "0x0",
        "input": "0x0a7a0b69000000000000000000000000000000000000000000000000000000000000000100000000000000000000000000000000000000000000000000000000000000a000000000000000000000000000000000000000000000000000000000000000030000000000000000000000000000000000000000000000000000000000000100000000000000000000000000000000000000000000000000000000000000002a0000000000000000000000000000000000000000000000000000000000000035436c696e6963612053616e2052616661656c202d204661726d616369612c204372203435202331322d33302c204d6564656c6c696e000000000000000000000000000000000000000000000000000000000000000000000000000000000000565265636962653a204472612e204d2e2043617374726f207c2035303020646f736973204f4b207c2050726563696e746f2053502d353533303a20696e746567726f207c20416374613a205245432d323032342d34343100000000000000000000",
        "nonce": "0x6",
        "chainId": "0x7a69"
      },
      "additionalContracts": [],
      "isFixedGasLimit": false
    }
  ],
  "receipts": [
    {
      "status": "0x1",
      "cumulativeGasUsed": "0x56c75",
      "logs": [
        {
          "address": "0x5fbdb2315678afecb367f032d93f642f64180aa3",
          "topics": [
            "0x529e5c9e24a307575814835cf69244181f51bc2ae08b95b8c8459d652a7ee9cf",
            "0x0000000000000000000000000000000000000000000000000000000000000001",
            "0x0000000000000000000000000000000000000000000000000000000000000001"
          ],
          "data": "0x000000000000000000000000000000000000000000000000000000000000000000000000000000000000000070997970c51812dc3a010c7d01b50e0d17dc79c8",
          "blockHash": "0x5c5adb96c6006203032aeb488207df754d5aa0fb3b931592b894fd5d835fcdd7",
          "blockNumber": "0x29",
          "blockTimestamp": "0x69d6d270",
          "transactionHash": "0x5d5c4c93b13e11763978b2b53466bfeb9eb69a825e7d3fd510cbef2f4334a3eb",
          "transactionIndex": "0x0",
          "logIndex": "0x0",
          "removed": false
        }
      ],
      "logsBloom": "0x00000000000000000000000100000000000100000000000000000000000000000000000000000000000000000000000000000000000000000000000000040000000000000000000000000000000000000000200000040000000000000000000000000040000000000000000000000000000000000000000000000000000000000000000000000000000000000000000000000000000000000000000200000000000000000000000000000000000000000000000000000000000000000000000000000040000000000000000000000000000000000000000000000000000040000000000000000000000000000000000000000000000000000000000000000000",
      "type": "0x2",
      "transactionHash": "0x5d5c4c93b13e11763978b2b53466bfeb9eb69a825e7d3fd510cbef2f4334a3eb",
      "transactionIndex": "0x0",
      "blockHash": "0x5c5adb96c6006203032aeb488207df754d5aa0fb3b931592b894fd5d835fcdd7",
      "blockNumber": "0x29",
      "gasUsed": "0x56c75",
      "effectiveGasPrice": "0x56c25c",
      "blobGasPrice": "0x1",
      "from": "0x70997970c51812dc3a010c7d01b50e0d17dc79c8",
      "to": "0x5fbdb2315678afecb367f032d93f642f64180aa3",
      "contractAddress": null
    },
    {
      "status": "0x1",
      "cumulativeGasUsed": "0x1d1a4",
      "logs": [
        {
          "address": "0x5fbdb2315678afecb367f032d93f642f64180aa3",
          "topics": [
            "0x7c1c93f72f29b8a1fc6fc85eed990d133b1ffac80c962b521abb12f38f2ff9af",
            "0x0000000000000000000000000000000000000000000000000000000000000001"
          ],
          "data": "0x0000000000000000000000000000000000000000000000000000000000000001",
          "blockHash": "0xf7f7c0012c6f06d37c568696423cd5c7a321eefcf584374f9cc154aff4211ad5",
          "blockNumber": "0x2a",
          "blockTimestamp": "0x69d6d270",
          "transactionHash": "0xc7d2eb14efb28c8a30255cf164211106f178490d9fee7e4dfe38c51f84f2419b",
          "transactionIndex": "0x0",
          "logIndex": "0x0",
          "removed": false
        }
      ],
      "logsBloom": "0x00000000000000000000000000000080000000000000000000000000000000000000000000000000000000000000000000000000000000000000000000040000000000000000000000000000000000000000000000040000000000000000000000000040000000000000000000000000000000000000000000000000000000000000000000000000000000000000000000000000000000000000000200000000000000000000000000000000000000000000000000000000000000000000000000000040000000000000000800000000000000000000000000000000000040000000000000000000000000000000000000000000000008000000000000000000",
      "type": "0x2",
      "transactionHash": "0xc7d2eb14efb28c8a30255cf164211106f178490d9fee7e4dfe38c51f84f2419b",
      "transactionIndex": "0x0",
      "blockHash": "0xf7f7c0012c6f06d37c568696423cd5c7a321eefcf584374f9cc154aff4211ad5",
      "blockNumber": "0x2a",
      "gasUsed": "0x1d1a4",
      "effectiveGasPrice": "0x4c2bdb",
      "blobGasPrice": "0x1",
      "from": "0x90f79bf6eb2c4f870365e785982e1f101e93b906",
      "to": "0x5fbdb2315678afecb367f032d93f642f64180aa3",
      "contractAddress": null
    },
    {
      "status": "0x1",
      "cumulativeGasUsed": "0x4c880",
      "logs": [
        {
          "address": "0x5fbdb2315678afecb367f032d93f642f64180aa3",
          "topics": [
            "0x529e5c9e24a307575814835cf69244181f51bc2ae08b95b8c8459d652a7ee9cf",
            "0x0000000000000000000000000000000000000000000000000000000000000002",
            "0x0000000000000000000000000000000000000000000000000000000000000001"
          ],
          "data": "0x000000000000000000000000000000000000000000000000000000000000000100000000000000000000000090f79bf6eb2c4f870365e785982e1f101e93b906",
          "blockHash": "0x81d7f99c13cf4b5d2fc148edb46c57e4dfffc79bda6f505f6dd03a7493b82037",
          "blockNumber": "0x2b",
          "blockTimestamp": "0x69d6d270",
          "transactionHash": "0xfa69f3c8ffd50db85522c81551ef85f56a6f613c99854dd734add2b23446d16c",
          "transactionIndex": "0x0",
          "logIndex": "0x0",
          "removed": false
        }
      ],
      "logsBloom": "0x04000000000000000000000100000000000100000000000000000000000000000000000000000000000000000000000000000000000000000000000000040000000000000000000000000000000000000000200000040000000000000000000000000040000000000000000000000000000000000000000000000000000000000000000000000000000000000000000000000000000000000000000200000000000000000000000000000100000000000000000000000000000000000000000000000040000000000000000000000000000000000000000000000000000040000000000000000000000000000000000000000000008000000000000000000000",
      "type": "0x2",
      "transactionHash": "0xfa69f3c8ffd50db85522c81551ef85f56a6f613c99854dd734add2b23446d16c",
      "transactionIndex": "0x0",
      "blockHash": "0x81d7f99c13cf4b5d2fc148edb46c57e4dfffc79bda6f505f6dd03a7493b82037",
      "blockNumber": "0x2b",
      "gasUsed": "0x4c880",
      "effectiveGasPrice": "0x42b9bf",
      "blobGasPrice": "0x1",
      "from": "0x90f79bf6eb2c4f870365e785982e1f101e93b906",
      "to": "0x5fbdb2315678afecb367f032d93f642f64180aa3",
      "contractAddress": null
    },
    {
      "status": "0x1",
      "cumulativeGasUsed": "0x183c0",
      "logs": [
        {
          "address": "0x5fbdb2315678afecb367f032d93f642f64180aa3",
          "topics": [
            "0x7c1c93f72f29b8a1fc6fc85eed990d133b1ffac80c962b521abb12f38f2ff9af",
            "0x0000000000000000000000000000000000000000000000000000000000000001"
          ],
          "data": "0x0000000000000000000000000000000000000000000000000000000000000001",
          "blockHash": "0xb4ea88ae741f760ec73fb55ee41e84d0c04c7b930bc85b5a2101d6fb8481b00f",
          "blockNumber": "0x2c",
          "blockTimestamp": "0x69d6d270",
          "transactionHash": "0x0c1ff74efd744fdfff058ca1664f72aa2103ad7ba20a43f69645459b6c0422c6",
          "transactionIndex": "0x0",
          "logIndex": "0x0",
          "removed": false
        }
      ],
      "logsBloom": "0x00000000000000000000000000000080000000000000000000000000000000000000000000000000000000000000000000000000000000000000000000040000000000000000000000000000000000000000000000040000000000000000000000000040000000000000000000000000000000000000000000000000000000000000000000000000000000000000000000000000000000000000000200000000000000000000000000000000000000000000000000000000000000000000000000000040000000000000000800000000000000000000000000000000000040000000000000000000000000000000000000000000000008000000000000000000",
      "type": "0x2",
      "transactionHash": "0x0c1ff74efd744fdfff058ca1664f72aa2103ad7ba20a43f69645459b6c0422c6",
      "transactionIndex": "0x0",
      "blockHash": "0xb4ea88ae741f760ec73fb55ee41e84d0c04c7b930bc85b5a2101d6fb8481b00f",
      "blockNumber": "0x2c",
      "gasUsed": "0x183c0",
      "effectiveGasPrice": "0x3a8f27",
      "blobGasPrice": "0x1",
      "from": "0x3c44cdddb6a900fa2b585dd299e03d12fa4293bc",
      "to": "0x5fbdb2315678afecb367f032d93f642f64180aa3",
      "contractAddress": null
    },
    {
      "status": "0x1",
      "cumulativeGasUsed": "0x4c8c8",
      "logs": [
        {
          "address": "0x5fbdb2315678afecb367f032d93f642f64180aa3",
          "topics": [
            "0x529e5c9e24a307575814835cf69244181f51bc2ae08b95b8c8459d652a7ee9cf",
            "0x0000000000000000000000000000000000000000000000000000000000000003",
            "0x0000000000000000000000000000000000000000000000000000000000000001"
          ],
          "data": "0x00000000000000000000000000000000000000000000000000000000000000020000000000000000000000003c44cdddb6a900fa2b585dd299e03d12fa4293bc",
          "blockHash": "0x2f2759667308f0ac8f139d0dc64a5e7a01138b0e0ecac2da29cc73a2361a00ce",
          "blockNumber": "0x2d",
          "blockTimestamp": "0x69d6d270",
          "transactionHash": "0xdeed5a43ffb6aae3a73b03f93dd124af28fc147a67882893a7db1eed53ec55d0",
          "transactionIndex": "0x0",
          "logIndex": "0x0",
          "removed": false
        }
      ],
      "logsBloom": "0x00000000000000000000000100000000000100000000000000000000000000000000000000000000000000000000000000000000020000000000000000040000000000000000000000000000000000000000200000040000000000000000000000000040000000000000000000000000000000000000000000000000000000000000000000000000000000000000000000000000000000000000000200000000000000000000000000000000000000000000000000800000000000000000400000000040000000000000000000000000000000000000000000000000000040000000000000000000000000000000000000000000000000000000000000000000",
      "type": "0x2",
      "transactionHash": "0xdeed5a43ffb6aae3a73b03f93dd124af28fc147a67882893a7db1eed53ec55d0",
      "transactionIndex": "0x0",
      "blockHash": "0x2f2759667308f0ac8f139d0dc64a5e7a01138b0e0ecac2da29cc73a2361a00ce",
      "blockNumber": "0x2d",
      "gasUsed": "0x4c8c8",
      "effectiveGasPrice": "0x3349a9",
      "blobGasPrice": "0x1",
      "from": "0x3c44cdddb6a900fa2b585dd299e03d12fa4293bc",
      "to": "0x5fbdb2315678afecb367f032d93f642f64180aa3",
      "contractAddress": null
    },
    {
      "status": "0x1",
      "cumulativeGasUsed": "0x57711",
      "logs": [
        {
          "address": "0x5fbdb2315678afecb367f032d93f642f64180aa3",
          "topics": [
            "0x529e5c9e24a307575814835cf69244181f51bc2ae08b95b8c8459d652a7ee9cf",
            "0x0000000000000000000000000000000000000000000000000000000000000004",
            "0x0000000000000000000000000000000000000000000000000000000000000001"
          ],
          "data": "0x00000000000000000000000000000000000000000000000000000000000000020000000000000000000000003c44cdddb6a900fa2b585dd299e03d12fa4293bc",
          "blockHash": "0x1ac5b36549d7a1062c22a6bb93febacd145b0b64d9b7e6b254ccfd1420c65593",
          "blockNumber": "0x2e",
          "blockTimestamp": "0x69d6d270",
          "transactionHash": "0x3133b8a41d91964fb71f34d9d8dc3c421368f31e84677d17cf710661ed5a6c82",
          "transactionIndex": "0x0",
          "logIndex": "0x0",
          "removed": false
        }
      ],
      "logsBloom": "0x00000000000000000000000100000000000100000000000000000000000000000000000000000000000000000000000000000000000000000000000000040000000000000000000000000000000000000000200000040000000000000000000008000040000000000000000000000000000000000000000000000000000000000000000000000000000000000000000000000000000000000000000200000000000000000000000000000000000000000000000000000000002000000000000000000040000000000000000000000000000000008000000000000000000040000000000000000000000000000000000000000000000000000000000000000000",
      "type": "0x2",
      "transactionHash": "0x3133b8a41d91964fb71f34d9d8dc3c421368f31e84677d17cf710661ed5a6c82",
      "transactionIndex": "0x0",
      "blockHash": "0x1ac5b36549d7a1062c22a6bb93febacd145b0b64d9b7e6b254ccfd1420c65593",
      "blockNumber": "0x2e",
      "gasUsed": "0x57711",
      "effectiveGasPrice": "0x2d02c3",
      "blobGasPrice": "0x1",
      "from": "0x3c44cdddb6a900fa2b585dd299e03d12fa4293bc",
      "to": "0x5fbdb2315678afecb367f032d93f642f64180aa3",
      "contractAddress": null
    },
    {
      "status": "0x1",
      "cumulativeGasUsed": "0x18ed8",
      "logs": [
        {
          "address": "0x5fbdb2315678afecb367f032d93f642f64180aa3",
          "topics": [
            "0x7c1c93f72f29b8a1fc6fc85eed990d133b1ffac80c962b521abb12f38f2ff9af",
            "0x0000000000000000000000000000000000000000000000000000000000000001"
          ],
          "data": "0x0000000000000000000000000000000000000000000000000000000000000002",
          "blockHash": "0x9d83c01f323d38e41b22d3df4c3c120f122619948bb12c6c48f0f5aef2154510",
          "blockNumber": "0x2f",
          "blockTimestamp": "0x69d6d270",
          "transactionHash": "0x0019df446055efeaae3bb606c14f1f1cb2b3ee276942e62d6e2a50c99ef7c2e0",
          "transactionIndex": "0x0",
          "logIndex": "0x0",
          "removed": false
        }
      ],
      "logsBloom": "0x00000000000000000000000000000080000000000000000000000000000000000000000000000000000000000000000000000000000000000000000000040000000000000000000000000000000000000000000000040000000000000000000000000040000000000000000000000000000000000000000000000000000000000000000000000000000000000000000000000000000000000000000200000000000000000000000000000000000000000000000000000000000000000000000000000040000000000000000800000000000000000000000000000000000040000000000000000000000000000000000000000000000008000000000000000000",
      "type": "0x2",
      "transactionHash": "0x0019df446055efeaae3bb606c14f1f1cb2b3ee276942e62d6e2a50c99ef7c2e0",
      "transactionIndex": "0x0",
      "blockHash": "0x9d83c01f323d38e41b22d3df4c3c120f122619948bb12c6c48f0f5aef2154510",
      "blockNumber": "0x2f",
      "gasUsed": "0x18ed8",
      "effectiveGasPrice": "0x2784d0",
      "blobGasPrice": "0x1",
      "from": "0x14dc79964da2c08b23698b3d3cc7ca32193d9955",
      "to": "0x5fbdb2315678afecb367f032d93f642f64180aa3",
      "contractAddress": null
    },
    {
      "status": "0x1",
      "cumulativeGasUsed": "0x4c934",
      "logs": [
        {
          "address": "0x5fbdb2315678afecb367f032d93f642f64180aa3",
          "topics": [
            "0x529e5c9e24a307575814835cf69244181f51bc2ae08b95b8c8459d652a7ee9cf",
            "0x0000000000000000000000000000000000000000000000000000000000000005",
            "0x0000000000000000000000000000000000000000000000000000000000000001"
          ],
          "data": "0x000000000000000000000000000000000000000000000000000000000000000100000000000000000000000014dc79964da2c08b23698b3d3cc7ca32193d9955",
          "blockHash": "0x15674a5dc55cdcddf6e5d7fe941c4e19108f0cf801aca5f72abd7f61ed99fb9e",
          "blockNumber": "0x30",
          "blockTimestamp": "0x69d6d270",
          "transactionHash": "0x312abc876326f81b27a0326dbe23740419471ef06ef1d09eedbe84ff6d02560c",
          "transactionIndex": "0x0",
          "logIndex": "0x0",
          "removed": false
        }
      ],
      "logsBloom": "0x00000000000000000000000100000000000100000000000000000000000000000000000000000000000000000000000000000000000000000000000000040000000010000000000000000000000000000000200000040000000000000000000000000040000000000000000000000000000000000000000000000000000000000000000000000000000000000000001000000800000000000000000200000000000000000000000000000000000000000000000000000000000000000000000000000040000000000000000000000000000000000000000000000000000040000000000000000000000000000000000000000000000000000000000000000000",
      "type": "0x2",
      "transactionHash": "0x312abc876326f81b27a0326dbe23740419471ef06ef1d09eedbe84ff6d02560c",
      "transactionIndex": "0x0",
      "blockHash": "0x15674a5dc55cdcddf6e5d7fe941c4e19108f0cf801aca5f72abd7f61ed99fb9e",
      "blockNumber": "0x30",
      "gasUsed": "0x4c934",
      "effectiveGasPrice": "0x229cd2",
      "blobGasPrice": "0x1",
      "from": "0x14dc79964da2c08b23698b3d3cc7ca32193d9955",
      "to": "0x5fbdb2315678afecb367f032d93f642f64180aa3",
      "contractAddress": null
    },
    {
      "status": "0x1",
      "cumulativeGasUsed": "0x4c966",
      "logs": [
        {
          "address": "0x5fbdb2315678afecb367f032d93f642f64180aa3",
          "topics": [
            "0x529e5c9e24a307575814835cf69244181f51bc2ae08b95b8c8459d652a7ee9cf",
            "0x0000000000000000000000000000000000000000000000000000000000000006",
            "0x0000000000000000000000000000000000000000000000000000000000000001"
          ],
          "data": "0x00000000000000000000000000000000000000000000000000000000000000020000000000000000000000003c44cdddb6a900fa2b585dd299e03d12fa4293bc",
          "blockHash": "0x1a56bde6b199dfa5f90c5b89595bbbd78c3904ca1ede5dddd9b1365140220120",
          "blockNumber": "0x31",
          "blockTimestamp": "0x69d6d270",
          "transactionHash": "0x928e53a0a5d280bbe3dff49a916dd6275b73f5da91ba34331271b9ade5d5084e",
          "transactionIndex": "0x0",
          "logIndex": "0x0",
          "removed": false
        }
      ],
      "logsBloom": "0x00000000000000000000000100000000000100000000000000000000000000000000000000000000000000000000000000000000000400000000000000040000000000000000000000000000000000000000200000040000000000000000000000000040000000000000000000000000000000000000000000000000000000000000000400000000000000000000000000000000000000000000000200000000000000000000000000000000000000000000000000000000000000080000000000000040000000000000000000000000000000000000000000000000000040000000000000000000000000000000000000000000000000000000000000000000",
      "type": "0x2",
      "transactionHash": "0x928e53a0a5d280bbe3dff49a916dd6275b73f5da91ba34331271b9ade5d5084e",
      "transactionIndex": "0x0",
      "blockHash": "0x1a56bde6b199dfa5f90c5b89595bbbd78c3904ca1ede5dddd9b1365140220120",
      "blockNumber": "0x31",
      "gasUsed": "0x4c966",
      "effectiveGasPrice": "0x1e6061",
      "blobGasPrice": "0x1",
      "from": "0x3c44cdddb6a900fa2b585dd299e03d12fa4293bc",
      "to": "0x5fbdb2315678afecb367f032d93f642f64180aa3",
      "contractAddress": null
    },
    {
      "status": "0x1",
      "cumulativeGasUsed": "0x9241",
      "logs": [
        {
          "address": "0x5fbdb2315678afecb367f032d93f642f64180aa3",
          "topics": [
            "0x7c1c93f72f29b8a1fc6fc85eed990d133b1ffac80c962b521abb12f38f2ff9af",
            "0x0000000000000000000000000000000000000000000000000000000000000001"
          ],
          "data": "0x0000000000000000000000000000000000000000000000000000000000000003",
          "blockHash": "0x72ef0a16029f63845885288c0c315cc3c638cee737159752fafce881b1d53c45",
          "blockNumber": "0x32",
          "blockTimestamp": "0x69d6d270",
          "transactionHash": "0x97d09cfc872db4582fa39bdbdd2b420a4e31bfb02ed052f649a91cac4048ad8d",
          "transactionIndex": "0x0",
          "logIndex": "0x0",
          "removed": false
        }
      ],
      "logsBloom": "0x00000000000000000000000000000080000000000000000000000000000000000000000000000000000000000000000000000000000000000000000000040000000000000000000000000000000000000000000000040000000000000000000000000040000000000000000000000000000000000000000000000000000000000000000000000000000000000000000000000000000000000000000200000000000000000000000000000000000000000000000000000000000000000000000000000040000000000000000800000000000000000000000000000000000040000000000000000000000000000000000000000000000008000000000000000000",
      "type": "0x2",
      "transactionHash": "0x97d09cfc872db4582fa39bdbdd2b420a4e31bfb02ed052f649a91cac4048ad8d",
      "transactionIndex": "0x0",
      "blockHash": "0x72ef0a16029f63845885288c0c315cc3c638cee737159752fafce881b1d53c45",
      "blockNumber": "0x32",
      "gasUsed": "0x9241",
      "effectiveGasPrice": "0x1aa8aa",
      "blobGasPrice": "0x1",
      "from": "0x3c44cdddb6a900fa2b585dd299e03d12fa4293bc",
      "to": "0x5fbdb2315678afecb367f032d93f642f64180aa3",
      "contractAddress": null
    },
    {
      "status": "0x1",
      "cumulativeGasUsed": "0x577d1",
      "logs": [
        {
          "address": "0x5fbdb2315678afecb367f032d93f642f64180aa3",
          "topics": [
            "0x529e5c9e24a307575814835cf69244181f51bc2ae08b95b8c8459d652a7ee9cf",
            "0x0000000000000000000000000000000000000000000000000000000000000007",
            "0x0000000000000000000000000000000000000000000000000000000000000001"
          ],
          "data": "0x00000000000000000000000000000000000000000000000000000000000000030000000000000000000000003c44cdddb6a900fa2b585dd299e03d12fa4293bc",
          "blockHash": "0xe58d03ee4092dc5d2af148ee2f8196c7129fab43ce4b74b809672fe3ed2c504e",
          "blockNumber": "0x33",
          "blockTimestamp": "0x69d6d270",
          "transactionHash": "0x6e8ba580ab16e93ec639a44513b5f1d62a22de96e23e9085aecb71d895dd2753",
          "transactionIndex": "0x0",
          "logIndex": "0x0",
          "removed": false
        }
      ],
      "logsBloom": "0x00000000000000000000000100000000000100000000000000000000000000000000000000000000000000000000000000001000000000000000000000040000000020000000000000000000000000000000200000040000000000000000000000000040000000000000000000000000000000000000000000000000000000000000000000000000000000000000000000000000000000000000000200000000000000000000000000000000000000000000000000000000000000000000000000000040000000000000000000000000000000000000000000000100000040000000000000000000000000000000000000000000000000000000000000000000",
      "type": "0x2",
      "transactionHash": "0x6e8ba580ab16e93ec639a44513b5f1d62a22de96e23e9085aecb71d895dd2753",
      "transactionIndex": "0x0",
      "blockHash": "0xe58d03ee4092dc5d2af148ee2f8196c7129fab43ce4b74b809672fe3ed2c504e",
      "blockNumber": "0x33",
      "gasUsed": "0x577d1",
      "effectiveGasPrice": "0x1755b6",
      "blobGasPrice": "0x1",
      "from": "0x3c44cdddb6a900fa2b585dd299e03d12fa4293bc",
      "to": "0x5fbdb2315678afecb367f032d93f642f64180aa3",
      "contractAddress": null
    }
  ],
  "libraries": [],
  "pending": [],
  "returns": {},
  "timestamp": 1775686256536,
  "chain": 31337,
  "commit": "b2a9a0b1"
}