{
  "transactions": [
    {
      "hash": "0x207a92f28d6615149ff39aa09c170f1eefa94dd723d297fc82d7a47d4dba9187",
      "transactionType": "CALL",
      "contractName": null,
      "contractAddress": "0x5fbdb2315678afecb367f032d93f642f64180aa3",
      "function": "recordCheckpoint(uint256,string,uint8,string,int256)",
      "arguments": [
        "1",
        "Laboratorio BioPharma - Bogota, Zona Industrial",
        "0",
        "Lote: VX-2024-089 | Venc: 2025-08 | 500 dosis | Embalaje integro | Resp: J. Martinez",
        "45"
      ],
      "transaction": {
        "from": "0x70997970c51812dc3a010c7d01b50e0d17dc79c8",
        "to": "0x5fbdb2315678afecb367f032d93f642f64180aa3",
        "gas": "0x77dce",
        "value": "0x0",
        "input": "0x0a7a0b69000000000000000000000000000000000000000000000000000000000000000100000000000000000000000000000000000000000000000000000000000000a000000000000000000000000000000000000000000000000000000000000000000000000000000000000000000000000000000000000000000000000000000100000000000000000000000000000000000000000000000000000000000000002d000000000000000000000000000000000000000000000000000000000000002f4c61626f7261746f72696f2042696f506861726d61202d20426f676f74612c205a6f6e6120496e647573747269616c000000000000000000000000000000000000000000000000000000000000000000000000000000000000000000000000544c6f74653a2056582d323032342d303839207c2056656e633a20323032352d3038207c2035303020646f736973207c20456d62616c616a6520696e746567726f207c20526573703a204a2e204d617274696e657a000000000000000000000000",
        "nonce": "0x1",
        "chainId": "0x7a69"
      },
      "additionalContracts": [],
      "isFixedGasLimit": false
    },
    {
      "hash": "0x06ee2cbde00749c1fd025da30553c09f1aff7b8a15b79da77b8981f1cb512b33",
      "transactionType": "CALL",
      "contractName": null,
      "contractAddress": "0x5fbdb2315678afecb367f032d93f642f64180aa3",
      "function": "updateShipmentStatus(uint256,uint8)",
      "arguments": [
        "1",
        "1"
      ],
      "transaction": {
        "from": "0x90f79bf6eb2c4f870365e785982e1f101e93b906",
        "to": "0x5fbdb2315678afecb367f032d93f642f64180aa3",
        "gas": "0x2832a",
        "value": "0x0",
        "input": "0x7defa92000000000000000000000000000000000000000000000000000000000000000010000000000000000000000000000000000000000000000000000000000000001",
        "nonce": "0x0",
        "chainId": "0x7a69"
      },
      "additionalContracts": [],
      "isFixedGasLimit": false
    },
    {
      "hash": "0xc36a1dfaa55f1c368384608470fdf3fe92a64875b165672f5533fef467692fab",
      "transactionType": "CALL",
      "contractName": null,
      "contractAddress": "0x5fbdb2315678afecb367f032d93f642f64180aa3",
      "function": "recordCheckpoint(uint256,string,uint8,string,int256)",
      "arguments": [
        "1",
        "Hub Bogota Fontibon - Recepcion",
        "1",
        "Llegada: 10:35 | Embalaje: OK | 500/500 dosis | Veh: ABC-123 | Resp: C. Torres",
        "38"
      ],
      "transaction": {
        "from": "0x90f79bf6eb2c4f870365e785982e1f101e93b906",
        "to": "0x5fbdb2315678afecb367f032d93f642f64180aa3",
        "gas": "0x69b57",
        "value": "0x0",
        "input": "0x0a7a0b69000000000000000000000000000000000000000000000000000000000000000100000000000000000000000000000000000000000000000000000000000000a0000000000000000000000000000000000000000000000000000000000000000100000000000000000000000000000000000000000000000000000000000000e00000000000000000000000000000000000000000000000000000000000000026000000000000000000000000000000000000000000000000000000000000001f48756220426f676f746120466f6e7469626f6e202d20526563657063696f6e00000000000000000000000000000000000000000000000000000000000000004e4c6c65676164613a2031303a3335207c20456d62616c616a653a204f4b207c203530302f35303020646f736973207c205665683a204142432d313233207c20526573703a20432e20546f72726573000000000000000000000000000000000000",
        "nonce": "0x1",
        "chainId": "0x7a69"
      },
      "additionalContracts": [],
      "isFixedGasLimit": false
    },
    {
      "hash": "0xf159697c8665e3f803c0b7249863a9e4415573791f0a108dc36d7af5f9f8eaa7",
      "transactionType": "CALL",
      "contractName": null,
      "contractAddress": "0x5fbdb2315678afecb367f032d93f642f64180aa3",
      "function": "updateShipmentStatus(uint256,uint8)",
      "arguments": [
        "1",
        "1"
      ],
      "transaction": {
        "from": "0x3c44cdddb6a900fa2b585dd299e03d12fa4293bc",
        "to": "0x5fbdb2315678afecb367f032d93f642f64180aa3",
        "gas": "0x21794",
        "value": "0x0",
        "input": "0x7defa92000000000000000000000000000000000000000000000000000000000000000010000000000000000000000000000000000000000000000000000000000000001",
        "nonce": "0x0",
        "chainId": "0x7a69"
      },
      "additionalContracts": [],
      "isFixedGasLimit": false
    },
    {
      "hash": "0x7a21a1ccc172fe019bc3a877306c0b224a86633b4b1f9239ed93637dff511a63",
      "transactionType": "CALL",
      "contractName": null,
      "contractAddress": "0x5fbdb2315678afecb367f032d93f642f64180aa3",
      "function": "recordCheckpoint(uint256,string,uint8,string,int256)",
      "arguments": [
        "1",
        "Hub Bogota Fontibon - Muelle 3",
        "2",
        "Placa: TRK-847 | Conductor: R. Gomez | Salida: 14:20 | Precinto: SP-4421 | ETA: 18:30",
        "40"
      ],
      "transaction": {
        "from": "0x3c44cdddb6a900fa2b585dd299e03d12fa4293bc",
        "to": "0x5fbdb2315678afecb367f032d93f642f64180aa3",
        "gas": "0x69bba",
        "value": "0x0",
        "input": "0x0a7a0b69000000000000000000000000000000000000000000000000000000000000000100000000000000000000000000000000000000000000000000000000000000a0000000000000000000000000000000000000000000000000000000000000000200000000000000000000000000000000000000000000000000000000000000e00000000000000000000000000000000000000000000000000000000000000028000000000000000000000000000000000000000000000000000000000000001e48756220426f676f746120466f6e7469626f6e202d204d75656c6c65203300000000000000000000000000000000000000000000000000000000000000000055506c6163613a2054524b2d383437207c20436f6e647563746f723a20522e20476f6d657a207c2053616c6964613a2031343a3230207c2050726563696e746f3a2053502d34343231207c204554413a2031383a33300000000000000000000000",
        "nonce": "0x1",
        "chainId": "0x7a69"
      },
      "additionalContracts": [],
      "isFixedGasLimit": false
    },
    {
      "hash": "0xbf2fcb6ca48718dfff872d5e370e0a3cfe0401473eac3ea486739241a1a23276",
      "transactionType": "CALL",
      "contractName": null,
      "contractAddress": "0x5fbdb2315678afecb367f032d93f642f64180aa3",
      "function": "recordCheckpoint(uint256,string,uint8,string,int256)",
      "arguments": [
        "1",
        "Autopista Bogota-Medellin, km 142 - Peaje La Ye",
        "2",
        "Hora: 16:45 | Precinto SP-4421: integro | Sin novedades | Temp exterior: 28C",
        "52"
      ],
      "transaction": {
        "from": "0x3c44cdddb6a900fa2b585dd299e03d12fa4293bc",
        "to": "0x5fbdb2315678afecb367f032d93f642f64180aa3",
        "gas": "0x7fe22",
        "value": "0x0",
        "input": "0x0a7a0b69000000000000000000000000000000000000000000000000000000000000000100000000000000000000000000000000000000000000000000000000000000a0000000000000000000000000000000000000000000000000000000000000000200000000000000000000000000000000000000000000000000000000000001000000000000000000000000000000000000000000000000000000000000000034000000000000000000000000000000000000000000000000000000000000002f4175746f706973746120426f676f74612d4d6564656c6c696e2c206b6d20313432202d205065616a65204c612059650000000000000000000000000000000000000000000000000000000000000000000000000000000000000000000000004c486f72613a2031363a3435207c2050726563696e746f2053502d343432313a20696e746567726f207c2053696e206e6f76656461646573207c2054656d70206578746572696f723a203238430000000000000000000000000000000000000000",
        "nonce": "0x2",
        "chainId": "0x7a69"
      },
      "additionalContracts": [],
      "isFixedGasLimit": false
    },
    {
      "hash": "0x681b1cfa9ea14228e9e19a3396afcb2871e5cb4537531e1c59e30a6dab3b0251",
      "transactionType": "CALL",
      "contractName": null,
      "contractAddress": "0x5fbdb2315678afecb367f032d93f642f64180aa3",
      "function": "updateShipmentStatus(uint256,uint8)",
      "arguments": [
        "1",
        "2"
      ],
      "transaction": {
        "from": "0x14dc79964da2c08b23698b3d3cc7ca32193d9955",
        "to": "0x5fbdb2315678afecb367f032d93f642f64180aa3",
        "gas": "0x226e6",
        "value": "0x0",
        "input": "0x7defa92000000000000000000000000000000000000000000000000000000000000000010000000000000000000000000000000000000000000000000000000000000002",
        "nonce": "0x0",
        "chainId": "0x7a69"
      },
      "additionalContracts": [],
      "isFixedGasLimit": false
    },
    {
      "hash": "0x9e0bc4ede34a7dfa4635e8a278b515d9c7b4c8e866362b838326debaac1d1939",
      "transactionType": "CALL",
      "contractName": null,
      "contractAddress": "0x5fbdb2315678afecb367f032d93f642f64180aa3",
      "function": "recordCheckpoint(uint256,string,uint8,string,int256)",
      "arguments": [
        "1",
        "Hub Medellin Itagui - Recepcion",
        "1",
        "Llegada: 18:15 | Precinto SP-4421: integro | 500/500 dosis | Almacen R2: 3.8C | Resp: A. Rios",
        "55"
      ],
      "transaction": {
        "from": "0x14dc79964da2c08b23698b3d3cc7ca32193d9955",
        "to": "0x5fbdb2315678afecb367f032d93f642f64180aa3",
        "gas": "0x69c4f",
        "value": "0x0",
        "input": "0x0a7a0b69000000000000000000000000000000000000000000000000000000000000000100000000000000000000000000000000000000000000000000000000000000a0000000000000000000000000000000000000000000000000000000000000000100000000000000000000000000000000000000000000000000000000000000e00000000000000000000000000000000000000000000000000000000000000037000000000000000000000000000000000000000000000000000000000000001f487562204d6564656c6c696e20497461677569202d20526563657063696f6e00000000000000000000000000000000000000000000000000000000000000005d4c6c65676164613a2031383a3135207c2050726563696e746f2053502d343432313a20696e746567726f207c203530302f35303020646f736973207c20416c6d6163656e2052323a20332e3843207c20526573703a20412e2052696f73000000",
        "nonce": "0x1",
        "chainId": "0x7a69"
      },
      "additionalContracts": [],
      "isFixedGasLimit": false
    },
    {
      "hash": "0x96f138232f09cc426d54bf7532c3a9c1214c89acd07105dd109f8341e6cff403",
      "transactionType": "CALL",
      "contractName": null,
      "contractAddress": "0x5fbdb2315678afecb367f032d93f642f64180aa3",
      "function": "recordCheckpoint(uint256,string,uint8,string,int256)",
      "arguments": [
        "1",
        "Hub Medellin Itagui - Bahia 7",
        "2",
        "Veh: VAN-291 | Repartidor: L. Perez | Salida: 08:10 | Precinto: SP-5530 | ETA: 09:00 | 500 dosis",
        "50"
      ],
      "transaction": {
        "from": "0x3c44cdddb6a900fa2b585dd299e03d12fa4293bc",
        "to": "0x5fbdb2315678afecb367f032d93f642f64180aa3",
        "gas": "0x69c94",
        "value": "0x0",
        "input": "0x0a7a0b69000000000000000000000000000000000000000000000000000000000000000100000000000000000000000000000000000000000000000000000000000000a0000000000000000000000000000000000000000000000000000000000000000200000000000000000000000000000000000000000000000000000000000000e00000000000000000000000000000000000000000000000000000000000000032000000000000000000000000000000000000000000000000000000000000001d487562204d6564656c6c696e20497461677569202d204261686961203700000000000000000000000000000000000000000000000000000000000000000000605665683a2056414e2d323931207c2052657061727469646f723a204c2e20506572657a207c2053616c6964613a2030383a3130207c2050726563696e746f3a2053502d35353330207c204554413a2030393a3030207c2035303020646f736973",
        "nonce": "0x3",
        "chainId": "0x7a69"
      },
      "additionalContracts": [],
      "isFixedGasLimit": false
    },
    {
      "hash": "0x7a8f363949b83b9e9c014db71c4574bec10af514176e174f5173be83afcc3cc3",
      "transactionType": "CALL",
      "contractName": null,
      "contractAddress": "0x5fbdb2315678afecb367f032d93f642f64180aa3",
      "function": "updateShipmentStatus(uint256,uint8)",
      "arguments": [
        "1",
        "3"
      ],
      "transaction": {
        "from": "0x3c44cdddb6a900fa2b585dd299e03d12fa4293bc",
        "to": "0x5fbdb2315678afecb367f032d93f642f64180aa3",
        "gas": "0xd5e5",
        "value": "0x0",
        "input": "0x7defa92000000000000000000000000000000000000000000000000000000000000000010000000000000000000000000000000000000000000000000000000000000003",
        "nonce": "0x4",
        "chainId": "0x7a69"
      },
      "additionalContracts": [],
      "isFixedGasLimit": false
    },
    {
      "hash": "0x415e0a365834ef8eda3901c84f873699d741a77516fd3a7e879ae4d202835345",
      "transactionType": "CALL",
      "contractName": null,
      "contractAddress": "0x5fbdb2315678afecb367f032d93f642f64180aa3",
      "function": "recordCheckpoint(uint256,string,uint8,string,int256)",
      "arguments": [
        "1",
        "Clinica San Rafael - Farmacia, Cr 45 #12-30, Medellin",
        "3",
        "Recibe: Dra. M. Castro | 500 dosis OK | Precinto SP-5530: integro | Acta: REC-2024-441",
        "42"
      ],
      "transaction": {
        "from": "0x3c44cdddb6a900fa2b585dd299e03d12fa4293bc",
        "to": "0x5fbdb2315678afecb367f032d93f642f64180aa3",
        "gas": "0x7ff3b",
        "value": "0x0",
        "input": "0x0a7a0b69000000000000000000000000000000000000000000000000000000000000000100000000000000000000000000000000000000000000000000000000000000a000000000000000000000000000000000000000000000000000000000000000030000000000000000000000000000000000000000000000000000000000000100000000000000000000000000000000000000000000000000000000000000002a0000000000000000000000000000000000000000000000000000000000000035436c696e6963612053616e2052616661656c202d204661726d616369612c204372203435202331322d33302c204d6564656c6c696e000000000000000000000000000000000000000000000000000000000000000000000000000000000000565265636962653a204472612e204d2e2043617374726f207c2035303020646f736973204f4b207c2050726563696e746f2053502d353533303a20696e746567726f207c20416374613a205245432d323032342d34343100000000000000000000",
        "nonce": "0x5",
        "chainId": "0x7a69"
      },
      "additionalContracts": [],
      "isFixedGasLimit": false
    }
  ],
  "receipts": [
    {
      "status": "0x1",
      "cumulativeGasUsed": "0x56c75",
      "logs": [
        {
          "address": "0x5fbdb2315678afecb367f032d93f642f64180aa3",
          "topics": [
            "0x529e5c9e24a307575814835cf69244181f51bc2ae08b95b8c8459d652a7ee9cf",
            "0x0000000000000000000000000000000000000000000000000000000000000001",
            "0x0000000000000000000000000000000000000000000000000000000000000001"
          ],
          "data": "0x000000000000000000000000000000000000000000000000000000000000000000000000000000000000000070997970c51812dc3a010c7d01b50e0d17dc79c8",
          "blockHash": "0x1c4b30e94022414cba3fd9b6fa20a29bf55d859defc3b313178071d94cc717d4",
          "blockNumber": "0x8",
          "blockTimestamp": "0x69c6f1cd",
          "transactionHash": "0x207a92f28d6615149ff39aa09c170f1eefa94dd723d297fc82d7a47d4dba9187",
          "transactionIndex": "0x0",
          "logIndex": "0x0",
          "removed": false
        }
      ],
      "logsBloom": "0x00000000000000000000000100000000000100000000000000000000000000000000000000000000000000000000000000000000000000000000000000040000000000000000000000000000000000000000200000040000000000000000000000000040000000000000000000000000000000000000000000000000000000000000000000000000000000000000000000000000000000000000000200000000000000000000000000000000000000000000000000000000000000000000000000000040000000000000000000000000000000000000000000000000000040000000000000000000000000000000000000000000000000000000000000000000",
      "type": "0x2",
      "transactionHash": "0x207a92f28d6615149ff39aa09c170f1eefa94dd723d297fc82d7a47d4dba9187",
      "transactionIndex": "0x0",
      "blockHash": "0x1c4b30e94022414cba3fd9b6fa20a29bf55d859defc3b313178071d94cc717d4",
      "blockNumber": "0x8",
      "gasUsed": "0x56c75",
      "effectiveGasPrice": "0x184e4f41",
      "blobGasPrice": "0x1",
      "from": "0x70997970c51812dc3a010c7d01b50e0d17dc79c8",
      "to": "0x5fbdb2315678afecb367f032d93f642f64180aa3",
      "contractAddress": null
    },
    {
      "status": "0x1",
      "cumulativeGasUsed": "0x1d1a4",
      "logs": [
        {
          "address": "0x5fbdb2315678afecb367f032d93f642f64180aa3",
          "topics": [
            "0x7c1c93f72f29b8a1fc6fc85eed990d133b1ffac80c962b521abb12f38f2ff9af",
            "0x0000000000000000000000000000000000000000000000000000000000000001"
          ],
          "data": "0x0000000000000000000000000000000000000000000000000000000000000001",
          "blockHash": "0xfa1932ab78df0f33da1cd2d8c718c4f4f2f7f4b162ec66ccf067fe6037b8ae54",
          "blockNumber": "0x9",
          "blockTimestamp": "0x69c6f1cd",
          "transactionHash": "0x06ee2cbde00749c1fd025da30553c09f1aff7b8a15b79da77b8981f1cb512b33",
          "transactionIndex": "0x0",
          "logIndex": "0x0",
          "removed": false
        }
      ],
      "logsBloom": "0x00000000000000000000000000000080000000000000000000000000000000000000000000000000000000000000000000000000000000000000000000040000000000000000000000000000000000000000000000040000000000000000000000000040000000000000000000000000000000000000000000000000000000000000000000000000000000000000000000000000000000000000000200000000000000000000000000000000000000000000000000000000000000000000000000000040000000000000000800000000000000000000000000000000000040000000000000000000000000000000000000000000000008000000000000000000",
      "type": "0x2",
      "transactionHash": "0x06ee2cbde00749c1fd025da30553c09f1aff7b8a15b79da77b8981f1cb512b33",
      "transactionIndex": "0x0",
      "blockHash": "0xfa1932ab78df0f33da1cd2d8c718c4f4f2f7f4b162ec66ccf067fe6037b8ae54",
      "blockNumber": "0x9",
      "gasUsed": "0x1d1a4",
      "effectiveGasPrice": "0x1556f39e",
      "blobGasPrice": "0x1",
      "from": "0x90f79bf6eb2c4f870365e785982e1f101e93b906",
      "to": "0x5fbdb2315678afecb367f032d93f642f64180aa3",
      "contractAddress": null
    },
    {
      "status": "0x1",
      "cumulativeGasUsed": "0x4c880",
      "logs": [
        {
          "address": "0x5fbdb2315678afecb367f032d93f642f64180aa3",
          "topics": [
            "0x529e5c9e24a307575814835cf69244181f51bc2ae08b95b8c8459d652a7ee9cf",
            "0x0000000000000000000000000000000000000000000000000000000000000002",
            "0x0000000000000000000000000000000000000000000000000000000000000001"
          ],
          "data": "0x000000000000000000000000000000000000000000000000000000000000000100000000000000000000000090f79bf6eb2c4f870365e785982e1f101e93b906",
          "blockHash": "0xd020ba1a3a0007bfa76c439ee5aa9771f9f2adf74a3a846691ff1d4ba9eebafa",
          "blockNumber": "0xa",
          "blockTimestamp": "0x69c6f1cd",
          "transactionHash": "0xc36a1dfaa55f1c368384608470fdf3fe92a64875b165672f5533fef467692fab",
          "transactionIndex": "0x0",
          "logIndex": "0x0",
          "removed": false
        }
      ],
      "logsBloom": "0x04000000000000000000000100000000000100000000000000000000000000000000000000000000000000000000000000000000000000000000000000040000000000000000000000000000000000000000200000040000000000000000000000000040000000000000000000000000000000000000000000000000000000000000000000000000000000000000000000000000000000000000000200000000000000000000000000000100000000000000000000000000000000000000000000000040000000000000000000000000000000000000000000000000000040000000000000000000000000000000000000000000008000000000000000000000",
      "type": "0x2",
      "transactionHash": "0xc36a1dfaa55f1c368384608470fdf3fe92a64875b165672f5533fef467692fab",
      "transactionIndex": "0x0",
      "blockHash": "0xd020ba1a3a0007bfa76c439ee5aa9771f9f2adf74a3a846691ff1d4ba9eebafa",
      "blockNumber": "0xa",
      "gasUsed": "0x4c880",
      "effectiveGasPrice": "0x12b18268",
      "blobGasPrice": "0x1",
      "from": "0x90f79bf6eb2c4f870365e785982e1f101e93b906",
      "to": "0x5fbdb2315678afecb367f032d93f642f64180aa3",
      "contractAddress": null
    },
    {
      "status": "0x1",
      "cumulativeGasUsed": "0x183c0",
      "logs": [
        {
          "address": "0x5fbdb2315678afecb367f032d93f642f64180aa3",
          "topics": [
            "0x7c1c93f72f29b8a1fc6fc85eed990d133b1ffac80c962b521abb12f38f2ff9af",
            "0x0000000000000000000000000000000000000000000000000000000000000001"
          ],
          "data": "0x0000000000000000000000000000000000000000000000000000000000000001",
          "blockHash": "0x2895c719f28d119c9254e42cf4f9e47a945c543fced3cb01db6488d5cc52992e",
          "blockNumber": "0xb",
          "blockTimestamp": "0x69c6f1cd",
          "transactionHash": "0xf159697c8665e3f803c0b7249863a9e4415573791f0a108dc36d7af5f9f8eaa7",
          "transactionIndex": "0x0",
          "logIndex": "0x0",
          "removed": false
        }
      ],
      "logsBloom": "0x00000000000000000000000000000080000000000000000000000000000000000000000000000000000000000000000000000000000000000000000000040000000000000000000000000000000000000000000000040000000000000000000000000040000000000000000000000000000000000000000000000000000000000000000000000000000000000000000000000000000000000000000200000000000000000000000000000000000000000000000000000000000000000000000000000040000000000000000800000000000000000000000000000000000040000000000000000000000000000000000000000000000008000000000000000000",
      "type": "0x2",
      "transactionHash": "0xf159697c8665e3f803c0b7249863a9e4415573791f0a108dc36d7af5f9f8eaa7",
      "transactionIndex": "0x0",
      "blockHash": "0x2895c719f28d119c9254e42cf4f9e47a945c543fced3cb01db6488d5cc52992e",
      "blockNumber": "0xb",
      "gasUsed": "0x183c0",
      "effectiveGasPrice": "0x1067d25f",
      "blobGasPrice": "0x1",
      "from": "0x3c44cdddb6a900fa2b585dd299e03d12fa4293bc",
      "to": "0x5fbdb2315678afecb367f032d93f642f64180aa3",
      "contractAddress": null
    },
    {
      "status": "0x1",
      "cumulativeGasUsed": "0x4c8c8",
      "logs": [
        {
          "address": "0x5fbdb2315678afecb367f032d93f642f64180aa3",
          "topics": [
            "0x529e5c9e24a307575814835cf69244181f51bc2ae08b95b8c8459d652a7ee9cf",
            "0x0000000000000000000000000000000000000000000000000000000000000003",
            "0x0000000000000000000000000000000000000000000000000000000000000001"
          ],
          "data": "0x00000000000000000000000000000000000000000000000000000000000000020000000000000000000000003c44cdddb6a900fa2b585dd299e03d12fa4293bc",
          "blockHash": "0xc2f9f3d2c8ca2d020d0e921b7f635c09fcac656503769b64c5f06457c6973433",
          "blockNumber": "0xc",
          "blockTimestamp": "0x69c6f1cd",
          "transactionHash": "0x7a21a1ccc172fe019bc3a877306c0b224a86633b4b1f9239ed93637dff511a63",
          "transactionIndex": "0x0",
          "logIndex": "0x0",
          "removed": false
        }
      ],
      "logsBloom": "0x00000000000000000000000100000000000100000000000000000000000000000000000000000000000000000000000000000000020000000000000000040000000000000000000000000000000000000000200000040000000000000000000000000040000000000000000000000000000000000000000000000000000000000000000000000000000000000000000000000000000000000000000200000000000000000000000000000000000000000000000000800000000000000000400000000040000000000000000000000000000000000000000000000000000040000000000000000000000000000000000000000000000000000000000000000000",
      "type": "0x2",
      "transactionHash": "0x7a21a1ccc172fe019bc3a877306c0b224a86633b4b1f9239ed93637dff511a63",
      "transactionIndex": "0x0",
      "blockHash": "0xc2f9f3d2c8ca2d020d0e921b7f635c09fcac656503769b64c5f06457c6973433",
      "blockNumber": "0xc",
      "gasUsed": "0x4c8c8",
      "effectiveGasPrice": "0xe5e5172",
      "blobGasPrice": "0x1",
      "from": "0x3c44cdddb6a900fa2b585dd299e03d12fa4293bc",
      "to": "0x5fbdb2315678afecb367f032d93f642f64180aa3",
      "contractAddress": null
    },
    {
      "status": "0x1",
      "cumulativeGasUsed": "0x57711",
      "logs": [
        {
          "address": "0x5fbdb2315678afecb367f032d93f642f64180aa3",
          "topics": [
            "0x529e5c9e24a307575814835cf69244181f51bc2ae08b95b8c8459d652a7ee9cf",
            "0x0000000000000000000000000000000000000000000000000000000000000004",
            "0x0000000000000000000000000000000000000000000000000000000000000001"
          ],
          "data": "0x00000000000000000000000000000000000000000000000000000000000000020000000000000000000000003c44cdddb6a900fa2b585dd299e03d12fa4293bc",
          "blockHash": "0x087b1884688371b4cd6b3a22a7f3863979a47a89e47ab4039849f5b7c5b7d03c",
          "blockNumber": "0xd",
          "blockTimestamp": "0x69c6f1cd",
          "transactionHash": "0xbf2fcb6ca48718dfff872d5e370e0a3cfe0401473eac3ea486739241a1a23276",
          "transactionIndex": "0x0",
          "logIndex": "0x0",
          "removed": false
        }
      ],
      "logsBloom": "0x00000000000000000000000100000000000100000000000000000000000000000000000000000000000000000000000000000000000000000000000000040000000000000000000000000000000000000000200000040000000000000000000008000040000000000000000000000000000000000000000000000000000000000000000000000000000000000000000000000000000000000000000200000000000000000000000000000000000000000000000000000000002000000000000000000040000000000000000000000000000000008000000000000000000040000000000000000000000000000000000000000000000000000000000000000000",
      "type": "0x2",
      "transactionHash": "0xbf2fcb6ca48718dfff872d5e370e0a3cfe0401473eac3ea486739241a1a23276",
      "transactionIndex": "0x0",
      "blockHash": "0x087b1884688371b4cd6b3a22a7f3863979a47a89e47ab4039849f5b7c5b7d03c",
      "blockNumber": "0xd",
      "gasUsed": "0x57711",
      "effectiveGasPrice": "0xc9c23ac",
      "blobGasPrice": "0x1",
      "from": "0x3c44cdddb6a900fa2b585dd299e03d12fa4293bc",
      "to": "0x5fbdb2315678afecb367f032d93f642f64180aa3",
      "contractAddress": null
    },
    {
      "status": "0x1",
      "cumulativeGasUsed": "0x18ed8",
      "logs": [
        {
          "address": "0x5fbdb2315678afecb367f032d93f642f64180aa3",
          "topics": [
            "0x7c1c93f72f29b8a1fc6fc85eed990d133b1ffac80c962b521abb12f38f2ff9af",
            "0x0000000000000000000000000000000000000000000000000000000000000001"
          ],
          "data": "0x0000000000000000000000000000000000000000000000000000000000000002",
          "blockHash": "0x958659b70927f658b71ac7e7328ed2f1065f63938e70fbbdc11a563a5a0f91eb",
          "blockNumber": "0xe",
          "blockTimestamp": "0x69c6f1cd",
          "transactionHash": "0x681b1cfa9ea14228e9e19a3396afcb2871e5cb4537531e1c59e30a6dab3b0251",
          "transactionIndex": "0x0",
          "logIndex": "0x0",
          "removed": false
        }
      ],
      "logsBloom": "0x00000000000000000000000000000080000000000000000000000000000000000000000000000000000000000000000000000000000000000000000000040000000000000000000000000000000000000000000000040000000000000000000000000040000000000000000000000000000000000000000000000000000000000000000000000000000000000000000000000000000000000000000200000000000000000000000000000000000000000000000000000000000000000000000000000040000000000000000800000000000000000000000000000000000040000000000000000000000000000000000000000000000008000000000000000000",
      "type": "0x2",
      "transactionHash": "0x681b1cfa9ea14228e9e19a3396afcb2871e5cb4537531e1c59e30a6dab3b0251",
      "transactionIndex": "0x0",
      "blockHash": "0x958659b70927f658b71ac7e7328ed2f1065f63938e70fbbdc11a563a5a0f91eb",
      "blockNumber": "0xe",
      "gasUsed": "0x18ed8",
      "effectiveGasPrice": "0xb1241c3",
      "blobGasPrice": "0x1",
      "from": "0x14dc79964da2c08b23698b3d3cc7ca32193d9955",
      "to": "0x5fbdb2315678afecb367f032d93f642f64180aa3",
      "contractAddress": null
    },
    {
      "status": "0x1",
      "cumulativeGasUsed": "0x4c934",
      "logs": [
        {
          "address": "0x5fbdb2315678afecb367f032d93f642f64180aa3",
          "topics": [
            "0x529e5c9e24a307575814835cf69244181f51bc2ae08b95b8c8459d652a7ee9cf",
            "0x0000000000000000000000000000000000000000000000000000000000000005",
            "0x0000000000000000000000000000000000000000000000000000000000000001"
          ],
          "data": "0x000000000000000000000000000000000000000000000000000000000000000100000000000000000000000014dc79964da2c08b23698b3d3cc7ca32193d9955",
          "blockHash": "0x2599efd824cfead6ae932b5311bcffe7f7f6d05c33c850cc8b0d4eb8607b701e",
          "blockNumber": "0xf",
          "blockTimestamp": "0x69c6f1cd",
          "transactionHash": "0x9e0bc4ede34a7dfa4635e8a278b515d9c7b4c8e866362b838326debaac1d1939",
          "transactionIndex": "0x0",
          "logIndex": "0x0",
          "removed": false
        }
      ],
      "logsBloom": "0x00000000000000000000000100000000000100000000000000000000000000000000000000000000000000000000000000000000000000000000000000040000000010000000000000000000000000000000200000040000000000000000000000000040000000000000000000000000000000000000000000000000000000000000000000000000000000000000001000000800000000000000000200000000000000000000000000000000000000000000000000000000000000000000000000000040000000000000000000000000000000000000000000000000000040000000000000000000000000000000000000000000000000000000000000000000",
      "type": "0x2",
      "transactionHash": "0x9e0bc4ede34a7dfa4635e8a278b515d9c7b4c8e866362b838326debaac1d1939",
      "transactionIndex": "0x0",
      "blockHash": "0x2599efd824cfead6ae932b5311bcffe7f7f6d05c33c850cc8b0d4eb8607b701e",
      "blockNumber": "0xf",
      "gasUsed": "0x4c934",
      "effectiveGasPrice": "0x9b262e8",
      "blobGasPrice": "0x1",
      "from": "0x14dc79964da2c08b23698b3d3cc7ca32193d9955",
      "to": "0x5fbdb2315678afecb367f032d93f642f64180aa3",
      "contractAddress": null
    },
    {
      "status": "0x1",
      "cumulativeGasUsed": "0x4c966",
      "logs": [
        {
          "address": "0x5fbdb2315678afecb367f032d93f642f64180aa3",
          "topics": [
            "0x529e5c9e24a307575814835cf69244181f51bc2ae08b95b8c8459d652a7ee9cf",
            "0x0000000000000000000000000000000000000000000000000000000000000006",
            "0x0000000000000000000000000000000000000000000000000000000000000001"
          ],
          "data": "0x00000000000000000000000000000000000000000000000000000000000000020000000000000000000000003c44cdddb6a900fa2b585dd299e03d12fa4293bc",
          "blockHash": "0xf3c99316a8be5f263bfb1f64911b4110ad477af84c826ea15fb14bf30b31745b",
          "blockNumber": "0x10",
          "blockTimestamp": "0x69c6f1cd",
          "transactionHash": "0x96f138232f09cc426d54bf7532c3a9c1214c89acd07105dd109f8341e6cff403",
          "transactionIndex": "0x0",
          "logIndex": "0x0",
          "removed": false
        }
      ],
      "logsBloom": "0x00000000000000000000000100000000000100000000000000000000000000000000000000000000000000000000000000000000000400000000000000040000000000000000000000000000000000000000200000040000000000000000000000000040000000000000000000000000000000000000000000000000000000000000000400000000000000000000000000000000000000000000000200000000000000000000000000000000000000000000000000000000000000080000000000000040000000000000000000000000000000000000000000000000000040000000000000000000000000000000000000000000000000000000000000000000",
      "type": "0x2",
      "transactionHash": "0x96f138232f09cc426d54bf7532c3a9c1214c89acd07105dd109f8341e6cff403",
      "transactionIndex": "0x0",
      "blockHash": "0xf3c99316a8be5f263bfb1f64911b4110ad477af84c826ea15fb14bf30b31745b",
      "blockNumber": "0x10",
      "gasUsed": "0x4c966",
      "effectiveGasPrice": "0x8829392",
      "blobGasPrice": "0x1",
      "from": "0x3c44cdddb6a900fa2b585dd299e03d12fa4293bc",
      "to": "0x5fbdb2315678afecb367f032d93f642f64180aa3",
      "contractAddress": null
    },
    {
      "status": "0x1",
      "cumulativeGasUsed": "0x9241",
      "logs": [
        {
          "address": "0x5fbdb2315678afecb367f032d93f642f64180aa3",
          "topics": [
            "0x7c1c93f72f29b8a1fc6fc85eed990d133b1ffac80c962b521abb12f38f2ff9af",
            "0x0000000000000000000000000000000000000000000000000000000000000001"
          ],
          "data": "0x0000000000000000000000000000000000000000000000000000000000000003",
          "blockHash": "0xe12e9eab73b40c44f468e97b091630fd266b648fd31bceed11cba595ea7c8f89",
          "blockNumber": "0x11",
          "blockTimestamp": "0x69c6f1cd",
          "transactionHash": "0x7a8f363949b83b9e9c014db71c4574bec10af514176e174f5173be83afcc3cc3",
          "transactionIndex": "0x0",
          "logIndex": "0x0",
          "removed": false
        }
      ],
      "logsBloom": "0x00000000000000000000000000000080000000000000000000000000000000000000000000000000000000000000000000000000000000000000000000040000000000000000000000000000000000000000000000040000000000000000000000000040000000000000000000000000000000000000000000000000000000000000000000000000000000000000000000000000000000000000000200000000000000000000000000000000000000000000000000000000000000000000000000000040000000000000000800000000000000000000000000000000000040000000000000000000000000000000000000000000000008000000000000000000",
      "type": "0x2",
      "transactionHash": "0x7a8f363949b83b9e9c014db71c4574bec10af514176e174f5173be83afcc3cc3",
      "transactionIndex": "0x0",
      "blockHash": "0xe12e9eab73b40c44f468e97b091630fd266b648fd31bceed11cba595ea7c8f89",
      "blockNumber": "0x11",
      "gasUsed": "0x9241",
      "effectiveGasPrice": "0x777f319",
      "blobGasPrice": "0x1",
      "from": "0x3c44cdddb6a900fa2b585dd299e03d12fa4293bc",
      "to": "0x5fbdb2315678afecb367f032d93f642f64180aa3",
      "contractAddress": null
    },
    {
      "status": "0x1",
      "cumulativeGasUsed": "0x577d1",
      "logs": [
        {
          "address": "0x5fbdb2315678afecb367f032d93f642f64180aa3",
          "topics": [
            "0x529e5c9e24a307575814835cf69244181f51bc2ae08b95b8c8459d652a7ee9cf",
            "0x0000000000000000000000000000000000000000000000000000000000000007",
            "0x0000000000000000000000000000000000000000000000000000000000000001"
          ],
          "data": "0x00000000000000000000000000000000000000000000000000000000000000030000000000000000000000003c44cdddb6a900fa2b585dd299e03d12fa4293bc",
          "blockHash": "0xe7e0dda49f7edc5c53d32aa8c70a00ca13dbc713d9765ffcfd090c34c5a53871",
          "blockNumber": "0x12",
          "blockTimestamp": "0x69c6f1cd",
          "transactionHash": "0x415e0a365834ef8eda3901c84f873699d741a77516fd3a7e879ae4d202835345",
          "transactionIndex": "0x0",
          "logIndex": "0x0",
          "removed": false
        }
      ],
      "logsBloom": "0x00000000000000000000000100000000000100000000000000000000000000000000000000000000000000000000000000001000000000000000000000040000000020000000000000000000000000000000200000040000000000000000000000000040000000000000000000000000000000000000000000000000000000000000000000000000000000000000000000000000000000000000000200000000000000000000000000000000000000000000000000000000000000000000000000000040000000000000000000000000000000000000000000000100000040000000000000000000000000000000000000000000000000000000000000000000",
      "type": "0x2",
      "transactionHash": "0x415e0a365834ef8eda3901c84f873699d741a77516fd3a7e879ae4d202835345",
      "transactionIndex": "0x0",
      "blockHash": "0xe7e0dda49f7edc5c53d32aa8c70a00ca13dbc713d9765ffcfd090c34c5a53871",
      "blockNumber": "0x12",
      "gasUsed": "0x577d1",
      "effectiveGasPrice": "0x6898d6e",
      "blobGasPrice": "0x1",
      "from": "0x3c44cdddb6a900fa2b585dd299e03d12fa4293bc",
      "to": "0x5fbdb2315678afecb367f032d93f642f64180aa3",
      "contractAddress": null
    }
  ],
  "libraries": [],
  "pending": [],
  "returns": {},
  "timestamp": 1774645709565,
  "chain": 31337,
  "commit": "5ba7abf6"
}