{
  "transactions": [
    {
      "hash": "0x20ed18caa441bd4f28fe2dc6e8aaf7a66c5f146c93609f65d1b93030625062e1",
      "transactionType": "CALL",
      "contractName": null,
      "contractAddress": "0x5fbdb2315678afecb367f032d93f642f64180aa3",
      "function": "recordCheckpoint(uint256,string,uint8,string,int256)",
      "arguments": [
        "1",
        "Laboratorio BioPharma - Bogota, Zona Industrial",
        "0",
        "Lote: VX-2024-089 | Venc: 2025-08 | 500 dosis | Embalaje integro | Resp: J. Martinez",
        "45"
      ],
      "transaction": {
        "from": "0x70997970c51812dc3a010c7d01b50e0d17dc79c8",
        "to": "0x5fbdb2315678afecb367f032d93f642f64180aa3",
        "gas": "0x77dce",
        "value": "0x0",
        "input": "0x0a7a0b69000000000000000000000000000000000000000000000000000000000000000100000000000000000000000000000000000000000000000000000000000000a000000000000000000000000000000000000000000000000000000000000000000000000000000000000000000000000000000000000000000000000000000100000000000000000000000000000000000000000000000000000000000000002d000000000000000000000000000000000000000000000000000000000000002f4c61626f7261746f72696f2042696f506861726d61202d20426f676f74612c205a6f6e6120496e647573747269616c000000000000000000000000000000000000000000000000000000000000000000000000000000000000000000000000544c6f74653a2056582d323032342d303839207c2056656e633a20323032352d3038207c2035303020646f736973207c20456d62616c616a6520696e746567726f207c20526573703a204a2e204d617274696e657a000000000000000000000000",
        "nonce": "0x1",
        "chainId": "0x7a69"
      },
      "additionalContracts": [],
      "isFixedGasLimit": false
    },
    {
      "hash": "0x0a66e1dde7748922fc4643ae47cdb0264bdcaf0cfade96bf3a5a0612541172d7",
      "transactionType": "CALL",
      "contractName": null,
      "contractAddress": "0x5fbdb2315678afecb367f032d93f642f64180aa3",
      "function": "updateShipmentStatus(uint256,uint8)",
      "arguments": [
        "1",
        "1"
      ],
      "transaction": {
        "from": "0x90f79bf6eb2c4f870365e785982e1f101e93b906",
        "to": "0x5fbdb2315678afecb367f032d93f642f64180aa3",
        "gas": "0x2832a",
        "value": "0x0",
        "input": "0x7defa92000000000000000000000000000000000000000000000000000000000000000010000000000000000000000000000000000000000000000000000000000000001",
        "nonce": "0x0",
        "chainId": "0x7a69"
      },
      "additionalContracts": [],
      "isFixedGasLimit": false
    },
    {
      "hash": "0xa1d0c85fa0a76aa048673b62b559a7944b89c6d267d95a01d397bde25b3bdcb4",
      "transactionType": "CALL",
      "contractName": null,
      "contractAddress": "0x5fbdb2315678afecb367f032d93f642f64180aa3",
      "function": "recordCheckpoint(uint256,string,uint8,string,int256)",
      "arguments": [
        "1",
        "Hub Bogota Fontibon - Recepcion",
        "1",
        "Llegada: 10:35 | Embalaje: OK | 500/500 dosis | Veh: ABC-123 | Resp: C. Torres",
        "38"
      ],
      "transaction": {
        "from": "0x90f79bf6eb2c4f870365e785982e1f101e93b906",
        "to": "0x5fbdb2315678afecb367f032d93f642f64180aa3",
        "gas": "0x69b57",
        "value": "0x0",
        "input": "0x0a7a0b69000000000000000000000000000000000000000000000000000000000000000100000000000000000000000000000000000000000000000000000000000000a0000000000000000000000000000000000000000000000000000000000000000100000000000000000000000000000000000000000000000000000000000000e00000000000000000000000000000000000000000000000000000000000000026000000000000000000000000000000000000000000000000000000000000001f48756220426f676f746120466f6e7469626f6e202d20526563657063696f6e00000000000000000000000000000000000000000000000000000000000000004e4c6c65676164613a2031303a3335207c20456d62616c616a653a204f4b207c203530302f35303020646f736973207c205665683a204142432d313233207c20526573703a20432e20546f72726573000000000000000000000000000000000000",
        "nonce": "0x1",
        "chainId": "0x7a69"
      },
      "additionalContracts": [],
      "isFixedGasLimit": false
    },
    {
      "hash": "0x934985d991aa5c03a5e7cebc3b85da25a96a5784d57ab14dbe9b551018ca1d48",
      "transactionType": "CALL",
      "contractName": null,
      "contractAddress": "0x5fbdb2315678afecb367f032d93f642f64180aa3",
      "function": "updateShipmentStatus(uint256,uint8)",
      "arguments": [
        "1",
        "1"
      ],
      "transaction": {
        "from": "0x3c44cdddb6a900fa2b585dd299e03d12fa4293bc",
        "to": "0x5fbdb2315678afecb367f032d93f642f64180aa3",
        "gas": "0x21794",
        "value": "0x0",
        "input": "0x7defa92000000000000000000000000000000000000000000000000000000000000000010000000000000000000000000000000000000000000000000000000000000001",
        "nonce": "0x0",
        "chainId": "0x7a69"
      },
      "additionalContracts": [],
      "isFixedGasLimit": false
    },
    {
      "hash": "0x590fddb9271742ce7b0f90485b04f499fc7647ae3273782d59a2b8ce2808492d",
      "transactionType": "CALL",
      "contractName": null,
      "contractAddress": "0x5fbdb2315678afecb367f032d93f642f64180aa3",
      "function": "recordCheckpoint(uint256,string,uint8,string,int256)",
      "arguments": [
        "1",
        "Hub Bogota Fontibon - Muelle 3",
        "2",
        "Placa: TRK-847 | Conductor: R. Gomez | Salida: 14:20 | Precinto: SP-4421 | ETA: 18:30",
        "40"
      ],
      "transaction": {
        "from": "0x3c44cdddb6a900fa2b585dd299e03d12fa4293bc",
        "to": "0x5fbdb2315678afecb367f032d93f642f64180aa3",
        "gas": "0x69bba",
        "value": "0x0",
        "input": "0x0a7a0b69000000000000000000000000000000000000000000000000000000000000000100000000000000000000000000000000000000000000000000000000000000a0000000000000000000000000000000000000000000000000000000000000000200000000000000000000000000000000000000000000000000000000000000e00000000000000000000000000000000000000000000000000000000000000028000000000000000000000000000000000000000000000000000000000000001e48756220426f676f746120466f6e7469626f6e202d204d75656c6c65203300000000000000000000000000000000000000000000000000000000000000000055506c6163613a2054524b2d383437207c20436f6e647563746f723a20522e20476f6d657a207c2053616c6964613a2031343a3230207c2050726563696e746f3a2053502d34343231207c204554413a2031383a33300000000000000000000000",
        "nonce": "0x1",
        "chainId": "0x7a69"
      },
      "additionalContracts": [],
      "isFixedGasLimit": false
    },
    {
      "hash": "0x94c85e3f1925494e65015823044f69623e1edbd4e6b93eb4954a21ae2e8d357a",
      "transactionType": "CALL",
      "contractName": null,
      "contractAddress": "0x5fbdb2315678afecb367f032d93f642f64180aa3",
      "function": "recordCheckpoint(uint256,string,uint8,string,int256)",
      "arguments": [
        "1",
        "Autopista Bogota-Medellin, km 142 - Peaje La Ye",
        "2",
        "Hora: 16:45 | Precinto SP-4421: integro | Sin novedades | Temp exterior: 28C",
        "52"
      ],
      "transaction": {
        "from": "0x3c44cdddb6a900fa2b585dd299e03d12fa4293bc",
        "to": "0x5fbdb2315678afecb367f032d93f642f64180aa3",
        "gas": "0x7fe22",
        "value": "0x0",
        "input": "0x0a7a0b69000000000000000000000000000000000000000000000000000000000000000100000000000000000000000000000000000000000000000000000000000000a0000000000000000000000000000000000000000000000000000000000000000200000000000000000000000000000000000000000000000000000000000001000000000000000000000000000000000000000000000000000000000000000034000000000000000000000000000000000000000000000000000000000000002f4175746f706973746120426f676f74612d4d6564656c6c696e2c206b6d20313432202d205065616a65204c612059650000000000000000000000000000000000000000000000000000000000000000000000000000000000000000000000004c486f72613a2031363a3435207c2050726563696e746f2053502d343432313a20696e746567726f207c2053696e206e6f76656461646573207c2054656d70206578746572696f723a203238430000000000000000000000000000000000000000",
        "nonce": "0x2",
        "chainId": "0x7a69"
      },
      "additionalContracts": [],
      "isFixedGasLimit": false
    },
    {
      "hash": "0x11ca4bcd26cb9a08b96e3d46c288ea1d5003d7e5b4667d7953a565aaec88d500",
      "transactionType": "CALL",
      "contractName": null,
      "contractAddress": "0x5fbdb2315678afecb367f032d93f642f64180aa3",
      "function": "updateShipmentStatus(uint256,uint8)",
      "arguments": [
        "1",
        "2"
      ],
      "transaction": {
        "from": "0x14dc79964da2c08b23698b3d3cc7ca32193d9955",
        "to": "0x5fbdb2315678afecb367f032d93f642f64180aa3",
        "gas": "0x226e6",
        "value": "0x0",
        "input": "0x7defa92000000000000000000000000000000000000000000000000000000000000000010000000000000000000000000000000000000000000000000000000000000002",
        "nonce": "0x0",
        "chainId": "0x7a69"
      },
      "additionalContracts": [],
      "isFixedGasLimit": false
    },
    {
      "hash": "0x02dfe22aa463a04b971a997535feef3c2fc0ab735c481cf5621c7ab4184b9f7a",
      "transactionType": "CALL",
      "contractName": null,
      "contractAddress": "0x5fbdb2315678afecb367f032d93f642f64180aa3",
      "function": "recordCheckpoint(uint256,string,uint8,string,int256)",
      "arguments": [
        "1",
        "Hub Medellin Itagui - Recepcion",
        "1",
        "Llegada: 18:15 | Precinto SP-4421: integro | 500/500 dosis | Almacen R2: 3.8C | Resp: A. Rios",
        "55"
      ],
      "transaction": {
        "from": "0x14dc79964da2c08b23698b3d3cc7ca32193d9955",
        "to": "0x5fbdb2315678afecb367f032d93f642f64180aa3",
        "gas": "0x69c4f",
        "value": "0x0",
        "input": "0x0a7a0b69000000000000000000000000000000000000000000000000000000000000000100000000000000000000000000000000000000000000000000000000000000a0000000000000000000000000000000000000000000000000000000000000000100000000000000000000000000000000000000000000000000000000000000e00000000000000000000000000000000000000000000000000000000000000037000000000000000000000000000000000000000000000000000000000000001f487562204d6564656c6c696e20497461677569202d20526563657063696f6e00000000000000000000000000000000000000000000000000000000000000005d4c6c65676164613a2031383a3135207c2050726563696e746f2053502d343432313a20696e746567726f207c203530302f35303020646f736973207c20416c6d6163656e2052323a20332e3843207c20526573703a20412e2052696f73000000",
        "nonce": "0x1",
        "chainId": "0x7a69"
      },
      "additionalContracts": [],
      "isFixedGasLimit": false
    },
    {
      "hash": "0x12f31b8a3ad9ca20c5a56d00b3f4afe032d0f26fb8c9455973f0e27d04a5b577",
      "transactionType": "CALL",
      "contractName": null,
      "contractAddress": "0x5fbdb2315678afecb367f032d93f642f64180aa3",
      "function": "recordCheckpoint(uint256,string,uint8,string,int256)",
      "arguments": [
        "1",
        "Hub Medellin Itagui - Bahia 7",
        "2",
        "Veh: VAN-291 | Repartidor: L. Perez | Salida: 08:10 | Precinto: SP-5530 | ETA: 09:00 | 500 dosis",
        "50"
      ],
      "transaction": {
        "from": "0x3c44cdddb6a900fa2b585dd299e03d12fa4293bc",
        "to": "0x5fbdb2315678afecb367f032d93f642f64180aa3",
        "gas": "0x69c94",
        "value": "0x0",
        "input": "0x0a7a0b69000000000000000000000000000000000000000000000000000000000000000100000000000000000000000000000000000000000000000000000000000000a0000000000000000000000000000000000000000000000000000000000000000200000000000000000000000000000000000000000000000000000000000000e00000000000000000000000000000000000000000000000000000000000000032000000000000000000000000000000000000000000000000000000000000001d487562204d6564656c6c696e20497461677569202d204261686961203700000000000000000000000000000000000000000000000000000000000000000000605665683a2056414e2d323931207c2052657061727469646f723a204c2e20506572657a207c2053616c6964613a2030383a3130207c2050726563696e746f3a2053502d35353330207c204554413a2030393a3030207c2035303020646f736973",
        "nonce": "0x3",
        "chainId": "0x7a69"
      },
      "additionalContracts": [],
      "isFixedGasLimit": false
    },
    {
      "hash": "0x798fc1818a3160a6a5b21c32a5d71a3a35c2fff97eb5a518e2d8581b8a3971ff",
      "transactionType": "CALL",
      "contractName": null,
      "contractAddress": "0x5fbdb2315678afecb367f032d93f642f64180aa3",
      "function": "updateShipmentStatus(uint256,uint8)",
      "arguments": [
        "1",
        "3"
      ],
      "transaction": {
        "from": "0x3c44cdddb6a900fa2b585dd299e03d12fa4293bc",
        "to": "0x5fbdb2315678afecb367f032d93f642f64180aa3",
        "gas": "0xd5e5",
        "value": "0x0",
        "input": "0x7defa92000000000000000000000000000000000000000000000000000000000000000010000000000000000000000000000000000000000000000000000000000000003",
        "nonce": "0x4",
        "chainId": "0x7a69"
      },
      "additionalContracts": [],
      "isFixedGasLimit": false
    },
    {
      "hash": "0x865f063dc8f357d0eb0bccbb44fb2b69b10609fa15450c30b8acbcc4630c4113",
      "transactionType": "CALL",
      "contractName": null,
      "contractAddress": "0x5fbdb2315678afecb367f032d93f642f64180aa3",
      "function": "recordCheckpoint(uint256,string,uint8,string,int256)",
      "arguments": [
        "1",
        "Clinica San Rafael - Farmacia, Cr 45 #12-30, Medellin",
        "3",
        "Recibe: Dra. M. Castro | 500 dosis OK | Precinto SP-5530: integro | Acta: REC-2024-441",
        "42"
      ],
      "transaction": {
        "from": "0x3c44cdddb6a900fa2b585dd299e03d12fa4293bc",
        "to": "0x5fbdb2315678afecb367f032d93f642f64180aa3",
        "gas": "0x7ff3b",
        "value": "0x0",
        "input": "0x0a7a0b69000000000000000000000000000000000000000000000000000000000000000100000000000000000000000000000000000000000000000000000000000000a000000000000000000000000000000000000000000000000000000000000000030000000000000000000000000000000000000000000000000000000000000100000000000000000000000000000000000000000000000000000000000000002a0000000000000000000000000000000000000000000000000000000000000035436c696e6963612053616e2052616661656c202d204661726d616369612c204372203435202331322d33302c204d6564656c6c696e000000000000000000000000000000000000000000000000000000000000000000000000000000000000565265636962653a204472612e204d2e2043617374726f207c2035303020646f736973204f4b207c2050726563696e746f2053502d353533303a20696e746567726f207c20416374613a205245432d323032342d34343100000000000000000000",
        "nonce": "0x5",
        "chainId": "0x7a69"
      },
      "additionalContracts": [],
      "isFixedGasLimit": false
    }
  ],
  "receipts": [
    {
      "status": "0x1",
      "cumulativeGasUsed": "0x56c75",
      "logs": [
        {
          "address": "0x5fbdb2315678afecb367f032d93f642f64180aa3",
          "topics": [
            "0x529e5c9e24a307575814835cf69244181f51bc2ae08b95b8c8459d652a7ee9cf",
            "0x0000000000000000000000000000000000000000000000000000000000000001",
            "0x0000000000000000000000000000000000000000000000000000000000000001"
          ],
          "data": "0x000000000000000000000000000000000000000000000000000000000000000000000000000000000000000070997970c51812dc3a010c7d01b50e0d17dc79c8",
          "blockHash": "0x5404ef1759627d111a8ed7a0b9c056da4b8faea585c1f7bc8bdfa5a23b27faf2",
          "blockNumber": "0x9",
          "blockTimestamp": "0x69d6d679",
          "transactionHash": "0x20ed18caa441bd4f28fe2dc6e8aaf7a66c5f146c93609f65d1b93030625062e1",
          "transactionIndex": "0x0",
          "logIndex": "0x0",
          "removed": false
        }
      ],
      "logsBloom": "0x00000000000000000000000100000000000100000000000000000000000000000000000000000000000000000000000000000000000000000000000000040000000000000000000000000000000000000000200000040000000000000000000000000040000000000000000000000000000000000000000000000000000000000000000000000000000000000000000000000000000000000000000200000000000000000000000000000000000000000000000000000000000000000000000000000040000000000000000000000000000000000000000000000000000040000000000000000000000000000000000000000000000000000000000000000000",
      "type": "0x2",
      "transactionHash": "0x20ed18caa441bd4f28fe2dc6e8aaf7a66c5f146c93609f65d1b93030625062e1",
      "transactionIndex": "0x0",
      "blockHash": "0x5404ef1759627d111a8ed7a0b9c056da4b8faea585c1f7bc8bdfa5a23b27faf2",
      "blockNumber": "0x9",
      "gasUsed": "0x56c75",
      "effectiveGasPrice": "0x15de6bc0",
      "blobGasPrice": "0x1",
      "from": "0x70997970c51812dc3a010c7d01b50e0d17dc79c8",
      "to": "0x5fbdb2315678afecb367f032d93f642f64180aa3",
      "contractAddress": null
    },
    {
      "status": "0x1",
      "cumulativeGasUsed": "0x1d1a4",
      "logs": [
        {
          "address": "0x5fbdb2315678afecb367f032d93f642f64180aa3",
          "topics": [
            "0x7c1c93f72f29b8a1fc6fc85eed990d133b1ffac80c962b521abb12f38f2ff9af",
            "0x0000000000000000000000000000000000000000000000000000000000000001"
          ],
          "data": "0x0000000000000000000000000000000000000000000000000000000000000001",
          "blockHash": "0x310bd3248a12a23d049211dbc45ffc08cdc9555d189aa7f691f410bae1605ace",
          "blockNumber": "0xa",
          "blockTimestamp": "0x69d6d679",
          "transactionHash": "0x0a66e1dde7748922fc4643ae47cdb0264bdcaf0cfade96bf3a5a0612541172d7",
          "transactionIndex": "0x0",
          "logIndex": "0x0",
          "removed": false
        }
      ],
      "logsBloom": "0x00000000000000000000000000000080000000000000000000000000000000000000000000000000000000000000000000000000000000000000000000040000000000000000000000000000000000000000000000040000000000000000000000000040000000000000000000000000000000000000000000000000000000000000000000000000000000000000000000000000000000000000000200000000000000000000000000000000000000000000000000000000000000000000000000000040000000000000000800000000000000000000000000000000000040000000000000000000000000000000000000000000000008000000000000000000",
      "type": "0x2",
      "transactionHash": "0x0a66e1dde7748922fc4643ae47cdb0264bdcaf0cfade96bf3a5a0612541172d7",
      "transactionIndex": "0x0",
      "blockHash": "0x310bd3248a12a23d049211dbc45ffc08cdc9555d189aa7f691f410bae1605ace",
      "blockNumber": "0xa",
      "gasUsed": "0x1d1a4",
      "effectiveGasPrice": "0x13333378",
      "blobGasPrice": "0x1",
      "from": "0x90f79bf6eb2c4f870365e785982e1f101e93b906",
      "to": "0x5fbdb2315678afecb367f032d93f642f64180aa3",
      "contractAddress": null
    },
    {
      "status": "0x1",
      "cumulativeGasUsed": "0x4c880",
      "logs": [
        {
          "address": "0x5fbdb2315678afecb367f032d93f642f64180aa3",
          "topics": [
            "0x529e5c9e24a307575814835cf69244181f51bc2ae08b95b8c8459d652a7ee9cf",
            "0x0000000000000000000000000000000000000000000000000000000000000002",
            "0x0000000000000000000000000000000000000000000000000000000000000001"
          ],
          "data": "0x000000000000000000000000000000000000000000000000000000000000000100000000000000000000000090f79bf6eb2c4f870365e785982e1f101e93b906",
          "blockHash": "0x34ac63e1d1876c2b66b486450537360a910c35e99042a601bdcd28f69b8d61b4",
          "blockNumber": "0xb",
          "blockTimestamp": "0x69d6d679",
          "transactionHash": "0xa1d0c85fa0a76aa048673b62b559a7944b89c6d267d95a01d397bde25b3bdcb4",
          "transactionIndex": "0x0",
          "logIndex": "0x0",
          "removed": false
        }
      ],
      "logsBloom": "0x04000000000000000000000100000000000100000000000000000000000000000000000000000000000000000000000000000000000000000000000000040000000000000000000000000000000000000000200000040000000000000000000000000040000000000000000000000000000000000000000000000000000000000000000000000000000000000000000000000000000000000000000200000000000000000000000000000100000000000000000000000000000000000000000000000040000000000000000000000000000000000000000000000000000040000000000000000000000000000000000000000000008000000000000000000000",
      "type": "0x2",
      "transactionHash": "0xa1d0c85fa0a76aa048673b62b559a7944b89c6d267d95a01d397bde25b3bdcb4",
      "transactionIndex": "0x0",
      "blockHash": "0x34ac63e1d1876c2b66b486450537360a910c35e99042a601bdcd28f69b8d61b4",
      "blockNumber": "0xb",
      "gasUsed": "0x4c880",
      "effectiveGasPrice": "0x10d1aefb",
      "blobGasPrice": "0x1",
      "from": "0x90f79bf6eb2c4f870365e785982e1f101e93b906",
      "to": "0x5fbdb2315678afecb367f032d93f642f64180aa3",
      "contractAddress": null
    },
    {
      "status": "0x1",
      "cumulativeGasUsed": "0x183c0",
      "logs": [
        {
          "address": "0x5fbdb2315678afecb367f032d93f642f64180aa3",
          "topics": [
            "0x7c1c93f72f29b8a1fc6fc85eed990d133b1ffac80c962b521abb12f38f2ff9af",
            "0x0000000000000000000000000000000000000000000000000000000000000001"
          ],
          "data": "0x0000000000000000000000000000000000000000000000000000000000000001",
          "blockHash": "0xbae307093669e173df040d67aa5f4c10c888ec0ad426b699f15f3ce01c42e724",
          "blockNumber": "0xc",
          "blockTimestamp": "0x69d6d679",
          "transactionHash": "0x934985d991aa5c03a5e7cebc3b85da25a96a5784d57ab14dbe9b551018ca1d48",
          "transactionIndex": "0x0",
          "logIndex": "0x0",
          "removed": false
        }
      ],
      "logsBloom": "0x00000000000000000000000000000080000000000000000000000000000000000000000000000000000000000000000000000000000000000000000000040000000000000000000000000000000000000000000000040000000000000000000000000040000000000000000000000000000000000000000000000000000000000000000000000000000000000000000000000000000000000000000200000000000000000000000000000000000000000000000000000000000000000000000000000040000000000000000800000000000000000000000000000000000040000000000000000000000000000000000000000000000008000000000000000000",
      "type": "0x2",
      "transactionHash": "0x934985d991aa5c03a5e7cebc3b85da25a96a5784d57ab14dbe9b551018ca1d48",
      "transactionIndex": "0x0",
      "blockHash": "0xbae307093669e173df040d67aa5f4c10c888ec0ad426b699f15f3ce01c42e724",
      "blockNumber": "0xc",
      "gasUsed": "0x183c0",
      "effectiveGasPrice": "0xec2b87f",
      "blobGasPrice": "0x1",
      "from": "0x3c44cdddb6a900fa2b585dd299e03d12fa4293bc",
      "to": "0x5fbdb2315678afecb367f032d93f642f64180aa3",
      "contractAddress": null
    },
    {
      "status": "0x1",
      "cumulativeGasUsed": "0x4c8c8",
      "logs": [
        {
          "address": "0x5fbdb2315678afecb367f032d93f642f64180aa3",
          "topics": [
            "0x529e5c9e24a307575814835cf69244181f51bc2ae08b95b8c8459d652a7ee9cf",
            "0x0000000000000000000000000000000000000000000000000000000000000003",
            "0x0000000000000000000000000000000000000000000000000000000000000001"
          ],
          "data": "0x00000000000000000000000000000000000000000000000000000000000000020000000000000000000000003c44cdddb6a900fa2b585dd299e03d12fa4293bc",
          "blockHash": "0x319b1b5c9df0b1f860583affb62817ec229f5383f872cd82a96bde6ccb284a91",
          "blockNumber": "0xd",
          "blockTimestamp": "0x69d6d679",
          "transactionHash": "0x590fddb9271742ce7b0f90485b04f499fc7647ae3273782d59a2b8ce2808492d",
          "transactionIndex": "0x0",
          "logIndex": "0x0",
          "removed": false
        }
      ],
      "logsBloom": "0x00000000000000000000000100000000000100000000000000000000000000000000000000000000000000000000000000000000020000000000000000040000000000000000000000000000000000000000200000040000000000000000000000000040000000000000000000000000000000000000000000000000000000000000000000000000000000000000000000000000000000000000000200000000000000000000000000000000000000000000000000800000000000000000400000000040000000000000000000000000000000000000000000000000000040000000000000000000000000000000000000000000000000000000000000000000",
      "type": "0x2",
      "transactionHash": "0x590fddb9271742ce7b0f90485b04f499fc7647ae3273782d59a2b8ce2808492d",
      "transactionIndex": "0x0",
      "blockHash": "0x319b1b5c9df0b1f860583affb62817ec229f5383f872cd82a96bde6ccb284a91",
      "blockNumber": "0xd",
      "gasUsed": "0x4c8c8",
      "effectiveGasPrice": "0xced81a1",
      "blobGasPrice": "0x1",
      "from": "0x3c44cdddb6a900fa2b585dd299e03d12fa4293bc",
      "to": "0x5fbdb2315678afecb367f032d93f642f64180aa3",
      "contractAddress": null
    },
    {
      "status": "0x1",
      "cumulativeGasUsed": "0x57711",
      "logs": [
        {
          "address": "0x5fbdb2315678afecb367f032d93f642f64180aa3",
          "topics": [
            "0x529e5c9e24a307575814835cf69244181f51bc2ae08b95b8c8459d652a7ee9cf",
            "0x0000000000000000000000000000000000000000000000000000000000000004",
            "0x0000000000000000000000000000000000000000000000000000000000000001"
          ],
          "data": "0x00000000000000000000000000000000000000000000000000000000000000020000000000000000000000003c44cdddb6a900fa2b585dd299e03d12fa4293bc",
          "blockHash": "0x22d18155ab64ee1cebceaf49e4e46deb40f633463481a35d344fd4fd3ab9bf9e",
          "blockNumber": "0xe",
          "blockTimestamp": "0x69d6d679",
          "transactionHash": "0x94c85e3f1925494e65015823044f69623e1edbd4e6b93eb4954a21ae2e8d357a",
          "transactionIndex": "0x0",
          "logIndex": "0x0",
          "removed": false
        }
      ],
      "logsBloom": "0x00000000000000000000000100000000000100000000000000000000000000000000000000000000000000000000000000000000000000000000000000040000000000000000000000000000000000000000200000040000000000000000000008000040000000000000000000000000000000000000000000000000000000000000000000000000000000000000000000000000000000000000000200000000000000000000000000000000000000000000000000000000002000000000000000000040000000000000000000000000000000008000000000000000000040000000000000000000000000000000000000000000000000000000000000000000",
      "type": "0x2",
      "transactionHash": "0x94c85e3f1925494e65015823044f69623e1edbd4e6b93eb4954a21ae2e8d357a",
      "transactionIndex": "0x0",
      "blockHash": "0x22d18155ab64ee1cebceaf49e4e46deb40f633463481a35d344fd4fd3ab9bf9e",
      "blockNumber": "0xe",
      "gasUsed": "0x57711",
      "effectiveGasPrice": "0xb587723",
      "blobGasPrice": "0x1",
      "from": "0x3c44cdddb6a900fa2b585dd299e03d12fa4293bc",
      "to": "0x5fbdb2315678afecb367f032d93f642f64180aa3",
      "contractAddress": null
    },
    {
      "status": "0x1",
      "cumulativeGasUsed": "0x18ed8",
      "logs": [
        {
          "address": "0x5fbdb2315678afecb367f032d93f642f64180aa3",
          "topics": [
            "0x7c1c93f72f29b8a1fc6fc85eed990d133b1ffac80c962b521abb12f38f2ff9af",
            "0x0000000000000000000000000000000000000000000000000000000000000001"
          ],
          "data": "0x0000000000000000000000000000000000000000000000000000000000000002",
          "blockHash": "0x3892a9db1b0f9350b262d29d421e21fc60a4f1d4e50bc4dd1befcfb7d9877612",
          "blockNumber": "0xf",
          "blockTimestamp": "0x69d6d679",
          "transactionHash": "0x11ca4bcd26cb9a08b96e3d46c288ea1d5003d7e5b4667d7953a565aaec88d500",
          "transactionIndex": "0x0",
          "logIndex": "0x0",
          "removed": false
        }
      ],
      "logsBloom": "0x00000000000000000000000000000080000000000000000000000000000000000000000000000000000000000000000000000000000000000000000000040000000000000000000000000000000000000000000000040000000000000000000000000040000000000000000000000000000000000000000000000000000000000000000000000000000000000000000000000000000000000000000200000000000000000000000000000000000000000000000000000000000000000000000000000040000000000000000800000000000000000000000000000000000040000000000000000000000000000000000000000000000008000000000000000000",
      "type": "0x2",
      "transactionHash": "0x11ca4bcd26cb9a08b96e3d46c288ea1d5003d7e5b4667d7953a565aaec88d500",
      "transactionIndex": "0x0",
      "blockHash": "0x3892a9db1b0f9350b262d29d421e21fc60a4f1d4e50bc4dd1befcfb7d9877612",
      "blockNumber": "0xf",
      "gasUsed": "0x18ed8",
      "effectiveGasPrice": "0x9f6137b",
      "blobGasPrice": "0x1",
      "from": "0x14dc79964da2c08b23698b3d3cc7ca32193d9955",
      "to": "0x5fbdb2315678afecb367f032d93f642f64180aa3",
      "contractAddress": null
    },
    {
      "status": "0x1",
      "cumulativeGasUsed": "0x4c934",
      "logs": [
        {
          "address": "0x5fbdb2315678afecb367f032d93f642f64180aa3",
          "topics": [
            "0x529e5c9e24a307575814835cf69244181f51bc2ae08b95b8c8459d652a7ee9cf",
            "0x0000000000000000000000000000000000000000000000000000000000000005",
            "0x0000000000000000000000000000000000000000000000000000000000000001"
          ],
          "data": "0x000000000000000000000000000000000000000000000000000000000000000100000000000000000000000014dc79964da2c08b23698b3d3cc7ca32193d9955",
          "blockHash": "0x2f2a338e36f786ead8c1a7ab64ad161b86ae5e599a63e923cbd26b6d4a569101",
          "blockNumber": "0x10",
          "blockTimestamp": "0x69d6d679",
          "transactionHash": "0x02dfe22aa463a04b971a997535feef3c2fc0ab735c481cf5621c7ab4184b9f7a",
          "transactionIndex": "0x0",
          "logIndex": "0x0",
          "removed": false
        }
      ],
      "logsBloom": "0x00000000000000000000000100000000000100000000000000000000000000000000000000000000000000000000000000000000000000000000000000040000000010000000000000000000000000000000200000040000000000000000000000000040000000000000000000000000000000000000000000000000000000000000000000000000000000000000001000000800000000000000000200000000000000000000000000000000000000000000000000000000000000000000000000000040000000000000000000000000000000000000000000000000000040000000000000000000000000000000000000000000000000000000000000000000",
      "type": "0x2",
      "transactionHash": "0x02dfe22aa463a04b971a997535feef3c2fc0ab735c481cf5621c7ab4184b9f7a",
      "transactionIndex": "0x0",
      "blockHash": "0x2f2a338e36f786ead8c1a7ab64ad161b86ae5e599a63e923cbd26b6d4a569101",
      "blockNumber": "0x10",
      "gasUsed": "0x4c934",
      "effectiveGasPrice": "0x8b97c83",
      "blobGasPrice": "0x1",
      "from": "0x14dc79964da2c08b23698b3d3cc7ca32193d9955",
      "to": "0x5fbdb2315678afecb367f032d93f642f64180aa3",
      "contractAddress": null
    },
    {
      "status": "0x1",
      "cumulativeGasUsed": "0x4c966",
      "logs": [
        {
          "address": "0x5fbdb2315678afecb367f032d93f642f64180aa3",
          "topics": [
            "0x529e5c9e24a307575814835cf69244181f51bc2ae08b95b8c8459d652a7ee9cf",
            "0x0000000000000000000000000000000000000000000000000000000000000006",
            "0x0000000000000000000000000000000000000000000000000000000000000001"
          ],
          "data": "0x00000000000000000000000000000000000000000000000000000000000000020000000000000000000000003c44cdddb6a900fa2b585dd299e03d12fa4293bc",
          "blockHash": "0x44b2663dc6f87bac88148c5c24caa28de4b31efd5213fe98a05258aea76abe16",
          "blockNumber": "0x11",
          "blockTimestamp": "0x69d6d679",
          "transactionHash": "0x12f31b8a3ad9ca20c5a56d00b3f4afe032d0f26fb8c9455973f0e27d04a5b577",
          "transactionIndex": "0x0",
          "logIndex": "0x0",
          "removed": false
        }
      ],
      "logsBloom": "0x00000000000000000000000100000000000100000000000000000000000000000000000000000000000000000000000000000000000400000000000000040000000000000000000000000000000000000000200000040000000000000000000000000040000000000000000000000000000000000000000000000000000000000000000400000000000000000000000000000000000000000000000200000000000000000000000000000000000000000000000000000000000000080000000000000040000000000000000000000000000000000000000000000000000040000000000000000000000000000000000000000000000000000000000000000000",
      "type": "0x2",
      "transactionHash": "0x12f31b8a3ad9ca20c5a56d00b3f4afe032d0f26fb8c9455973f0e27d04a5b577",
      "transactionIndex": "0x0",
      "blockHash": "0x44b2663dc6f87bac88148c5c24caa28de4b31efd5213fe98a05258aea76abe16",
      "blockNumber": "0x11",
      "gasUsed": "0x4c966",
      "effectiveGasPrice": "0x7a8236e",
      "blobGasPrice": "0x1",
      "from": "0x3c44cdddb6a900fa2b585dd299e03d12fa4293bc",
      "to": "0x5fbdb2315678afecb367f032d93f642f64180aa3",
      "contractAddress": null
    },
    {
      "status": "0x1",
      "cumulativeGasUsed": "0x9241",
      "logs": [
        {
          "address": "0x5fbdb2315678afecb367f032d93f642f64180aa3",
          "topics": [
            "0x7c1c93f72f29b8a1fc6fc85eed990d133b1ffac80c962b521abb12f38f2ff9af",
            "0x0000000000000000000000000000000000000000000000000000000000000001"
          ],
          "data": "0x0000000000000000000000000000000000000000000000000000000000000003",
          "blockHash": "0x2e51d30801be26ea7636700db18eb41ef6fb727730ea355131f886b075dd0ab4",
          "blockNumber": "0x12",
          "blockTimestamp": "0x69d6d679",
          "transactionHash": "0x798fc1818a3160a6a5b21c32a5d71a3a35c2fff97eb5a518e2d8581b8a3971ff",
          "transactionIndex": "0x0",
          "logIndex": "0x0",
          "removed": false
        }
      ],
      "logsBloom": "0x00000000000000000000000000000080000000000000000000000000000000000000000000000000000000000000000000000000000000000000000000040000000000000000000000000000000000000000000000040000000000000000000000000040000000000000000000000000000000000000000000000000000000000000000000000000000000000000000000000000000000000000000200000000000000000000000000000000000000000000000000000000000000000000000000000040000000000000000800000000000000000000000000000000000040000000000000000000000000000000000000000000000008000000000000000000",
      "type": "0x2",
      "transactionHash": "0x798fc1818a3160a6a5b21c32a5d71a3a35c2fff97eb5a518e2d8581b8a3971ff",
      "transactionIndex": "0x0",
      "blockHash": "0x2e51d30801be26ea7636700db18eb41ef6fb727730ea355131f886b075dd0ab4",
      "blockNumber": "0x12",
      "gasUsed": "0x9241",
      "effectiveGasPrice": "0x6b83eca",
      "blobGasPrice": "0x1",
      "from": "0x3c44cdddb6a900fa2b585dd299e03d12fa4293bc",
      "to": "0x5fbdb2315678afecb367f032d93f642f64180aa3",
      "contractAddress": null
    },
    {
      "status": "0x1",
      "cumulativeGasUsed": "0x577d1",
      "logs": [
        {
          "address": "0x5fbdb2315678afecb367f032d93f642f64180aa3",
          "topics": [
            "0x529e5c9e24a307575814835cf69244181f51bc2ae08b95b8c8459d652a7ee9cf",
            "0x0000000000000000000000000000000000000000000000000000000000000007",
            "0x0000000000000000000000000000000000000000000000000000000000000001"
          ],
          "data": "0x00000000000000000000000000000000000000000000000000000000000000030000000000000000000000003c44cdddb6a900fa2b585dd299e03d12fa4293bc",
          "blockHash": "0x901615c6d5a67981631e12ca50c1ac9e072a343c4351376ee6de1e5103b5cd5e",
          "blockNumber": "0x13",
          "blockTimestamp": "0x69d6d679",
          "transactionHash": "0x865f063dc8f357d0eb0bccbb44fb2b69b10609fa15450c30b8acbcc4630c4113",
          "transactionIndex": "0x0",
          "logIndex": "0x0",
          "removed": false
        }
      ],
      "logsBloom": "0x00000000000000000000000100000000000100000000000000000000000000000000000000000000000000000000000000001000000000000000000000040000000020000000000000000000000000000000200000040000000000000000000000000040000000000000000000000000000000000000000000000000000000000000000000000000000000000000000000000000000000000000000200000000000000000000000000000000000000000000000000000000000000000000000000000040000000000000000000000000000000000000000000000100000040000000000000000000000000000000000000000000000000000000000000000000",
      "type": "0x2",
      "transactionHash": "0x865f063dc8f357d0eb0bccbb44fb2b69b10609fa15450c30b8acbcc4630c4113",
      "transactionIndex": "0x0",
      "blockHash": "0x901615c6d5a67981631e12ca50c1ac9e072a343c4351376ee6de1e5103b5cd5e",
      "blockNumber": "0x13",
      "gasUsed": "0x577d1",
      "effectiveGasPrice": "0x5e1c059",
      "blobGasPrice": "0x1",
      "from": "0x3c44cdddb6a900fa2b585dd299e03d12fa4293bc",
      "to": "0x5fbdb2315678afecb367f032d93f642f64180aa3",
      "contractAddress": null
    }
  ],
  "libraries": [],
  "pending": [],
  "returns": {},
  "timestamp": 1775687289373,
  "chain": 31337,
  "commit": "b2a9a0b1"
}