{
  "transactions": [
    {
      "hash": "0x668364b220a2d4a15089bce17267a2c513f01ee20ddf1cce2336f6b301ccb5ad",
      "transactionType": "CALL",
      "contractName": null,
      "contractAddress": "0x5fbdb2315678afecb367f032d93f642f64180aa3",
      "function": "createShipment(address,string,string,string,bool)",
      "arguments": [
        "0x15d34AAf54267DB7D7c367839AAf71A00a2C6A65",
        "Insulina Refrigerada - Lote INS-2024-077 - 200 unidades",
        "Bogota",
        "Medellin",
        "true"
      ],
      "transaction": {
        "from": "0x70997970c51812dc3a010c7d01b50e0d17dc79c8",
        "to": "0x5fbdb2315678afecb367f032d93f642f64180aa3",
        "gas": "0x8182f",
        "value": "0x0",
        "input": "0x475b6f9800000000000000000000000015d34aaf54267db7d7c367839aaf71a00a2c6a6500000000000000000000000000000000000000000000000000000000000000a00000000000000000000000000000000000000000000000000000000000000100000000000000000000000000000000000000000000000000000000000000014000000000000000000000000000000000000000000000000000000000000000010000000000000000000000000000000000000000000000000000000000000037496e73756c696e61205265667269676572616461202d204c6f746520494e532d323032342d303737202d2032303020756e6964616465730000000000000000000000000000000000000000000000000000000000000000000000000000000006426f676f7461000000000000000000000000000000000000000000000000000000000000000000000000000000000000000000000000000000000000000000084d6564656c6c696e000000000000000000000000000000000000000000000000",
        "nonce": "0x6",
        "chainId": "0x7a69"
      },
      "additionalContracts": [],
      "isFixedGasLimit": false
    },
    {
      "hash": "0xd4b81b2a06d41efc3a0accc9f7e032355d32bbaf172260bcc60b2f31ac671157",
      "transactionType": "CALL",
      "contractName": null,
      "contractAddress": "0x5fbdb2315678afecb367f032d93f642f64180aa3",
      "function": "recordCheckpoint(uint256,string,uint8,string,int256)",
      "arguments": [
        "3",
        "Laboratorio BioPharma - Bogota, Zona Industrial",
        "0",
        "Lote INS-2024-077 | 200 unidades | Temp camara origen: 4.2C | Embalaje termico OK | Resp: J. Martinez",
        "45"
      ],
      "transaction": {
        "from": "0x70997970c51812dc3a010c7d01b50e0d17dc79c8",
        "to": "0x5fbdb2315678afecb367f032d93f642f64180aa3",
        "gas": "0x7f754",
        "value": "0x0",
        "input": "0x0a7a0b69000000000000000000000000000000000000000000000000000000000000000300000000000000000000000000000000000000000000000000000000000000a000000000000000000000000000000000000000000000000000000000000000000000000000000000000000000000000000000000000000000000000000000100000000000000000000000000000000000000000000000000000000000000002d000000000000000000000000000000000000000000000000000000000000002f4c61626f7261746f72696f2042696f506861726d61202d20426f676f74612c205a6f6e6120496e647573747269616c000000000000000000000000000000000000000000000000000000000000000000000000000000000000000000000000654c6f746520494e532d323032342d303737207c2032303020756e696461646573207c2054656d702063616d617261206f726967656e3a20342e3243207c20456d62616c616a65207465726d69636f204f4b207c20526573703a204a2e204d617274696e657a000000000000000000000000000000000000000000000000000000",
        "nonce": "0x7",
        "chainId": "0x7a69"
      },
      "additionalContracts": [],
      "isFixedGasLimit": false
    },
    {
      "hash": "0x04d2f890c754f98cfb950217a978ca46e8b0ec05af41216472fb2f1f6b28c516",
      "transactionType": "CALL",
      "contractName": null,
      "contractAddress": "0x5fbdb2315678afecb367f032d93f642f64180aa3",
      "function": "updateShipmentStatus(uint256,uint8)",
      "arguments": [
        "3",
        "1"
      ],
      "transaction": {
        "from": "0x90f79bf6eb2c4f870365e785982e1f101e93b906",
        "to": "0x5fbdb2315678afecb367f032d93f642f64180aa3",
        "gas": "0x226e6",
        "value": "0x0",
        "input": "0x7defa92000000000000000000000000000000000000000000000000000000000000000030000000000000000000000000000000000000000000000000000000000000001",
        "nonce": "0x11",
        "chainId": "0x7a69"
      },
      "additionalContracts": [],
      "isFixedGasLimit": false
    },
    {
      "hash": "0x421fd079398e6c873b40bce344f4afc7ad536626aa1caa166a54bdb00e621ba5",
      "transactionType": "CALL",
      "contractName": null,
      "contractAddress": "0x5fbdb2315678afecb367f032d93f642f64180aa3",
      "function": "recordCheckpoint(uint256,string,uint8,string,int256)",
      "arguments": [
        "3",
        "Hub Bogota Fontibon - Zona de Recepcion",
        "1",
        "Llegada: 11:10 | Embalaje termico: OK | Temp bodega fria: 3.5C | 200/200 unidades | Resp: C. Torres",
        "38"
      ],
      "transaction": {
        "from": "0x90f79bf6eb2c4f870365e785982e1f101e93b906",
        "to": "0x5fbdb2315678afecb367f032d93f642f64180aa3",
        "gas": "0x805da",
        "value": "0x0",
        "input": "0x0a7a0b69000000000000000000000000000000000000000000000000000000000000000300000000000000000000000000000000000000000000000000000000000000a0000000000000000000000000000000000000000000000000000000000000000100000000000000000000000000000000000000000000000000000000000001000000000000000000000000000000000000000000000000000000000000000026000000000000000000000000000000000000000000000000000000000000002748756220426f676f746120466f6e7469626f6e202d205a6f6e6120646520526563657063696f6e0000000000000000000000000000000000000000000000000000000000000000000000000000000000000000000000000000000000000000634c6c65676164613a2031313a3130207c20456d62616c616a65207465726d69636f3a204f4b207c2054656d7020626f6465676120667269613a20332e3543207c203230302f32303020756e696461646573207c20526573703a20432e20546f727265730000000000000000000000000000000000000000000000000000000000",
        "nonce": "0x12",
        "chainId": "0x7a69"
      },
      "additionalContracts": [],
      "isFixedGasLimit": false
    },
    {
      "hash": "0x80cb72bcd1d9bee34f9014818ed906e0b386abc0f639225fefe25ef016fac923",
      "transactionType": "CALL",
      "contractName": null,
      "contractAddress": "0x5fbdb2315678afecb367f032d93f642f64180aa3",
      "function": "updateShipmentStatus(uint256,uint8)",
      "arguments": [
        "3",
        "1"
      ],
      "transaction": {
        "from": "0x3c44cdddb6a900fa2b585dd299e03d12fa4293bc",
        "to": "0x5fbdb2315678afecb367f032d93f642f64180aa3",
        "gas": "0x1bb50",
        "value": "0x0",
        "input": "0x7defa92000000000000000000000000000000000000000000000000000000000000000030000000000000000000000000000000000000000000000000000000000000001",
        "nonce": "0xc",
        "chainId": "0x7a69"
      },
      "additionalContracts": [],
      "isFixedGasLimit": false
    },
    {
      "hash": "0x08d58d8ed16b6d10ef5bd59f9c74873999f7961ad6e95718fa983e48971b9de8",
      "transactionType": "CALL",
      "contractName": null,
      "contractAddress": "0x5fbdb2315678afecb367f032d93f642f64180aa3",
      "function": "recordCheckpoint(uint256,string,uint8,string,int256)",
      "arguments": [
        "3",
        "Autopista Bogota-Medellin, km 87 - Estacion de Servicio El Sisga",
        "2",
        "ALERTA: Temperatura elevada | Parada no autorizada 25 min | Puerta abierta detectada | Precinto SP-771: OK | Conductor: R. Gomez",
        "95"
      ],
      "transaction": {
        "from": "0x3c44cdddb6a900fa2b585dd299e03d12fa4293bc",
        "to": "0x5fbdb2315678afecb367f032d93f642f64180aa3",
        "gas": "0xc3439",
        "value": "0x0",
        "input": "0x0a7a0b69000000000000000000000000000000000000000000000000000000000000000300000000000000000000000000000000000000000000000000000000000000a000000000000000000000000000000000000000000000000000000000000000020000000000000000000000000000000000000000000000000000000000000100000000000000000000000000000000000000000000000000000000000000005f00000000000000000000000000000000000000000000000000000000000000404175746f706973746120426f676f74612d4d6564656c6c696e2c206b6d203837202d204573746163696f6e20646520536572766963696f20456c2053697367610000000000000000000000000000000000000000000000000000000000000080414c455254413a2054656d706572617475726120656c6576616461207c20506172616461206e6f206175746f72697a616461203235206d696e207c20507565727461206162696572746120646574656374616461207c2050726563696e746f2053502d3737313a204f4b207c20436f6e647563746f723a20522e20476f6d657a",
        "nonce": "0xd",
        "chainId": "0x7a69"
      },
      "additionalContracts": [],
      "isFixedGasLimit": false
    },
    {
      "hash": "0x02d82b526e8097087e4c8ca08af7ca41315a3f4b7af11cef15fdfd3eda16aa32",
      "transactionType": "CALL",
      "contractName": null,
      "contractAddress": "0x5fbdb2315678afecb367f032d93f642f64180aa3",
      "function": "recordCheckpoint(uint256,string,uint8,string,int256)",
      "arguments": [
        "3",
        "Autopista Bogota-Medellin, km 142 - Peaje La Ye",
        "2",
        "Temperatura recuperada tras incidente | Equipo de frio reactivado | Precinto SP-771: OK | 200 unidades",
        "50"
      ],
      "transaction": {
        "from": "0x3c44cdddb6a900fa2b585dd299e03d12fa4293bc",
        "to": "0x5fbdb2315678afecb367f032d93f642f64180aa3",
        "gas": "0x80690",
        "value": "0x0",
        "input": "0x0a7a0b69000000000000000000000000000000000000000000000000000000000000000300000000000000000000000000000000000000000000000000000000000000a0000000000000000000000000000000000000000000000000000000000000000200000000000000000000000000000000000000000000000000000000000001000000000000000000000000000000000000000000000000000000000000000032000000000000000000000000000000000000000000000000000000000000002f4175746f706973746120426f676f74612d4d6564656c6c696e2c206b6d20313432202d205065616a65204c612059650000000000000000000000000000000000000000000000000000000000000000000000000000000000000000000000006654656d70657261747572612072656375706572616461207472617320696e636964656e7465207c2045717569706f206465206672696f207265616374697661646f207c2050726563696e746f2053502d3737313a204f4b207c2032303020756e6964616465730000000000000000000000000000000000000000000000000000",
        "nonce": "0xe",
        "chainId": "0x7a69"
      },
      "additionalContracts": [],
      "isFixedGasLimit": false
    },
    {
      "hash": "0x5cca3239e9e48dd4531e419d97b053598d180a82b7f8e5fd561af99d6c4ddc18",
      "transactionType": "CALL",
      "contractName": null,
      "contractAddress": "0x5fbdb2315678afecb367f032d93f642f64180aa3",
      "function": "updateShipmentStatus(uint256,uint8)",
      "arguments": [
        "3",
        "2"
      ],
      "transaction": {
        "from": "0x14dc79964da2c08b23698b3d3cc7ca32193d9955",
        "to": "0x5fbdb2315678afecb367f032d93f642f64180aa3",
        "gas": "0x1caa2",
        "value": "0x0",
        "input": "0x7defa92000000000000000000000000000000000000000000000000000000000000000030000000000000000000000000000000000000000000000000000000000000002",
        "nonce": "0x4",
        "chainId": "0x7a69"
      },
      "additionalContracts": [],
      "isFixedGasLimit": false
    },
    {
      "hash": "0x70f48bf03578879d92efb1cb22421607aedeacb05f9b83c5dfae0fc232d6bae0",
      "transactionType": "CALL",
      "contractName": null,
      "contractAddress": "0x5fbdb2315678afecb367f032d93f642f64180aa3",
      "function": "recordCheckpoint(uint256,string,uint8,string,int256)",
      "arguments": [
        "3",
        "Hub Medellin Itagui - Camara Fria C2",
        "1",
        "ALERTA: Temperatura bajo minimo | Falla termostato camara C2 | Producto trasladado a camara C3 | Resp: A. Rios | Mantenimiento notificado",
        "12"
      ],
      "transaction": {
        "from": "0x14dc79964da2c08b23698b3d3cc7ca32193d9955",
        "to": "0x5fbdb2315678afecb367f032d93f642f64180aa3",
        "gas": "0xba13d",
        "value": "0x0",
        "input": "0x0a7a0b69000000000000000000000000000000000000000000000000000000000000000300000000000000000000000000000000000000000000000000000000000000a000000000000000000000000000000000000000000000000000000000000000010000000000000000000000000000000000000000000000000000000000000100000000000000000000000000000000000000000000000000000000000000000c0000000000000000000000000000000000000000000000000000000000000024487562204d6564656c6c696e20497461677569202d2043616d6172612046726961204332000000000000000000000000000000000000000000000000000000000000000000000000000000000000000000000000000000000000000000000089414c455254413a2054656d70657261747572612062616a6f206d696e696d6f207c2046616c6c61207465726d6f737461746f2063616d617261204332207c2050726f647563746f20747261736c616461646f20612063616d617261204333207c20526573703a20412e2052696f73207c204d616e74656e696d69656e746f206e6f746966696361646f0000000000000000000000000000000000000000000000",
        "nonce": "0x5",
        "chainId": "0x7a69"
      },
      "additionalContracts": [],
      "isFixedGasLimit": false
    },
    {
      "hash": "0x0adae6f2eadf3a9d096267d8290dc51216f5e4fc5e7c5c3c1a1b5d9c2c009959",
      "transactionType": "CALL",
      "contractName": null,
      "contractAddress": "0x5fbdb2315678afecb367f032d93f642f64180aa3",
      "function": "recordCheckpoint(uint256,string,uint8,string,int256)",
      "arguments": [
        "3",
        "Hub Medellin Itagui - Bahia 4",
        "2",
        "Temperatura normalizada | Camara C3: 4.0C | Veh: VAN-291 | Precinto nuevo: SP-882 | 200 unidades | ETA: 09:30",
        "42"
      ],
      "transaction": {
        "from": "0x3c44cdddb6a900fa2b585dd299e03d12fa4293bc",
        "to": "0x5fbdb2315678afecb367f032d93f642f64180aa3",
        "gas": "0x78052",
        "value": "0x0",
        "input": "0x0a7a0b69000000000000000000000000000000000000000000000000000000000000000300000000000000000000000000000000000000000000000000000000000000a0000000000000000000000000000000000000000000000000000000000000000200000000000000000000000000000000000000000000000000000000000000e0000000000000000000000000000000000000000000000000000000000000002a000000000000000000000000000000000000000000000000000000000000001d487562204d6564656c6c696e20497461677569202d2042616869612034000000000000000000000000000000000000000000000000000000000000000000006d54656d7065726174757261206e6f726d616c697a616461207c2043616d6172612043333a20342e3043207c205665683a2056414e2d323931207c2050726563696e746f206e7565766f3a2053502d383832207c2032303020756e696461646573207c204554413a2030393a333000000000000000000000000000000000000000",
        "nonce": "0xf",
        "chainId": "0x7a69"
      },
      "additionalContracts": [],
      "isFixedGasLimit": false
    },
    {
      "hash": "0x574aa44e38ec3880b2319de2f29c826efcb75dd349bb20eca7ceb451a607b065",
      "transactionType": "CALL",
      "contractName": null,
      "contractAddress": "0x5fbdb2315678afecb367f032d93f642f64180aa3",
      "function": "updateShipmentStatus(uint256,uint8)",
      "arguments": [
        "3",
        "3"
      ],
      "transaction": {
        "from": "0x3c44cdddb6a900fa2b585dd299e03d12fa4293bc",
        "to": "0x5fbdb2315678afecb367f032d93f642f64180aa3",
        "gas": "0xd5e5",
        "value": "0x0",
        "input": "0x7defa92000000000000000000000000000000000000000000000000000000000000000030000000000000000000000000000000000000000000000000000000000000003",
        "nonce": "0x10",
        "chainId": "0x7a69"
      },
      "additionalContracts": [],
      "isFixedGasLimit": false
    }
  ],
  "receipts": [
    {
      "status": "0x1",
      "cumulativeGasUsed": "0x588e1",
      "logs": [
        {
          "address": "0x5fbdb2315678afecb367f032d93f642f64180aa3",
          "topics": [
            "0x8fb6b855d6cbdf201f2fcaadbf8c38d36168ff7d2ca865cb2599abcd5a060e8f",
            "0x0000000000000000000000000000000000000000000000000000000000000003",
            "0x00000000000000000000000070997970c51812dc3a010c7d01b50e0d17dc79c8",
            "0x00000000000000000000000015d34aaf54267db7d7c367839aaf71a00a2c6a65"
          ],
          "data": "0x00000000000000000000000000000000000000000000000000000000000000200000000000000000000000000000000000000000000000000000000000000037496e73756c696e61205265667269676572616461202d204c6f746520494e532d323032342d303737202d2032303020756e696461646573000000000000000000",
          "blockHash": "0x8b5b4405d8f22f9a974ab20483c9b6ac801dcb18a08b88c96c9c10ea5a2f97f2",
          "blockNumber": "0x3f",
          "blockTimestamp": "0x69d6d278",
          "transactionHash": "0x668364b220a2d4a15089bce17267a2c513f01ee20ddf1cce2336f6b301ccb5ad",
          "transactionIndex": "0x0",
          "logIndex": "0x0",
          "removed": false
        }
      ],
      "logsBloom": "0x00000000040000000002000000000000000000000000000000000000000000000000000000000000000000000000000000000000020000000000000000000000000000000000000000000000000000000000000000000000000000000000000000000840000000000000000000000000000000000000000000000000000000000000000000000000000000000000000000000200000000000000000300000000000000000000000000000000000000000000000000800000000000000000400000000040000000000000000040000000000000000000000000000000000004000000000000000000000000000000000001004000000000000000000000000000",
      "type": "0x2",
      "transactionHash": "0x668364b220a2d4a15089bce17267a2c513f01ee20ddf1cce2336f6b301ccb5ad",
      "transactionIndex": "0x0",
      "blockHash": "0x8b5b4405d8f22f9a974ab20483c9b6ac801dcb18a08b88c96c9c10ea5a2f97f2",
      "blockNumber": "0x3f",
      "gasUsed": "0x588e1",
      "effectiveGasPrice": "0x4da3b",
      "blobGasPrice": "0x1",
      "from": "0x70997970c51812dc3a010c7d01b50e0d17dc79c8",
      "to": "0x5fbdb2315678afecb367f032d93f642f64180aa3",
      "contractAddress": null
    },
    {
      "status": "0x1",
      "cumulativeGasUsed": "0x5c470",
      "logs": [
        {
          "address": "0x5fbdb2315678afecb367f032d93f642f64180aa3",
          "topics": [
            "0x529e5c9e24a307575814835cf69244181f51bc2ae08b95b8c8459d652a7ee9cf",
            "0x000000000000000000000000000000000000000000000000000000000000000e",
            "0x0000000000000000000000000000000000000000000000000000000000000003"
          ],
          "data": "0x000000000000000000000000000000000000000000000000000000000000000000000000000000000000000070997970c51812dc3a010c7d01b50e0d17dc79c8",
          "blockHash": "0x39981f1271b1019825ecb0397bda409fde2a3064f8a1cea8087ee920b1447462",
          "blockNumber": "0x40",
          "blockTimestamp": "0x69d6d278",
          "transactionHash": "0xd4b81b2a06d41efc3a0accc9f7e032355d32bbaf172260bcc60b2f31ac671157",
          "transactionIndex": "0x0",
          "logIndex": "0x0",
          "removed": false
        }
      ],
      "logsBloom": "0x00000000000000000000000100000000000100000000000000000000000000000000000000000000000000000000000000000000020000000000000000000000000000000000000800000000000000000000200000000000000000000000000000000040000000000000000000000000000000000000000000000000000000000000000000000000000000000000000008000000000000000000000200000000000000000000000000000000000000000000000000800020000000000000400000000040000000000000000000000000000000000000000000000000000000000000000000000000000000000000000000000000000000000000000000000000",
      "type": "0x2",
      "transactionHash": "0xd4b81b2a06d41efc3a0accc9f7e032355d32bbaf172260bcc60b2f31ac671157",
      "transactionIndex": "0x0",
      "blockHash": "0x39981f1271b1019825ecb0397bda409fde2a3064f8a1cea8087ee920b1447462",
      "blockNumber": "0x40",
      "gasUsed": "0x5c470",
      "effectiveGasPrice": "0x442b5",
      "blobGasPrice": "0x1",
      "from": "0x70997970c51812dc3a010c7d01b50e0d17dc79c8",
      "to": "0x5fbdb2315678afecb367f032d93f642f64180aa3",
      "contractAddress": null
    },
    {
      "status": "0x1",
      "cumulativeGasUsed": "0x18ed8",
      "logs": [
        {
          "address": "0x5fbdb2315678afecb367f032d93f642f64180aa3",
          "topics": [
            "0x7c1c93f72f29b8a1fc6fc85eed990d133b1ffac80c962b521abb12f38f2ff9af",
            "0x0000000000000000000000000000000000000000000000000000000000000003"
          ],
          "data": "0x0000000000000000000000000000000000000000000000000000000000000001",
          "blockHash": "0xbef6a2dc5f538db8c21f92bef85be11875d735423cff57b12ae7743d81f4932a",
          "blockNumber": "0x41",
          "blockTimestamp": "0x69d6d278",
          "transactionHash": "0x04d2f890c754f98cfb950217a978ca46e8b0ec05af41216472fb2f1f6b28c516",
          "transactionIndex": "0x0",
          "logIndex": "0x0",
          "removed": false
        }
      ],
      "logsBloom": "0x00000000000000000000000000000080000000000000000000000000000000000000000000000000000000000000000000000000020000000000000000000000000000000000000000000000000000000000000000000000000000000000000000000040000000000000000000000000000000000000000000000000000000000000000000000000000000000000000000000000000000000000000200000000000000000000000000000000000000000000000000800000000000000000400000000040000000000000000800000000000000000000000000000000000000000000000000000000000000000000000000000000000008000000000000000000",
      "type": "0x2",
      "transactionHash": "0x04d2f890c754f98cfb950217a978ca46e8b0ec05af41216472fb2f1f6b28c516",
      "transactionIndex": "0x0",
      "blockHash": "0xbef6a2dc5f538db8c21f92bef85be11875d735423cff57b12ae7743d81f4932a",
      "blockNumber": "0x41",
      "gasUsed": "0x18ed8",
      "effectiveGasPrice": "0x3bdce",
      "blobGasPrice": "0x1",
      "from": "0x90f79bf6eb2c4f870365e785982e1f101e93b906",
      "to": "0x5fbdb2315678afecb367f032d93f642f64180aa3",
      "contractAddress": null
    },
    {
      "status": "0x1",
      "cumulativeGasUsed": "0x5cef4",
      "logs": [
        {
          "address": "0x5fbdb2315678afecb367f032d93f642f64180aa3",
          "topics": [
            "0x529e5c9e24a307575814835cf69244181f51bc2ae08b95b8c8459d652a7ee9cf",
            "0x000000000000000000000000000000000000000000000000000000000000000f",
            "0x0000000000000000000000000000000000000000000000000000000000000003"
          ],
          "data": "0x000000000000000000000000000000000000000000000000000000000000000100000000000000000000000090f79bf6eb2c4f870365e785982e1f101e93b906",
          "blockHash": "0x749fb98c130e5481dea51671434f813077105a7ab38fbe7aaa44a445a3b361d4",
          "blockNumber": "0x42",
          "blockTimestamp": "0x69d6d278",
          "transactionHash": "0x421fd079398e6c873b40bce344f4afc7ad536626aa1caa166a54bdb00e621ba5",
          "transactionIndex": "0x0",
          "logIndex": "0x0",
          "removed": false
        }
      ],
      "logsBloom": "0x00000000000000000000000100000000000100000000000000000000000000000000000000000000000000000000000000000000020000000000000000000000000000000000000000000000000000000000200000000000000000000002000000000040000000000000000000000000000000000000000000000000000000000000000000000800000000000000000000000000000000000000000200000000000000000000000000000000000000000000000000800000000000000000400000000040000000000000000000000000000000000000000000000000000000000000000200000000000000000000000000000000000000000000000000000000",
      "type": "0x2",
      "transactionHash": "0x421fd079398e6c873b40bce344f4afc7ad536626aa1caa166a54bdb00e621ba5",
      "transactionIndex": "0x0",
      "blockHash": "0x749fb98c130e5481dea51671434f813077105a7ab38fbe7aaa44a445a3b361d4",
      "blockNumber": "0x42",
      "gasUsed": "0x5cef4",
      "effectiveGasPrice": "0x346e6",
      "blobGasPrice": "0x1",
      "from": "0x90f79bf6eb2c4f870365e785982e1f101e93b906",
      "to": "0x5fbdb2315678afecb367f032d93f642f64180aa3",
      "contractAddress": null
    },
    {
      "status": "0x1",
      "cumulativeGasUsed": "0x140f4",
      "logs": [
        {
          "address": "0x5fbdb2315678afecb367f032d93f642f64180aa3",
          "topics": [
            "0x7c1c93f72f29b8a1fc6fc85eed990d133b1ffac80c962b521abb12f38f2ff9af",
            "0x0000000000000000000000000000000000000000000000000000000000000003"
          ],
          "data": "0x0000000000000000000000000000000000000000000000000000000000000001",
          "blockHash": "0x3a9fbb00ca56b7cff96898c624e36d8630a60c567239aa3dc4aada3cb0bfb017",
          "blockNumber": "0x43",
          "blockTimestamp": "0x69d6d278",
          "transactionHash": "0x80cb72bcd1d9bee34f9014818ed906e0b386abc0f639225fefe25ef016fac923",
          "transactionIndex": "0x0",
          "logIndex": "0x0",
          "removed": false
        }
      ],
      "logsBloom": "0x00000000000000000000000000000080000000000000000000000000000000000000000000000000000000000000000000000000020000000000000000000000000000000000000000000000000000000000000000000000000000000000000000000040000000000000000000000000000000000000000000000000000000000000000000000000000000000000000000000000000000000000000200000000000000000000000000000000000000000000000000800000000000000000400000000040000000000000000800000000000000000000000000000000000000000000000000000000000000000000000000000000000008000000000000000000",
      "type": "0x2",
      "transactionHash": "0x80cb72bcd1d9bee34f9014818ed906e0b386abc0f639225fefe25ef016fac923",
      "transactionIndex": "0x0",
      "blockHash": "0x3a9fbb00ca56b7cff96898c624e36d8630a60c567239aa3dc4aada3cb0bfb017",
      "blockNumber": "0x43",
      "gasUsed": "0x140f4",
      "effectiveGasPrice": "0x2e0b3",
      "blobGasPrice": "0x1",
      "from": "0x3c44cdddb6a900fa2b585dd299e03d12fa4293bc",
      "to": "0x5fbdb2315678afecb367f032d93f642f64180aa3",
      "contractAddress": null
    },
    {
      "status": "0x1",
      "cumulativeGasUsed": "0x85839",
      "logs": [
        {
          "address": "0x5fbdb2315678afecb367f032d93f642f64180aa3",
          "topics": [
            "0xc2c9d0fa5caecea68b9ec6aca764014b01764f779d8a510f0d0d6796b76b7c83",
            "0x0000000000000000000000000000000000000000000000000000000000000001",
            "0x0000000000000000000000000000000000000000000000000000000000000003"
          ],
          "data": "0x0000000000000000000000000000000000000000000000000000000000000003",
          "blockHash": "0xf6882b7e7bbc3c02940b20386f688aa4ad4d7f98ed201a2fdee9349c9105a994",
          "blockNumber": "0x44",
          "blockTimestamp": "0x69d6d278",
          "transactionHash": "0x08d58d8ed16b6d10ef5bd59f9c74873999f7961ad6e95718fa983e48971b9de8",
          "transactionIndex": "0x0",
          "logIndex": "0x0",
          "removed": false
        },
        {
          "address": "0x5fbdb2315678afecb367f032d93f642f64180aa3",
          "topics": [
            "0x529e5c9e24a307575814835cf69244181f51bc2ae08b95b8c8459d652a7ee9cf",
            "0x0000000000000000000000000000000000000000000000000000000000000010",
            "0x0000000000000000000000000000000000000000000000000000000000000003"
          ],
          "data": "0x00000000000000000000000000000000000000000000000000000000000000020000000000000000000000003c44cdddb6a900fa2b585dd299e03d12fa4293bc",
          "blockHash": "0xf6882b7e7bbc3c02940b20386f688aa4ad4d7f98ed201a2fdee9349c9105a994",
          "blockNumber": "0x44",
          "blockTimestamp": "0x69d6d278",
          "transactionHash": "0x08d58d8ed16b6d10ef5bd59f9c74873999f7961ad6e95718fa983e48971b9de8",
          "transactionIndex": "0x0",
          "logIndex": "0x1",
          "removed": false
        }
      ],
      "logsBloom": "0x00000000100000000000000100000000000100000000000000000000000000000000000000000000000000000000000000000000020000000000000000040000000000000000000000000000000000000000200000040000000000000000000000001040000000001000000000000000000000000000000000000000040000000000000000000000000000000000000000000100000000000000000200000000000000000000000000000000000000080000000000800000000000000000400000000040000000000000000000000000000000000000000000000000000040000000000000000000000000000000000000000000000000000000000000000000",
      "type": "0x2",
      "transactionHash": "0x08d58d8ed16b6d10ef5bd59f9c74873999f7961ad6e95718fa983e48971b9de8",
      "transactionIndex": "0x0",
      "blockHash": "0xf6882b7e7bbc3c02940b20386f688aa4ad4d7f98ed201a2fdee9349c9105a994",
      "blockNumber": "0x44",
      "gasUsed": "0x85839",
      "effectiveGasPrice": "0x2851e",
      "blobGasPrice": "0x1",
      "from": "0x3c44cdddb6a900fa2b585dd299e03d12fa4293bc",
      "to": "0x5fbdb2315678afecb367f032d93f642f64180aa3",
      "contractAddress": null
    },
    {
      "status": "0x1",
      "cumulativeGasUsed": "0x5cf78",
      "logs": [
        {
          "address": "0x5fbdb2315678afecb367f032d93f642f64180aa3",
          "topics": [
            "0x529e5c9e24a307575814835cf69244181f51bc2ae08b95b8c8459d652a7ee9cf",
            "0x0000000000000000000000000000000000000000000000000000000000000011",
            "0x0000000000000000000000000000000000000000000000000000000000000003"
          ],
          "data": "0x00000000000000000000000000000000000000000000000000000000000000020000000000000000000000003c44cdddb6a900fa2b585dd299e03d12fa4293bc",
          "blockHash": "0x2bcc1cf065a5a7308cb871671c92ea2639d1011f3234e805407475c9990f3e87",
          "blockNumber": "0x45",
          "blockTimestamp": "0x69d6d278",
          "transactionHash": "0x02d82b526e8097087e4c8ca08af7ca41315a3f4b7af11cef15fdfd3eda16aa32",
          "transactionIndex": "0x0",
          "logIndex": "0x0",
          "removed": false
        }
      ],
      "logsBloom": "0x00000000000000000000000100000000000100000000000000000000000000000000000000000000000000000000000000000000020000000000000000000000000000000000000000000000000000000000200000000000000000000000000000000040000000000000000000000000000000004000000000000000000000000000000000000000000000000000000000000000000000000000000200000000000000000000000000000000000000000000000000800000000000000400400000001040000000000000000000000000000000000000000000000000000000000000000000000000000000000000000000000000000000000000000000000000",
      "type": "0x2",
      "transactionHash": "0x02d82b526e8097087e4c8ca08af7ca41315a3f4b7af11cef15fdfd3eda16aa32",
      "transactionIndex": "0x0",
      "blockHash": "0x2bcc1cf065a5a7308cb871671c92ea2639d1011f3234e805407475c9990f3e87",
      "blockNumber": "0x45",
      "gasUsed": "0x5cf78",
      "effectiveGasPrice": "0x2376c",
      "blobGasPrice": "0x1",
      "from": "0x3c44cdddb6a900fa2b585dd299e03d12fa4293bc",
      "to": "0x5fbdb2315678afecb367f032d93f642f64180aa3",
      "contractAddress": null
    },
    {
      "status": "0x1",
      "cumulativeGasUsed": "0x14c0c",
      "logs": [
        {
          "address": "0x5fbdb2315678afecb367f032d93f642f64180aa3",
          "topics": [
            "0x7c1c93f72f29b8a1fc6fc85eed990d133b1ffac80c962b521abb12f38f2ff9af",
            "0x0000000000000000000000000000000000000000000000000000000000000003"
          ],
          "data": "0x0000000000000000000000000000000000000000000000000000000000000002",
          "blockHash": "0x7ee93507fca40c490a9d27af438d3e942de7c41d6827bcd5fb7fd16ef8c69e2a",
          "blockNumber": "0x46",
          "blockTimestamp": "0x69d6d278",
          "transactionHash": "0x5cca3239e9e48dd4531e419d97b053598d180a82b7f8e5fd561af99d6c4ddc18",
          "transactionIndex": "0x0",
          "logIndex": "0x0",
          "removed": false
        }
      ],
      "logsBloom": "0x00000000000000000000000000000080000000000000000000000000000000000000000000000000000000000000000000000000020000000000000000000000000000000000000000000000000000000000000000000000000000000000000000000040000000000000000000000000000000000000000000000000000000000000000000000000000000000000000000000000000000000000000200000000000000000000000000000000000000000000000000800000000000000000400000000040000000000000000800000000000000000000000000000000000000000000000000000000000000000000000000000000000008000000000000000000",
      "type": "0x2",
      "transactionHash": "0x5cca3239e9e48dd4531e419d97b053598d180a82b7f8e5fd561af99d6c4ddc18",
      "transactionIndex": "0x0",
      "blockHash": "0x7ee93507fca40c490a9d27af438d3e942de7c41d6827bcd5fb7fd16ef8c69e2a",
      "blockNumber": "0x46",
      "gasUsed": "0x14c0c",
      "effectiveGasPrice": "0x1f24c",
      "blobGasPrice": "0x1",
      "from": "0x14dc79964da2c08b23698b3d3cc7ca32193d9955",
      "to": "0x5fbdb2315678afecb367f032d93f642f64180aa3",
      "contractAddress": null
    },
    {
      "status": "0x1",
      "cumulativeGasUsed": "0x86b78",
      "logs": [
        {
          "address": "0x5fbdb2315678afecb367f032d93f642f64180aa3",
          "topics": [
            "0xc2c9d0fa5caecea68b9ec6aca764014b01764f779d8a510f0d0d6796b76b7c83",
            "0x0000000000000000000000000000000000000000000000000000000000000002",
            "0x0000000000000000000000000000000000000000000000000000000000000003"
          ],
          "data": "0x0000000000000000000000000000000000000000000000000000000000000003",
          "blockHash": "0x5434f4ce8eebbcd057d0b287cb210d5085fbcc61ed9dd99a191e704d95017e05",
          "blockNumber": "0x47",
          "blockTimestamp": "0x69d6d278",
          "transactionHash": "0x70f48bf03578879d92efb1cb22421607aedeacb05f9b83c5dfae0fc232d6bae0",
          "transactionIndex": "0x0",
          "logIndex": "0x0",
          "removed": false
        },
        {
          "address": "0x5fbdb2315678afecb367f032d93f642f64180aa3",
          "topics": [
            "0x529e5c9e24a307575814835cf69244181f51bc2ae08b95b8c8459d652a7ee9cf",
            "0x0000000000000000000000000000000000000000000000000000000000000012",
            "0x0000000000000000000000000000000000000000000000000000000000000003"
          ],
          "data": "0x000000000000000000000000000000000000000000000000000000000000000100000000000000000000000014dc79964da2c08b23698b3d3cc7ca32193d9955",
          "blockHash": "0x5434f4ce8eebbcd057d0b287cb210d5085fbcc61ed9dd99a191e704d95017e05",
          "blockNumber": "0x47",
          "blockTimestamp": "0x69d6d278",
          "transactionHash": "0x70f48bf03578879d92efb1cb22421607aedeacb05f9b83c5dfae0fc232d6bae0",
          "transactionIndex": "0x0",
          "logIndex": "0x1",
          "removed": false
        }
      ],
      "logsBloom": "0x04000000000000000000000100000000000100000000000000000000000000000000000000000000000000000000000000000000020000000000000000000000000000000000000000000000000000000000200000000000000000000000000000001040000000001000000000000000000000000000000000000000000000000000000000000000000000000000040000000000000000000000000200000000000000000000000000000100000000080000000000800040000000000000400000000040000000000400000000000000000000000000000000000000000000000000000000000000000000000000000000000000008000000000000000000000",
      "type": "0x2",
      "transactionHash": "0x70f48bf03578879d92efb1cb22421607aedeacb05f9b83c5dfae0fc232d6bae0",
      "transactionIndex": "0x0",
      "blockHash": "0x5434f4ce8eebbcd057d0b287cb210d5085fbcc61ed9dd99a191e704d95017e05",
      "blockNumber": "0x47",
      "gasUsed": "0x86b78",
      "effectiveGasPrice": "0x1b45d",
      "blobGasPrice": "0x1",
      "from": "0x14dc79964da2c08b23698b3d3cc7ca32193d9955",
      "to": "0x5fbdb2315678afecb367f032d93f642f64180aa3",
      "contractAddress": null
    },
    {
      "status": "0x1",
      "cumulativeGasUsed": "0x5210b",
      "logs": [
        {
          "address": "0x5fbdb2315678afecb367f032d93f642f64180aa3",
          "topics": [
            "0x529e5c9e24a307575814835cf69244181f51bc2ae08b95b8c8459d652a7ee9cf",
            "0x0000000000000000000000000000000000000000000000000000000000000013",
            "0x0000000000000000000000000000000000000000000000000000000000000003"
          ],
          "data": "0x00000000000000000000000000000000000000000000000000000000000000020000000000000000000000003c44cdddb6a900fa2b585dd299e03d12fa4293bc",
          "blockHash": "0xf83317f4f8ff3482130c30579c58866019e667ae3c2d244a3422cf6a7db69a66",
          "blockNumber": "0x48",
          "blockTimestamp": "0x69d6d278",
          "transactionHash": "0x0adae6f2eadf3a9d096267d8290dc51216f5e4fc5e7c5c3c1a1b5d9c2c009959",
          "transactionIndex": "0x0",
          "logIndex": "0x0",
          "removed": false
        }
      ],
      "logsBloom": "0x20000000000000000000000100800000000100000000000000000000000000000000000040000000000000000000000000000000020000000000000000000000000000000000000000000000000000000000200000000000000000000000000000000040000000000000000000000000000000000000000000000000000000000000000000000000000000000000000000000000000000000000000200000000000000000000000000000000000000000000000000800000000000000000400000000040000000000000000000000000000000000000000000000000000000000000000000000000000000000000000000000000000000000000000000000000",
      "type": "0x2",
      "transactionHash": "0x0adae6f2eadf3a9d096267d8290dc51216f5e4fc5e7c5c3c1a1b5d9c2c009959",
      "transactionIndex": "0x0",
      "blockHash": "0xf83317f4f8ff3482130c30579c58866019e667ae3c2d244a3422cf6a7db69a66",
      "blockNumber": "0x48",
      "gasUsed": "0x5210b",
      "effectiveGasPrice": "0x17fd4",
      "blobGasPrice": "0x1",
      "from": "0x3c44cdddb6a900fa2b585dd299e03d12fa4293bc",
      "to": "0x5fbdb2315678afecb367f032d93f642f64180aa3",
      "contractAddress": null
    },
    {
      "status": "0x1",
      "cumulativeGasUsed": "0x9241",
      "logs": [
        {
          "address": "0x5fbdb2315678afecb367f032d93f642f64180aa3",
          "topics": [
            "0x7c1c93f72f29b8a1fc6fc85eed990d133b1ffac80c962b521abb12f38f2ff9af",
            "0x0000000000000000000000000000000000000000000000000000000000000003"
          ],
          "data": "0x0000000000000000000000000000000000000000000000000000000000000003",
          "blockHash": "0xd5322e5c3f1fd077dacfbfcbb6eba5949b2673212ea337cae50fa4c01bb9389f",
          "blockNumber": "0x49",
          "blockTimestamp": "0x69d6d278",
          "transactionHash": "0x574aa44e38ec3880b2319de2f29c826efcb75dd349bb20eca7ceb451a607b065",
          "transactionIndex": "0x0",
          "logIndex": "0x0",
          "removed": false
        }
      ],
      "logsBloom": "0x00000000000000000000000000000080000000000000000000000000000000000000000000000000000000000000000000000000020000000000000000000000000000000000000000000000000000000000000000000000000000000000000000000040000000000000000000000000000000000000000000000000000000000000000000000000000000000000000000000000000000000000000200000000000000000000000000000000000000000000000000800000000000000000400000000040000000000000000800000000000000000000000000000000000000000000000000000000000000000000000000000000000008000000000000000000",
      "type": "0x2",
      "transactionHash": "0x574aa44e38ec3880b2319de2f29c826efcb75dd349bb20eca7ceb451a607b065",
      "transactionIndex": "0x0",
      "blockHash": "0xd5322e5c3f1fd077dacfbfcbb6eba5949b2673212ea337cae50fa4c01bb9389f",
      "blockNumber": "0x49",
      "gasUsed": "0x9241",
      "effectiveGasPrice": "0x150ed",
      "blobGasPrice": "0x1",
      "from": "0x3c44cdddb6a900fa2b585dd299e03d12fa4293bc",
      "to": "0x5fbdb2315678afecb367f032d93f642f64180aa3",
      "contractAddress": null
    }
  ],
  "libraries": [],
  "pending": [],
  "returns": {},
  "timestamp": 1775686264742,
  "chain": 31337,
  "commit": "b2a9a0b1"
}