{
  "transactions": [
    {
      "hash": "0x11a27b05747ac8254e0686441eeb228d933892bc9bbd9b6604b56ca65df2cfff",
      "transactionType": "CALL",
      "contractName": null,
      "contractAddress": "0x5fbdb2315678afecb367f032d93f642f64180aa3",
      "function": "createShipment(address,string,string,string,bool)",
      "arguments": [
        "0x15d34AAf54267DB7D7c367839AAf71A00a2C6A65",
        "Insulina Refrigerada - Lote INS-2024-077 - 200 unidades",
        "Bogota",
        "Medellin",
        "true"
      ],
      "transaction": {
        "from": "0x70997970c51812dc3a010c7d01b50e0d17dc79c8",
        "to": "0x5fbdb2315678afecb367f032d93f642f64180aa3",
        "gas": "0x8182f",
        "value": "0x0",
        "input": "0x475b6f9800000000000000000000000015d34aaf54267db7d7c367839aaf71a00a2c6a6500000000000000000000000000000000000000000000000000000000000000a00000000000000000000000000000000000000000000000000000000000000100000000000000000000000000000000000000000000000000000000000000014000000000000000000000000000000000000000000000000000000000000000010000000000000000000000000000000000000000000000000000000000000037496e73756c696e61205265667269676572616461202d204c6f746520494e532d323032342d303737202d2032303020756e6964616465730000000000000000000000000000000000000000000000000000000000000000000000000000000006426f676f7461000000000000000000000000000000000000000000000000000000000000000000000000000000000000000000000000000000000000000000084d6564656c6c696e000000000000000000000000000000000000000000000000",
        "nonce": "0x4",
        "chainId": "0x7a69"
      },
      "additionalContracts": [],
      "isFixedGasLimit": false
    },
    {
      "hash": "0x286cc3ebeaf4d50058bdef4f18032a9a591e6fc59661243606694d1ef5a212a8",
      "transactionType": "CALL",
      "contractName": null,
      "contractAddress": "0x5fbdb2315678afecb367f032d93f642f64180aa3",
      "function": "recordCheckpoint(uint256,string,uint8,string,int256)",
      "arguments": [
        "3",
        "Laboratorio BioPharma - Bogota, Zona Industrial",
        "0",
        "Lote INS-2024-077 | 200 unidades | Temp camara origen: 4.2C | Embalaje termico OK | Resp: J. Martinez",
        "45"
      ],
      "transaction": {
        "from": "0x70997970c51812dc3a010c7d01b50e0d17dc79c8",
        "to": "0x5fbdb2315678afecb367f032d93f642f64180aa3",
        "gas": "0x7f754",
        "value": "0x0",
        "input": "0x0a7a0b69000000000000000000000000000000000000000000000000000000000000000300000000000000000000000000000000000000000000000000000000000000a000000000000000000000000000000000000000000000000000000000000000000000000000000000000000000000000000000000000000000000000000000100000000000000000000000000000000000000000000000000000000000000002d000000000000000000000000000000000000000000000000000000000000002f4c61626f7261746f72696f2042696f506861726d61202d20426f676f74612c205a6f6e6120496e647573747269616c000000000000000000000000000000000000000000000000000000000000000000000000000000000000000000000000654c6f746520494e532d323032342d303737207c2032303020756e696461646573207c2054656d702063616d617261206f726967656e3a20342e3243207c20456d62616c616a65207465726d69636f204f4b207c20526573703a204a2e204d617274696e657a000000000000000000000000000000000000000000000000000000",
        "nonce": "0x5",
        "chainId": "0x7a69"
      },
      "additionalContracts": [],
      "isFixedGasLimit": false
    },
    {
      "hash": "0x1ad97961eb8314593788400d5c50aa790491eef047d2133d782d7fb285357854",
      "transactionType": "CALL",
      "contractName": null,
      "contractAddress": "0x5fbdb2315678afecb367f032d93f642f64180aa3",
      "function": "updateShipmentStatus(uint256,uint8)",
      "arguments": [
        "3",
        "1"
      ],
      "transaction": {
        "from": "0x90f79bf6eb2c4f870365e785982e1f101e93b906",
        "to": "0x5fbdb2315678afecb367f032d93f642f64180aa3",
        "gas": "0x226e6",
        "value": "0x0",
        "input": "0x7defa92000000000000000000000000000000000000000000000000000000000000000030000000000000000000000000000000000000000000000000000000000000001",
        "nonce": "0x4",
        "chainId": "0x7a69"
      },
      "additionalContracts": [],
      "isFixedGasLimit": false
    },
    {
      "hash": "0xb11066c422420f163e4e091e3b3de75c4857aa6a098915aaae0f0eb31309d24c",
      "transactionType": "CALL",
      "contractName": null,
      "contractAddress": "0x5fbdb2315678afecb367f032d93f642f64180aa3",
      "function": "recordCheckpoint(uint256,string,uint8,string,int256)",
      "arguments": [
        "3",
        "Hub Bogota Fontibon - Zona de Recepcion",
        "1",
        "Llegada: 11:10 | Embalaje termico: OK | Temp bodega fria: 3.5C | 200/200 unidades | Resp: C. Torres",
        "38"
      ],
      "transaction": {
        "from": "0x90f79bf6eb2c4f870365e785982e1f101e93b906",
        "to": "0x5fbdb2315678afecb367f032d93f642f64180aa3",
        "gas": "0x805da",
        "value": "0x0",
        "input": "0x0a7a0b69000000000000000000000000000000000000000000000000000000000000000300000000000000000000000000000000000000000000000000000000000000a0000000000000000000000000000000000000000000000000000000000000000100000000000000000000000000000000000000000000000000000000000001000000000000000000000000000000000000000000000000000000000000000026000000000000000000000000000000000000000000000000000000000000002748756220426f676f746120466f6e7469626f6e202d205a6f6e6120646520526563657063696f6e0000000000000000000000000000000000000000000000000000000000000000000000000000000000000000000000000000000000000000634c6c65676164613a2031313a3130207c20456d62616c616a65207465726d69636f3a204f4b207c2054656d7020626f6465676120667269613a20332e3543207c203230302f32303020756e696461646573207c20526573703a20432e20546f727265730000000000000000000000000000000000000000000000000000000000",
        "nonce": "0x5",
        "chainId": "0x7a69"
      },
      "additionalContracts": [],
      "isFixedGasLimit": false
    },
    {
      "hash": "0x0e95899da2ebd3220711a2627e66378f95831eb1b263fc00c45ba006d8905f00",
      "transactionType": "CALL",
      "contractName": null,
      "contractAddress": "0x5fbdb2315678afecb367f032d93f642f64180aa3",
      "function": "updateShipmentStatus(uint256,uint8)",
      "arguments": [
        "3",
        "1"
      ],
      "transaction": {
        "from": "0x3c44cdddb6a900fa2b585dd299e03d12fa4293bc",
        "to": "0x5fbdb2315678afecb367f032d93f642f64180aa3",
        "gas": "0x1bb50",
        "value": "0x0",
        "input": "0x7defa92000000000000000000000000000000000000000000000000000000000000000030000000000000000000000000000000000000000000000000000000000000001",
        "nonce": "0xb",
        "chainId": "0x7a69"
      },
      "additionalContracts": [],
      "isFixedGasLimit": false
    },
    {
      "hash": "0xc21ae511b833391f195dcd9621a43d6d38c1c9a64defb29693f6c1ae143443ee",
      "transactionType": "CALL",
      "contractName": null,
      "contractAddress": "0x5fbdb2315678afecb367f032d93f642f64180aa3",
      "function": "recordCheckpoint(uint256,string,uint8,string,int256)",
      "arguments": [
        "3",
        "Autopista Bogota-Medellin, km 87 - Estacion de Servicio El Sisga",
        "2",
        "ALERTA: Temperatura elevada | Parada no autorizada 25 min | Puerta abierta detectada | Precinto SP-771: OK | Conductor: R. Gomez",
        "95"
      ],
      "transaction": {
        "from": "0x3c44cdddb6a900fa2b585dd299e03d12fa4293bc",
        "to": "0x5fbdb2315678afecb367f032d93f642f64180aa3",
        "gas": "0xc3439",
        "value": "0x0",
        "input": "0x0a7a0b69000000000000000000000000000000000000000000000000000000000000000300000000000000000000000000000000000000000000000000000000000000a000000000000000000000000000000000000000000000000000000000000000020000000000000000000000000000000000000000000000000000000000000100000000000000000000000000000000000000000000000000000000000000005f00000000000000000000000000000000000000000000000000000000000000404175746f706973746120426f676f74612d4d6564656c6c696e2c206b6d203837202d204573746163696f6e20646520536572766963696f20456c2053697367610000000000000000000000000000000000000000000000000000000000000080414c455254413a2054656d706572617475726120656c6576616461207c20506172616461206e6f206175746f72697a616461203235206d696e207c20507565727461206162696572746120646574656374616461207c2050726563696e746f2053502d3737313a204f4b207c20436f6e647563746f723a20522e20476f6d657a",
        "nonce": "0xc",
        "chainId": "0x7a69"
      },
      "additionalContracts": [],
      "isFixedGasLimit": false
    },
    {
      "hash": "0x402b3e3f0c95a26fd16952136cafd19fec1dcea23f9fa7c473a396dc29c28bd4",
      "transactionType": "CALL",
      "contractName": null,
      "contractAddress": "0x5fbdb2315678afecb367f032d93f642f64180aa3",
      "function": "recordCheckpoint(uint256,string,uint8,string,int256)",
      "arguments": [
        "3",
        "Autopista Bogota-Medellin, km 142 - Peaje La Ye",
        "2",
        "Temperatura recuperada tras incidente | Equipo de frio reactivado | Precinto SP-771: OK | 200 unidades",
        "50"
      ],
      "transaction": {
        "from": "0x3c44cdddb6a900fa2b585dd299e03d12fa4293bc",
        "to": "0x5fbdb2315678afecb367f032d93f642f64180aa3",
        "gas": "0x80690",
        "value": "0x0",
        "input": "0x0a7a0b69000000000000000000000000000000000000000000000000000000000000000300000000000000000000000000000000000000000000000000000000000000a0000000000000000000000000000000000000000000000000000000000000000200000000000000000000000000000000000000000000000000000000000001000000000000000000000000000000000000000000000000000000000000000032000000000000000000000000000000000000000000000000000000000000002f4175746f706973746120426f676f74612d4d6564656c6c696e2c206b6d20313432202d205065616a65204c612059650000000000000000000000000000000000000000000000000000000000000000000000000000000000000000000000006654656d70657261747572612072656375706572616461207472617320696e636964656e7465207c2045717569706f206465206672696f207265616374697661646f207c2050726563696e746f2053502d3737313a204f4b207c2032303020756e6964616465730000000000000000000000000000000000000000000000000000",
        "nonce": "0xd",
        "chainId": "0x7a69"
      },
      "additionalContracts": [],
      "isFixedGasLimit": false
    },
    {
      "hash": "0xb473169c75ba288507fc189bf059b98419ab7d1d3c52a0f618e9718f8c5a3d6b",
      "transactionType": "CALL",
      "contractName": null,
      "contractAddress": "0x5fbdb2315678afecb367f032d93f642f64180aa3",
      "function": "updateShipmentStatus(uint256,uint8)",
      "arguments": [
        "3",
        "2"
      ],
      "transaction": {
        "from": "0x14dc79964da2c08b23698b3d3cc7ca32193d9955",
        "to": "0x5fbdb2315678afecb367f032d93f642f64180aa3",
        "gas": "0x1caa2",
        "value": "0x0",
        "input": "0x7defa92000000000000000000000000000000000000000000000000000000000000000030000000000000000000000000000000000000000000000000000000000000002",
        "nonce": "0x4",
        "chainId": "0x7a69"
      },
      "additionalContracts": [],
      "isFixedGasLimit": false
    },
    {
      "hash": "0xf8d3bed3860d194584a36504192ec2344732d2b11953960180df1affe0b5d0e4",
      "transactionType": "CALL",
      "contractName": null,
      "contractAddress": "0x5fbdb2315678afecb367f032d93f642f64180aa3",
      "function": "recordCheckpoint(uint256,string,uint8,string,int256)",
      "arguments": [
        "3",
        "Hub Medellin Itagui - Camara Fria C2",
        "1",
        "ALERTA: Temperatura bajo minimo | Falla termostato camara C2 | Producto trasladado a camara C3 | Resp: A. Rios | Mantenimiento notificado",
        "12"
      ],
      "transaction": {
        "from": "0x14dc79964da2c08b23698b3d3cc7ca32193d9955",
        "to": "0x5fbdb2315678afecb367f032d93f642f64180aa3",
        "gas": "0xba13d",
        "value": "0x0",
        "input": "0x0a7a0b69000000000000000000000000000000000000000000000000000000000000000300000000000000000000000000000000000000000000000000000000000000a000000000000000000000000000000000000000000000000000000000000000010000000000000000000000000000000000000000000000000000000000000100000000000000000000000000000000000000000000000000000000000000000c0000000000000000000000000000000000000000000000000000000000000024487562204d6564656c6c696e20497461677569202d2043616d6172612046726961204332000000000000000000000000000000000000000000000000000000000000000000000000000000000000000000000000000000000000000000000089414c455254413a2054656d70657261747572612062616a6f206d696e696d6f207c2046616c6c61207465726d6f737461746f2063616d617261204332207c2050726f647563746f20747261736c616461646f20612063616d617261204333207c20526573703a20412e2052696f73207c204d616e74656e696d69656e746f206e6f746966696361646f0000000000000000000000000000000000000000000000",
        "nonce": "0x5",
        "chainId": "0x7a69"
      },
      "additionalContracts": [],
      "isFixedGasLimit": false
    },
    {
      "hash": "0x7bc596118169d48df0784a0af3311a302b5db4135c34dc2df809a37517c106df",
      "transactionType": "CALL",
      "contractName": null,
      "contractAddress": "0x5fbdb2315678afecb367f032d93f642f64180aa3",
      "function": "recordCheckpoint(uint256,string,uint8,string,int256)",
      "arguments": [
        "3",
        "Hub Medellin Itagui - Bahia 4",
        "2",
        "Temperatura normalizada | Camara C3: 4.0C | Veh: VAN-291 | Precinto nuevo: SP-882 | 200 unidades | ETA: 09:30",
        "42"
      ],
      "transaction": {
        "from": "0x3c44cdddb6a900fa2b585dd299e03d12fa4293bc",
        "to": "0x5fbdb2315678afecb367f032d93f642f64180aa3",
        "gas": "0x78052",
        "value": "0x0",
        "input": "0x0a7a0b69000000000000000000000000000000000000000000000000000000000000000300000000000000000000000000000000000000000000000000000000000000a0000000000000000000000000000000000000000000000000000000000000000200000000000000000000000000000000000000000000000000000000000000e0000000000000000000000000000000000000000000000000000000000000002a000000000000000000000000000000000000000000000000000000000000001d487562204d6564656c6c696e20497461677569202d2042616869612034000000000000000000000000000000000000000000000000000000000000000000006d54656d7065726174757261206e6f726d616c697a616461207c2043616d6172612043333a20342e3043207c205665683a2056414e2d323931207c2050726563696e746f206e7565766f3a2053502d383832207c2032303020756e696461646573207c204554413a2030393a333000000000000000000000000000000000000000",
        "nonce": "0xe",
        "chainId": "0x7a69"
      },
      "additionalContracts": [],
      "isFixedGasLimit": false
    },
    {
      "hash": "0x1f0fe43c6d6dbbc3116f8ff75acc6d7f43505a708715384fd67f27cae286a55b",
      "transactionType": "CALL",
      "contractName": null,
      "contractAddress": "0x5fbdb2315678afecb367f032d93f642f64180aa3",
      "function": "updateShipmentStatus(uint256,uint8)",
      "arguments": [
        "3",
        "3"
      ],
      "transaction": {
        "from": "0x3c44cdddb6a900fa2b585dd299e03d12fa4293bc",
        "to": "0x5fbdb2315678afecb367f032d93f642f64180aa3",
        "gas": "0xd5e5",
        "value": "0x0",
        "input": "0x7defa92000000000000000000000000000000000000000000000000000000000000000030000000000000000000000000000000000000000000000000000000000000003",
        "nonce": "0xf",
        "chainId": "0x7a69"
      },
      "additionalContracts": [],
      "isFixedGasLimit": false
    }
  ],
  "receipts": [
    {
      "status": "0x1",
      "cumulativeGasUsed": "0x588e1",
      "logs": [
        {
          "address": "0x5fbdb2315678afecb367f032d93f642f64180aa3",
          "topics": [
            "0x8fb6b855d6cbdf201f2fcaadbf8c38d36168ff7d2ca865cb2599abcd5a060e8f",
            "0x0000000000000000000000000000000000000000000000000000000000000003",
            "0x00000000000000000000000070997970c51812dc3a010c7d01b50e0d17dc79c8",
            "0x00000000000000000000000015d34aaf54267db7d7c367839aaf71a00a2c6a65"
          ],
          "data": "0x00000000000000000000000000000000000000000000000000000000000000200000000000000000000000000000000000000000000000000000000000000037496e73756c696e61205265667269676572616461202d204c6f746520494e532d323032342d303737202d2032303020756e696461646573000000000000000000",
          "blockHash": "0xb953e290f99a4fd7e37bafca2e847bccea6978a7a63b3672265fbfb105ded324",
          "blockNumber": "0x1f",
          "blockTimestamp": "0x69d7b8ae",
          "transactionHash": "0x11a27b05747ac8254e0686441eeb228d933892bc9bbd9b6604b56ca65df2cfff",
          "transactionIndex": "0x0",
          "logIndex": "0x0",
          "removed": false
        }
      ],
      "logsBloom": "0x00000000040000000002000000000000000000000000000000000000000000000000000000000000000000000000000000000000020000000000000000000000000000000000000000000000000000000000000000000000000000000000000000000840000000000000000000000000000000000000000000000000000000000000000000000000000000000000000000000200000000000000000300000000000000000000000000000000000000000000000000800000000000000000400000000040000000000000000040000000000000000000000000000000000004000000000000000000000000000000000001004000000000000000000000000000",
      "type": "0x2",
      "transactionHash": "0x11a27b05747ac8254e0686441eeb228d933892bc9bbd9b6604b56ca65df2cfff",
      "transactionIndex": "0x0",
      "blockHash": "0xb953e290f99a4fd7e37bafca2e847bccea6978a7a63b3672265fbfb105ded324",
      "blockNumber": "0x1f",
      "gasUsed": "0x588e1",
      "effectiveGasPrice": "0x1391ded",
      "blobGasPrice": "0x1",
      "from": "0x70997970c51812dc3a010c7d01b50e0d17dc79c8",
      "to": "0x5fbdb2315678afecb367f032d93f642f64180aa3",
      "contractAddress": null
    },
    {
      "status": "0x1",
      "cumulativeGasUsed": "0x5c470",
      "logs": [
        {
          "address": "0x5fbdb2315678afecb367f032d93f642f64180aa3",
          "topics": [
            "0x529e5c9e24a307575814835cf69244181f51bc2ae08b95b8c8459d652a7ee9cf",
            "0x000000000000000000000000000000000000000000000000000000000000000e",
            "0x0000000000000000000000000000000000000000000000000000000000000003"
          ],
          "data": "0x000000000000000000000000000000000000000000000000000000000000000000000000000000000000000070997970c51812dc3a010c7d01b50e0d17dc79c8",
          "blockHash": "0xd2afba046133a04bf198d90faa24910ca1931ab33563d44d7d97996dde3cc29b",
          "blockNumber": "0x20",
          "blockTimestamp": "0x69d7b8ae",
          "transactionHash": "0x286cc3ebeaf4d50058bdef4f18032a9a591e6fc59661243606694d1ef5a212a8",
          "transactionIndex": "0x0",
          "logIndex": "0x0",
          "removed": false
        }
      ],
      "logsBloom": "0x00000000000000000000000100000000000100000000000000000000000000000000000000000000000000000000000000000000020000000000000000000000000000000000000800000000000000000000200000000000000000000000000000000040000000000000000000000000000000000000000000000000000000000000000000000000000000000000000008000000000000000000000200000000000000000000000000000000000000000000000000800020000000000000400000000040000000000000000000000000000000000000000000000000000000000000000000000000000000000000000000000000000000000000000000000000",
      "type": "0x2",
      "transactionHash": "0x286cc3ebeaf4d50058bdef4f18032a9a591e6fc59661243606694d1ef5a212a8",
      "transactionIndex": "0x0",
      "blockHash": "0xd2afba046133a04bf198d90faa24910ca1931ab33563d44d7d97996dde3cc29b",
      "blockNumber": "0x20",
      "gasUsed": "0x5c470",
      "effectiveGasPrice": "0x112ec7b",
      "blobGasPrice": "0x1",
      "from": "0x70997970c51812dc3a010c7d01b50e0d17dc79c8",
      "to": "0x5fbdb2315678afecb367f032d93f642f64180aa3",
      "contractAddress": null
    },
    {
      "status": "0x1",
      "cumulativeGasUsed": "0x18ed8",
      "logs": [
        {
          "address": "0x5fbdb2315678afecb367f032d93f642f64180aa3",
          "topics": [
            "0x7c1c93f72f29b8a1fc6fc85eed990d133b1ffac80c962b521abb12f38f2ff9af",
            "0x0000000000000000000000000000000000000000000000000000000000000003"
          ],
          "data": "0x0000000000000000000000000000000000000000000000000000000000000001",
          "blockHash": "0x375eb51d86762707c4c0a2773493e88055db1cfed5761a63eec7231abad0d6b6",
          "blockNumber": "0x21",
          "blockTimestamp": "0x69d7b8ae",
          "transactionHash": "0x1ad97961eb8314593788400d5c50aa790491eef047d2133d782d7fb285357854",
          "transactionIndex": "0x0",
          "logIndex": "0x0",
          "removed": false
        }
      ],
      "logsBloom": "0x00000000000000000000000000000080000000000000000000000000000000000000000000000000000000000000000000000000020000000000000000000000000000000000000000000000000000000000000000000000000000000000000000000040000000000000000000000000000000000000000000000000000000000000000000000000000000000000000000000000000000000000000200000000000000000000000000000000000000000000000000800000000000000000400000000040000000000000000800000000000000000000000000000000000000000000000000000000000000000000000000000000000008000000000000000000",
      "type": "0x2",
      "transactionHash": "0x1ad97961eb8314593788400d5c50aa790491eef047d2133d782d7fb285357854",
      "transactionIndex": "0x0",
      "blockHash": "0x375eb51d86762707c4c0a2773493e88055db1cfed5761a63eec7231abad0d6b6",
      "blockNumber": "0x21",
      "gasUsed": "0x18ed8",
      "effectiveGasPrice": "0xf16c9a",
      "blobGasPrice": "0x1",
      "from": "0x90f79bf6eb2c4f870365e785982e1f101e93b906",
      "to": "0x5fbdb2315678afecb367f032d93f642f64180aa3",
      "contractAddress": null
    },
    {
      "status": "0x1",
      "cumulativeGasUsed": "0x5cef4",
      "logs": [
        {
          "address": "0x5fbdb2315678afecb367f032d93f642f64180aa3",
          "topics": [
            "0x529e5c9e24a307575814835cf69244181f51bc2ae08b95b8c8459d652a7ee9cf",
            "0x000000000000000000000000000000000000000000000000000000000000000f",
            "0x0000000000000000000000000000000000000000000000000000000000000003"
          ],
          "data": "0x000000000000000000000000000000000000000000000000000000000000000100000000000000000000000090f79bf6eb2c4f870365e785982e1f101e93b906",
          "blockHash": "0xbf278b4b8bb87ce44172fe2fdbb8938244c331d06d63d38b16d7e12f74c51f6b",
          "blockNumber": "0x22",
          "blockTimestamp": "0x69d7b8ae",
          "transactionHash": "0xb11066c422420f163e4e091e3b3de75c4857aa6a098915aaae0f0eb31309d24c",
          "transactionIndex": "0x0",
          "logIndex": "0x0",
          "removed": false
        }
      ],
      "logsBloom": "0x00000000000000000000000100000000000100000000000000000000000000000000000000000000000000000000000000000000020000000000000000000000000000000000000000000000000000000000200000000000000000000002000000000040000000000000000000000000000000000000000000000000000000000000000000000800000000000000000000000000000000000000000200000000000000000000000000000000000000000000000000800000000000000000400000000040000000000000000000000000000000000000000000000000000000000000000200000000000000000000000000000000000000000000000000000000",
      "type": "0x2",
      "transactionHash": "0xb11066c422420f163e4e091e3b3de75c4857aa6a098915aaae0f0eb31309d24c",
      "transactionIndex": "0x0",
      "blockHash": "0xbf278b4b8bb87ce44172fe2fdbb8938244c331d06d63d38b16d7e12f74c51f6b",
      "blockNumber": "0x22",
      "gasUsed": "0x5cef4",
      "effectiveGasPrice": "0xd3739e",
      "blobGasPrice": "0x1",
      "from": "0x90f79bf6eb2c4f870365e785982e1f101e93b906",
      "to": "0x5fbdb2315678afecb367f032d93f642f64180aa3",
      "contractAddress": null
    },
    {
      "status": "0x1",
      "cumulativeGasUsed": "0x140f4",
      "logs": [
        {
          "address": "0x5fbdb2315678afecb367f032d93f642f64180aa3",
          "topics": [
            "0x7c1c93f72f29b8a1fc6fc85eed990d133b1ffac80c962b521abb12f38f2ff9af",
            "0x0000000000000000000000000000000000000000000000000000000000000003"
          ],
          "data": "0x0000000000000000000000000000000000000000000000000000000000000001",
          "blockHash": "0x1035e27809141c5c692921168a7a68ae5604809967d42c40ac4a5de53b8b05f0",
          "blockNumber": "0x23",
          "blockTimestamp": "0x69d7b8ae",
          "transactionHash": "0x0e95899da2ebd3220711a2627e66378f95831eb1b263fc00c45ba006d8905f00",
          "transactionIndex": "0x0",
          "logIndex": "0x0",
          "removed": false
        }
      ],
      "logsBloom": "0x00000000000000000000000000000080000000000000000000000000000000000000000000000000000000000000000000000000020000000000000000000000000000000000000000000000000000000000000000000000000000000000000000000040000000000000000000000000000000000000000000000000000000000000000000000000000000000000000000000000000000000000000200000000000000000000000000000000000000000000000000800000000000000000400000000040000000000000000800000000000000000000000000000000000000000000000000000000000000000000000000000000000008000000000000000000",
      "type": "0x2",
      "transactionHash": "0x0e95899da2ebd3220711a2627e66378f95831eb1b263fc00c45ba006d8905f00",
      "transactionIndex": "0x0",
      "blockHash": "0x1035e27809141c5c692921168a7a68ae5604809967d42c40ac4a5de53b8b05f0",
      "blockNumber": "0x23",
      "gasUsed": "0x140f4",
      "effectiveGasPrice": "0xb9b0e2",
      "blobGasPrice": "0x1",
      "from": "0x3c44cdddb6a900fa2b585dd299e03d12fa4293bc",
      "to": "0x5fbdb2315678afecb367f032d93f642f64180aa3",
      "contractAddress": null
    },
    {
      "status": "0x1",
      "cumulativeGasUsed": "0x85839",
      "logs": [
        {
          "address": "0x5fbdb2315678afecb367f032d93f642f64180aa3",
          "topics": [
            "0xc2c9d0fa5caecea68b9ec6aca764014b01764f779d8a510f0d0d6796b76b7c83",
            "0x0000000000000000000000000000000000000000000000000000000000000001",
            "0x0000000000000000000000000000000000000000000000000000000000000003"
          ],
          "data": "0x0000000000000000000000000000000000000000000000000000000000000003",
          "blockHash": "0xdebf957145e333a263e6dc8cd0575faae82c408af479d5417f8dba0b017f1c1e",
          "blockNumber": "0x24",
          "blockTimestamp": "0x69d7b8ae",
          "transactionHash": "0xc21ae511b833391f195dcd9621a43d6d38c1c9a64defb29693f6c1ae143443ee",
          "transactionIndex": "0x0",
          "logIndex": "0x0",
          "removed": false
        },
        {
          "address": "0x5fbdb2315678afecb367f032d93f642f64180aa3",
          "topics": [
            "0x529e5c9e24a307575814835cf69244181f51bc2ae08b95b8c8459d652a7ee9cf",
            "0x0000000000000000000000000000000000000000000000000000000000000010",
            "0x0000000000000000000000000000000000000000000000000000000000000003"
          ],
          "data": "0x00000000000000000000000000000000000000000000000000000000000000020000000000000000000000003c44cdddb6a900fa2b585dd299e03d12fa4293bc",
          "blockHash": "0xdebf957145e333a263e6dc8cd0575faae82c408af479d5417f8dba0b017f1c1e",
          "blockNumber": "0x24",
          "blockTimestamp": "0x69d7b8ae",
          "transactionHash": "0xc21ae511b833391f195dcd9621a43d6d38c1c9a64defb29693f6c1ae143443ee",
          "transactionIndex": "0x0",
          "logIndex": "0x1",
          "removed": false
        }
      ],
      "logsBloom": "0x00000000100000000000000100000000000100000000000000000000000000000000000000000000000000000000000000000000020000000000000000040000000000000000000000000000000000000000200000040000000000000000000000001040000000001000000000000000000000000000000000000000040000000000000000000000000000000000000000000100000000000000000200000000000000000000000000000000000000080000000000800000000000000000400000000040000000000000000000000000000000000000000000000000000040000000000000000000000000000000000000000000000000000000000000000000",
      "type": "0x2",
      "transactionHash": "0xc21ae511b833391f195dcd9621a43d6d38c1c9a64defb29693f6c1ae143443ee",
      "transactionIndex": "0x0",
      "blockHash": "0xdebf957145e333a263e6dc8cd0575faae82c408af479d5417f8dba0b017f1c1e",
      "blockNumber": "0x24",
      "gasUsed": "0x85839",
      "effectiveGasPrice": "0xa29b53",
      "blobGasPrice": "0x1",
      "from": "0x3c44cdddb6a900fa2b585dd299e03d12fa4293bc",
      "to": "0x5fbdb2315678afecb367f032d93f642f64180aa3",
      "contractAddress": null
    },
    {
      "status": "0x1",
      "cumulativeGasUsed": "0x5cf78",
      "logs": [
        {
          "address": "0x5fbdb2315678afecb367f032d93f642f64180aa3",
          "topics": [
            "0x529e5c9e24a307575814835cf69244181f51bc2ae08b95b8c8459d652a7ee9cf",
            "0x0000000000000000000000000000000000000000000000000000000000000011",
            "0x0000000000000000000000000000000000000000000000000000000000000003"
          ],
          "data": "0x00000000000000000000000000000000000000000000000000000000000000020000000000000000000000003c44cdddb6a900fa2b585dd299e03d12fa4293bc",
          "blockHash": "0x4776778a8f383ccc281c58d20e46e8dfd76fb0ce412e60529f8415023167d0cb",
          "blockNumber": "0x25",
          "blockTimestamp": "0x69d7b8ae",
          "transactionHash": "0x402b3e3f0c95a26fd16952136cafd19fec1dcea23f9fa7c473a396dc29c28bd4",
          "transactionIndex": "0x0",
          "logIndex": "0x0",
          "removed": false
        }
      ],
      "logsBloom": "0x00000000000000000000000100000000000100000000000000000000000000000000000000000000000000000000000000000000020000000000000000000000000000000000000000000000000000000000200000000000000000000000000000000040000000000000000000000000000000004000000000000000000000000000000000000000000000000000000000000000000000000000000200000000000000000000000000000000000000000000000000800000000000000400400000001040000000000000000000000000000000000000000000000000000000000000000000000000000000000000000000000000000000000000000000000000",
      "type": "0x2",
      "transactionHash": "0x402b3e3f0c95a26fd16952136cafd19fec1dcea23f9fa7c473a396dc29c28bd4",
      "transactionIndex": "0x0",
      "blockHash": "0x4776778a8f383ccc281c58d20e46e8dfd76fb0ce412e60529f8415023167d0cb",
      "blockNumber": "0x25",
      "gasUsed": "0x5cf78",
      "effectiveGasPrice": "0x8f059e",
      "blobGasPrice": "0x1",
      "from": "0x3c44cdddb6a900fa2b585dd299e03d12fa4293bc",
      "to": "0x5fbdb2315678afecb367f032d93f642f64180aa3",
      "contractAddress": null
    },
    {
      "status": "0x1",
      "cumulativeGasUsed": "0x14c0c",
      "logs": [
        {
          "address": "0x5fbdb2315678afecb367f032d93f642f64180aa3",
          "topics": [
            "0x7c1c93f72f29b8a1fc6fc85eed990d133b1ffac80c962b521abb12f38f2ff9af",
            "0x0000000000000000000000000000000000000000000000000000000000000003"
          ],
          "data": "0x0000000000000000000000000000000000000000000000000000000000000002",
          "blockHash": "0x9e8d4f42f20086d9cc1c05520b833435f79791cf4006d27467b06722db96bb97",
          "blockNumber": "0x26",
          "blockTimestamp": "0x69d7b8ae",
          "transactionHash": "0xb473169c75ba288507fc189bf059b98419ab7d1d3c52a0f618e9718f8c5a3d6b",
          "transactionIndex": "0x0",
          "logIndex": "0x0",
          "removed": false
        }
      ],
      "logsBloom": "0x00000000000000000000000000000080000000000000000000000000000000000000000000000000000000000000000000000000020000000000000000000000000000000000000000000000000000000000000000000000000000000000000000000040000000000000000000000000000000000000000000000000000000000000000000000000000000000000000000000000000000000000000200000000000000000000000000000000000000000000000000800000000000000000400000000040000000000000000800000000000000000000000000000000000000000000000000000000000000000000000000000000000008000000000000000000",
      "type": "0x2",
      "transactionHash": "0xb473169c75ba288507fc189bf059b98419ab7d1d3c52a0f618e9718f8c5a3d6b",
      "transactionIndex": "0x0",
      "blockHash": "0x9e8d4f42f20086d9cc1c05520b833435f79791cf4006d27467b06722db96bb97",
      "blockNumber": "0x26",
      "gasUsed": "0x14c0c",
      "effectiveGasPrice": "0x7d991a",
      "blobGasPrice": "0x1",
      "from": "0x14dc79964da2c08b23698b3d3cc7ca32193d9955",
      "to": "0x5fbdb2315678afecb367f032d93f642f64180aa3",
      "contractAddress": null
    },
    {
      "status": "0x1",
      "cumulativeGasUsed": "0x86b78",
      "logs": [
        {
          "address": "0x5fbdb2315678afecb367f032d93f642f64180aa3",
          "topics": [
            "0xc2c9d0fa5caecea68b9ec6aca764014b01764f779d8a510f0d0d6796b76b7c83",
            "0x0000000000000000000000000000000000000000000000000000000000000002",
            "0x0000000000000000000000000000000000000000000000000000000000000003"
          ],
          "data": "0x0000000000000000000000000000000000000000000000000000000000000003",
          "blockHash": "0x468dcbf65d3aece2f5277450b6a2f35315cbd81e75a4e5c9b8d2c12e77e293df",
          "blockNumber": "0x27",
          "blockTimestamp": "0x69d7b8ae",
          "transactionHash": "0xf8d3bed3860d194584a36504192ec2344732d2b11953960180df1affe0b5d0e4",
          "transactionIndex": "0x0",
          "logIndex": "0x0",
          "removed": false
        },
        {
          "address": "0x5fbdb2315678afecb367f032d93f642f64180aa3",
          "topics": [
            "0x529e5c9e24a307575814835cf69244181f51bc2ae08b95b8c8459d652a7ee9cf",
            "0x0000000000000000000000000000000000000000000000000000000000000012",
            "0x0000000000000000000000000000000000000000000000000000000000000003"
          ],
          "data": "0x000000000000000000000000000000000000000000000000000000000000000100000000000000000000000014dc79964da2c08b23698b3d3cc7ca32193d9955",
          "blockHash": "0x468dcbf65d3aece2f5277450b6a2f35315cbd81e75a4e5c9b8d2c12e77e293df",
          "blockNumber": "0x27",
          "blockTimestamp": "0x69d7b8ae",
          "transactionHash": "0xf8d3bed3860d194584a36504192ec2344732d2b11953960180df1affe0b5d0e4",
          "transactionIndex": "0x0",
          "logIndex": "0x1",
          "removed": false
        }
      ],
      "logsBloom": "0x04000000000000000000000100000000000100000000000000000000000000000000000000000000000000000000000000000000020000000000000000000000000000000000000000000000000000000000200000000000000000000000000000001040000000001000000000000000000000000000000000000000000000000000000000000000000000000000040000000000000000000000000200000000000000000000000000000100000000080000000000800040000000000000400000000040000000000400000000000000000000000000000000000000000000000000000000000000000000000000000000000000008000000000000000000000",
      "type": "0x2",
      "transactionHash": "0xf8d3bed3860d194584a36504192ec2344732d2b11953960180df1affe0b5d0e4",
      "transactionIndex": "0x0",
      "blockHash": "0x468dcbf65d3aece2f5277450b6a2f35315cbd81e75a4e5c9b8d2c12e77e293df",
      "blockNumber": "0x27",
      "gasUsed": "0x86b78",
      "effectiveGasPrice": "0x6dfcbe",
      "blobGasPrice": "0x1",
      "from": "0x14dc79964da2c08b23698b3d3cc7ca32193d9955",
      "to": "0x5fbdb2315678afecb367f032d93f642f64180aa3",
      "contractAddress": null
    },
    {
      "status": "0x1",
      "cumulativeGasUsed": "0x5210b",
      "logs": [
        {
          "address": "0x5fbdb2315678afecb367f032d93f642f64180aa3",
          "topics": [
            "0x529e5c9e24a307575814835cf69244181f51bc2ae08b95b8c8459d652a7ee9cf",
            "0x0000000000000000000000000000000000000000000000000000000000000013",
            "0x0000000000000000000000000000000000000000000000000000000000000003"
          ],
          "data": "0x00000000000000000000000000000000000000000000000000000000000000020000000000000000000000003c44cdddb6a900fa2b585dd299e03d12fa4293bc",
          "blockHash": "0xbdf6d3af45f3bfb7c7f63c0e8e92d14c4c80e4f724de9c018011b78f69395c1a",
          "blockNumber": "0x28",
          "blockTimestamp": "0x69d7b8ae",
          "transactionHash": "0x7bc596118169d48df0784a0af3311a302b5db4135c34dc2df809a37517c106df",
          "transactionIndex": "0x0",
          "logIndex": "0x0",
          "removed": false
        }
      ],
      "logsBloom": "0x20000000000000000000000100800000000100000000000000000000000000000000000040000000000000000000000000000000020000000000000000000000000000000000000000000000000000000000200000000000000000000000000000000040000000000000000000000000000000000000000000000000000000000000000000000000000000000000000000000000000000000000000200000000000000000000000000000000000000000000000000800000000000000000400000000040000000000000000000000000000000000000000000000000000000000000000000000000000000000000000000000000000000000000000000000000",
      "type": "0x2",
      "transactionHash": "0x7bc596118169d48df0784a0af3311a302b5db4135c34dc2df809a37517c106df",
      "transactionIndex": "0x0",
      "blockHash": "0xbdf6d3af45f3bfb7c7f63c0e8e92d14c4c80e4f724de9c018011b78f69395c1a",
      "blockNumber": "0x28",
      "gasUsed": "0x5210b",
      "effectiveGasPrice": "0x60bea0",
      "blobGasPrice": "0x1",
      "from": "0x3c44cdddb6a900fa2b585dd299e03d12fa4293bc",
      "to": "0x5fbdb2315678afecb367f032d93f642f64180aa3",
      "contractAddress": null
    },
    {
      "status": "0x1",
      "cumulativeGasUsed": "0x9241",
      "logs": [
        {
          "address": "0x5fbdb2315678afecb367f032d93f642f64180aa3",
          "topics": [
            "0x7c1c93f72f29b8a1fc6fc85eed990d133b1ffac80c962b521abb12f38f2ff9af",
            "0x0000000000000000000000000000000000000000000000000000000000000003"
          ],
          "data": "0x0000000000000000000000000000000000000000000000000000000000000003",
          "blockHash": "0xe26e3d2045196cd9d5f97191f445d575fd832b5c5bb63d393d1850c05511b437",
          "blockNumber": "0x29",
          "blockTimestamp": "0x69d7b8ae",
          "transactionHash": "0x1f0fe43c6d6dbbc3116f8ff75acc6d7f43505a708715384fd67f27cae286a55b",
          "transactionIndex": "0x0",
          "logIndex": "0x0",
          "removed": false
        }
      ],
      "logsBloom": "0x00000000000000000000000000000080000000000000000000000000000000000000000000000000000000000000000000000000020000000000000000000000000000000000000000000000000000000000000000000000000000000000000000000040000000000000000000000000000000000000000000000000000000000000000000000000000000000000000000000000000000000000000200000000000000000000000000000000000000000000000000800000000000000000400000000040000000000000000800000000000000000000000000000000000000000000000000000000000000000000000000000000000008000000000000000000",
      "type": "0x2",
      "transactionHash": "0x1f0fe43c6d6dbbc3116f8ff75acc6d7f43505a708715384fd67f27cae286a55b",
      "transactionIndex": "0x0",
      "blockHash": "0xe26e3d2045196cd9d5f97191f445d575fd832b5c5bb63d393d1850c05511b437",
      "blockNumber": "0x29",
      "gasUsed": "0x9241",
      "effectiveGasPrice": "0x54ec2d",
      "blobGasPrice": "0x1",
      "from": "0x3c44cdddb6a900fa2b585dd299e03d12fa4293bc",
      "to": "0x5fbdb2315678afecb367f032d93f642f64180aa3",
      "contractAddress": null
    }
  ],
  "libraries": [],
  "pending": [],
  "returns": {},
  "timestamp": 1775745198891,
  "chain": 31337,
  "commit": "cde98ef9"
}