{
  "transactions": [
    {
      "hash": "0xf7656f9f1658be972f16ca0ab91168fe5895dc4296fd796872224eac9bbc23db",
      "transactionType": "CALL",
      "contractName": null,
      "contractAddress": "0x5fbdb2315678afecb367f032d93f642f64180aa3",
      "function": "createShipment(address,string,string,string,bool)",
      "arguments": [
        "0x15d34AAf54267DB7D7c367839AAf71A00a2C6A65",
        "Insulina Refrigerada - Lote INS-2024-077 - 200 unidades",
        "Bogota",
        "Medellin",
        "true"
      ],
      "transaction": {
        "from": "0x70997970c51812dc3a010c7d01b50e0d17dc79c8",
        "to": "0x5fbdb2315678afecb367f032d93f642f64180aa3",
        "gas": "0x8182f",
        "value": "0x0",
        "input": "0x475b6f9800000000000000000000000015d34aaf54267db7d7c367839aaf71a00a2c6a6500000000000000000000000000000000000000000000000000000000000000a00000000000000000000000000000000000000000000000000000000000000100000000000000000000000000000000000000000000000000000000000000014000000000000000000000000000000000000000000000000000000000000000010000000000000000000000000000000000000000000000000000000000000037496e73756c696e61205265667269676572616461202d204c6f746520494e532d323032342d303737202d2032303020756e6964616465730000000000000000000000000000000000000000000000000000000000000000000000000000000006426f676f7461000000000000000000000000000000000000000000000000000000000000000000000000000000000000000000000000000000000000000000084d6564656c6c696e000000000000000000000000000000000000000000000000",
        "nonce": "0x3",
        "chainId": "0x7a69"
      },
      "additionalContracts": [],
      "isFixedGasLimit": false
    },
    {
      "hash": "0x23d113736bedad6b046fe8ee0e22a731f9976980b214e8897c47c3cb9ca1ebf9",
      "transactionType": "CALL",
      "contractName": null,
      "contractAddress": "0x5fbdb2315678afecb367f032d93f642f64180aa3",
      "function": "recordCheckpoint(uint256,string,uint8,string,int256)",
      "arguments": [
        "3",
        "Laboratorio BioPharma - Bogota, Zona Industrial",
        "0",
        "Lote INS-2024-077 | 200 unidades | Temp camara origen: 4.2C | Embalaje termico OK | Resp: J. Martinez",
        "45"
      ],
      "transaction": {
        "from": "0x70997970c51812dc3a010c7d01b50e0d17dc79c8",
        "to": "0x5fbdb2315678afecb367f032d93f642f64180aa3",
        "gas": "0x7f754",
        "value": "0x0",
        "input": "0x0a7a0b69000000000000000000000000000000000000000000000000000000000000000300000000000000000000000000000000000000000000000000000000000000a000000000000000000000000000000000000000000000000000000000000000000000000000000000000000000000000000000000000000000000000000000100000000000000000000000000000000000000000000000000000000000000002d000000000000000000000000000000000000000000000000000000000000002f4c61626f7261746f72696f2042696f506861726d61202d20426f676f74612c205a6f6e6120496e647573747269616c000000000000000000000000000000000000000000000000000000000000000000000000000000000000000000000000654c6f746520494e532d323032342d303737207c2032303020756e696461646573207c2054656d702063616d617261206f726967656e3a20342e3243207c20456d62616c616a65207465726d69636f204f4b207c20526573703a204a2e204d617274696e657a000000000000000000000000000000000000000000000000000000",
        "nonce": "0x4",
        "chainId": "0x7a69"
      },
      "additionalContracts": [],
      "isFixedGasLimit": false
    },
    {
      "hash": "0x6ce498124ff16353139fbedcffdd0da27949eb994dc8c04b85d7fae99e4af19f",
      "transactionType": "CALL",
      "contractName": null,
      "contractAddress": "0x5fbdb2315678afecb367f032d93f642f64180aa3",
      "function": "updateShipmentStatus(uint256,uint8)",
      "arguments": [
        "3",
        "1"
      ],
      "transaction": {
        "from": "0x90f79bf6eb2c4f870365e785982e1f101e93b906",
        "to": "0x5fbdb2315678afecb367f032d93f642f64180aa3",
        "gas": "0x226e6",
        "value": "0x0",
        "input": "0x7defa92000000000000000000000000000000000000000000000000000000000000000030000000000000000000000000000000000000000000000000000000000000001",
        "nonce": "0x2",
        "chainId": "0x7a69"
      },
      "additionalContracts": [],
      "isFixedGasLimit": false
    },
    {
      "hash": "0xcc0b0f9295796d0a69462e29ab2df953ec39f27854dc72e50de01bdb31fed077",
      "transactionType": "CALL",
      "contractName": null,
      "contractAddress": "0x5fbdb2315678afecb367f032d93f642f64180aa3",
      "function": "recordCheckpoint(uint256,string,uint8,string,int256)",
      "arguments": [
        "3",
        "Hub Bogota Fontibon - Zona de Recepcion",
        "1",
        "Llegada: 11:10 | Embalaje termico: OK | Temp bodega fria: 3.5C | 200/200 unidades | Resp: C. Torres",
        "38"
      ],
      "transaction": {
        "from": "0x90f79bf6eb2c4f870365e785982e1f101e93b906",
        "to": "0x5fbdb2315678afecb367f032d93f642f64180aa3",
        "gas": "0x805da",
        "value": "0x0",
        "input": "0x0a7a0b69000000000000000000000000000000000000000000000000000000000000000300000000000000000000000000000000000000000000000000000000000000a0000000000000000000000000000000000000000000000000000000000000000100000000000000000000000000000000000000000000000000000000000001000000000000000000000000000000000000000000000000000000000000000026000000000000000000000000000000000000000000000000000000000000002748756220426f676f746120466f6e7469626f6e202d205a6f6e6120646520526563657063696f6e0000000000000000000000000000000000000000000000000000000000000000000000000000000000000000000000000000000000000000634c6c65676164613a2031313a3130207c20456d62616c616a65207465726d69636f3a204f4b207c2054656d7020626f6465676120667269613a20332e3543207c203230302f32303020756e696461646573207c20526573703a20432e20546f727265730000000000000000000000000000000000000000000000000000000000",
        "nonce": "0x3",
        "chainId": "0x7a69"
      },
      "additionalContracts": [],
      "isFixedGasLimit": false
    },
    {
      "hash": "0x304556d836eef86f52e8fb8db70e93d4095b9a0fb69933ada413e115af4966cb",
      "transactionType": "CALL",
      "contractName": null,
      "contractAddress": "0x5fbdb2315678afecb367f032d93f642f64180aa3",
      "function": "updateShipmentStatus(uint256,uint8)",
      "arguments": [
        "3",
        "1"
      ],
      "transaction": {
        "from": "0x3c44cdddb6a900fa2b585dd299e03d12fa4293bc",
        "to": "0x5fbdb2315678afecb367f032d93f642f64180aa3",
        "gas": "0x1bb50",
        "value": "0x0",
        "input": "0x7defa92000000000000000000000000000000000000000000000000000000000000000030000000000000000000000000000000000000000000000000000000000000001",
        "nonce": "0x5",
        "chainId": "0x7a69"
      },
      "additionalContracts": [],
      "isFixedGasLimit": false
    },
    {
      "hash": "0x67fe3f4d1ed6277d3e8f9b2d96d4ca6f04cc07864f9044d74669f4e7cb0e6082",
      "transactionType": "CALL",
      "contractName": null,
      "contractAddress": "0x5fbdb2315678afecb367f032d93f642f64180aa3",
      "function": "recordCheckpoint(uint256,string,uint8,string,int256)",
      "arguments": [
        "3",
        "Autopista Bogota-Medellin, km 87 - Estacion de Servicio El Sisga",
        "2",
        "ALERTA: Temperatura elevada | Parada no autorizada 25 min | Puerta abierta detectada | Precinto SP-771: OK | Conductor: R. Gomez",
        "95"
      ],
      "transaction": {
        "from": "0x3c44cdddb6a900fa2b585dd299e03d12fa4293bc",
        "to": "0x5fbdb2315678afecb367f032d93f642f64180aa3",
        "gas": "0xc3439",
        "value": "0x0",
        "input": "0x0a7a0b69000000000000000000000000000000000000000000000000000000000000000300000000000000000000000000000000000000000000000000000000000000a000000000000000000000000000000000000000000000000000000000000000020000000000000000000000000000000000000000000000000000000000000100000000000000000000000000000000000000000000000000000000000000005f00000000000000000000000000000000000000000000000000000000000000404175746f706973746120426f676f74612d4d6564656c6c696e2c206b6d203837202d204573746163696f6e20646520536572766963696f20456c2053697367610000000000000000000000000000000000000000000000000000000000000080414c455254413a2054656d706572617475726120656c6576616461207c20506172616461206e6f206175746f72697a616461203235206d696e207c20507565727461206162696572746120646574656374616461207c2050726563696e746f2053502d3737313a204f4b207c20436f6e647563746f723a20522e20476f6d657a",
        "nonce": "0x6",
        "chainId": "0x7a69"
      },
      "additionalContracts": [],
      "isFixedGasLimit": false
    },
    {
      "hash": "0xaf79188a57fe2fa76f5b03f120442c770665cd5e4f0fe3e3be0f6abdfa432302",
      "transactionType": "CALL",
      "contractName": null,
      "contractAddress": "0x5fbdb2315678afecb367f032d93f642f64180aa3",
      "function": "recordCheckpoint(uint256,string,uint8,string,int256)",
      "arguments": [
        "3",
        "Autopista Bogota-Medellin, km 142 - Peaje La Ye",
        "2",
        "Temperatura recuperada tras incidente | Equipo de frio reactivado | Precinto SP-771: OK | 200 unidades",
        "50"
      ],
      "transaction": {
        "from": "0x3c44cdddb6a900fa2b585dd299e03d12fa4293bc",
        "to": "0x5fbdb2315678afecb367f032d93f642f64180aa3",
        "gas": "0x80690",
        "value": "0x0",
        "input": "0x0a7a0b69000000000000000000000000000000000000000000000000000000000000000300000000000000000000000000000000000000000000000000000000000000a0000000000000000000000000000000000000000000000000000000000000000200000000000000000000000000000000000000000000000000000000000001000000000000000000000000000000000000000000000000000000000000000032000000000000000000000000000000000000000000000000000000000000002f4175746f706973746120426f676f74612d4d6564656c6c696e2c206b6d20313432202d205065616a65204c612059650000000000000000000000000000000000000000000000000000000000000000000000000000000000000000000000006654656d70657261747572612072656375706572616461207472617320696e636964656e7465207c2045717569706f206465206672696f207265616374697661646f207c2050726563696e746f2053502d3737313a204f4b207c2032303020756e6964616465730000000000000000000000000000000000000000000000000000",
        "nonce": "0x7",
        "chainId": "0x7a69"
      },
      "additionalContracts": [],
      "isFixedGasLimit": false
    },
    {
      "hash": "0xa44cbef6b335436ced63e0883d191728564fda3af944befb6a4437eb363886be",
      "transactionType": "CALL",
      "contractName": null,
      "contractAddress": "0x5fbdb2315678afecb367f032d93f642f64180aa3",
      "function": "updateShipmentStatus(uint256,uint8)",
      "arguments": [
        "3",
        "2"
      ],
      "transaction": {
        "from": "0x14dc79964da2c08b23698b3d3cc7ca32193d9955",
        "to": "0x5fbdb2315678afecb367f032d93f642f64180aa3",
        "gas": "0x1caa2",
        "value": "0x0",
        "input": "0x7defa92000000000000000000000000000000000000000000000000000000000000000030000000000000000000000000000000000000000000000000000000000000002",
        "nonce": "0x2",
        "chainId": "0x7a69"
      },
      "additionalContracts": [],
      "isFixedGasLimit": false
    },
    {
      "hash": "0xf090d3359ce389672e73cfed30bd091205312ad5a6d775ea6f6a06d8dc06bc57",
      "transactionType": "CALL",
      "contractName": null,
      "contractAddress": "0x5fbdb2315678afecb367f032d93f642f64180aa3",
      "function": "recordCheckpoint(uint256,string,uint8,string,int256)",
      "arguments": [
        "3",
        "Hub Medellin Itagui - Camara Fria C2",
        "1",
        "ALERTA: Temperatura bajo minimo | Falla termostato camara C2 | Producto trasladado a camara C3 | Resp: A. Rios | Mantenimiento notificado",
        "12"
      ],
      "transaction": {
        "from": "0x14dc79964da2c08b23698b3d3cc7ca32193d9955",
        "to": "0x5fbdb2315678afecb367f032d93f642f64180aa3",
        "gas": "0xba13d",
        "value": "0x0",
        "input": "0x0a7a0b69000000000000000000000000000000000000000000000000000000000000000300000000000000000000000000000000000000000000000000000000000000a000000000000000000000000000000000000000000000000000000000000000010000000000000000000000000000000000000000000000000000000000000100000000000000000000000000000000000000000000000000000000000000000c0000000000000000000000000000000000000000000000000000000000000024487562204d6564656c6c696e20497461677569202d2043616d6172612046726961204332000000000000000000000000000000000000000000000000000000000000000000000000000000000000000000000000000000000000000000000089414c455254413a2054656d70657261747572612062616a6f206d696e696d6f207c2046616c6c61207465726d6f737461746f2063616d617261204332207c2050726f647563746f20747261736c616461646f20612063616d617261204333207c20526573703a20412e2052696f73207c204d616e74656e696d69656e746f206e6f746966696361646f0000000000000000000000000000000000000000000000",
        "nonce": "0x3",
        "chainId": "0x7a69"
      },
      "additionalContracts": [],
      "isFixedGasLimit": false
    },
    {
      "hash": "0x694e399b08c38088b1b1f4c07498c96daf0ffbf48e03acecca0151f1d52e2242",
      "transactionType": "CALL",
      "contractName": null,
      "contractAddress": "0x5fbdb2315678afecb367f032d93f642f64180aa3",
      "function": "recordCheckpoint(uint256,string,uint8,string,int256)",
      "arguments": [
        "3",
        "Hub Medellin Itagui - Bahia 4",
        "2",
        "Temperatura normalizada | Camara C3: 4.0C | Veh: VAN-291 | Precinto nuevo: SP-882 | 200 unidades | ETA: 09:30",
        "42"
      ],
      "transaction": {
        "from": "0x3c44cdddb6a900fa2b585dd299e03d12fa4293bc",
        "to": "0x5fbdb2315678afecb367f032d93f642f64180aa3",
        "gas": "0x78052",
        "value": "0x0",
        "input": "0x0a7a0b69000000000000000000000000000000000000000000000000000000000000000300000000000000000000000000000000000000000000000000000000000000a0000000000000000000000000000000000000000000000000000000000000000200000000000000000000000000000000000000000000000000000000000000e0000000000000000000000000000000000000000000000000000000000000002a000000000000000000000000000000000000000000000000000000000000001d487562204d6564656c6c696e20497461677569202d2042616869612034000000000000000000000000000000000000000000000000000000000000000000006d54656d7065726174757261206e6f726d616c697a616461207c2043616d6172612043333a20342e3043207c205665683a2056414e2d323931207c2050726563696e746f206e7565766f3a2053502d383832207c2032303020756e696461646573207c204554413a2030393a333000000000000000000000000000000000000000",
        "nonce": "0x8",
        "chainId": "0x7a69"
      },
      "additionalContracts": [],
      "isFixedGasLimit": false
    },
    {
      "hash": "0x223272be1566d7f8411806d9376d4e99f645c17815f47c417ec69ee92837a6a7",
      "transactionType": "CALL",
      "contractName": null,
      "contractAddress": "0x5fbdb2315678afecb367f032d93f642f64180aa3",
      "function": "updateShipmentStatus(uint256,uint8)",
      "arguments": [
        "3",
        "3"
      ],
      "transaction": {
        "from": "0x3c44cdddb6a900fa2b585dd299e03d12fa4293bc",
        "to": "0x5fbdb2315678afecb367f032d93f642f64180aa3",
        "gas": "0xd5e5",
        "value": "0x0",
        "input": "0x7defa92000000000000000000000000000000000000000000000000000000000000000030000000000000000000000000000000000000000000000000000000000000003",
        "nonce": "0x9",
        "chainId": "0x7a69"
      },
      "additionalContracts": [],
      "isFixedGasLimit": false
    }
  ],
  "receipts": [
    {
      "status": "0x1",
      "cumulativeGasUsed": "0x588e1",
      "logs": [
        {
          "address": "0x5fbdb2315678afecb367f032d93f642f64180aa3",
          "topics": [
            "0x8fb6b855d6cbdf201f2fcaadbf8c38d36168ff7d2ca865cb2599abcd5a060e8f",
            "0x0000000000000000000000000000000000000000000000000000000000000003",
            "0x00000000000000000000000070997970c51812dc3a010c7d01b50e0d17dc79c8",
            "0x00000000000000000000000015d34aaf54267db7d7c367839aaf71a00a2c6a65"
          ],
          "data": "0x00000000000000000000000000000000000000000000000000000000000000200000000000000000000000000000000000000000000000000000000000000037496e73756c696e61205265667269676572616461202d204c6f746520494e532d323032342d303737202d2032303020756e696461646573000000000000000000",
          "blockHash": "0x3242796693c210e5ba374da2d0459aef0792b7ade03557aeaac4320a9551166f",
          "blockNumber": "0x14",
          "blockTimestamp": "0x69c13fc3",
          "transactionHash": "0xf7656f9f1658be972f16ca0ab91168fe5895dc4296fd796872224eac9bbc23db",
          "transactionIndex": "0x0",
          "logIndex": "0x0",
          "removed": false
        }
      ],
      "logsBloom": "0x00000000040000000002000000000000000000000000000000000000000000000000000000000000000000000000000000000000020000000000000000000000000000000000000000000000000000000000000000000000000000000000000000000840000000000000000000000000000000000000000000000000000000000000000000000000000000000000000000000200000000000000000300000000000000000000000000000000000000000000000000800000000000000000400000000040000000000000000040000000000000000000000000000000000004000000000000000000000000000000000001004000000000000000000000000000",
      "type": "0x2",
      "transactionHash": "0xf7656f9f1658be972f16ca0ab91168fe5895dc4296fd796872224eac9bbc23db",
      "transactionIndex": "0x0",
      "blockHash": "0x3242796693c210e5ba374da2d0459aef0792b7ade03557aeaac4320a9551166f",
      "blockNumber": "0x14",
      "gasUsed": "0x588e1",
      "effectiveGasPrice": "0x52dc3d5",
      "blobGasPrice": "0x1",
      "from": "0x70997970c51812dc3a010c7d01b50e0d17dc79c8",
      "to": "0x5fbdb2315678afecb367f032d93f642f64180aa3",
      "contractAddress": null
    },
    {
      "status": "0x1",
      "cumulativeGasUsed": "0x5c470",
      "logs": [
        {
          "address": "0x5fbdb2315678afecb367f032d93f642f64180aa3",
          "topics": [
            "0x529e5c9e24a307575814835cf69244181f51bc2ae08b95b8c8459d652a7ee9cf",
            "0x0000000000000000000000000000000000000000000000000000000000000007",
            "0x0000000000000000000000000000000000000000000000000000000000000003"
          ],
          "data": "0x000000000000000000000000000000000000000000000000000000000000000000000000000000000000000070997970c51812dc3a010c7d01b50e0d17dc79c8",
          "blockHash": "0xb7919253251669eeca8a2553a086f7d178cc28b804772cb54d1dc7568c4dd626",
          "blockNumber": "0x15",
          "blockTimestamp": "0x69c13fc3",
          "transactionHash": "0x23d113736bedad6b046fe8ee0e22a731f9976980b214e8897c47c3cb9ca1ebf9",
          "transactionIndex": "0x0",
          "logIndex": "0x0",
          "removed": false
        }
      ],
      "logsBloom": "0x00000000000000000000000100000000000100000000000000000000000000000000000000000000000000000000000000001000020000000000000000000000000020000000000000000000000000000000200000000000000000000000000000000040000000000000000000000000000000000000000000000000000000000000000000000000000000000000000000000000000000000000000200000000000000000000000000000000000000000000000000800000000000000000400000000040000000000000000000000000000000000000000000000100000000000000000000000000000000000000000000000000000000000000000000000000",
      "type": "0x2",
      "transactionHash": "0x23d113736bedad6b046fe8ee0e22a731f9976980b214e8897c47c3cb9ca1ebf9",
      "transactionIndex": "0x0",
      "blockHash": "0xb7919253251669eeca8a2553a086f7d178cc28b804772cb54d1dc7568c4dd626",
      "blockNumber": "0x15",
      "gasUsed": "0x5c470",
      "effectiveGasPrice": "0x48c0d3d",
      "blobGasPrice": "0x1",
      "from": "0x70997970c51812dc3a010c7d01b50e0d17dc79c8",
      "to": "0x5fbdb2315678afecb367f032d93f642f64180aa3",
      "contractAddress": null
    },
    {
      "status": "0x1",
      "cumulativeGasUsed": "0x18ed8",
      "logs": [
        {
          "address": "0x5fbdb2315678afecb367f032d93f642f64180aa3",
          "topics": [
            "0x7c1c93f72f29b8a1fc6fc85eed990d133b1ffac80c962b521abb12f38f2ff9af",
            "0x0000000000000000000000000000000000000000000000000000000000000003"
          ],
          "data": "0x0000000000000000000000000000000000000000000000000000000000000001",
          "blockHash": "0xf0e361a9a581a762ad6973ee62a4ba36399b97ae9aaffc63730cd8aa9a160157",
          "blockNumber": "0x16",
          "blockTimestamp": "0x69c13fc3",
          "transactionHash": "0x6ce498124ff16353139fbedcffdd0da27949eb994dc8c04b85d7fae99e4af19f",
          "transactionIndex": "0x0",
          "logIndex": "0x0",
          "removed": false
        }
      ],
      "logsBloom": "0x00000000000000000000000000000080000000000000000000000000000000000000000000000000000000000000000000000000020000000000000000000000000000000000000000000000000000000000000000000000000000000000000000000040000000000000000000000000000000000000000000000000000000000000000000000000000000000000000000000000000000000000000200000000000000000000000000000000000000000000000000800000000000000000400000000040000000000000000800000000000000000000000000000000000000000000000000000000000000000000000000000000000008000000000000000000",
      "type": "0x2",
      "transactionHash": "0x6ce498124ff16353139fbedcffdd0da27949eb994dc8c04b85d7fae99e4af19f",
      "transactionIndex": "0x0",
      "blockHash": "0xf0e361a9a581a762ad6973ee62a4ba36399b97ae9aaffc63730cd8aa9a160157",
      "blockNumber": "0x16",
      "gasUsed": "0x18ed8",
      "effectiveGasPrice": "0x3fe3633",
      "blobGasPrice": "0x1",
      "from": "0x90f79bf6eb2c4f870365e785982e1f101e93b906",
      "to": "0x5fbdb2315678afecb367f032d93f642f64180aa3",
      "contractAddress": null
    },
    {
      "status": "0x1",
      "cumulativeGasUsed": "0x5cef4",
      "logs": [
        {
          "address": "0x5fbdb2315678afecb367f032d93f642f64180aa3",
          "topics": [
            "0x529e5c9e24a307575814835cf69244181f51bc2ae08b95b8c8459d652a7ee9cf",
            "0x0000000000000000000000000000000000000000000000000000000000000008",
            "0x0000000000000000000000000000000000000000000000000000000000000003"
          ],
          "data": "0x000000000000000000000000000000000000000000000000000000000000000100000000000000000000000090f79bf6eb2c4f870365e785982e1f101e93b906",
          "blockHash": "0xd281a22ce499af224773bab9cf01877a3e7c0b68ead99c371f170634bad3d9e3",
          "blockNumber": "0x17",
          "blockTimestamp": "0x69c13fc3",
          "transactionHash": "0xcc0b0f9295796d0a69462e29ab2df953ec39f27854dc72e50de01bdb31fed077",
          "transactionIndex": "0x0",
          "logIndex": "0x0",
          "removed": false
        }
      ],
      "logsBloom": "0x00000000000000000000000100000000000100000000000000000000000000000000000000000000000000000000000000000000020080000000000000000000000000000000000000000000000000000000200000000000000000000000000000000040000000000000000000000000000000000000000000000000000000000080000000000000000000000000000000000000000000000000000200000000000000000000000000000000000000000000000000800000000000000000400040000040000000000000000000000000000000000000000000000000000000000000000000000000000000000000000000000000000000000000000000000000",
      "type": "0x2",
      "transactionHash": "0xcc0b0f9295796d0a69462e29ab2df953ec39f27854dc72e50de01bdb31fed077",
      "transactionIndex": "0x0",
      "blockHash": "0xd281a22ce499af224773bab9cf01877a3e7c0b68ead99c371f170634bad3d9e3",
      "blockNumber": "0x17",
      "gasUsed": "0x5cef4",
      "effectiveGasPrice": "0x37f4e16",
      "blobGasPrice": "0x1",
      "from": "0x90f79bf6eb2c4f870365e785982e1f101e93b906",
      "to": "0x5fbdb2315678afecb367f032d93f642f64180aa3",
      "contractAddress": null
    },
    {
      "status": "0x1",
      "cumulativeGasUsed": "0x140f4",
      "logs": [
        {
          "address": "0x5fbdb2315678afecb367f032d93f642f64180aa3",
          "topics": [
            "0x7c1c93f72f29b8a1fc6fc85eed990d133b1ffac80c962b521abb12f38f2ff9af",
            "0x0000000000000000000000000000000000000000000000000000000000000003"
          ],
          "data": "0x0000000000000000000000000000000000000000000000000000000000000001",
          "blockHash": "0x14a4217d846246c5dd83c24f2fce4fb8b8ab0022d9e9ede5a695a3ab21a88598",
          "blockNumber": "0x18",
          "blockTimestamp": "0x69c13fc3",
          "transactionHash": "0x304556d836eef86f52e8fb8db70e93d4095b9a0fb69933ada413e115af4966cb",
          "transactionIndex": "0x0",
          "logIndex": "0x0",
          "removed": false
        }
      ],
      "logsBloom": "0x00000000000000000000000000000080000000000000000000000000000000000000000000000000000000000000000000000000020000000000000000000000000000000000000000000000000000000000000000000000000000000000000000000040000000000000000000000000000000000000000000000000000000000000000000000000000000000000000000000000000000000000000200000000000000000000000000000000000000000000000000800000000000000000400000000040000000000000000800000000000000000000000000000000000000000000000000000000000000000000000000000000000008000000000000000000",
      "type": "0x2",
      "transactionHash": "0x304556d836eef86f52e8fb8db70e93d4095b9a0fb69933ada413e115af4966cb",
      "transactionIndex": "0x0",
      "blockHash": "0x14a4217d846246c5dd83c24f2fce4fb8b8ab0022d9e9ede5a695a3ab21a88598",
      "blockNumber": "0x18",
      "gasUsed": "0x140f4",
      "effectiveGasPrice": "0x3123b62",
      "blobGasPrice": "0x1",
      "from": "0x3c44cdddb6a900fa2b585dd299e03d12fa4293bc",
      "to": "0x5fbdb2315678afecb367f032d93f642f64180aa3",
      "contractAddress": null
    },
    {
      "status": "0x1",
      "cumulativeGasUsed": "0x85839",
      "logs": [
        {
          "address": "0x5fbdb2315678afecb367f032d93f642f64180aa3",
          "topics": [
            "0xc2c9d0fa5caecea68b9ec6aca764014b01764f779d8a510f0d0d6796b76b7c83",
            "0x0000000000000000000000000000000000000000000000000000000000000001",
            "0x0000000000000000000000000000000000000000000000000000000000000003"
          ],
          "data": "0x0000000000000000000000000000000000000000000000000000000000000003",
          "blockHash": "0x5e260bc05e610688e28c33238cb3404e3ee54bbf70ad73aeeae742aeb651cf81",
          "blockNumber": "0x19",
          "blockTimestamp": "0x69c13fc3",
          "transactionHash": "0x67fe3f4d1ed6277d3e8f9b2d96d4ca6f04cc07864f9044d74669f4e7cb0e6082",
          "transactionIndex": "0x0",
          "logIndex": "0x0",
          "removed": false
        },
        {
          "address": "0x5fbdb2315678afecb367f032d93f642f64180aa3",
          "topics": [
            "0x529e5c9e24a307575814835cf69244181f51bc2ae08b95b8c8459d652a7ee9cf",
            "0x0000000000000000000000000000000000000000000000000000000000000009",
            "0x0000000000000000000000000000000000000000000000000000000000000003"
          ],
          "data": "0x00000000000000000000000000000000000000000000000000000000000000020000000000000000000000003c44cdddb6a900fa2b585dd299e03d12fa4293bc",
          "blockHash": "0x5e260bc05e610688e28c33238cb3404e3ee54bbf70ad73aeeae742aeb651cf81",
          "blockNumber": "0x19",
          "blockTimestamp": "0x69c13fc3",
          "transactionHash": "0x67fe3f4d1ed6277d3e8f9b2d96d4ca6f04cc07864f9044d74669f4e7cb0e6082",
          "transactionIndex": "0x0",
          "logIndex": "0x1",
          "removed": false
        }
      ],
      "logsBloom": "0x00000000000000000000000100000000000100000000000000000000000000000000000000000000000000000000000000000000020000000000000000240000000000000000000000000000000000000000200000040000000000000000000000001040000000001000000000000000000000000000000000000000000000000000000000000000000000000000000000001000000000000000000200000000000000000000000000000000000000080000000000800000000000000000400000000040000000000000000000000000000000000000000000000000000040000000000000000000000000000000000000000000000000000000000000800000",
      "type": "0x2",
      "transactionHash": "0x67fe3f4d1ed6277d3e8f9b2d96d4ca6f04cc07864f9044d74669f4e7cb0e6082",
      "transactionIndex": "0x0",
      "blockHash": "0x5e260bc05e610688e28c33238cb3404e3ee54bbf70ad73aeeae742aeb651cf81",
      "blockNumber": "0x19",
      "gasUsed": "0x85839",
      "effectiveGasPrice": "0x2b07dc7",
      "blobGasPrice": "0x1",
      "from": "0x3c44cdddb6a900fa2b585dd299e03d12fa4293bc",
      "to": "0x5fbdb2315678afecb367f032d93f642f64180aa3",
      "contractAddress": null
    },
    {
      "status": "0x1",
      "cumulativeGasUsed": "0x5cf78",
      "logs": [
        {
          "address": "0x5fbdb2315678afecb367f032d93f642f64180aa3",
          "topics": [
            "0x529e5c9e24a307575814835cf69244181f51bc2ae08b95b8c8459d652a7ee9cf",
            "0x000000000000000000000000000000000000000000000000000000000000000a",
            "0x0000000000000000000000000000000000000000000000000000000000000003"
          ],
          "data": "0x00000000000000000000000000000000000000000000000000000000000000020000000000000000000000003c44cdddb6a900fa2b585dd299e03d12fa4293bc",
          "blockHash": "0x927336d941fc4a021cbd097e0b0a903304cb37f6b36b35bcef460b41bbd866ae",
          "blockNumber": "0x1a",
          "blockTimestamp": "0x69c13fc3",
          "transactionHash": "0xaf79188a57fe2fa76f5b03f120442c770665cd5e4f0fe3e3be0f6abdfa432302",
          "transactionIndex": "0x0",
          "logIndex": "0x0",
          "removed": false
        }
      ],
      "logsBloom": "0x00000000000000000000000100000000000100000000000000000000000000000000000000000000000000000000000000000000060000000020000000000000000000000000000000000000000000000000200000000000000000000000000000000040000000000000000000000000000000000000000000000000000000000000000000000000010000000000000000000000000000000000000200000000000000000000000000000000000000000000000000800000000000000000400000000040000000000000000000000000000000000000000000000000000000000000000000000000000000000000000000000000000000000000000000000000",
      "type": "0x2",
      "transactionHash": "0xaf79188a57fe2fa76f5b03f120442c770665cd5e4f0fe3e3be0f6abdfa432302",
      "transactionIndex": "0x0",
      "blockHash": "0x927336d941fc4a021cbd097e0b0a903304cb37f6b36b35bcef460b41bbd866ae",
      "blockNumber": "0x1a",
      "gasUsed": "0x5cf78",
      "effectiveGasPrice": "0x25d914b",
      "blobGasPrice": "0x1",
      "from": "0x3c44cdddb6a900fa2b585dd299e03d12fa4293bc",
      "to": "0x5fbdb2315678afecb367f032d93f642f64180aa3",
      "contractAddress": null
    },
    {
      "status": "0x1",
      "cumulativeGasUsed": "0x14c0c",
      "logs": [
        {
          "address": "0x5fbdb2315678afecb367f032d93f642f64180aa3",
          "topics": [
            "0x7c1c93f72f29b8a1fc6fc85eed990d133b1ffac80c962b521abb12f38f2ff9af",
            "0x0000000000000000000000000000000000000000000000000000000000000003"
          ],
          "data": "0x0000000000000000000000000000000000000000000000000000000000000002",
          "blockHash": "0xe3ee072e8af70c1e935996b80cdeccf5b79305493c46ac17f26e0d5ee4a3faf8",
          "blockNumber": "0x1b",
          "blockTimestamp": "0x69c13fc3",
          "transactionHash": "0xa44cbef6b335436ced63e0883d191728564fda3af944befb6a4437eb363886be",
          "transactionIndex": "0x0",
          "logIndex": "0x0",
          "removed": false
        }
      ],
      "logsBloom": "0x00000000000000000000000000000080000000000000000000000000000000000000000000000000000000000000000000000000020000000000000000000000000000000000000000000000000000000000000000000000000000000000000000000040000000000000000000000000000000000000000000000000000000000000000000000000000000000000000000000000000000000000000200000000000000000000000000000000000000000000000000800000000000000000400000000040000000000000000800000000000000000000000000000000000000000000000000000000000000000000000000000000000008000000000000000000",
      "type": "0x2",
      "transactionHash": "0xa44cbef6b335436ced63e0883d191728564fda3af944befb6a4437eb363886be",
      "transactionIndex": "0x0",
      "blockHash": "0xe3ee072e8af70c1e935996b80cdeccf5b79305493c46ac17f26e0d5ee4a3faf8",
      "blockNumber": "0x1b",
      "gasUsed": "0x14c0c",
      "effectiveGasPrice": "0x213cb12",
      "blobGasPrice": "0x1",
      "from": "0x14dc79964da2c08b23698b3d3cc7ca32193d9955",
      "to": "0x5fbdb2315678afecb367f032d93f642f64180aa3",
      "contractAddress": null
    },
    {
      "status": "0x1",
      "cumulativeGasUsed": "0x86b78",
      "logs": [
        {
          "address": "0x5fbdb2315678afecb367f032d93f642f64180aa3",
          "topics": [
            "0xc2c9d0fa5caecea68b9ec6aca764014b01764f779d8a510f0d0d6796b76b7c83",
            "0x0000000000000000000000000000000000000000000000000000000000000002",
            "0x0000000000000000000000000000000000000000000000000000000000000003"
          ],
          "data": "0x0000000000000000000000000000000000000000000000000000000000000003",
          "blockHash": "0x4fcf17f47e7e81d71315c03cc9aa266e065fb4e8b31a5121bcb148fb0e28014c",
          "blockNumber": "0x1c",
          "blockTimestamp": "0x69c13fc3",
          "transactionHash": "0xf090d3359ce389672e73cfed30bd091205312ad5a6d775ea6f6a06d8dc06bc57",
          "transactionIndex": "0x0",
          "logIndex": "0x0",
          "removed": false
        },
        {
          "address": "0x5fbdb2315678afecb367f032d93f642f64180aa3",
          "topics": [
            "0x529e5c9e24a307575814835cf69244181f51bc2ae08b95b8c8459d652a7ee9cf",
            "0x000000000000000000000000000000000000000000000000000000000000000b",
            "0x0000000000000000000000000000000000000000000000000000000000000003"
          ],
          "data": "0x000000000000000000000000000000000000000000000000000000000000000100000000000000000000000014dc79964da2c08b23698b3d3cc7ca32193d9955",
          "blockHash": "0x4fcf17f47e7e81d71315c03cc9aa266e065fb4e8b31a5121bcb148fb0e28014c",
          "blockNumber": "0x1c",
          "blockTimestamp": "0x69c13fc3",
          "transactionHash": "0xf090d3359ce389672e73cfed30bd091205312ad5a6d775ea6f6a06d8dc06bc57",
          "transactionIndex": "0x0",
          "logIndex": "0x1",
          "removed": false
        }
      ],
      "logsBloom": "0x04000000000000000000004100000000000100000000000000000000000000000000000000000000000000000000000000000000020000000000000000000000000000000000000000000000000000000000200000000000000000000000000000001040000000001000000000000000000000000000000000000000000000000000000000000000000000000000000000000000000000000000000200000000000000000000000000000100000000080000000000800000000000000000400000000040000000000000000000000000002000000000000000000000000000000000000000000000000000000000000000000000008000040000000000000000",
      "type": "0x2",
      "transactionHash": "0xf090d3359ce389672e73cfed30bd091205312ad5a6d775ea6f6a06d8dc06bc57",
      "transactionIndex": "0x0",
      "blockHash": "0x4fcf17f47e7e81d71315c03cc9aa266e065fb4e8b31a5121bcb148fb0e28014c",
      "blockNumber": "0x1c",
      "gasUsed": "0x86b78",
      "effectiveGasPrice": "0x1d1b220",
      "blobGasPrice": "0x1",
      "from": "0x14dc79964da2c08b23698b3d3cc7ca32193d9955",
      "to": "0x5fbdb2315678afecb367f032d93f642f64180aa3",
      "contractAddress": null
    },
    {
      "status": "0x1",
      "cumulativeGasUsed": "0x5210b",
      "logs": [
        {
          "address": "0x5fbdb2315678afecb367f032d93f642f64180aa3",
          "topics": [
            "0x529e5c9e24a307575814835cf69244181f51bc2ae08b95b8c8459d652a7ee9cf",
            "0x000000000000000000000000000000000000000000000000000000000000000c",
            "0x0000000000000000000000000000000000000000000000000000000000000003"
          ],
          "data": "0x00000000000000000000000000000000000000000000000000000000000000020000000000000000000000003c44cdddb6a900fa2b585dd299e03d12fa4293bc",
          "blockHash": "0x596f55d3aa1065cf908b1e003327c3f9891b94ba549575d6369f6ed39b8d7ca5",
          "blockNumber": "0x1d",
          "blockTimestamp": "0x69c13fc3",
          "transactionHash": "0x694e399b08c38088b1b1f4c07498c96daf0ffbf48e03acecca0151f1d52e2242",
          "transactionIndex": "0x0",
          "logIndex": "0x0",
          "removed": false
        }
      ],
      "logsBloom": "0x00000000000000000000000100000000000102000000000000000000000000000000000000000200000000000000000000000000020000000000000000000000000000000000000000000000000000000000200000000000000000000000000000000040000000000000000000000000000000000000000000000000000000000000000000000000000000000000000000000000000000000000000200000000000000000000000000000000000000000000000000800000000000000000400000000040000000000000000000000000000000000000000000000000000000200000000000000000000000000000000000000000000000000000000000000000",
      "type": "0x2",
      "transactionHash": "0x694e399b08c38088b1b1f4c07498c96daf0ffbf48e03acecca0151f1d52e2242",
      "transactionIndex": "0x0",
      "blockHash": "0x596f55d3aa1065cf908b1e003327c3f9891b94ba549575d6369f6ed39b8d7ca5",
      "blockNumber": "0x1d",
      "gasUsed": "0x5210b",
      "effectiveGasPrice": "0x199a011",
      "blobGasPrice": "0x1",
      "from": "0x3c44cdddb6a900fa2b585dd299e03d12fa4293bc",
      "to": "0x5fbdb2315678afecb367f032d93f642f64180aa3",
      "contractAddress": null
    },
    {
      "status": "0x1",
      "cumulativeGasUsed": "0x9241",
      "logs": [
        {
          "address": "0x5fbdb2315678afecb367f032d93f642f64180aa3",
          "topics": [
            "0x7c1c93f72f29b8a1fc6fc85eed990d133b1ffac80c962b521abb12f38f2ff9af",
            "0x0000000000000000000000000000000000000000000000000000000000000003"
          ],
          "data": "0x0000000000000000000000000000000000000000000000000000000000000003",
          "blockHash": "0x6e6120324124ce7b7fff4890d1e287563c6a999af034ce371efdbc7d0ae92899",
          "blockNumber": "0x1e",
          "blockTimestamp": "0x69c13fc3",
          "transactionHash": "0x223272be1566d7f8411806d9376d4e99f645c17815f47c417ec69ee92837a6a7",
          "transactionIndex": "0x0",
          "logIndex": "0x0",
          "removed": false
        }
      ],
      "logsBloom": "0x00000000000000000000000000000080000000000000000000000000000000000000000000000000000000000000000000000000020000000000000000000000000000000000000000000000000000000000000000000000000000000000000000000040000000000000000000000000000000000000000000000000000000000000000000000000000000000000000000000000000000000000000200000000000000000000000000000000000000000000000000800000000000000000400000000040000000000000000800000000000000000000000000000000000000000000000000000000000000000000000000000000000008000000000000000000",
      "type": "0x2",
      "transactionHash": "0x223272be1566d7f8411806d9376d4e99f645c17815f47c417ec69ee92837a6a7",
      "transactionIndex": "0x0",
      "blockHash": "0x6e6120324124ce7b7fff4890d1e287563c6a999af034ce371efdbc7d0ae92899",
      "blockNumber": "0x1e",
      "gasUsed": "0x9241",
      "effectiveGasPrice": "0x16791cd",
      "blobGasPrice": "0x1",
      "from": "0x3c44cdddb6a900fa2b585dd299e03d12fa4293bc",
      "to": "0x5fbdb2315678afecb367f032d93f642f64180aa3",
      "contractAddress": null
    }
  ],
  "libraries": [],
  "pending": [],
  "returns": {},
  "timestamp": 1774272451280,
  "chain": 31337,
  "commit": "96677f7d"
}