{
  "transactions": [
    {
      "hash": "0x06f421cf5ac86168958f423958adb7490ba7060774dc541f1934008862c5fb5d",
      "transactionType": "CALL",
      "contractName": null,
      "contractAddress": "0x5fbdb2315678afecb367f032d93f642f64180aa3",
      "function": "createShipment(address,string,string,string,bool)",
      "arguments": [
        "0x15d34AAf54267DB7D7c367839AAf71A00a2C6A65",
        "Insulina Refrigerada - Lote INS-2024-077 - 200 unidades",
        "Bogota",
        "Medellin",
        "true"
      ],
      "transaction": {
        "from": "0x70997970c51812dc3a010c7d01b50e0d17dc79c8",
        "to": "0x5fbdb2315678afecb367f032d93f642f64180aa3",
        "gas": "0x8182f",
        "value": "0x0",
        "input": "0x475b6f9800000000000000000000000015d34aaf54267db7d7c367839aaf71a00a2c6a6500000000000000000000000000000000000000000000000000000000000000a00000000000000000000000000000000000000000000000000000000000000100000000000000000000000000000000000000000000000000000000000000014000000000000000000000000000000000000000000000000000000000000000010000000000000000000000000000000000000000000000000000000000000037496e73756c696e61205265667269676572616461202d204c6f746520494e532d323032342d303737202d2032303020756e6964616465730000000000000000000000000000000000000000000000000000000000000000000000000000000006426f676f7461000000000000000000000000000000000000000000000000000000000000000000000000000000000000000000000000000000000000000000084d6564656c6c696e000000000000000000000000000000000000000000000000",
        "nonce": "0x4",
        "chainId": "0x7a69"
      },
      "additionalContracts": [],
      "isFixedGasLimit": false
    },
    {
      "hash": "0xf1e151a648b15157a2ca06f8d1ebd0aab820b6c36d1e0043eee6d4d8ed0c8053",
      "transactionType": "CALL",
      "contractName": null,
      "contractAddress": "0x5fbdb2315678afecb367f032d93f642f64180aa3",
      "function": "recordCheckpoint(uint256,string,uint8,string,int256)",
      "arguments": [
        "3",
        "Laboratorio BioPharma - Bogota, Zona Industrial",
        "0",
        "Lote INS-2024-077 | 200 unidades | Temp camara origen: 4.2C | Embalaje termico OK | Resp: J. Martinez",
        "45"
      ],
      "transaction": {
        "from": "0x70997970c51812dc3a010c7d01b50e0d17dc79c8",
        "to": "0x5fbdb2315678afecb367f032d93f642f64180aa3",
        "gas": "0x7f754",
        "value": "0x0",
        "input": "0x0a7a0b69000000000000000000000000000000000000000000000000000000000000000300000000000000000000000000000000000000000000000000000000000000a000000000000000000000000000000000000000000000000000000000000000000000000000000000000000000000000000000000000000000000000000000100000000000000000000000000000000000000000000000000000000000000002d000000000000000000000000000000000000000000000000000000000000002f4c61626f7261746f72696f2042696f506861726d61202d20426f676f74612c205a6f6e6120496e647573747269616c000000000000000000000000000000000000000000000000000000000000000000000000000000000000000000000000654c6f746520494e532d323032342d303737207c2032303020756e696461646573207c2054656d702063616d617261206f726967656e3a20342e3243207c20456d62616c616a65207465726d69636f204f4b207c20526573703a204a2e204d617274696e657a000000000000000000000000000000000000000000000000000000",
        "nonce": "0x5",
        "chainId": "0x7a69"
      },
      "additionalContracts": [],
      "isFixedGasLimit": false
    },
    {
      "hash": "0x02a3b1c4947d9de4b31ca6647d6f643d26f22dc00c0f5fc57f17407bef5f3166",
      "transactionType": "CALL",
      "contractName": null,
      "contractAddress": "0x5fbdb2315678afecb367f032d93f642f64180aa3",
      "function": "updateShipmentStatus(uint256,uint8)",
      "arguments": [
        "3",
        "1"
      ],
      "transaction": {
        "from": "0x90f79bf6eb2c4f870365e785982e1f101e93b906",
        "to": "0x5fbdb2315678afecb367f032d93f642f64180aa3",
        "gas": "0x226e6",
        "value": "0x0",
        "input": "0x7defa92000000000000000000000000000000000000000000000000000000000000000030000000000000000000000000000000000000000000000000000000000000001",
        "nonce": "0x4",
        "chainId": "0x7a69"
      },
      "additionalContracts": [],
      "isFixedGasLimit": false
    },
    {
      "hash": "0xff64fdb54f87e54971d9c0da93ab01d52108c2a837f3b787541a39c76e56dfe2",
      "transactionType": "CALL",
      "contractName": null,
      "contractAddress": "0x5fbdb2315678afecb367f032d93f642f64180aa3",
      "function": "recordCheckpoint(uint256,string,uint8,string,int256)",
      "arguments": [
        "3",
        "Hub Bogota Fontibon - Zona de Recepcion",
        "1",
        "Llegada: 11:10 | Embalaje termico: OK | Temp bodega fria: 3.5C | 200/200 unidades | Resp: C. Torres",
        "38"
      ],
      "transaction": {
        "from": "0x90f79bf6eb2c4f870365e785982e1f101e93b906",
        "to": "0x5fbdb2315678afecb367f032d93f642f64180aa3",
        "gas": "0x805da",
        "value": "0x0",
        "input": "0x0a7a0b69000000000000000000000000000000000000000000000000000000000000000300000000000000000000000000000000000000000000000000000000000000a0000000000000000000000000000000000000000000000000000000000000000100000000000000000000000000000000000000000000000000000000000001000000000000000000000000000000000000000000000000000000000000000026000000000000000000000000000000000000000000000000000000000000002748756220426f676f746120466f6e7469626f6e202d205a6f6e6120646520526563657063696f6e0000000000000000000000000000000000000000000000000000000000000000000000000000000000000000000000000000000000000000634c6c65676164613a2031313a3130207c20456d62616c616a65207465726d69636f3a204f4b207c2054656d7020626f6465676120667269613a20332e3543207c203230302f32303020756e696461646573207c20526573703a20432e20546f727265730000000000000000000000000000000000000000000000000000000000",
        "nonce": "0x5",
        "chainId": "0x7a69"
      },
      "additionalContracts": [],
      "isFixedGasLimit": false
    },
    {
      "hash": "0x7f53e212b1ba710477f2b100e76ca27615858ee691d2c4d0c3bcca08b1570fe5",
      "transactionType": "CALL",
      "contractName": null,
      "contractAddress": "0x5fbdb2315678afecb367f032d93f642f64180aa3",
      "function": "updateShipmentStatus(uint256,uint8)",
      "arguments": [
        "3",
        "1"
      ],
      "transaction": {
        "from": "0x3c44cdddb6a900fa2b585dd299e03d12fa4293bc",
        "to": "0x5fbdb2315678afecb367f032d93f642f64180aa3",
        "gas": "0x1bb50",
        "value": "0x0",
        "input": "0x7defa92000000000000000000000000000000000000000000000000000000000000000030000000000000000000000000000000000000000000000000000000000000001",
        "nonce": "0xb",
        "chainId": "0x7a69"
      },
      "additionalContracts": [],
      "isFixedGasLimit": false
    },
    {
      "hash": "0xb80bd6ea7ce22739d37655c51495c7852eef20c127bb0c88063678695e1d49b7",
      "transactionType": "CALL",
      "contractName": null,
      "contractAddress": "0x5fbdb2315678afecb367f032d93f642f64180aa3",
      "function": "recordCheckpoint(uint256,string,uint8,string,int256)",
      "arguments": [
        "3",
        "Autopista Bogota-Medellin, km 87 - Estacion de Servicio El Sisga",
        "2",
        "ALERTA: Temperatura elevada | Parada no autorizada 25 min | Puerta abierta detectada | Precinto SP-771: OK | Conductor: R. Gomez",
        "95"
      ],
      "transaction": {
        "from": "0x3c44cdddb6a900fa2b585dd299e03d12fa4293bc",
        "to": "0x5fbdb2315678afecb367f032d93f642f64180aa3",
        "gas": "0xc3439",
        "value": "0x0",
        "input": "0x0a7a0b69000000000000000000000000000000000000000000000000000000000000000300000000000000000000000000000000000000000000000000000000000000a000000000000000000000000000000000000000000000000000000000000000020000000000000000000000000000000000000000000000000000000000000100000000000000000000000000000000000000000000000000000000000000005f00000000000000000000000000000000000000000000000000000000000000404175746f706973746120426f676f74612d4d6564656c6c696e2c206b6d203837202d204573746163696f6e20646520536572766963696f20456c2053697367610000000000000000000000000000000000000000000000000000000000000080414c455254413a2054656d706572617475726120656c6576616461207c20506172616461206e6f206175746f72697a616461203235206d696e207c20507565727461206162696572746120646574656374616461207c2050726563696e746f2053502d3737313a204f4b207c20436f6e647563746f723a20522e20476f6d657a",
        "nonce": "0xc",
        "chainId": "0x7a69"
      },
      "additionalContracts": [],
      "isFixedGasLimit": false
    },
    {
      "hash": "0x6b27ecc35c417bb46f1a457a811a946c0a3ea1e4f2a2c1d5bb8c98ad77dd36b8",
      "transactionType": "CALL",
      "contractName": null,
      "contractAddress": "0x5fbdb2315678afecb367f032d93f642f64180aa3",
      "function": "recordCheckpoint(uint256,string,uint8,string,int256)",
      "arguments": [
        "3",
        "Autopista Bogota-Medellin, km 142 - Peaje La Ye",
        "2",
        "Temperatura recuperada tras incidente | Equipo de frio reactivado | Precinto SP-771: OK | 200 unidades",
        "50"
      ],
      "transaction": {
        "from": "0x3c44cdddb6a900fa2b585dd299e03d12fa4293bc",
        "to": "0x5fbdb2315678afecb367f032d93f642f64180aa3",
        "gas": "0x80690",
        "value": "0x0",
        "input": "0x0a7a0b69000000000000000000000000000000000000000000000000000000000000000300000000000000000000000000000000000000000000000000000000000000a0000000000000000000000000000000000000000000000000000000000000000200000000000000000000000000000000000000000000000000000000000001000000000000000000000000000000000000000000000000000000000000000032000000000000000000000000000000000000000000000000000000000000002f4175746f706973746120426f676f74612d4d6564656c6c696e2c206b6d20313432202d205065616a65204c612059650000000000000000000000000000000000000000000000000000000000000000000000000000000000000000000000006654656d70657261747572612072656375706572616461207472617320696e636964656e7465207c2045717569706f206465206672696f207265616374697661646f207c2050726563696e746f2053502d3737313a204f4b207c2032303020756e6964616465730000000000000000000000000000000000000000000000000000",
        "nonce": "0xd",
        "chainId": "0x7a69"
      },
      "additionalContracts": [],
      "isFixedGasLimit": false
    },
    {
      "hash": "0x49e446ae9d7c77869b2efd7187e5c501a481484ea22b656f029b1b98e1670de7",
      "transactionType": "CALL",
      "contractName": null,
      "contractAddress": "0x5fbdb2315678afecb367f032d93f642f64180aa3",
      "function": "updateShipmentStatus(uint256,uint8)",
      "arguments": [
        "3",
        "2"
      ],
      "transaction": {
        "from": "0x14dc79964da2c08b23698b3d3cc7ca32193d9955",
        "to": "0x5fbdb2315678afecb367f032d93f642f64180aa3",
        "gas": "0x1caa2",
        "value": "0x0",
        "input": "0x7defa92000000000000000000000000000000000000000000000000000000000000000030000000000000000000000000000000000000000000000000000000000000002",
        "nonce": "0x4",
        "chainId": "0x7a69"
      },
      "additionalContracts": [],
      "isFixedGasLimit": false
    },
    {
      "hash": "0x081b889936788738bd2aea3efc7a9a5bcdbf255a793f924139eb2795e572d4cf",
      "transactionType": "CALL",
      "contractName": null,
      "contractAddress": "0x5fbdb2315678afecb367f032d93f642f64180aa3",
      "function": "recordCheckpoint(uint256,string,uint8,string,int256)",
      "arguments": [
        "3",
        "Hub Medellin Itagui - Camara Fria C2",
        "1",
        "ALERTA: Temperatura bajo minimo | Falla termostato camara C2 | Producto trasladado a camara C3 | Resp: A. Rios | Mantenimiento notificado",
        "12"
      ],
      "transaction": {
        "from": "0x14dc79964da2c08b23698b3d3cc7ca32193d9955",
        "to": "0x5fbdb2315678afecb367f032d93f642f64180aa3",
        "gas": "0xba13d",
        "value": "0x0",
        "input": "0x0a7a0b69000000000000000000000000000000000000000000000000000000000000000300000000000000000000000000000000000000000000000000000000000000a000000000000000000000000000000000000000000000000000000000000000010000000000000000000000000000000000000000000000000000000000000100000000000000000000000000000000000000000000000000000000000000000c0000000000000000000000000000000000000000000000000000000000000024487562204d6564656c6c696e20497461677569202d2043616d6172612046726961204332000000000000000000000000000000000000000000000000000000000000000000000000000000000000000000000000000000000000000000000089414c455254413a2054656d70657261747572612062616a6f206d696e696d6f207c2046616c6c61207465726d6f737461746f2063616d617261204332207c2050726f647563746f20747261736c616461646f20612063616d617261204333207c20526573703a20412e2052696f73207c204d616e74656e696d69656e746f206e6f746966696361646f0000000000000000000000000000000000000000000000",
        "nonce": "0x5",
        "chainId": "0x7a69"
      },
      "additionalContracts": [],
      "isFixedGasLimit": false
    },
    {
      "hash": "0xb9efb36076299d14279a041bbc2f466c33ebfea7d4d7f1cc17dc2d238ffeabdf",
      "transactionType": "CALL",
      "contractName": null,
      "contractAddress": "0x5fbdb2315678afecb367f032d93f642f64180aa3",
      "function": "recordCheckpoint(uint256,string,uint8,string,int256)",
      "arguments": [
        "3",
        "Hub Medellin Itagui - Bahia 4",
        "2",
        "Temperatura normalizada | Camara C3: 4.0C | Veh: VAN-291 | Precinto nuevo: SP-882 | 200 unidades | ETA: 09:30",
        "42"
      ],
      "transaction": {
        "from": "0x3c44cdddb6a900fa2b585dd299e03d12fa4293bc",
        "to": "0x5fbdb2315678afecb367f032d93f642f64180aa3",
        "gas": "0x78052",
        "value": "0x0",
        "input": "0x0a7a0b69000000000000000000000000000000000000000000000000000000000000000300000000000000000000000000000000000000000000000000000000000000a0000000000000000000000000000000000000000000000000000000000000000200000000000000000000000000000000000000000000000000000000000000e0000000000000000000000000000000000000000000000000000000000000002a000000000000000000000000000000000000000000000000000000000000001d487562204d6564656c6c696e20497461677569202d2042616869612034000000000000000000000000000000000000000000000000000000000000000000006d54656d7065726174757261206e6f726d616c697a616461207c2043616d6172612043333a20342e3043207c205665683a2056414e2d323931207c2050726563696e746f206e7565766f3a2053502d383832207c2032303020756e696461646573207c204554413a2030393a333000000000000000000000000000000000000000",
        "nonce": "0xe",
        "chainId": "0x7a69"
      },
      "additionalContracts": [],
      "isFixedGasLimit": false
    },
    {
      "hash": "0x922a97d6a1913f74f6fcd8e9fbaad17e5bc55312b8e89593686efe88ba74c75f",
      "transactionType": "CALL",
      "contractName": null,
      "contractAddress": "0x5fbdb2315678afecb367f032d93f642f64180aa3",
      "function": "updateShipmentStatus(uint256,uint8)",
      "arguments": [
        "3",
        "3"
      ],
      "transaction": {
        "from": "0x3c44cdddb6a900fa2b585dd299e03d12fa4293bc",
        "to": "0x5fbdb2315678afecb367f032d93f642f64180aa3",
        "gas": "0xd5e5",
        "value": "0x0",
        "input": "0x7defa92000000000000000000000000000000000000000000000000000000000000000030000000000000000000000000000000000000000000000000000000000000003",
        "nonce": "0xf",
        "chainId": "0x7a69"
      },
      "additionalContracts": [],
      "isFixedGasLimit": false
    }
  ],
  "receipts": [
    {
      "status": "0x1",
      "cumulativeGasUsed": "0x588e1",
      "logs": [
        {
          "address": "0x5fbdb2315678afecb367f032d93f642f64180aa3",
          "topics": [
            "0x8fb6b855d6cbdf201f2fcaadbf8c38d36168ff7d2ca865cb2599abcd5a060e8f",
            "0x0000000000000000000000000000000000000000000000000000000000000003",
            "0x00000000000000000000000070997970c51812dc3a010c7d01b50e0d17dc79c8",
            "0x00000000000000000000000015d34aaf54267db7d7c367839aaf71a00a2c6a65"
          ],
          "data": "0x00000000000000000000000000000000000000000000000000000000000000200000000000000000000000000000000000000000000000000000000000000037496e73756c696e61205265667269676572616461202d204c6f746520494e532d323032342d303737202d2032303020756e696461646573000000000000000000",
          "blockHash": "0x5c074444e7248cd3516669ce59b4873166a4308a89ea221fdcafb2862a341efe",
          "blockNumber": "0x1e",
          "blockTimestamp": "0x69c1a2d8",
          "transactionHash": "0x06f421cf5ac86168958f423958adb7490ba7060774dc541f1934008862c5fb5d",
          "transactionIndex": "0x0",
          "logIndex": "0x0",
          "removed": false
        }
      ],
      "logsBloom": "0x00000000040000000002000000000000000000000000000000000000000000000000000000000000000000000000000000000000020000000000000000000000000000000000000000000000000000000000000000000000000000000000000000000840000000000000000000000000000000000000000000000000000000000000000000000000000000000000000000000200000000000000000300000000000000000000000000000000000000000000000000800000000000000000400000000040000000000000000040000000000000000000000000000000000004000000000000000000000000000000000001004000000000000000000000000000",
      "type": "0x2",
      "transactionHash": "0x06f421cf5ac86168958f423958adb7490ba7060774dc541f1934008862c5fb5d",
      "transactionIndex": "0x0",
      "blockHash": "0x5c074444e7248cd3516669ce59b4873166a4308a89ea221fdcafb2862a341efe",
      "blockNumber": "0x1e",
      "gasUsed": "0x588e1",
      "effectiveGasPrice": "0x15c02bb",
      "blobGasPrice": "0x1",
      "from": "0x70997970c51812dc3a010c7d01b50e0d17dc79c8",
      "to": "0x5fbdb2315678afecb367f032d93f642f64180aa3",
      "contractAddress": null
    },
    {
      "status": "0x1",
      "cumulativeGasUsed": "0x5c470",
      "logs": [
        {
          "address": "0x5fbdb2315678afecb367f032d93f642f64180aa3",
          "topics": [
            "0x529e5c9e24a307575814835cf69244181f51bc2ae08b95b8c8459d652a7ee9cf",
            "0x000000000000000000000000000000000000000000000000000000000000000e",
            "0x0000000000000000000000000000000000000000000000000000000000000003"
          ],
          "data": "0x000000000000000000000000000000000000000000000000000000000000000000000000000000000000000070997970c51812dc3a010c7d01b50e0d17dc79c8",
          "blockHash": "0x9c7dc74c7d0db886e65fc7818f326c326efe5809a6e52ef83e3a5b776aaff760",
          "blockNumber": "0x1f",
          "blockTimestamp": "0x69c1a2d8",
          "transactionHash": "0xf1e151a648b15157a2ca06f8d1ebd0aab820b6c36d1e0043eee6d4d8ed0c8053",
          "transactionIndex": "0x0",
          "logIndex": "0x0",
          "removed": false
        }
      ],
      "logsBloom": "0x00000000000000000000000100000000000100000000000000000000000000000000000000000000000000000000000000000000020000000000000000000000000000000000000800000000000000000000200000000000000000000000000000000040000000000000000000000000000000000000000000000000000000000000000000000000000000000000000008000000000000000000000200000000000000000000000000000000000000000000000000800020000000000000400000000040000000000000000000000000000000000000000000000000000000000000000000000000000000000000000000000000000000000000000000000000",
      "type": "0x2",
      "transactionHash": "0xf1e151a648b15157a2ca06f8d1ebd0aab820b6c36d1e0043eee6d4d8ed0c8053",
      "transactionIndex": "0x0",
      "blockHash": "0x9c7dc74c7d0db886e65fc7818f326c326efe5809a6e52ef83e3a5b776aaff760",
      "blockNumber": "0x1f",
      "gasUsed": "0x5c470",
      "effectiveGasPrice": "0x1318faf",
      "blobGasPrice": "0x1",
      "from": "0x70997970c51812dc3a010c7d01b50e0d17dc79c8",
      "to": "0x5fbdb2315678afecb367f032d93f642f64180aa3",
      "contractAddress": null
    },
    {
      "status": "0x1",
      "cumulativeGasUsed": "0x18ed8",
      "logs": [
        {
          "address": "0x5fbdb2315678afecb367f032d93f642f64180aa3",
          "topics": [
            "0x7c1c93f72f29b8a1fc6fc85eed990d133b1ffac80c962b521abb12f38f2ff9af",
            "0x0000000000000000000000000000000000000000000000000000000000000003"
          ],
          "data": "0x0000000000000000000000000000000000000000000000000000000000000001",
          "blockHash": "0x603cce15e29d45d53ec987a43c4ce8c6612d597a6f87326fcd9dd01e2b556d14",
          "blockNumber": "0x20",
          "blockTimestamp": "0x69c1a2d9",
          "transactionHash": "0x02a3b1c4947d9de4b31ca6647d6f643d26f22dc00c0f5fc57f17407bef5f3166",
          "transactionIndex": "0x0",
          "logIndex": "0x0",
          "removed": false
        }
      ],
      "logsBloom": "0x00000000000000000000000000000080000000000000000000000000000000000000000000000000000000000000000000000000020000000000000000000000000000000000000000000000000000000000000000000000000000000000000000000040000000000000000000000000000000000000000000000000000000000000000000000000000000000000000000000000000000000000000200000000000000000000000000000000000000000000000000800000000000000000400000000040000000000000000800000000000000000000000000000000000000000000000000000000000000000000000000000000000008000000000000000000",
      "type": "0x2",
      "transactionHash": "0x02a3b1c4947d9de4b31ca6647d6f643d26f22dc00c0f5fc57f17407bef5f3166",
      "transactionIndex": "0x0",
      "blockHash": "0x603cce15e29d45d53ec987a43c4ce8c6612d597a6f87326fcd9dd01e2b556d14",
      "blockNumber": "0x20",
      "gasUsed": "0x18ed8",
      "effectiveGasPrice": "0x10c541c",
      "blobGasPrice": "0x1",
      "from": "0x90f79bf6eb2c4f870365e785982e1f101e93b906",
      "to": "0x5fbdb2315678afecb367f032d93f642f64180aa3",
      "contractAddress": null
    },
    {
      "status": "0x1",
      "cumulativeGasUsed": "0x5cef4",
      "logs": [
        {
          "address": "0x5fbdb2315678afecb367f032d93f642f64180aa3",
          "topics": [
            "0x529e5c9e24a307575814835cf69244181f51bc2ae08b95b8c8459d652a7ee9cf",
            "0x000000000000000000000000000000000000000000000000000000000000000f",
            "0x0000000000000000000000000000000000000000000000000000000000000003"
          ],
          "data": "0x000000000000000000000000000000000000000000000000000000000000000100000000000000000000000090f79bf6eb2c4f870365e785982e1f101e93b906",
          "blockHash": "0x478185b1a09ca2f527ffc37270d700efe407f80ba8917b41a61a8860686ff199",
          "blockNumber": "0x21",
          "blockTimestamp": "0x69c1a2d9",
          "transactionHash": "0xff64fdb54f87e54971d9c0da93ab01d52108c2a837f3b787541a39c76e56dfe2",
          "transactionIndex": "0x0",
          "logIndex": "0x0",
          "removed": false
        }
      ],
      "logsBloom": "0x00000000000000000000000100000000000100000000000000000000000000000000000000000000000000000000000000000000020000000000000000000000000000000000000000000000000000000000200000000000000000000002000000000040000000000000000000000000000000000000000000000000000000000000000000000800000000000000000000000000000000000000000200000000000000000000000000000000000000000000000000800000000000000000400000000040000000000000000000000000000000000000000000000000000000000000000200000000000000000000000000000000000000000000000000000000",
      "type": "0x2",
      "transactionHash": "0xff64fdb54f87e54971d9c0da93ab01d52108c2a837f3b787541a39c76e56dfe2",
      "transactionIndex": "0x0",
      "blockHash": "0x478185b1a09ca2f527ffc37270d700efe407f80ba8917b41a61a8860686ff199",
      "blockNumber": "0x21",
      "gasUsed": "0x5cef4",
      "effectiveGasPrice": "0xeb040c",
      "blobGasPrice": "0x1",
      "from": "0x90f79bf6eb2c4f870365e785982e1f101e93b906",
      "to": "0x5fbdb2315678afecb367f032d93f642f64180aa3",
      "contractAddress": null
    },
    {
      "status": "0x1",
      "cumulativeGasUsed": "0x140f4",
      "logs": [
        {
          "address": "0x5fbdb2315678afecb367f032d93f642f64180aa3",
          "topics": [
            "0x7c1c93f72f29b8a1fc6fc85eed990d133b1ffac80c962b521abb12f38f2ff9af",
            "0x0000000000000000000000000000000000000000000000000000000000000003"
          ],
          "data": "0x0000000000000000000000000000000000000000000000000000000000000001",
          "blockHash": "0x9830e9535d8e577ebcdffa84d9026fdc8d42eae1c83e830df09c171bfdd4a870",
          "blockNumber": "0x22",
          "blockTimestamp": "0x69c1a2d9",
          "transactionHash": "0x7f53e212b1ba710477f2b100e76ca27615858ee691d2c4d0c3bcca08b1570fe5",
          "transactionIndex": "0x0",
          "logIndex": "0x0",
          "removed": false
        }
      ],
      "logsBloom": "0x00000000000000000000000000000080000000000000000000000000000000000000000000000000000000000000000000000000020000000000000000000000000000000000000000000000000000000000000000000000000000000000000000000040000000000000000000000000000000000000000000000000000000000000000000000000000000000000000000000000000000000000000200000000000000000000000000000000000000000000000000800000000000000000400000000040000000000000000800000000000000000000000000000000000000000000000000000000000000000000000000000000000008000000000000000000",
      "type": "0x2",
      "transactionHash": "0x7f53e212b1ba710477f2b100e76ca27615858ee691d2c4d0c3bcca08b1570fe5",
      "transactionIndex": "0x0",
      "blockHash": "0x9830e9535d8e577ebcdffa84d9026fdc8d42eae1c83e830df09c171bfdd4a870",
      "blockNumber": "0x22",
      "gasUsed": "0x140f4",
      "effectiveGasPrice": "0xce6265",
      "blobGasPrice": "0x1",
      "from": "0x3c44cdddb6a900fa2b585dd299e03d12fa4293bc",
      "to": "0x5fbdb2315678afecb367f032d93f642f64180aa3",
      "contractAddress": null
    },
    {
      "status": "0x1",
      "cumulativeGasUsed": "0x85839",
      "logs": [
        {
          "address": "0x5fbdb2315678afecb367f032d93f642f64180aa3",
          "topics": [
            "0xc2c9d0fa5caecea68b9ec6aca764014b01764f779d8a510f0d0d6796b76b7c83",
            "0x0000000000000000000000000000000000000000000000000000000000000001",
            "0x0000000000000000000000000000000000000000000000000000000000000003"
          ],
          "data": "0x0000000000000000000000000000000000000000000000000000000000000003",
          "blockHash": "0x9774ba092f8d5ce86417e6a82e75b94b7ab375856a2c4fbb9f37cba93596fcca",
          "blockNumber": "0x23",
          "blockTimestamp": "0x69c1a2d9",
          "transactionHash": "0xb80bd6ea7ce22739d37655c51495c7852eef20c127bb0c88063678695e1d49b7",
          "transactionIndex": "0x0",
          "logIndex": "0x0",
          "removed": false
        },
        {
          "address": "0x5fbdb2315678afecb367f032d93f642f64180aa3",
          "topics": [
            "0x529e5c9e24a307575814835cf69244181f51bc2ae08b95b8c8459d652a7ee9cf",
            "0x0000000000000000000000000000000000000000000000000000000000000010",
            "0x0000000000000000000000000000000000000000000000000000000000000003"
          ],
          "data": "0x00000000000000000000000000000000000000000000000000000000000000020000000000000000000000003c44cdddb6a900fa2b585dd299e03d12fa4293bc",
          "blockHash": "0x9774ba092f8d5ce86417e6a82e75b94b7ab375856a2c4fbb9f37cba93596fcca",
          "blockNumber": "0x23",
          "blockTimestamp": "0x69c1a2d9",
          "transactionHash": "0xb80bd6ea7ce22739d37655c51495c7852eef20c127bb0c88063678695e1d49b7",
          "transactionIndex": "0x0",
          "logIndex": "0x1",
          "removed": false
        }
      ],
      "logsBloom": "0x00000000100000000000000100000000000100000000000000000000000000000000000000000000000000000000000000000000020000000000000000040000000000000000000000000000000000000000200000040000000000000000000000001040000000001000000000000000000000000000000000000000040000000000000000000000000000000000000000000100000000000000000200000000000000000000000000000000000000080000000000800000000000000000400000000040000000000000000000000000000000000000000000000000000040000000000000000000000000000000000000000000000000000000000000000000",
      "type": "0x2",
      "transactionHash": "0xb80bd6ea7ce22739d37655c51495c7852eef20c127bb0c88063678695e1d49b7",
      "transactionIndex": "0x0",
      "blockHash": "0x9774ba092f8d5ce86417e6a82e75b94b7ab375856a2c4fbb9f37cba93596fcca",
      "blockNumber": "0x23",
      "gasUsed": "0x85839",
      "effectiveGasPrice": "0xb4ba46",
      "blobGasPrice": "0x1",
      "from": "0x3c44cdddb6a900fa2b585dd299e03d12fa4293bc",
      "to": "0x5fbdb2315678afecb367f032d93f642f64180aa3",
      "contractAddress": null
    },
    {
      "status": "0x1",
      "cumulativeGasUsed": "0x5cf78",
      "logs": [
        {
          "address": "0x5fbdb2315678afecb367f032d93f642f64180aa3",
          "topics": [
            "0x529e5c9e24a307575814835cf69244181f51bc2ae08b95b8c8459d652a7ee9cf",
            "0x0000000000000000000000000000000000000000000000000000000000000011",
            "0x0000000000000000000000000000000000000000000000000000000000000003"
          ],
          "data": "0x00000000000000000000000000000000000000000000000000000000000000020000000000000000000000003c44cdddb6a900fa2b585dd299e03d12fa4293bc",
          "blockHash": "0xd6cdb0245818a54456ce07f31780397458d5ad61fd5455de90c67b065ca1903d",
          "blockNumber": "0x24",
          "blockTimestamp": "0x69c1a2d9",
          "transactionHash": "0x6b27ecc35c417bb46f1a457a811a946c0a3ea1e4f2a2c1d5bb8c98ad77dd36b8",
          "transactionIndex": "0x0",
          "logIndex": "0x0",
          "removed": false
        }
      ],
      "logsBloom": "0x00000000000000000000000100000000000100000000000000000000000000000000000000000000000000000000000000000000020000000000000000000000000000000000000000000000000000000000200000000000000000000000000000000040000000000000000000000000000000004000000000000000000000000000000000000000000000000000000000000000000000000000000200000000000000000000000000000000000000000000000000800000000000000400400000001040000000000000000000000000000000000000000000000000000000000000000000000000000000000000000000000000000000000000000000000000",
      "type": "0x2",
      "transactionHash": "0x6b27ecc35c417bb46f1a457a811a946c0a3ea1e4f2a2c1d5bb8c98ad77dd36b8",
      "transactionIndex": "0x0",
      "blockHash": "0xd6cdb0245818a54456ce07f31780397458d5ad61fd5455de90c67b065ca1903d",
      "blockNumber": "0x24",
      "gasUsed": "0x5cf78",
      "effectiveGasPrice": "0x9ef5d7",
      "blobGasPrice": "0x1",
      "from": "0x3c44cdddb6a900fa2b585dd299e03d12fa4293bc",
      "to": "0x5fbdb2315678afecb367f032d93f642f64180aa3",
      "contractAddress": null
    },
    {
      "status": "0x1",
      "cumulativeGasUsed": "0x14c0c",
      "logs": [
        {
          "address": "0x5fbdb2315678afecb367f032d93f642f64180aa3",
          "topics": [
            "0x7c1c93f72f29b8a1fc6fc85eed990d133b1ffac80c962b521abb12f38f2ff9af",
            "0x0000000000000000000000000000000000000000000000000000000000000003"
          ],
          "data": "0x0000000000000000000000000000000000000000000000000000000000000002",
          "blockHash": "0x1ace97f5149a21d049812bf7eb29a3602e29e6aa03be72f20905d77d1118cc2f",
          "blockNumber": "0x25",
          "blockTimestamp": "0x69c1a2d9",
          "transactionHash": "0x49e446ae9d7c77869b2efd7187e5c501a481484ea22b656f029b1b98e1670de7",
          "transactionIndex": "0x0",
          "logIndex": "0x0",
          "removed": false
        }
      ],
      "logsBloom": "0x00000000000000000000000000000080000000000000000000000000000000000000000000000000000000000000000000000000020000000000000000000000000000000000000000000000000000000000000000000000000000000000000000000040000000000000000000000000000000000000000000000000000000000000000000000000000000000000000000000000000000000000000200000000000000000000000000000000000000000000000000800000000000000000400000000040000000000000000800000000000000000000000000000000000000000000000000000000000000000000000000000000000008000000000000000000",
      "type": "0x2",
      "transactionHash": "0x49e446ae9d7c77869b2efd7187e5c501a481484ea22b656f029b1b98e1670de7",
      "transactionIndex": "0x0",
      "blockHash": "0x1ace97f5149a21d049812bf7eb29a3602e29e6aa03be72f20905d77d1118cc2f",
      "blockNumber": "0x25",
      "gasUsed": "0x14c0c",
      "effectiveGasPrice": "0x8b983f",
      "blobGasPrice": "0x1",
      "from": "0x14dc79964da2c08b23698b3d3cc7ca32193d9955",
      "to": "0x5fbdb2315678afecb367f032d93f642f64180aa3",
      "contractAddress": null
    },
    {
      "status": "0x1",
      "cumulativeGasUsed": "0x86b78",
      "logs": [
        {
          "address": "0x5fbdb2315678afecb367f032d93f642f64180aa3",
          "topics": [
            "0xc2c9d0fa5caecea68b9ec6aca764014b01764f779d8a510f0d0d6796b76b7c83",
            "0x0000000000000000000000000000000000000000000000000000000000000002",
            "0x0000000000000000000000000000000000000000000000000000000000000003"
          ],
          "data": "0x0000000000000000000000000000000000000000000000000000000000000003",
          "blockHash": "0x9bd688d4902f8d43f910ccaf8f1f0724ed88680e08aa6d12e00ebe41ef1f76fe",
          "blockNumber": "0x26",
          "blockTimestamp": "0x69c1a2d9",
          "transactionHash": "0x081b889936788738bd2aea3efc7a9a5bcdbf255a793f924139eb2795e572d4cf",
          "transactionIndex": "0x0",
          "logIndex": "0x0",
          "removed": false
        },
        {
          "address": "0x5fbdb2315678afecb367f032d93f642f64180aa3",
          "topics": [
            "0x529e5c9e24a307575814835cf69244181f51bc2ae08b95b8c8459d652a7ee9cf",
            "0x0000000000000000000000000000000000000000000000000000000000000012",
            "0x0000000000000000000000000000000000000000000000000000000000000003"
          ],
          "data": "0x000000000000000000000000000000000000000000000000000000000000000100000000000000000000000014dc79964da2c08b23698b3d3cc7ca32193d9955",
          "blockHash": "0x9bd688d4902f8d43f910ccaf8f1f0724ed88680e08aa6d12e00ebe41ef1f76fe",
          "blockNumber": "0x26",
          "blockTimestamp": "0x69c1a2d9",
          "transactionHash": "0x081b889936788738bd2aea3efc7a9a5bcdbf255a793f924139eb2795e572d4cf",
          "transactionIndex": "0x0",
          "logIndex": "0x1",
          "removed": false
        }
      ],
      "logsBloom": "0x04000000000000000000000100000000000100000000000000000000000000000000000000000000000000000000000000000000020000000000000000000000000000000000000000000000000000000000200000000000000000000000000000001040000000001000000000000000000000000000000000000000000000000000000000000000000000000000040000000000000000000000000200000000000000000000000000000100000000080000000000800040000000000000400000000040000000000400000000000000000000000000000000000000000000000000000000000000000000000000000000000000008000000000000000000000",
      "type": "0x2",
      "transactionHash": "0x081b889936788738bd2aea3efc7a9a5bcdbf255a793f924139eb2795e572d4cf",
      "transactionIndex": "0x0",
      "blockHash": "0x9bd688d4902f8d43f910ccaf8f1f0724ed88680e08aa6d12e00ebe41ef1f76fe",
      "blockNumber": "0x26",
      "gasUsed": "0x86b78",
      "effectiveGasPrice": "0x7a3e88",
      "blobGasPrice": "0x1",
      "from": "0x14dc79964da2c08b23698b3d3cc7ca32193d9955",
      "to": "0x5fbdb2315678afecb367f032d93f642f64180aa3",
      "contractAddress": null
    },
    {
      "status": "0x1",
      "cumulativeGasUsed": "0x5210b",
      "logs": [
        {
          "address": "0x5fbdb2315678afecb367f032d93f642f64180aa3",
          "topics": [
            "0x529e5c9e24a307575814835cf69244181f51bc2ae08b95b8c8459d652a7ee9cf",
            "0x0000000000000000000000000000000000000000000000000000000000000013",
            "0x0000000000000000000000000000000000000000000000000000000000000003"
          ],
          "data": "0x00000000000000000000000000000000000000000000000000000000000000020000000000000000000000003c44cdddb6a900fa2b585dd299e03d12fa4293bc",
          "blockHash": "0x9a2e4098d5d536657def90dc8bcfa841314dea9603404a701b6acb4bdd28385c",
          "blockNumber": "0x27",
          "blockTimestamp": "0x69c1a2d9",
          "transactionHash": "0xb9efb36076299d14279a041bbc2f466c33ebfea7d4d7f1cc17dc2d238ffeabdf",
          "transactionIndex": "0x0",
          "logIndex": "0x0",
          "removed": false
        }
      ],
      "logsBloom": "0x20000000000000000000000100800000000100000000000000000000000000000000000040000000000000000000000000000000020000000000000000000000000000000000000000000000000000000000200000000000000000000000000000000040000000000000000000000000000000000000000000000000000000000000000000000000000000000000000000000000000000000000000200000000000000000000000000000000000000000000000000800000000000000000400000000040000000000000000000000000000000000000000000000000000000000000000000000000000000000000000000000000000000000000000000000000",
      "type": "0x2",
      "transactionHash": "0xb9efb36076299d14279a041bbc2f466c33ebfea7d4d7f1cc17dc2d238ffeabdf",
      "transactionIndex": "0x0",
      "blockHash": "0x9a2e4098d5d536657def90dc8bcfa841314dea9603404a701b6acb4bdd28385c",
      "blockNumber": "0x27",
      "gasUsed": "0x5210b",
      "effectiveGasPrice": "0x6b869f",
      "blobGasPrice": "0x1",
      "from": "0x3c44cdddb6a900fa2b585dd299e03d12fa4293bc",
      "to": "0x5fbdb2315678afecb367f032d93f642f64180aa3",
      "contractAddress": null
    },
    {
      "status": "0x1",
      "cumulativeGasUsed": "0x9241",
      "logs": [
        {
          "address": "0x5fbdb2315678afecb367f032d93f642f64180aa3",
          "topics": [
            "0x7c1c93f72f29b8a1fc6fc85eed990d133b1ffac80c962b521abb12f38f2ff9af",
            "0x0000000000000000000000000000000000000000000000000000000000000003"
          ],
          "data": "0x0000000000000000000000000000000000000000000000000000000000000003",
          "blockHash": "0x5951f155965b379ff4c0c06a97c1c121fa5379e575ebfbf77a20c485ca038042",
          "blockNumber": "0x28",
          "blockTimestamp": "0x69c1a2d9",
          "transactionHash": "0x922a97d6a1913f74f6fcd8e9fbaad17e5bc55312b8e89593686efe88ba74c75f",
          "transactionIndex": "0x0",
          "logIndex": "0x0",
          "removed": false
        }
      ],
      "logsBloom": "0x00000000000000000000000000000080000000000000000000000000000000000000000000000000000000000000000000000000020000000000000000000000000000000000000000000000000000000000000000000000000000000000000000000040000000000000000000000000000000000000000000000000000000000000000000000000000000000000000000000000000000000000000200000000000000000000000000000000000000000000000000800000000000000000400000000040000000000000000800000000000000000000000000000000000000000000000000000000000000000000000000000000000008000000000000000000",
      "type": "0x2",
      "transactionHash": "0x922a97d6a1913f74f6fcd8e9fbaad17e5bc55312b8e89593686efe88ba74c75f",
      "transactionIndex": "0x0",
      "blockHash": "0x5951f155965b379ff4c0c06a97c1c121fa5379e575ebfbf77a20c485ca038042",
      "blockNumber": "0x28",
      "gasUsed": "0x9241",
      "effectiveGasPrice": "0x5e62e7",
      "blobGasPrice": "0x1",
      "from": "0x3c44cdddb6a900fa2b585dd299e03d12fa4293bc",
      "to": "0x5fbdb2315678afecb367f032d93f642f64180aa3",
      "contractAddress": null
    }
  ],
  "libraries": [],
  "pending": [],
  "returns": {},
  "timestamp": 1774297817325,
  "chain": 31337,
  "commit": "96677f7d"
}