{
  "transactions": [
    {
      "hash": "0xcbdc71b5144f9ab8e386dda7b7229953c902419ed2d1f5c5487be058584ffd4e",
      "transactionType": "CALL",
      "contractName": null,
      "contractAddress": "0x5fbdb2315678afecb367f032d93f642f64180aa3",
      "function": "registerActor(string,uint8,string,address)",
      "arguments": [
        "Laboratorio BioPharma",
        "1",
        "Bogota",
        "0x70997970C51812dc3A010C7d01b50e0d17dc79C8"
      ],
      "transaction": {
        "from": "0xf39fd6e51aad88f6f4ce6ab8827279cfffb92266",
        "to": "0x5fbdb2315678afecb367f032d93f642f64180aa3",
        "gas": "0x323ed",
        "value": "0x0",
        "input": "0xb7fa3c2a0000000000000000000000000000000000000000000000000000000000000080000000000000000000000000000000000000000000000000000000000000000100000000000000000000000000000000000000000000000000000000000000c000000000000000000000000070997970c51812dc3a010c7d01b50e0d17dc79c800000000000000000000000000000000000000000000000000000000000000154c61626f7261746f72696f2042696f506861726d6100000000000000000000000000000000000000000000000000000000000000000000000000000000000006426f676f74610000000000000000000000000000000000000000000000000000",
        "nonce": "0xf",
        "chainId": "0x7a69"
      },
      "additionalContracts": [],
      "isFixedGasLimit": false
    },
    {
      "hash": "0xfb87cbdc82a9fabb3a298db25ffdb82ef1cbc48733aa8ae8155877641fbb0d1e",
      "transactionType": "CALL",
      "contractName": null,
      "contractAddress": "0x5fbdb2315678afecb367f032d93f642f64180aa3",
      "function": "registerActor(string,uint8,string,address)",
      "arguments": [
        "Transportes FrioExpress",
        "2",
        "Bogota",
        "0x3C44CdDdB6a900fa2b585dd299e03d12FA4293BC"
      ],
      "transaction": {
        "from": "0xf39fd6e51aad88f6f4ce6ab8827279cfffb92266",
        "to": "0x5fbdb2315678afecb367f032d93f642f64180aa3",
        "gas": "0x2f753",
        "value": "0x0",
        "input": "0xb7fa3c2a0000000000000000000000000000000000000000000000000000000000000080000000000000000000000000000000000000000000000000000000000000000200000000000000000000000000000000000000000000000000000000000000c00000000000000000000000003c44cdddb6a900fa2b585dd299e03d12fa4293bc00000000000000000000000000000000000000000000000000000000000000175472616e73706f72746573204672696f457870726573730000000000000000000000000000000000000000000000000000000000000000000000000000000006426f676f74610000000000000000000000000000000000000000000000000000",
        "nonce": "0x10",
        "chainId": "0x7a69"
      },
      "additionalContracts": [],
      "isFixedGasLimit": false
    },
    {
      "hash": "0x56d45089be7b5d12d197bd724911c5b65a81ba382c8a06563709062bdbc8203f",
      "transactionType": "CALL",
      "contractName": null,
      "contractAddress": "0x5fbdb2315678afecb367f032d93f642f64180aa3",
      "function": "registerActor(string,uint8,string,address)",
      "arguments": [
        "Hub Bogota Fontibon",
        "3",
        "Bogota",
        "0x90F79bf6EB2c4f870365E785982E1f101E93b906"
      ],
      "transaction": {
        "from": "0xf39fd6e51aad88f6f4ce6ab8827279cfffb92266",
        "to": "0x5fbdb2315678afecb367f032d93f642f64180aa3",
        "gas": "0x323ca",
        "value": "0x0",
        "input": "0xb7fa3c2a0000000000000000000000000000000000000000000000000000000000000080000000000000000000000000000000000000000000000000000000000000000300000000000000000000000000000000000000000000000000000000000000c000000000000000000000000090f79bf6eb2c4f870365e785982e1f101e93b906000000000000000000000000000000000000000000000000000000000000001348756220426f676f746120466f6e7469626f6e000000000000000000000000000000000000000000000000000000000000000000000000000000000000000006426f676f74610000000000000000000000000000000000000000000000000000",
        "nonce": "0x11",
        "chainId": "0x7a69"
      },
      "additionalContracts": [],
      "isFixedGasLimit": false
    },
    {
      "hash": "0xa16402f2cb7494be5bebc32e1962c5381287fd433a73edfa9df583c9d77c1a45",
      "transactionType": "CALL",
      "contractName": null,
      "contractAddress": "0x5fbdb2315678afecb367f032d93f642f64180aa3",
      "function": "registerActor(string,uint8,string,address)",
      "arguments": [
        "Hub Medellin Itagui",
        "3",
        "Medellin",
        "0x14dC79964da2C08b23698B3D3cc7Ca32193d9955"
      ],
      "transaction": {
        "from": "0xf39fd6e51aad88f6f4ce6ab8827279cfffb92266",
        "to": "0x5fbdb2315678afecb367f032d93f642f64180aa3",
        "gas": "0x323ed",
        "value": "0x0",
        "input": "0xb7fa3c2a0000000000000000000000000000000000000000000000000000000000000080000000000000000000000000000000000000000000000000000000000000000300000000000000000000000000000000000000000000000000000000000000c000000000000000000000000014dc79964da2c08b23698b3d3cc7ca32193d99550000000000000000000000000000000000000000000000000000000000000013487562204d6564656c6c696e204974616775690000000000000000000000000000000000000000000000000000000000000000000000000000000000000000084d6564656c6c696e000000000000000000000000000000000000000000000000",
        "nonce": "0x12",
        "chainId": "0x7a69"
      },
      "additionalContracts": [],
      "isFixedGasLimit": false
    },
    {
      "hash": "0x956cffac25ed5d67d04de596b4e399ebf1c80ac1c80ac2c023b34dd3bad86195",
      "transactionType": "CALL",
      "contractName": null,
      "contractAddress": "0x5fbdb2315678afecb367f032d93f642f64180aa3",
      "function": "registerActor(string,uint8,string,address)",
      "arguments": [
        "Clinica San Rafael",
        "4",
        "Medellin",
        "0x15d34AAf54267DB7D7c367839AAf71A00a2C6A65"
      ],
      "transaction": {
        "from": "0xf39fd6e51aad88f6f4ce6ab8827279cfffb92266",
        "to": "0x5fbdb2315678afecb367f032d93f642f64180aa3",
        "gas": "0x2f733",
        "value": "0x0",
        "input": "0xb7fa3c2a0000000000000000000000000000000000000000000000000000000000000080000000000000000000000000000000000000000000000000000000000000000400000000000000000000000000000000000000000000000000000000000000c000000000000000000000000015d34aaf54267db7d7c367839aaf71a00a2c6a650000000000000000000000000000000000000000000000000000000000000012436c696e6963612053616e2052616661656c000000000000000000000000000000000000000000000000000000000000000000000000000000000000000000084d6564656c6c696e000000000000000000000000000000000000000000000000",
        "nonce": "0x13",
        "chainId": "0x7a69"
      },
      "additionalContracts": [],
      "isFixedGasLimit": false
    },
    {
      "hash": "0xb154c0b3a9c856109980327bdc322bf7107a2fbead68ba5253f7de1938c7602f",
      "transactionType": "CALL",
      "contractName": null,
      "contractAddress": "0x5fbdb2315678afecb367f032d93f642f64180aa3",
      "function": "createShipment(address,string,string,string,bool)",
      "arguments": [
        "0x15d34AAf54267DB7D7c367839AAf71A00a2C6A65",
        "Vacunas COVID-19 Lote VX-2024-089",
        "Bogota",
        "Medellin",
        "true"
      ],
      "transaction": {
        "from": "0x70997970c51812dc3a010c7d01b50e0d17dc79c8",
        "to": "0x5fbdb2315678afecb367f032d93f642f64180aa3",
        "gas": "0x8da0e",
        "value": "0x0",
        "input": "0x475b6f9800000000000000000000000015d34aaf54267db7d7c367839aaf71a00a2c6a6500000000000000000000000000000000000000000000000000000000000000a00000000000000000000000000000000000000000000000000000000000000100000000000000000000000000000000000000000000000000000000000000014000000000000000000000000000000000000000000000000000000000000000010000000000000000000000000000000000000000000000000000000000000021566163756e617320434f5649442d3139204c6f74652056582d323032342d303839000000000000000000000000000000000000000000000000000000000000000000000000000000000000000000000000000000000000000000000000000006426f676f7461000000000000000000000000000000000000000000000000000000000000000000000000000000000000000000000000000000000000000000084d6564656c6c696e000000000000000000000000000000000000000000000000",
        "nonce": "0x2",
        "chainId": "0x7a69"
      },
      "additionalContracts": [],
      "isFixedGasLimit": false
    }
  ],
  "receipts": [
    {
      "status": "0x1",
      "cumulativeGasUsed": "0x225b2",
      "logs": [
        {
          "address": "0x5fbdb2315678afecb367f032d93f642f64180aa3",
          "topics": [
            "0xc9a31de765abe70445345802bee3c96554ca063ab257e3888d498accb859fabc",
            "0x00000000000000000000000070997970c51812dc3a010c7d01b50e0d17dc79c8"
          ],
          "data": "0x0000000000000000000000000000000000000000000000000000000000000040000000000000000000000000000000000000000000000000000000000000000100000000000000000000000000000000000000000000000000000000000000154c61626f7261746f72696f2042696f506861726d610000000000000000000000",
          "blockHash": "0x841f177e640da572a789b94d7e8b0593463bab5fa840d0e6060ea4bc8b8ce0fb",
          "blockNumber": "0x23",
          "blockTimestamp": "0x69d6d26c",
          "transactionHash": "0xcbdc71b5144f9ab8e386dda7b7229953c902419ed2d1f5c5487be058584ffd4e",
          "transactionIndex": "0x0",
          "logIndex": "0x0",
          "removed": false
        }
      ],
      "logsBloom": "0x00000000000000000002000000000000000000000000000000000000000000000000000000000000000000000000000000000000000000000000000000000000000000002100000000000000000000000000000000000000000000000000000000000840000000000000000000000000000000000000000000000000000000000000000000000000000000000000000000010000000000000000000200000000000000000000000000000000000000000000000000000000000000000000000000000040000000000000000000000000000000000000000000000000000000000000000000000000000000000000000001000000000000000000000000000000",
      "type": "0x2",
      "transactionHash": "0xcbdc71b5144f9ab8e386dda7b7229953c902419ed2d1f5c5487be058584ffd4e",
      "transactionIndex": "0x0",
      "blockHash": "0x841f177e640da572a789b94d7e8b0593463bab5fa840d0e6060ea4bc8b8ce0fb",
      "blockNumber": "0x23",
      "gasUsed": "0x225b2",
      "effectiveGasPrice": "0xbf4d86",
      "blobGasPrice": "0x1",
      "from": "0xf39fd6e51aad88f6f4ce6ab8827279cfffb92266",
      "to": "0x5fbdb2315678afecb367f032d93f642f64180aa3",
      "contractAddress": null
    },
    {
      "status": "0x1",
      "cumulativeGasUsed": "0x225be",
      "logs": [
        {
          "address": "0x5fbdb2315678afecb367f032d93f642f64180aa3",
          "topics": [
            "0xc9a31de765abe70445345802bee3c96554ca063ab257e3888d498accb859fabc",
            "0x0000000000000000000000003c44cdddb6a900fa2b585dd299e03d12fa4293bc"
          ],
          "data": "0x0000000000000000000000000000000000000000000000000000000000000040000000000000000000000000000000000000000000000000000000000000000200000000000000000000000000000000000000000000000000000000000000175472616e73706f72746573204672696f45787072657373000000000000000000",
          "blockHash": "0xe78cb623c940dbd066a0813928d507450a2cb5ce4c465568adc0384b1d65b149",
          "blockNumber": "0x24",
          "blockTimestamp": "0x69d6d26c",
          "transactionHash": "0xfb87cbdc82a9fabb3a298db25ffdb82ef1cbc48733aa8ae8155877641fbb0d1e",
          "transactionIndex": "0x0",
          "logIndex": "0x0",
          "removed": false
        }
      ],
      "logsBloom": "0x00000000000000000000000000000000000000000000000000000000000000000000000000000000000000000000000000000000000000000000000000100000000000002100000000000000000000000000000000000000000000000000000000000040000000000000000000000000000800000000000000000000000000000000000000000000000000000000000000010000000000000000000200000000000000000000200000000000000000000000000000000000000000000000000000000040000000000000000000000000000000000000000000000000000000000000000000000000000000000000000000000000000000000000000000000000",
      "type": "0x2",
      "transactionHash": "0xfb87cbdc82a9fabb3a298db25ffdb82ef1cbc48733aa8ae8155877641fbb0d1e",
      "transactionIndex": "0x0",
      "blockHash": "0xe78cb623c940dbd066a0813928d507450a2cb5ce4c465568adc0384b1d65b149",
      "blockNumber": "0x24",
      "gasUsed": "0x225be",
      "effectiveGasPrice": "0xa79d44",
      "blobGasPrice": "0x1",
      "from": "0xf39fd6e51aad88f6f4ce6ab8827279cfffb92266",
      "to": "0x5fbdb2315678afecb367f032d93f642f64180aa3",
      "contractAddress": null
    },
    {
      "status": "0x1",
      "cumulativeGasUsed": "0x2259a",
      "logs": [
        {
          "address": "0x5fbdb2315678afecb367f032d93f642f64180aa3",
          "topics": [
            "0xc9a31de765abe70445345802bee3c96554ca063ab257e3888d498accb859fabc",
            "0x00000000000000000000000090f79bf6eb2c4f870365e785982e1f101e93b906"
          ],
          "data": "0x00000000000000000000000000000000000000000000000000000000000000400000000000000000000000000000000000000000000000000000000000000003000000000000000000000000000000000000000000000000000000000000001348756220426f676f746120466f6e7469626f6e00000000000000000000000000",
          "blockHash": "0x5b793c95c2c16c947b4557dca77e4d82aca3f894fe136117264af37c144775f5",
          "blockNumber": "0x25",
          "blockTimestamp": "0x69d6d26c",
          "transactionHash": "0x56d45089be7b5d12d197bd724911c5b65a81ba382c8a06563709062bdbc8203f",
          "transactionIndex": "0x0",
          "logIndex": "0x0",
          "removed": false
        }
      ],
      "logsBloom": "0x00000000000000000000000000000000000000000000000000000000000000000000000000000000000000000000000000000000000000000000000000000000000000002100000000000000000000000000000000000000000000000000000000000040000000000000000000000000000000000000000000000000000000000000000000000000000000000000000000010000000000000400000200000000000000000000000000000000000000000000000000000000000000000000000000000040000000000000000000000000400000000000000000000000000000000000000000000000000010000000000000000000000000000000000000000000",
      "type": "0x2",
      "transactionHash": "0x56d45089be7b5d12d197bd724911c5b65a81ba382c8a06563709062bdbc8203f",
      "transactionIndex": "0x0",
      "blockHash": "0x5b793c95c2c16c947b4557dca77e4d82aca3f894fe136117264af37c144775f5",
      "blockNumber": "0x25",
      "gasUsed": "0x2259a",
      "effectiveGasPrice": "0x92dbef",
      "blobGasPrice": "0x1",
      "from": "0xf39fd6e51aad88f6f4ce6ab8827279cfffb92266",
      "to": "0x5fbdb2315678afecb367f032d93f642f64180aa3",
      "contractAddress": null
    },
    {
      "status": "0x1",
      "cumulativeGasUsed": "0x225b2",
      "logs": [
        {
          "address": "0x5fbdb2315678afecb367f032d93f642f64180aa3",
          "topics": [
            "0xc9a31de765abe70445345802bee3c96554ca063ab257e3888d498accb859fabc",
            "0x00000000000000000000000014dc79964da2c08b23698b3d3cc7ca32193d9955"
          ],
          "data": "0x000000000000000000000000000000000000000000000000000000000000004000000000000000000000000000000000000000000000000000000000000000030000000000000000000000000000000000000000000000000000000000000013487562204d6564656c6c696e2049746167756900000000000000000000000000",
          "blockHash": "0x11747c0202157612fa733359d4886d1451b62fd80480e0db587bb5436cc5199c",
          "blockNumber": "0x26",
          "blockTimestamp": "0x69d6d26c",
          "transactionHash": "0xa16402f2cb7494be5bebc32e1962c5381287fd433a73edfa9df583c9d77c1a45",
          "transactionIndex": "0x0",
          "logIndex": "0x0",
          "removed": false
        }
      ],
      "logsBloom": "0x00000000000000000000000000000000000000000000000000000000000000000000000000000000000000000000000000000000000000000000000000000000000000002100000000000000000000000000000000000400000000000000000000000040000000000000000000000000000000000000000000000000000000000000000000000000000000000000000000010000000000000000000200000000000000000000000000000000000000002000000000000000000000000000000000000040000000000000000000000000040000000000000000000000000000000000000000000000000000000000000000000000000000000000000000000000",
      "type": "0x2",
      "transactionHash": "0xa16402f2cb7494be5bebc32e1962c5381287fd433a73edfa9df583c9d77c1a45",
      "transactionIndex": "0x0",
      "blockHash": "0x11747c0202157612fa733359d4886d1451b62fd80480e0db587bb5436cc5199c",
      "blockNumber": "0x26",
      "gasUsed": "0x225b2",
      "effectiveGasPrice": "0x80ac86",
      "blobGasPrice": "0x1",
      "from": "0xf39fd6e51aad88f6f4ce6ab8827279cfffb92266",
      "to": "0x5fbdb2315678afecb367f032d93f642f64180aa3",
      "contractAddress": null
    },
    {
      "status": "0x1",
      "cumulativeGasUsed": "0x225a6",
      "logs": [
        {
          "address": "0x5fbdb2315678afecb367f032d93f642f64180aa3",
          "topics": [
            "0xc9a31de765abe70445345802bee3c96554ca063ab257e3888d498accb859fabc",
            "0x00000000000000000000000015d34aaf54267db7d7c367839aaf71a00a2c6a65"
          ],
          "data": "0x000000000000000000000000000000000000000000000000000000000000004000000000000000000000000000000000000000000000000000000000000000040000000000000000000000000000000000000000000000000000000000000012436c696e6963612053616e2052616661656c0000000000000000000000000000",
          "blockHash": "0xeae1a0a84e461af332f483bfe2fd4ee9c2651aaf7570ca3f566a980add59f834",
          "blockNumber": "0x27",
          "blockTimestamp": "0x69d6d26c",
          "transactionHash": "0x956cffac25ed5d67d04de596b4e399ebf1c80ac1c80ac2c023b34dd3bad86195",
          "transactionIndex": "0x0",
          "logIndex": "0x0",
          "removed": false
        }
      ],
      "logsBloom": "0x00000000040000000000000000000000000000000000000000000000000000000000000000000000000000000000000000000000000000000000000000000000000000002100000000000000000000000000000000000000000000000000000000000040000000000000000000000000000000000000000000000000000000000000000000000000000000000000000000010000000000000000000300000000000000000000000000000000000000000000000000000000000000000000000000000040000000000000000000000000000000000000000000000000000004000000000000000000000000000000000000000000000000000000000000000000",
      "type": "0x2",
      "transactionHash": "0x956cffac25ed5d67d04de596b4e399ebf1c80ac1c80ac2c023b34dd3bad86195",
      "transactionIndex": "0x0",
      "blockHash": "0xeae1a0a84e461af332f483bfe2fd4ee9c2651aaf7570ca3f566a980add59f834",
      "blockNumber": "0x27",
      "gasUsed": "0x225a6",
      "effectiveGasPrice": "0x70bd97",
      "blobGasPrice": "0x1",
      "from": "0xf39fd6e51aad88f6f4ce6ab8827279cfffb92266",
      "to": "0x5fbdb2315678afecb367f032d93f642f64180aa3",
      "contractAddress": null
    },
    {
      "status": "0x1",
      "cumulativeGasUsed": "0x60d71",
      "logs": [
        {
          "address": "0x5fbdb2315678afecb367f032d93f642f64180aa3",
          "topics": [
            "0x8fb6b855d6cbdf201f2fcaadbf8c38d36168ff7d2ca865cb2599abcd5a060e8f",
            "0x0000000000000000000000000000000000000000000000000000000000000001",
            "0x00000000000000000000000070997970c51812dc3a010c7d01b50e0d17dc79c8",
            "0x00000000000000000000000015d34aaf54267db7d7c367839aaf71a00a2c6a65"
          ],
          "data": "0x00000000000000000000000000000000000000000000000000000000000000200000000000000000000000000000000000000000000000000000000000000021566163756e617320434f5649442d3139204c6f74652056582d323032342d30383900000000000000000000000000000000000000000000000000000000000000",
          "blockHash": "0x330f7f7aa2e0c792572e82c5de90e9107bf6d22bb623d3fe80e9dbe08fe902f4",
          "blockNumber": "0x28",
          "blockTimestamp": "0x69d6d26c",
          "transactionHash": "0xb154c0b3a9c856109980327bdc322bf7107a2fbead68ba5253f7de1938c7602f",
          "transactionIndex": "0x0",
          "logIndex": "0x0",
          "removed": false
        }
      ],
      "logsBloom": "0x00000000040000000002000000000000000000000000000000000000000000000000000000000000000000000000000000000000000000000000000000040000000000000000000000000000000000000000000000040000000000000000000000000840000000000000000000000000000000000000000000000000000000000000000000000000000000000000000000000200000000000000000300000000000000000000000000000000000000000000000000000000000000000000000000000040000000000000000040000000000000000000000000000000000044000000000000000000000000000000000001004000000000000000000000000000",
      "type": "0x2",
      "transactionHash": "0xb154c0b3a9c856109980327bdc322bf7107a2fbead68ba5253f7de1938c7602f",
      "transactionIndex": "0x0",
      "blockHash": "0x330f7f7aa2e0c792572e82c5de90e9107bf6d22bb623d3fe80e9dbe08fe902f4",
      "blockNumber": "0x28",
      "gasUsed": "0x60d71",
      "effectiveGasPrice": "0x62c7bc",
      "blobGasPrice": "0x1",
      "from": "0x70997970c51812dc3a010c7d01b50e0d17dc79c8",
      "to": "0x5fbdb2315678afecb367f032d93f642f64180aa3",
      "contractAddress": null
    }
  ],
  "libraries": [],
  "pending": [],
  "returns": {},
  "timestamp": 1775686252835,
  "chain": 31337,
  "commit": "b2a9a0b1"
}