{
  "transactions": [
    {
      "hash": "0xb3f777039ebe51bc83268d53a1ac1e734b22ea8cd713e324ee91d4cffcfedd3f",
      "transactionType": "CALL",
      "contractName": null,
      "contractAddress": "0x5fbdb2315678afecb367f032d93f642f64180aa3",
      "function": "registerActor(string,uint8,string,address)",
      "arguments": [
        "Laboratorio BioPharma",
        "1",
        "Bogota",
        "0x70997970C51812dc3A010C7d01b50e0d17dc79C8"
      ],
      "transaction": {
        "from": "0xf39fd6e51aad88f6f4ce6ab8827279cfffb92266",
        "to": "0x5fbdb2315678afecb367f032d93f642f64180aa3",
        "gas": "0x323ed",
        "value": "0x0",
        "input": "0xb7fa3c2a0000000000000000000000000000000000000000000000000000000000000080000000000000000000000000000000000000000000000000000000000000000100000000000000000000000000000000000000000000000000000000000000c000000000000000000000000070997970c51812dc3a010c7d01b50e0d17dc79c800000000000000000000000000000000000000000000000000000000000000154c61626f7261746f72696f2042696f506861726d6100000000000000000000000000000000000000000000000000000000000000000000000000000000000006426f676f74610000000000000000000000000000000000000000000000000000",
        "nonce": "0x2",
        "chainId": "0x7a69"
      },
      "additionalContracts": [],
      "isFixedGasLimit": false
    },
    {
      "hash": "0x483008087298b3dc0b93046e5cd610ddc60e0df1c0735a7fb1863d86a1f13dd9",
      "transactionType": "CALL",
      "contractName": null,
      "contractAddress": "0x5fbdb2315678afecb367f032d93f642f64180aa3",
      "function": "registerActor(string,uint8,string,address)",
      "arguments": [
        "Transportes FrioExpress",
        "2",
        "Bogota",
        "0x3C44CdDdB6a900fa2b585dd299e03d12FA4293BC"
      ],
      "transaction": {
        "from": "0xf39fd6e51aad88f6f4ce6ab8827279cfffb92266",
        "to": "0x5fbdb2315678afecb367f032d93f642f64180aa3",
        "gas": "0x2f753",
        "value": "0x0",
        "input": "0xb7fa3c2a0000000000000000000000000000000000000000000000000000000000000080000000000000000000000000000000000000000000000000000000000000000200000000000000000000000000000000000000000000000000000000000000c00000000000000000000000003c44cdddb6a900fa2b585dd299e03d12fa4293bc00000000000000000000000000000000000000000000000000000000000000175472616e73706f72746573204672696f457870726573730000000000000000000000000000000000000000000000000000000000000000000000000000000006426f676f74610000000000000000000000000000000000000000000000000000",
        "nonce": "0x3",
        "chainId": "0x7a69"
      },
      "additionalContracts": [],
      "isFixedGasLimit": false
    },
    {
      "hash": "0xe641305a009946b608b55145002c949e27c6e5af0d3b800df1173c268973beb7",
      "transactionType": "CALL",
      "contractName": null,
      "contractAddress": "0x5fbdb2315678afecb367f032d93f642f64180aa3",
      "function": "registerActor(string,uint8,string,address)",
      "arguments": [
        "Hub Bogota Fontibon",
        "3",
        "Bogota",
        "0x90F79bf6EB2c4f870365E785982E1f101E93b906"
      ],
      "transaction": {
        "from": "0xf39fd6e51aad88f6f4ce6ab8827279cfffb92266",
        "to": "0x5fbdb2315678afecb367f032d93f642f64180aa3",
        "gas": "0x323ca",
        "value": "0x0",
        "input": "0xb7fa3c2a0000000000000000000000000000000000000000000000000000000000000080000000000000000000000000000000000000000000000000000000000000000300000000000000000000000000000000000000000000000000000000000000c000000000000000000000000090f79bf6eb2c4f870365e785982e1f101e93b906000000000000000000000000000000000000000000000000000000000000001348756220426f676f746120466f6e7469626f6e000000000000000000000000000000000000000000000000000000000000000000000000000000000000000006426f676f74610000000000000000000000000000000000000000000000000000",
        "nonce": "0x4",
        "chainId": "0x7a69"
      },
      "additionalContracts": [],
      "isFixedGasLimit": false
    },
    {
      "hash": "0x84af04d5bfe650ee40c2b23b89e196855cfc6f0c8e83139e47e194f780aac720",
      "transactionType": "CALL",
      "contractName": null,
      "contractAddress": "0x5fbdb2315678afecb367f032d93f642f64180aa3",
      "function": "registerActor(string,uint8,string,address)",
      "arguments": [
        "Hub Medellin Itagui",
        "3",
        "Medellin",
        "0x14dC79964da2C08b23698B3D3cc7Ca32193d9955"
      ],
      "transaction": {
        "from": "0xf39fd6e51aad88f6f4ce6ab8827279cfffb92266",
        "to": "0x5fbdb2315678afecb367f032d93f642f64180aa3",
        "gas": "0x323ed",
        "value": "0x0",
        "input": "0xb7fa3c2a0000000000000000000000000000000000000000000000000000000000000080000000000000000000000000000000000000000000000000000000000000000300000000000000000000000000000000000000000000000000000000000000c000000000000000000000000014dc79964da2c08b23698b3d3cc7ca32193d99550000000000000000000000000000000000000000000000000000000000000013487562204d6564656c6c696e204974616775690000000000000000000000000000000000000000000000000000000000000000000000000000000000000000084d6564656c6c696e000000000000000000000000000000000000000000000000",
        "nonce": "0x5",
        "chainId": "0x7a69"
      },
      "additionalContracts": [],
      "isFixedGasLimit": false
    },
    {
      "hash": "0xb70208dd50cfa6a8956c47f188a52059caa6545ca216b981b152b983692a2cb9",
      "transactionType": "CALL",
      "contractName": null,
      "contractAddress": "0x5fbdb2315678afecb367f032d93f642f64180aa3",
      "function": "registerActor(string,uint8,string,address)",
      "arguments": [
        "Clinica San Rafael",
        "4",
        "Medellin",
        "0x15d34AAf54267DB7D7c367839AAf71A00a2C6A65"
      ],
      "transaction": {
        "from": "0xf39fd6e51aad88f6f4ce6ab8827279cfffb92266",
        "to": "0x5fbdb2315678afecb367f032d93f642f64180aa3",
        "gas": "0x2f733",
        "value": "0x0",
        "input": "0xb7fa3c2a0000000000000000000000000000000000000000000000000000000000000080000000000000000000000000000000000000000000000000000000000000000400000000000000000000000000000000000000000000000000000000000000c000000000000000000000000015d34aaf54267db7d7c367839aaf71a00a2c6a650000000000000000000000000000000000000000000000000000000000000012436c696e6963612053616e2052616661656c000000000000000000000000000000000000000000000000000000000000000000000000000000000000000000084d6564656c6c696e000000000000000000000000000000000000000000000000",
        "nonce": "0x6",
        "chainId": "0x7a69"
      },
      "additionalContracts": [],
      "isFixedGasLimit": false
    },
    {
      "hash": "0xe3ebb03e7d7ef98f4e0ca973bcdb342eb35fba966f3fc70b3841796622ff950b",
      "transactionType": "CALL",
      "contractName": null,
      "contractAddress": "0x5fbdb2315678afecb367f032d93f642f64180aa3",
      "function": "createShipment(address,string,string,string,bool)",
      "arguments": [
        "0x15d34AAf54267DB7D7c367839AAf71A00a2C6A65",
        "Vacunas COVID-19 Lote VX-2024-089",
        "Bogota",
        "Medellin",
        "true"
      ],
      "transaction": {
        "from": "0x70997970c51812dc3a010c7d01b50e0d17dc79c8",
        "to": "0x5fbdb2315678afecb367f032d93f642f64180aa3",
        "gas": "0x8da0e",
        "value": "0x0",
        "input": "0x475b6f9800000000000000000000000015d34aaf54267db7d7c367839aaf71a00a2c6a6500000000000000000000000000000000000000000000000000000000000000a00000000000000000000000000000000000000000000000000000000000000100000000000000000000000000000000000000000000000000000000000000014000000000000000000000000000000000000000000000000000000000000000010000000000000000000000000000000000000000000000000000000000000021566163756e617320434f5649442d3139204c6f74652056582d323032342d303839000000000000000000000000000000000000000000000000000000000000000000000000000000000000000000000000000000000000000000000000000006426f676f7461000000000000000000000000000000000000000000000000000000000000000000000000000000000000000000000000000000000000000000084d6564656c6c696e000000000000000000000000000000000000000000000000",
        "nonce": "0x0",
        "chainId": "0x7a69"
      },
      "additionalContracts": [],
      "isFixedGasLimit": false
    }
  ],
  "receipts": [
    {
      "status": "0x1",
      "cumulativeGasUsed": "0x225b2",
      "logs": [
        {
          "address": "0x5fbdb2315678afecb367f032d93f642f64180aa3",
          "topics": [
            "0xc9a31de765abe70445345802bee3c96554ca063ab257e3888d498accb859fabc",
            "0x00000000000000000000000070997970c51812dc3a010c7d01b50e0d17dc79c8"
          ],
          "data": "0x0000000000000000000000000000000000000000000000000000000000000040000000000000000000000000000000000000000000000000000000000000000100000000000000000000000000000000000000000000000000000000000000154c61626f7261746f72696f2042696f506861726d610000000000000000000000",
          "blockHash": "0x78ea88cde9225fa980d2f6335e9e815f024340858628a1e21fedb40c96ea4a76",
          "blockNumber": "0x3",
          "blockTimestamp": "0x69d6d675",
          "transactionHash": "0xb3f777039ebe51bc83268d53a1ac1e734b22ea8cd713e324ee91d4cffcfedd3f",
          "transactionIndex": "0x0",
          "logIndex": "0x0",
          "removed": false
        }
      ],
      "logsBloom": "0x00000000000000000002000000000000000000000000000000000000000000000000000000000000000000000000000000000000000000000000000000000000000000002100000000000000000000000000000000000000000000000000000000000840000000000000000000000000000000000000000000000000000000000000000000000000000000000000000000010000000000000000000200000000000000000000000000000000000000000000000000000000000000000000000000000040000000000000000000000000000000000000000000000000000000000000000000000000000000000000000001000000000000000000000000000000",
      "type": "0x2",
      "transactionHash": "0xb3f777039ebe51bc83268d53a1ac1e734b22ea8cd713e324ee91d4cffcfedd3f",
      "transactionIndex": "0x0",
      "blockHash": "0x78ea88cde9225fa980d2f6335e9e815f024340858628a1e21fedb40c96ea4a76",
      "blockNumber": "0x3",
      "gasUsed": "0x225b2",
      "effectiveGasPrice": "0x30387178",
      "blobGasPrice": "0x1",
      "from": "0xf39fd6e51aad88f6f4ce6ab8827279cfffb92266",
      "to": "0x5fbdb2315678afecb367f032d93f642f64180aa3",
      "contractAddress": null
    },
    {
      "status": "0x1",
      "cumulativeGasUsed": "0x225be",
      "logs": [
        {
          "address": "0x5fbdb2315678afecb367f032d93f642f64180aa3",
          "topics": [
            "0xc9a31de765abe70445345802bee3c96554ca063ab257e3888d498accb859fabc",
            "0x0000000000000000000000003c44cdddb6a900fa2b585dd299e03d12fa4293bc"
          ],
          "data": "0x0000000000000000000000000000000000000000000000000000000000000040000000000000000000000000000000000000000000000000000000000000000200000000000000000000000000000000000000000000000000000000000000175472616e73706f72746573204672696f45787072657373000000000000000000",
          "blockHash": "0xa6d7721200cd30ce1f244efb205fb7f1c4e424db90bb75273b5974aa26f3059f",
          "blockNumber": "0x4",
          "blockTimestamp": "0x69d6d675",
          "transactionHash": "0x483008087298b3dc0b93046e5cd610ddc60e0df1c0735a7fb1863d86a1f13dd9",
          "transactionIndex": "0x0",
          "logIndex": "0x0",
          "removed": false
        }
      ],
      "logsBloom": "0x00000000000000000000000000000000000000000000000000000000000000000000000000000000000000000000000000000000000000000000000000100000000000002100000000000000000000000000000000000000000000000000000000000040000000000000000000000000000800000000000000000000000000000000000000000000000000000000000000010000000000000000000200000000000000000000200000000000000000000000000000000000000000000000000000000040000000000000000000000000000000000000000000000000000000000000000000000000000000000000000000000000000000000000000000000000",
      "type": "0x2",
      "transactionHash": "0x483008087298b3dc0b93046e5cd610ddc60e0df1c0735a7fb1863d86a1f13dd9",
      "transactionIndex": "0x0",
      "blockHash": "0xa6d7721200cd30ce1f244efb205fb7f1c4e424db90bb75273b5974aa26f3059f",
      "blockNumber": "0x4",
      "gasUsed": "0x225be",
      "effectiveGasPrice": "0x2a3fdd2d",
      "blobGasPrice": "0x1",
      "from": "0xf39fd6e51aad88f6f4ce6ab8827279cfffb92266",
      "to": "0x5fbdb2315678afecb367f032d93f642f64180aa3",
      "contractAddress": null
    },
    {
      "status": "0x1",
      "cumulativeGasUsed": "0x2259a",
      "logs": [
        {
          "address": "0x5fbdb2315678afecb367f032d93f642f64180aa3",
          "topics": [
            "0xc9a31de765abe70445345802bee3c96554ca063ab257e3888d498accb859fabc",
            "0x00000000000000000000000090f79bf6eb2c4f870365e785982e1f101e93b906"
          ],
          "data": "0x00000000000000000000000000000000000000000000000000000000000000400000000000000000000000000000000000000000000000000000000000000003000000000000000000000000000000000000000000000000000000000000001348756220426f676f746120466f6e7469626f6e00000000000000000000000000",
          "blockHash": "0x2f331f668651c67b181439981ad3f564bbe8b592ffbaf2a075c01d7778885cce",
          "blockNumber": "0x5",
          "blockTimestamp": "0x69d6d675",
          "transactionHash": "0xe641305a009946b608b55145002c949e27c6e5af0d3b800df1173c268973beb7",
          "transactionIndex": "0x0",
          "logIndex": "0x0",
          "removed": false
        }
      ],
      "logsBloom": "0x00000000000000000000000000000000000000000000000000000000000000000000000000000000000000000000000000000000000000000000000000000000000000002100000000000000000000000000000000000000000000000000000000000040000000000000000000000000000000000000000000000000000000000000000000000000000000000000000000010000000000000400000200000000000000000000000000000000000000000000000000000000000000000000000000000040000000000000000000000000400000000000000000000000000000000000000000000000000010000000000000000000000000000000000000000000",
      "type": "0x2",
      "transactionHash": "0xe641305a009946b608b55145002c949e27c6e5af0d3b800df1173c268973beb7",
      "transactionIndex": "0x0",
      "blockHash": "0x2f331f668651c67b181439981ad3f564bbe8b592ffbaf2a075c01d7778885cce",
      "blockNumber": "0x5",
      "gasUsed": "0x2259a",
      "effectiveGasPrice": "0x250490ce",
      "blobGasPrice": "0x1",
      "from": "0xf39fd6e51aad88f6f4ce6ab8827279cfffb92266",
      "to": "0x5fbdb2315678afecb367f032d93f642f64180aa3",
      "contractAddress": null
    },
    {
      "status": "0x1",
      "cumulativeGasUsed": "0x225b2",
      "logs": [
        {
          "address": "0x5fbdb2315678afecb367f032d93f642f64180aa3",
          "topics": [
            "0xc9a31de765abe70445345802bee3c96554ca063ab257e3888d498accb859fabc",
            "0x00000000000000000000000014dc79964da2c08b23698b3d3cc7ca32193d9955"
          ],
          "data": "0x000000000000000000000000000000000000000000000000000000000000004000000000000000000000000000000000000000000000000000000000000000030000000000000000000000000000000000000000000000000000000000000013487562204d6564656c6c696e2049746167756900000000000000000000000000",
          "blockHash": "0x904673d85e5b450857046e576752ba629165a40f76b6bc2c2fde7e983f6c7818",
          "blockNumber": "0x6",
          "blockTimestamp": "0x69d6d675",
          "transactionHash": "0x84af04d5bfe650ee40c2b23b89e196855cfc6f0c8e83139e47e194f780aac720",
          "transactionIndex": "0x0",
          "logIndex": "0x0",
          "removed": false
        }
      ],
      "logsBloom": "0x00000000000000000000000000000000000000000000000000000000000000000000000000000000000000000000000000000000000000000000000000000000000000002100000000000000000000000000000000000400000000000000000000000040000000000000000000000000000000000000000000000000000000000000000000000000000000000000000000010000000000000000000200000000000000000000000000000000000000002000000000000000000000000000000000000040000000000000000000000000040000000000000000000000000000000000000000000000000000000000000000000000000000000000000000000000",
      "type": "0x2",
      "transactionHash": "0x84af04d5bfe650ee40c2b23b89e196855cfc6f0c8e83139e47e194f780aac720",
      "transactionIndex": "0x0",
      "blockHash": "0x904673d85e5b450857046e576752ba629165a40f76b6bc2c2fde7e983f6c7818",
      "blockNumber": "0x6",
      "gasUsed": "0x225b2",
      "effectiveGasPrice": "0x206f1b27",
      "blobGasPrice": "0x1",
      "from": "0xf39fd6e51aad88f6f4ce6ab8827279cfffb92266",
      "to": "0x5fbdb2315678afecb367f032d93f642f64180aa3",
      "contractAddress": null
    },
    {
      "status": "0x1",
      "cumulativeGasUsed": "0x225a6",
      "logs": [
        {
          "address": "0x5fbdb2315678afecb367f032d93f642f64180aa3",
          "topics": [
            "0xc9a31de765abe70445345802bee3c96554ca063ab257e3888d498accb859fabc",
            "0x00000000000000000000000015d34aaf54267db7d7c367839aaf71a00a2c6a65"
          ],
          "data": "0x000000000000000000000000000000000000000000000000000000000000004000000000000000000000000000000000000000000000000000000000000000040000000000000000000000000000000000000000000000000000000000000012436c696e6963612053616e2052616661656c0000000000000000000000000000",
          "blockHash": "0x4ad9bde164cce8f4504100dd46471faaa66cef097bbcfbcadc4f616df85806be",
          "blockNumber": "0x7",
          "blockTimestamp": "0x69d6d675",
          "transactionHash": "0xb70208dd50cfa6a8956c47f188a52059caa6545ca216b981b152b983692a2cb9",
          "transactionIndex": "0x0",
          "logIndex": "0x0",
          "removed": false
        }
      ],
      "logsBloom": "0x00000000040000000000000000000000000000000000000000000000000000000000000000000000000000000000000000000000000000000000000000000000000000002100000000000000000000000000000000000000000000000000000000000040000000000000000000000000000000000000000000000000000000000000000000000000000000000000000000010000000000000000000300000000000000000000000000000000000000000000000000000000000000000000000000000040000000000000000000000000000000000000000000000000000004000000000000000000000000000000000000000000000000000000000000000000",
      "type": "0x2",
      "transactionHash": "0xb70208dd50cfa6a8956c47f188a52059caa6545ca216b981b152b983692a2cb9",
      "transactionIndex": "0x0",
      "blockHash": "0x4ad9bde164cce8f4504100dd46471faaa66cef097bbcfbcadc4f616df85806be",
      "blockNumber": "0x7",
      "gasUsed": "0x225a6",
      "effectiveGasPrice": "0x1c6af469",
      "blobGasPrice": "0x1",
      "from": "0xf39fd6e51aad88f6f4ce6ab8827279cfffb92266",
      "to": "0x5fbdb2315678afecb367f032d93f642f64180aa3",
      "contractAddress": null
    },
    {
      "status": "0x1",
      "cumulativeGasUsed": "0x60d71",
      "logs": [
        {
          "address": "0x5fbdb2315678afecb367f032d93f642f64180aa3",
          "topics": [
            "0x8fb6b855d6cbdf201f2fcaadbf8c38d36168ff7d2ca865cb2599abcd5a060e8f",
            "0x0000000000000000000000000000000000000000000000000000000000000001",
            "0x00000000000000000000000070997970c51812dc3a010c7d01b50e0d17dc79c8",
            "0x00000000000000000000000015d34aaf54267db7d7c367839aaf71a00a2c6a65"
          ],
          "data": "0x00000000000000000000000000000000000000000000000000000000000000200000000000000000000000000000000000000000000000000000000000000021566163756e617320434f5649442d3139204c6f74652056582d323032342d30383900000000000000000000000000000000000000000000000000000000000000",
          "blockHash": "0x93e51220f0deaf3760c815c6ee506bf58b7b0607bf7f7bc3f3631d5e6aaffd18",
          "blockNumber": "0x8",
          "blockTimestamp": "0x69d6d675",
          "transactionHash": "0xe3ebb03e7d7ef98f4e0ca973bcdb342eb35fba966f3fc70b3841796622ff950b",
          "transactionIndex": "0x0",
          "logIndex": "0x0",
          "removed": false
        }
      ],
      "logsBloom": "0x00000000040000000002000000000000000000000000000000000000000000000000000000000000000000000000000000000000000000000000000000040000000000000000000000000000000000000000000000040000000000000000000000000840000000000000000000000000000000000000000000000000000000000000000000000000000000000000000000000200000000000000000300000000000000000000000000000000000000000000000000000000000000000000000000000040000000000000000040000000000000000000000000000000000044000000000000000000000000000000000001004000000000000000000000000000",
      "type": "0x2",
      "transactionHash": "0xe3ebb03e7d7ef98f4e0ca973bcdb342eb35fba966f3fc70b3841796622ff950b",
      "transactionIndex": "0x0",
      "blockHash": "0x93e51220f0deaf3760c815c6ee506bf58b7b0607bf7f7bc3f3631d5e6aaffd18",
      "blockNumber": "0x8",
      "gasUsed": "0x60d71",
      "effectiveGasPrice": "0x18e61dab",
      "blobGasPrice": "0x1",
      "from": "0x70997970c51812dc3a010c7d01b50e0d17dc79c8",
      "to": "0x5fbdb2315678afecb367f032d93f642f64180aa3",
      "contractAddress": null
    }
  ],
  "libraries": [],
  "pending": [],
  "returns": {},
  "timestamp": 1775687285674,
  "chain": 31337,
  "commit": "b2a9a0b1"
}