{
  "transactions": [
    {
      "hash": "0xa085dbafa7484c89030bf588bddefc9d2686128869f4f96e8f7901ef3f0eece4",
      "transactionType": "CALL",
      "contractName": null,
      "contractAddress": "0x5fbdb2315678afecb367f032d93f642f64180aa3",
      "function": "registerActor(string,uint8,string,address)",
      "arguments": [
        "Laboratorio BioPharma",
        "1",
        "Bogota",
        "0x70997970C51812dc3A010C7d01b50e0d17dc79C8"
      ],
      "transaction": {
        "from": "0xf39fd6e51aad88f6f4ce6ab8827279cfffb92266",
        "to": "0x5fbdb2315678afecb367f032d93f642f64180aa3",
        "gas": "0x323ed",
        "value": "0x0",
        "input": "0xb7fa3c2a0000000000000000000000000000000000000000000000000000000000000080000000000000000000000000000000000000000000000000000000000000000100000000000000000000000000000000000000000000000000000000000000c000000000000000000000000070997970c51812dc3a010c7d01b50e0d17dc79c800000000000000000000000000000000000000000000000000000000000000154c61626f7261746f72696f2042696f506861726d6100000000000000000000000000000000000000000000000000000000000000000000000000000000000006426f676f74610000000000000000000000000000000000000000000000000000",
        "nonce": "0x1",
        "chainId": "0x7a69"
      },
      "additionalContracts": [],
      "isFixedGasLimit": false
    },
    {
      "hash": "0xb9eedee3f3d1ccd4580ab5af0823dc82c8ae81f1eb7d1adb02e16c7a5205f193",
      "transactionType": "CALL",
      "contractName": null,
      "contractAddress": "0x5fbdb2315678afecb367f032d93f642f64180aa3",
      "function": "registerActor(string,uint8,string,address)",
      "arguments": [
        "Transportes FrioExpress",
        "2",
        "Bogota",
        "0x3C44CdDdB6a900fa2b585dd299e03d12FA4293BC"
      ],
      "transaction": {
        "from": "0xf39fd6e51aad88f6f4ce6ab8827279cfffb92266",
        "to": "0x5fbdb2315678afecb367f032d93f642f64180aa3",
        "gas": "0x2f753",
        "value": "0x0",
        "input": "0xb7fa3c2a0000000000000000000000000000000000000000000000000000000000000080000000000000000000000000000000000000000000000000000000000000000200000000000000000000000000000000000000000000000000000000000000c00000000000000000000000003c44cdddb6a900fa2b585dd299e03d12fa4293bc00000000000000000000000000000000000000000000000000000000000000175472616e73706f72746573204672696f457870726573730000000000000000000000000000000000000000000000000000000000000000000000000000000006426f676f74610000000000000000000000000000000000000000000000000000",
        "nonce": "0x2",
        "chainId": "0x7a69"
      },
      "additionalContracts": [],
      "isFixedGasLimit": false
    },
    {
      "hash": "0x687648a861907adac994f801a86c76a391c98dc68676a05dc4fd3e67467a1217",
      "transactionType": "CALL",
      "contractName": null,
      "contractAddress": "0x5fbdb2315678afecb367f032d93f642f64180aa3",
      "function": "registerActor(string,uint8,string,address)",
      "arguments": [
        "Hub Bogota Fontibon",
        "3",
        "Bogota",
        "0x90F79bf6EB2c4f870365E785982E1f101E93b906"
      ],
      "transaction": {
        "from": "0xf39fd6e51aad88f6f4ce6ab8827279cfffb92266",
        "to": "0x5fbdb2315678afecb367f032d93f642f64180aa3",
        "gas": "0x323ca",
        "value": "0x0",
        "input": "0xb7fa3c2a0000000000000000000000000000000000000000000000000000000000000080000000000000000000000000000000000000000000000000000000000000000300000000000000000000000000000000000000000000000000000000000000c000000000000000000000000090f79bf6eb2c4f870365e785982e1f101e93b906000000000000000000000000000000000000000000000000000000000000001348756220426f676f746120466f6e7469626f6e000000000000000000000000000000000000000000000000000000000000000000000000000000000000000006426f676f74610000000000000000000000000000000000000000000000000000",
        "nonce": "0x3",
        "chainId": "0x7a69"
      },
      "additionalContracts": [],
      "isFixedGasLimit": false
    },
    {
      "hash": "0xf924d727f95a8257ff61102d10399daeafd23758a529bb3b4aab3e7ac636a889",
      "transactionType": "CALL",
      "contractName": null,
      "contractAddress": "0x5fbdb2315678afecb367f032d93f642f64180aa3",
      "function": "registerActor(string,uint8,string,address)",
      "arguments": [
        "Hub Medellin Itagui",
        "3",
        "Medellin",
        "0x14dC79964da2C08b23698B3D3cc7Ca32193d9955"
      ],
      "transaction": {
        "from": "0xf39fd6e51aad88f6f4ce6ab8827279cfffb92266",
        "to": "0x5fbdb2315678afecb367f032d93f642f64180aa3",
        "gas": "0x323ed",
        "value": "0x0",
        "input": "0xb7fa3c2a0000000000000000000000000000000000000000000000000000000000000080000000000000000000000000000000000000000000000000000000000000000300000000000000000000000000000000000000000000000000000000000000c000000000000000000000000014dc79964da2c08b23698b3d3cc7ca32193d99550000000000000000000000000000000000000000000000000000000000000013487562204d6564656c6c696e204974616775690000000000000000000000000000000000000000000000000000000000000000000000000000000000000000084d6564656c6c696e000000000000000000000000000000000000000000000000",
        "nonce": "0x4",
        "chainId": "0x7a69"
      },
      "additionalContracts": [],
      "isFixedGasLimit": false
    },
    {
      "hash": "0xbbf13b1cd0bfc0cf1788395b730b464a83b7703a06fd894d5d190c776452ccf8",
      "transactionType": "CALL",
      "contractName": null,
      "contractAddress": "0x5fbdb2315678afecb367f032d93f642f64180aa3",
      "function": "registerActor(string,uint8,string,address)",
      "arguments": [
        "Clinica San Rafael",
        "4",
        "Medellin",
        "0x15d34AAf54267DB7D7c367839AAf71A00a2C6A65"
      ],
      "transaction": {
        "from": "0xf39fd6e51aad88f6f4ce6ab8827279cfffb92266",
        "to": "0x5fbdb2315678afecb367f032d93f642f64180aa3",
        "gas": "0x2f733",
        "value": "0x0",
        "input": "0xb7fa3c2a0000000000000000000000000000000000000000000000000000000000000080000000000000000000000000000000000000000000000000000000000000000400000000000000000000000000000000000000000000000000000000000000c000000000000000000000000015d34aaf54267db7d7c367839aaf71a00a2c6a650000000000000000000000000000000000000000000000000000000000000012436c696e6963612053616e2052616661656c000000000000000000000000000000000000000000000000000000000000000000000000000000000000000000084d6564656c6c696e000000000000000000000000000000000000000000000000",
        "nonce": "0x5",
        "chainId": "0x7a69"
      },
      "additionalContracts": [],
      "isFixedGasLimit": false
    },
    {
      "hash": "0xa2d9aecbba9a0804cbd2e1618b2014ab664a6b23fc3075680cb6633dde1c9b29",
      "transactionType": "CALL",
      "contractName": null,
      "contractAddress": "0x5fbdb2315678afecb367f032d93f642f64180aa3",
      "function": "createShipment(address,string,string,string,bool)",
      "arguments": [
        "0x15d34AAf54267DB7D7c367839AAf71A00a2C6A65",
        "Vacunas COVID-19 Lote VX-2024-089",
        "Bogota",
        "Medellin",
        "true"
      ],
      "transaction": {
        "from": "0x70997970c51812dc3a010c7d01b50e0d17dc79c8",
        "to": "0x5fbdb2315678afecb367f032d93f642f64180aa3",
        "gas": "0x8da0e",
        "value": "0x0",
        "input": "0x475b6f9800000000000000000000000015d34aaf54267db7d7c367839aaf71a00a2c6a6500000000000000000000000000000000000000000000000000000000000000a00000000000000000000000000000000000000000000000000000000000000100000000000000000000000000000000000000000000000000000000000000014000000000000000000000000000000000000000000000000000000000000000010000000000000000000000000000000000000000000000000000000000000021566163756e617320434f5649442d3139204c6f74652056582d323032342d303839000000000000000000000000000000000000000000000000000000000000000000000000000000000000000000000000000000000000000000000000000006426f676f7461000000000000000000000000000000000000000000000000000000000000000000000000000000000000000000000000000000000000000000084d6564656c6c696e000000000000000000000000000000000000000000000000",
        "nonce": "0x0",
        "chainId": "0x7a69"
      },
      "additionalContracts": [],
      "isFixedGasLimit": false
    }
  ],
  "receipts": [
    {
      "status": "0x1",
      "cumulativeGasUsed": "0x225b2",
      "logs": [
        {
          "address": "0x5fbdb2315678afecb367f032d93f642f64180aa3",
          "topics": [
            "0xc9a31de765abe70445345802bee3c96554ca063ab257e3888d498accb859fabc",
            "0x00000000000000000000000070997970c51812dc3a010c7d01b50e0d17dc79c8"
          ],
          "data": "0x0000000000000000000000000000000000000000000000000000000000000040000000000000000000000000000000000000000000000000000000000000000100000000000000000000000000000000000000000000000000000000000000154c61626f7261746f72696f2042696f506861726d610000000000000000000000",
          "blockHash": "0xb02a073f59251dc507ee279ff7e751a90d999c87f842fb8cfda14d210c433e28",
          "blockNumber": "0x2",
          "blockTimestamp": "0x69c6f1ca",
          "transactionHash": "0xa085dbafa7484c89030bf588bddefc9d2686128869f4f96e8f7901ef3f0eece4",
          "transactionIndex": "0x0",
          "logIndex": "0x0",
          "removed": false
        }
      ],
      "logsBloom": "0x00000000000000000002000000000000000000000000000000000000000000000000000000000000000000000000000000000000000000000000000000000000000000002100000000000000000000000000000000000000000000000000000000000840000000000000000000000000000000000000000000000000000000000000000000000000000000000000000000010000000000000000000200000000000000000000000000000000000000000000000000000000000000000000000000000040000000000000000000000000000000000000000000000000000000000000000000000000000000000000000001000000000000000000000000000000",
      "type": "0x2",
      "transactionHash": "0xa085dbafa7484c89030bf588bddefc9d2686128869f4f96e8f7901ef3f0eece4",
      "transactionIndex": "0x0",
      "blockHash": "0xb02a073f59251dc507ee279ff7e751a90d999c87f842fb8cfda14d210c433e28",
      "blockNumber": "0x2",
      "gasUsed": "0x225b2",
      "effectiveGasPrice": "0x35981c05",
      "blobGasPrice": "0x1",
      "from": "0xf39fd6e51aad88f6f4ce6ab8827279cfffb92266",
      "to": "0x5fbdb2315678afecb367f032d93f642f64180aa3",
      "contractAddress": null
    },
    {
      "status": "0x1",
      "cumulativeGasUsed": "0x225be",
      "logs": [
        {
          "address": "0x5fbdb2315678afecb367f032d93f642f64180aa3",
          "topics": [
            "0xc9a31de765abe70445345802bee3c96554ca063ab257e3888d498accb859fabc",
            "0x0000000000000000000000003c44cdddb6a900fa2b585dd299e03d12fa4293bc"
          ],
          "data": "0x0000000000000000000000000000000000000000000000000000000000000040000000000000000000000000000000000000000000000000000000000000000200000000000000000000000000000000000000000000000000000000000000175472616e73706f72746573204672696f45787072657373000000000000000000",
          "blockHash": "0x5046c4a6a31afeb0739a9663bbaabce75dc1e955c7ceba75e0abeb20e141818d",
          "blockNumber": "0x3",
          "blockTimestamp": "0x69c6f1ca",
          "transactionHash": "0xb9eedee3f3d1ccd4580ab5af0823dc82c8ae81f1eb7d1adb02e16c7a5205f193",
          "transactionIndex": "0x0",
          "logIndex": "0x0",
          "removed": false
        }
      ],
      "logsBloom": "0x00000000000000000000000000000000000000000000000000000000000000000000000000000000000000000000000000000000000000000000000000100000000000002100000000000000000000000000000000000000000000000000000000000040000000000000000000000000000800000000000000000000000000000000000000000000000000000000000000010000000000000000000200000000000000000000200000000000000000000000000000000000000000000000000000000040000000000000000000000000000000000000000000000000000000000000000000000000000000000000000000000000000000000000000000000000",
      "type": "0x2",
      "transactionHash": "0xb9eedee3f3d1ccd4580ab5af0823dc82c8ae81f1eb7d1adb02e16c7a5205f193",
      "transactionIndex": "0x0",
      "blockHash": "0x5046c4a6a31afeb0739a9663bbaabce75dc1e955c7ceba75e0abeb20e141818d",
      "blockNumber": "0x3",
      "gasUsed": "0x225be",
      "effectiveGasPrice": "0x2ef52f64",
      "blobGasPrice": "0x1",
      "from": "0xf39fd6e51aad88f6f4ce6ab8827279cfffb92266",
      "to": "0x5fbdb2315678afecb367f032d93f642f64180aa3",
      "contractAddress": null
    },
    {
      "status": "0x1",
      "cumulativeGasUsed": "0x2259a",
      "logs": [
        {
          "address": "0x5fbdb2315678afecb367f032d93f642f64180aa3",
          "topics": [
            "0xc9a31de765abe70445345802bee3c96554ca063ab257e3888d498accb859fabc",
            "0x00000000000000000000000090f79bf6eb2c4f870365e785982e1f101e93b906"
          ],
          "data": "0x00000000000000000000000000000000000000000000000000000000000000400000000000000000000000000000000000000000000000000000000000000003000000000000000000000000000000000000000000000000000000000000001348756220426f676f746120466f6e7469626f6e00000000000000000000000000",
          "blockHash": "0x3e2fadcd5ad5eb23bab5ac00b88f405d7f77a6671b7a05b72246cd9b9a8f20d4",
          "blockNumber": "0x4",
          "blockTimestamp": "0x69c6f1ca",
          "transactionHash": "0x687648a861907adac994f801a86c76a391c98dc68676a05dc4fd3e67467a1217",
          "transactionIndex": "0x0",
          "logIndex": "0x0",
          "removed": false
        }
      ],
      "logsBloom": "0x00000000000000000000000000000000000000000000000000000000000000000000000000000000000000000000000000000000000000000000000000000000000000002100000000000000000000000000000000000000000000000000000000000040000000000000000000000000000000000000000000000000000000000000000000000000000000000000000000010000000000000400000200000000000000000000000000000000000000000000000000000000000000000000000000000040000000000000000000000000400000000000000000000000000000000000000000000000000010000000000000000000000000000000000000000000",
      "type": "0x2",
      "transactionHash": "0x687648a861907adac994f801a86c76a391c98dc68676a05dc4fd3e67467a1217",
      "transactionIndex": "0x0",
      "blockHash": "0x3e2fadcd5ad5eb23bab5ac00b88f405d7f77a6671b7a05b72246cd9b9a8f20d4",
      "blockNumber": "0x4",
      "gasUsed": "0x2259a",
      "effectiveGasPrice": "0x2924a29f",
      "blobGasPrice": "0x1",
      "from": "0xf39fd6e51aad88f6f4ce6ab8827279cfffb92266",
      "to": "0x5fbdb2315678afecb367f032d93f642f64180aa3",
      "contractAddress": null
    },
    {
      "status": "0x1",
      "cumulativeGasUsed": "0x225b2",
      "logs": [
        {
          "address": "0x5fbdb2315678afecb367f032d93f642f64180aa3",
          "topics": [
            "0xc9a31de765abe70445345802bee3c96554ca063ab257e3888d498accb859fabc",
            "0x00000000000000000000000014dc79964da2c08b23698b3d3cc7ca32193d9955"
          ],
          "data": "0x000000000000000000000000000000000000000000000000000000000000004000000000000000000000000000000000000000000000000000000000000000030000000000000000000000000000000000000000000000000000000000000013487562204d6564656c6c696e2049746167756900000000000000000000000000",
          "blockHash": "0x1680227b1d401a76a93c7cad65c538b76bcfb58102439b0ea33a526e337aa8f4",
          "blockNumber": "0x5",
          "blockTimestamp": "0x69c6f1ca",
          "transactionHash": "0xf924d727f95a8257ff61102d10399daeafd23758a529bb3b4aab3e7ac636a889",
          "transactionIndex": "0x0",
          "logIndex": "0x0",
          "removed": false
        }
      ],
      "logsBloom": "0x00000000000000000000000000000000000000000000000000000000000000000000000000000000000000000000000000000000000000000000000000000000000000002100000000000000000000000000000000000400000000000000000000000040000000000000000000000000000000000000000000000000000000000000000000000000000000000000000000010000000000000000000200000000000000000000000000000000000000002000000000000000000000000000000000000040000000000000000000000000040000000000000000000000000000000000000000000000000000000000000000000000000000000000000000000000",
      "type": "0x2",
      "transactionHash": "0xf924d727f95a8257ff61102d10399daeafd23758a529bb3b4aab3e7ac636a889",
      "transactionIndex": "0x0",
      "blockHash": "0x1680227b1d401a76a93c7cad65c538b76bcfb58102439b0ea33a526e337aa8f4",
      "blockNumber": "0x5",
      "gasUsed": "0x225b2",
      "effectiveGasPrice": "0x240c67ba",
      "blobGasPrice": "0x1",
      "from": "0xf39fd6e51aad88f6f4ce6ab8827279cfffb92266",
      "to": "0x5fbdb2315678afecb367f032d93f642f64180aa3",
      "contractAddress": null
    },
    {
      "status": "0x1",
      "cumulativeGasUsed": "0x225a6",
      "logs": [
        {
          "address": "0x5fbdb2315678afecb367f032d93f642f64180aa3",
          "topics": [
            "0xc9a31de765abe70445345802bee3c96554ca063ab257e3888d498accb859fabc",
            "0x00000000000000000000000015d34aaf54267db7d7c367839aaf71a00a2c6a65"
          ],
          "data": "0x000000000000000000000000000000000000000000000000000000000000004000000000000000000000000000000000000000000000000000000000000000040000000000000000000000000000000000000000000000000000000000000012436c696e6963612053616e2052616661656c0000000000000000000000000000",
          "blockHash": "0x345b046381326eb6958e0a5ff17a70687c2f5ab6ef5c17a54e07018156fc3e71",
          "blockNumber": "0x6",
          "blockTimestamp": "0x69c6f1ca",
          "transactionHash": "0xbbf13b1cd0bfc0cf1788395b730b464a83b7703a06fd894d5d190c776452ccf8",
          "transactionIndex": "0x0",
          "logIndex": "0x0",
          "removed": false
        }
      ],
      "logsBloom": "0x00000000040000000000000000000000000000000000000000000000000000000000000000000000000000000000000000000000000000000000000000000000000000002100000000000000000000000000000000000000000000000000000000000040000000000000000000000000000000000000000000000000000000000000000000000000000000000000000000010000000000000000000300000000000000000000000000000000000000000000000000000000000000000000000000000040000000000000000000000000000000000000000000000000000004000000000000000000000000000000000000000000000000000000000000000000",
      "type": "0x2",
      "transactionHash": "0xbbf13b1cd0bfc0cf1788395b730b464a83b7703a06fd894d5d190c776452ccf8",
      "transactionIndex": "0x0",
      "blockHash": "0x345b046381326eb6958e0a5ff17a70687c2f5ab6ef5c17a54e07018156fc3e71",
      "blockNumber": "0x6",
      "gasUsed": "0x225a6",
      "effectiveGasPrice": "0x1f95ad32",
      "blobGasPrice": "0x1",
      "from": "0xf39fd6e51aad88f6f4ce6ab8827279cfffb92266",
      "to": "0x5fbdb2315678afecb367f032d93f642f64180aa3",
      "contractAddress": null
    },
    {
      "status": "0x1",
      "cumulativeGasUsed": "0x60d71",
      "logs": [
        {
          "address": "0x5fbdb2315678afecb367f032d93f642f64180aa3",
          "topics": [
            "0x8fb6b855d6cbdf201f2fcaadbf8c38d36168ff7d2ca865cb2599abcd5a060e8f",
            "0x0000000000000000000000000000000000000000000000000000000000000001",
            "0x00000000000000000000000070997970c51812dc3a010c7d01b50e0d17dc79c8",
            "0x00000000000000000000000015d34aaf54267db7d7c367839aaf71a00a2c6a65"
          ],
          "data": "0x00000000000000000000000000000000000000000000000000000000000000200000000000000000000000000000000000000000000000000000000000000021566163756e617320434f5649442d3139204c6f74652056582d323032342d30383900000000000000000000000000000000000000000000000000000000000000",
          "blockHash": "0xfeb8bfdda2f78caec9dceb4a6b3557469c1bf310aa7832a751ffde491af37f71",
          "blockNumber": "0x7",
          "blockTimestamp": "0x69c6f1ca",
          "transactionHash": "0xa2d9aecbba9a0804cbd2e1618b2014ab664a6b23fc3075680cb6633dde1c9b29",
          "transactionIndex": "0x0",
          "logIndex": "0x0",
          "removed": false
        }
      ],
      "logsBloom": "0x00000000040000000002000000000000000000000000000000000000000000000000000000000000000000000000000000000000000000000000000000040000000000000000000000000000000000000000000000040000000000000000000000000840000000000000000000000000000000000000000000000000000000000000000000000000000000000000000000000200000000000000000300000000000000000000000000000000000000000000000000000000000000000000000000000040000000000000000040000000000000000000000000000000000044000000000000000000000000000000000001004000000000000000000000000000",
      "type": "0x2",
      "transactionHash": "0xa2d9aecbba9a0804cbd2e1618b2014ab664a6b23fc3075680cb6633dde1c9b29",
      "transactionIndex": "0x0",
      "blockHash": "0xfeb8bfdda2f78caec9dceb4a6b3557469c1bf310aa7832a751ffde491af37f71",
      "blockNumber": "0x7",
      "gasUsed": "0x60d71",
      "effectiveGasPrice": "0x1bac72b8",
      "blobGasPrice": "0x1",
      "from": "0x70997970c51812dc3a010c7d01b50e0d17dc79c8",
      "to": "0x5fbdb2315678afecb367f032d93f642f64180aa3",
      "contractAddress": null
    }
  ],
  "libraries": [],
  "pending": [],
  "returns": {},
  "timestamp": 1774645706740,
  "chain": 31337,
  "commit": "5ba7abf6"
}